:020000041102E7
:1000000003B40148019001BD75A9000003B4014883
:10001000019001BDA93C000003B40148019001BD5D
:100020009DA9000003B40148019001BD7545FF1F63
:1000300003B40148019001BDC160FF1F03B4014832
:10004000019001BDADAE000003B40148019001BDB7
:10005000456B010003B40148019001BDE94C01006A
:1000600003B40148019001BDCD4C010003B4014827
:10007000019001BDB30E000003B40148019001BD21
:10008000AD7AFF1F03B40148019001BD4949FF1F2C
:1000900003B40148019001BD2159FF1F03B4014879
:1000A000019001BD7949FF1F03B40148019001BDD2
:1000B0000D52010003B40148019001BD810E000002
:1000C00003B40148019001BD4982FF1F03B40148F8
:1000D000019001BDD14FFF1F03B40148019001BD44
:1000E000B30E000003B40148019001BDAD4FFF1FE6
:1000F00003B40148019001BDB581FF1F03B401485D
:10010000019001BDE581FF1F03B40148019001BDCD
:100110006982FF1F03B40148019001BD299FFF1FA1
:1001200003B40148019001BDD70E000003B401489B
:10013000019001BD154D010003B40148019001BDBE
:100140001D4B010003B40148019001BD618900000D
:1001500003B40148019001BDF54E010003B401480C
:10016000019001BD434D010003B40148019001BD60
:100170002526000003B40148019001BD8B52010007
:1001800003B40148019001BDB352010003B401481A
:10019000019001BDC94A010003B40148019001BDAD
:1001A000014C010003B40148019001BDF94C01006C
:1001B00003B40148019001BD691F000003B4014868
:1001C000019001BD5D17000003B40148019001BD1D
:1001D0003D4B010003B40148019001BD595201009B
:1001E00003B40148019001BD5125000003B401484A
:1001F000019001BD594F010003B40148019001BDB8
:100200008D12000003B40148019001BD4D1F000094
:1002100003B40148019001BD5522000003B4014818
:10022000019001BDDD52010003B40148019001BD00
:100230001D4D010003B40148019001BD017F000084
:1002400003B40148019001BDE117000003B4014867
:10025000019001BD7918000003B40148019001BD6F
:10026000D949010003B40148019001BDE92800000B
:1002700003B40148019001BD5549010003B4014890
:10028000019001BD4551010003B40148019001BD39
:10029000C926000003B40148019001BDC90E000049
:1002A00003B40148019001BDB560FF1F03B40148CC
:1002B000019001BD6119FF1F03B40148019001BD08
:1002C0007B19FF1F03B40148019001BDE553FF1FD7
:1002D00003B40148019001BDE9A2FF1F03B4014826
:1002E000019001BD4554FF1F03B40148019001BDB9
:1002F0005549FF1F03B40148019001BD5D4AFF1F2E
:1003000003B40148019001BDD572FF1F03B4014839
:10031000019001BDAD72FF1F03B40148019001BD02
:10032000514AFF1F03B40148019001BD814CFF1FDA
:1003300003B40148019001BD9181FF1F03B401483E
:10034000019001BD8D9CFF1F03B40148019001BDC8
:1003500011A3FF1F03B40148019001BD313DFF1FF0
:1003600003B40148019001BD8929FF1F03B401486E
:10037000019001BD291C000003B40148019001BD9A
:10038000851F000003B40148019001BD090E000063
:1003900003B40148019001BDA946010003B401481E
:1003A000019001BD1147010003B40148019001BD56
:1003B000C337FF1F03B40148019001BD9D37FF1FE4
:1003C00003B40148019001BDA177FF1F03B40148A8
:1003D000019001BD1578FF1F03B40148019001BDD4
:1003E000B14E000003B40148019001BD3D1800006A
:1003F00003B40148019001BD754DFF1F03B40148CE
:10040000019001BD2D46FF1F03B40148019001BDBD
:100410007173FF1F03B40148019001BDD994FF1F00
:1004200003B40148019001BD2572FF1F03B40148C8
:10043000019001BD7572FF1F03B40148019001BD19
:10044000156B010003B40148019001BD1D71FF1F30
:1004500003B40148019001BDDD74FF1F03B40148DE
:10046000019001BDE548000003B40148019001BDC1
:100470002951010003B40148019001BDD91B0000BE
:1004800003B40148019001BD3929FF1F03B401489D
:10049000019001BD6129FF1F03B40148019001BD16
:1004A0005147010070B5FFF7ABFD904C0020256867
:1004B0002060FFF7ABFD06462560FFF7ADFD304637
:1004C00070BD8B49C968FF31813188657047F8B5C7
:1004D000FFF7A8FD864D874A68721178022903D973
:1004E000002801D101201070834900200446E960F2
:1004F0008300401CCC50FF28FADDE8687F49882340
:1005000019507F49C1627F490978002902D07C498E
:100510001131C1620A210165117881637A49C16193
:10052000FFF786FDE96879484861192080018861F4
:10053000084637228030C260082336220B64CA6323
:100540001E224A6436224260322202603B22036449
:10055000C263282242644122C26439228264322268
:100560004365026528228265022202664222C26534
:100570001E22836642662822C266202242674222E9
:1005800002675A22436102613C2282611922920170
:100590000A605F4A0A63FF222D328A60CA60FF2226
:1005A000F5320A615B4A8A647D22D2005A4EC267E4
:1005B000CE644A62594A8A623222CA6506224A6574
:1005C0008A65CA1DF932022513604D664B25ED0080
:1005D0008D660925CD66524D0D678C674B67AB1054
:1005E000CB67504FFF313E604A4E86627D26F60053
:1005F0008667642646620526C66202260663C8260A
:100600004663846338205060474810644B20800163
:100610009061B000D061581010627D2000015062DE
:10062000D466956513665364D565146753671E20B9
:1006300090663E4890673E485B008131D0670B6012
:100640008B604860FF20F530C86008614B20C00017
:1006500010630E6538483749274A81603749803A28
:1006600011613549364A80318A62364ACA62364A51
:100670008261364AC262364A02632F4A3548403A9E
:1006800050633548D0633548C861354890632A497E
:1006900034484031886135493348886026483449B8
:1006A000803841603349244A41633349C03AD160BC
:1006B0003349324B204CCB63324B403C2363324BAB
:1006C0009362324AC263324AC260324A4A63324A51
:1006D000E260324A8A63324A0A6332498163FFF731
:1006E000ADFC0120FFF7B0FCF8BD00009809FF1F2A
:1006F0009CADFF1F4A0AFF1F0004FF1FB0E1FF1F50
:100700006E04000044A9FF1F3A07000080C3C9011E
:100710009A02000050C30000280A00006A18000076
:10072000204E0000F009FF1F00400011DC05000012
:1007300040420F00058BFF1F0001FF1F753BFF1F8D
:10074000D598FF1FA99BFF1F8138FF1F153AFF1F78
:100750009D38FF1F0D5CFF1FE157FF1F75A5FF1F91
:1007600061A3FF1F1D38FF1FF52DFF1F0002FF1F94
:100770009984FF1F8988FF1FC93DFF1FAD29FF1FF7
:100780000000FF1F9D96FF1F2186FF1FE18DFF1FA9
:100790005986FF1FB13DFF1FED84FF1F112FFF1F63
:1007A0005D3DFF1FE190FF1F0A7802708A7842705A
:1007B0004A88120A82700979C170042070470A7849
:1007C00002700988090A41700220704710B50022A2
:1007D0000EE093005B189C7804705C88521C240A1D
:1007E00044701C7984709B88D2B21B0AC370001DB0
:1007F0000B789342EDD81806800D10BDF8B50D4664
:1008000006464978012031700024761C16E069788C
:10081000012917D01221614349198A7832704A8818
:10082000871C120A7270B61C10223046091DFFF791
:1008300011FC1037B8B21036641CE4B22978A1421A
:10084000E5D8F8BDA10049198A7832704A88871C1A
:10085000120A7270B61C02223046091DFFF7FAFB1D
:10086000BF1CB8B2B61CE7E710B50C46097801709A
:100870002188090A41706288211D801CFFF7EAFB6C
:100880006088801C80B210BD10B50C4609780170DC
:100890002188090A4170A17881706188090AC170B4
:1008A000A288A11D001DFFF7D5FBA088001D80B206
:1008B00010BD10B50C460A88891CFFF7CBFB2088B9
:1008C00010BD10B50B788A7802705343DCB2224613
:1008D000401C091DFFF7BEFB601C10BD10B50B7856
:1008E0008A7802705343DCB22246401C091DFFF790
:1008F000B1FB601C10BD10B50C460A88891CFFF7BF
:10090000A9FB208810BD10B50C460A88891CFFF78A
:10091000A1FB208810BD7FB515460446022901D0F1
:10092000102903D1022B04D0102B02D0002004B0D8
:1009300070BD994202D10A46294607E0102969464E
:1009400007D000F00DF8102269462846FFF788FB13
:10095000EDE7104600F004F8102269462046F5E75E
:1009600070B50C4605000CD0002C0AD010220649A8
:100970002046FFF76FFB28782073687860730120AA
:1009800070BD002070BD0000DC8E021110B50B465A
:100990000122024903F0FAFE10BD0000A90702116E
:1009A00070B5064608880C46172812D30B4603225A
:1009B0000949304603F0EAFE050008D107492088BE
:1009C0000988884200D20146304600F0B9F928462D
:1009D00070BD022070BD0000BF07021114AEFF1FE2
:1009E00010B500231922194603F0D0FE10BD0000F7
:1009F00010B50A78002A05D00B460722024903F0F9
:100A0000C5FE10BD022010BDCD07021110B54A78F9
:100A1000012A01D0022A08D10A78002A05D00B4603
:100A20000522034903F0B2FE10BD022010BD0000F4
:100A3000FD070211024940008968085A704700000A
:100A400008AEFF1F10B50B461D22024903F09EFEA3
:100A500010BD00006908021110B50B461B220249A7
:100A600003F094FE10BD00006908021110B506499C
:100A7000002089681723054A02E044000B53401CFC
:100A80001478A042F9DB10BD08AEFF1FD0AEFF1FE7
:100A90000098022B01D0042070471178527812027E
:100AA00089180180002070470098012B01D0042094
:100AB0007047117801700020704770B5049C1E4685
:100AC0001546062B1BD36978287809024018208028
:100AD000E978A87809024018608002222271291D55
:100AE000601DFFF7B7FAB61FB2B22281F02A06D80E
:100AF0002046A91D0A30FFF7ADFA002070BD042082
:100B000070BD0098042B01D00420704753781178F1
:100B10001B02C91801809178D2781202891841808D
:100B200000207047F8B584890D460646002C26D073
:100B3000B2681778380620D50C2C20D90C3CA4B20A
:100B40001019009001217088234602F089F80028CE
:100B500011D0022028707806C00F6870B806800E89
:100B6000A870641E2004000CA88001D0B068401C4E
:100B7000A8600020F8BD0120ECE70020EAE7012092
:100B8000F8BD10B502981146042B14D34C780A789E
:100B9000240212190280CC788A7824021219428029
:100BA0001B1F9AB28280F22A05D8801D091DFFF70B
:100BB00051FA002010BD042010BD0098042B01D074
:100BC00004207047537811781B02C918018091786E
:100BD000D2781202891841800020704710B502981F
:100BE0001146062B03D0142B03D0042010BD022283
:100BF00000E0102202714B780A781B02D2180280A2
:100C0000CB788A781B02D21842800279401D091DD8
:100C1000FFF720FA002010BD30B5039CD80718D18B
:100C2000D805010E022914D30B488088814210D8C0
:100C3000F6200155002008E0557813782D025B1945
:100C40004500401C6353C0B2921C8842F4D300207C
:100C500030BD042030BD000008AEFF1F0098022BFD
:100C600001D004207047117852781202891801804F
:100C70000020704770B5144602460498022B18D322
:100C8000667825783602AD1905800546E0352A7666
:100C90006976002A0BD0E8219B1E9AB242808A42D4
:100CA00007D8A11C001DFFF7D5F9002070BDF42165
:100CB000F2E7042070BD000010B50B461722024970
:100CC00003F064FD10BD00008908021110B50B4649
:100CD0000D22024903F05AFD10BD0000B3080211B5
:100CE00010B50A78002A05D00B461122024903F0FC
:100CF0004DFD10BD022010BDC308021110B50A78C9
:100D0000002A05D00B460922024903F03FFD10BD21
:100D1000022010BDDD08021110B50B460F2202495A
:100D200003F034FD10BD0000F708021110B50B46AA
:100D30000B22024903F02AFD10BD00000709021131
:100D4000034A1388994202D89268400011527047B2
:100D500008AEFF1F10B500231322194603F016FD3D
:100D600010BD000010B5C7210948FFF77FF90849F9
:100D70000120087000210D20FFF77EF902F0F4FD3C
:100D8000002803D007F0D4FF07F0C4FF002010BDF7
:100D900044CDFF1FF8B50D46074602F0D9FD0028E7
:100DA00012D0FFF76FF9A84204D023A0FFF770F923
:100DB0000520F8BD3846FFF771F9234801214903A2
:100DC0000078FFF771F90CE0204C207D264616369E
:100DD000002808D001281CD002281AD00020207535
:100DE00060750020F8BD607D40193028F9D2FFF70A
:100DF00007F9607D2A4680193946FFF75BF9607D67
:100E00004019607501202075FFF706F900F02EF8F3
:100E1000E7E7607D40193028E3D2FFF7F1F8607D05
:100E20002A4680193946FFF745F9607D40196075FB
:100E3000FFF7F2F8D5E7000045727220626C6B2074
:100E400073697A650000000066ACFF1F64CDFF1F68
:100E500010B50548417D002902D000F007F801E0F7
:100E600000210175002010BD64CDFF1FF8B51E4D97
:100E70002C462034207D002834D0607D002831D0DD
:100E80000026022802D008280DD01EE0A07D61288F
:100E90001BD1E07D742818D10021084602F096F895
:100EA000267566751CE00122104900202B1820339E
:100EB0009B7D0F5CBB4208D1401C0828F6DB002A52
:100EC00003D00021084602F055FF08482946401E7D
:100ED000627D36310078FFF7F3F8667502202075E1
:100EE0000020F8BD0720F8BD44CDFF1F11ADFF1F46
:100EF00070B5184C002620782546603500281ED095
:100F0000A078A9794018302801D30B2070BDFFF7D5
:100F100077F8A178201D08182146AA796731FFF7D4
:100F2000C9F8A078A9794018A070AE71FFF774F8DD
:100F30006078002808D0012808D0022806D0A670C2
:100F4000E670AE71072070BD0120607000F004F8FB
:100F5000002070BD44CDFF1FF0B53A4CBFB06078A3
:100F600000286CD0A078002869D00026022802D082
:100F7000082810D020E0207961281DD160797428DC
:100F80001AD10021084602F021F84FE007F0D0FE08
:100F900007F0C0FE51E001212B4A002023181B79E5
:100FA000155CAB4208D1401C0828F7DB002903D0B0
:100FB0000021084602F0DEFEFFF788F8002803D083
:100FC0006078012805D006E0FFF7CCFE50203FB046
:100FD000F0BD02206070271DF8216846FFF77CF8FD
:100FE000FFF70EF8A078E178401AF42800DDF4202D
:100FF000C5B2C9192A4601A8FFF75CF868464580C2
:10100000FFF70AF811486946027811480088FFF78F
:1010100069F8002803D004280FD01120D7E7E07822
:101020004019C0B2E070A1788842D5D16670E670F0
:10103000A67002F099FC0028A8D10020C7E707207D
:10104000C5E7000044CDFF1F11ADFF1F66ACFF1FB9
:101050006AACFF1F10B5C7210548FFF707F802F07B
:1010600083FC002801D007F063FE002010BD0000C3
:1010700044CDFF1FFEB5124A104DD7681668906820
:10108000019002F0F3FB0F4C02902078FFF730F84C
:10109000207800903B463046019A0299FFF72EF8DF
:1010A0002946302297312078FFF72EF806A0FEF768
:1010B000EFFF0020FFF72EF80020FEBD44CDFF1FFC
:1010C000CC8E021110ADFF1F5054204D6F640A00EA
:1010D000FFB51746294A91B0050011D001E0491E1D
:1010E0006D1C2878202809D0092807D0002907D0AE
:1010F00000266C1C324668466B181EE00029EED1B3
:10110000104615B0F0BD21783D290ED02C290CD009
:101110000D2907D00A2908D021462039C97F002986
:1011200007D009E061780A2901D0227004E022701A
:1011300005E0B1004450761C641CA342E3D80020B3
:1011400001E0401CC0B2B042FBD3002408E00C20F8
:10115000604339582846FEF7E3FF002805D0641C99
:1011600014988442F3D30020CBE70C204443E019C9
:101170008268694630469047F5E70000FFFF0000AF
:10118000F0B500252B4606E0C55C202D01D0092DC9
:1011900003D15B1C9BB28B42F6D3002401262D2D7C
:1011A0001BD1661E17E0C55C2F46303F092F03D8C0
:1011B00054436419303C0EE02F46613F052F03D89D
:1011C00054436419573C06E02F46413F052F06D88B
:1011D00054436419373C5B1C9BB28B42E3D33046CB
:1011E0006043F0BDFFB59BB00025169516AA179574
:1011F00000F08CF806460A2877D2044606204443BD
:10120000204620306A460E2106F060F9002802D1FF
:1012100068468089C5B21D9819901E99082912D078
:1012200000201890082910D0274621371C220021C1
:101230006846FEF77BFF6A461C21384606F046F9F1
:10124000002805D010E00120EBE727462237EDE724
:101250006846807EC01F092806D8E907C90F6A467C
:10126000189B199800F028FB1422002111A8FEF702
:101270005DFF2046243011AA102106F027F900282E
:1012800012D11022FF2111A8FEF756FF00280BD122
:101290002046253015AA042106F018F9E907C90FE0
:1012A00011AA1D9800F028FD304607AA28217030A9
:1012B00006F00CF9002811D107A803F04DFB00241B
:1012C00007AEA00080190188002903D082781D98FC
:1012D00000F0C0FF641CE4B20A2CF2D3A80704D5C6
:1012E000094801781D9800F0A3FF1E98042808D132
:1012F00005491D98491C085C022802D11D9803F07D
:1013000039FB00201FB0F0BDECAAFF1FF0B50A2486
:1013100085B015460F46002806D0012804D00228C3
:1013200010D0032845D11FE0084603F0E3FA044635
:101330000A283ED2002D3CD0062239462846FEF728
:1013400089FE36E01C4E00240E20604380190622E0
:101350003946801DFEF784FE002822D1641CE4B2C9
:101360000A2CF1D30A241CE000242046062148431D
:101370006A461021233006F0A9F800280CD110226B
:10138000FF216846FEF7D8FE002805D13946684699
:1013900000F054FC002804D0641CE4B20A2CE4D30E
:1013A000E0E70A2C05D2002D03D02946204603F0A1
:1013B000B9FA204605B0F0BD40C9FF1F70B50C4614
:1013C0000146032000020A1A002534481300FEF7E4
:1013D000B9FE1D1012151C1F2326282C303234385C
:1013E0003A3C3E40424446484A4E50525A5456585F
:1013F0005A00C07911E01022294902E02849102240
:1014000010312046FEF726FE45E0C06A206042E02B
:10141000224906223C31F4E7007820703BE08089C5
:1014200036E01E4942784231EBE71D4982781F3988
:10143000E7E7007AF1E7407AEFE718490622303112
:10144000DFE7807AE9E7C07AE7E7C08920E0808AB1
:101450001EE0C0781CE0C08A1AE0008B18E0408BC8
:1014600016E0808B14E00D4906223631C9E7C08BA7
:101470000EE0008C0CE0408C0AE08079CDE7008A19
:1014800006E0408A04E0272904D2084600F0A4FAC6
:10149000208000E00225284670BD0000FCABFF1F45
:1014A000F3CCFF1F70B50E4C00256071A571691E4D
:1014B000E18100F0BDFB0420E07110220021094809
:1014C000FEF734FE0748102200211030FEF72EFEF2
:1014D000E562257265720120A072E57270BD0000A0
:1014E000FCABFF1FF3CCFF1FFEB53C4D0C460804C0
:1014F0000CD56879FEF72CFE050004D003F082FFBE
:101500002846FEF72BFE0120C00363E0600403D5EC
:10151000012080034840FEBD3048E1070126807964
:1015200000292AD02978002920D0052821D0287A1E
:1015300069460870687A4870284900A80622303148
:101540000230FEF787FDA87A69460872E87A487289
:10155000687900F059FA002808D00720A871696A54
:10156000002903D00968002900D088472046704030
:10157000FEBD032069460870E5E7A1070DD50528E3
:1015800009D1E889FEF7F0FDAA8A002A03D00221DA
:101590006879FEF7EFFD02201CE0600707D510A078
:1015A000FEF776FD012003F083FF042012E0200700
:1015B00012D52879012802D002280AD107E0009626
:1015C000AB8B6A8B298BE88A00F014F801E000F0FD
:1015D00063F908206040FEBD0020FEBDFCABFF1F8C
:1015E00030303030303030303030303030303030FB
:1015F0000D0A0000F8B5134C069DA679052E01D002
:101600001420F8BD104F861FBE4219D2062917D3E9
:10161000BE1DB14214D2FF27F537BA4210D20A2BB1
:101620000ED3B3420CD2E08221836283A383284687
:1016300003F03EFF04216079FEF7A2FD0020F8BD13
:101640001820F8BDFCABFF1F7A0C0000F7B50C4664
:1016500080490098164642187F4F00257879B9795D
:101660001300FEF76FFD190E141BE9204045597059
:10167000777E888FE996A2A9B4BFC8E9E9E9E9D3E2
:10168000E900102C76D11022314674486FE0102CFE
:1016900070D1724810223146103068E0042C69D1B4
:1016A0003068F862CEE0012C64D13B7832783A7031
:1016B000002B0AD0002A07D1022903D0062901D025
:1016C000042901D100F05EF9BCE0002A0AD001290A
:1016D00005D0032903D0052901D0042902D1012115
:1016E000FEF7E2FCAEE0022C44D13088B881A9E0DC
:1016F0001F2C3FD858481F2200214230FEF716FD0C
:101700005548224631464230FEF7A4FC524B7C70CD
:1017100042332246012112E01F2C7CD84F481F2261
:1017200000211F38FEF702FD4C48224631461F3883
:10173000FEF790FC494BBC701F3B22460021787994
:1017400000F040FB83E0012C65D13078042862D89A
:10175000387277E0012C5ED1307803285BD878723C
:1017600070E0062C57D13C48062231463030FEF757
:1017700071FC67E04FE0012C4DD1307807284AD842
:10178000B8725FE0012C46D13078032843D8F87254
:1017900058E0022C3FD13288BA82002A52D0052963
:1017A00050D10221FEF7E6FC4CE0012C33D1307819
:1017B000012830D8F87045E03088022C2BD106285B
:1017C00029D31921C901884225D8F8823AE0308806
:1017D000022C20D106281ED31921C90188421AD80B
:1017E00038832FE03088022C15D1FF21F531884253
:1017F00011D2788326E03088022C0CD10A280AD333
:101800001921C901884206D8B8831BE03178012C20
:1018100001D1012901D0182514E00821FEF7B6FCFA
:10182000002801D016250DE0002003F041FE042120
:101830007879FEF7A5FC05E00098272801D2022C54
:1018400002D002252846FEBD318800F045FA054643
:10185000F8E70000FFFCFFFFFCABFF1FF3CCFF1F0E
:101860001CB50B4CA179002901D011201CBD00280A
:1018700000D06062064907482C3103460191009070
:10188000103B0022E179607900F05AF800201CBD7D
:10189000FCABFF1F03CDFF1F10B50648817905295A
:1018A00001D0122010BDC1891322407900F04AFAFC
:1018B00010BD0000FCABFF1FFFB5204D81B02878A4
:1018C0001E461746022823D0012821D0002F22D0FF
:1018D000019805F00FFD04001FD0606A002801D0B8
:1018E000FEF75AFC1C213846FEF75CFC6062011EC4
:1018F00015D02878000714D5002E12D0887E0090CD
:101900000B4612330A8A019806F0F0FB014609E003
:10191000122005B0F0BD0220FBE71420F9E71320E8
:10192000F7E700212079042210432071029A002A4F
:1019300002D00222104320710846EAE719AEFF1FC9
:10194000F8B51D460224069F079E0B00FEF7FAFB22
:101950000D170A08080A170817080817170A1700AA
:10196000002C0CD100F0B4F8040008D132463946FE
:10197000284600F067F900F0C7F801F061F9204649
:10198000F8BD000070B5104C2168002904D009781A
:10199000814203D0032070BD122070BD0B4D022187
:1019A0002878FEF7EDFB0A480026468004212878B7
:1019B000FEF7E6FB074806802168032048700020F8
:1019C000FEF7F6FB70BD000078AEFF1FA9AEFF1F4B
:1019D0008CAEFF1F1CAEFF1F272803D20249400018
:1019E000085A70470148704724AEFF1FFFFF0000F0
:1019F00010B5044C6070FEF7E1FB0521607800F043
:101A0000E3FF10BDA8AEFF1F70B5284E0546306835
:101A10000C46002801D0112070BD25480178052012
:101A2000014216D023488068002805D0007800289D
:101A300002D0C80706D101E0102070BD00F044F8C4
:101A4000002808D02078032805D0022803D00028D9
:101A500001D0122070BD0C20FEF7B6FB30600028CC
:101A600020D00570002141700A222146801CFEF71B
:101A7000F1FA03F0FFFD040002D002F0CFFF12E004
:101A80000D48007803280ED11D20FFF7A5FF0B4954
:101A90000028088007D00B48094A04210078FEF787
:101AA00099FB00E01324204670BD000078AEFF1FB4
:101AB00019AEFF1F8CAEFF1F1AAEFF1F1CAEFF1F1B
:101AC00060EA0000A9AEFF1F10B505F06FFC10BD65
:101AD00070B50C4605461C2200210948FEF726FB7E
:101AE000084805704470FEF77BFB0549002803D0C9
:101AF00000200870122070BD01220A7070BD000025
:101B0000FCDCFF1F18AEFF1F70B50F4C0025A0684E
:101B1000002802D0FEF740FBA560E068002802D054
:101B2000FEF73AFBE560094805210078084206D037
:101B30000548103003F050FB02F0B2FE70BD0020EB
:101B400003F04AFB002070BD8CAEFF1F19AEFF1FD3
:101B5000FEB5344D0C46080419D56878FEF7F8FA3E
:101B60000121C9034C40064600280ED003F054FA68
:101B7000002807D12878FF2804D03146FEF736FB2D
:101B8000002802D03046FEF7E9FA2046FEBDE00705
:101B9000012700280AD0A868002804D0416800293D
:101BA00001D00020884720467840FEBDA00709D517
:101BB0006868002804D04168002901D001208847C6
:101BC00002202AE060072AD5174E308800281FD04F
:101BD000401E0004000C30801ED102F095FF00284A
:101BE00009D0124807706868002804D041680029AD
:101BF00001D00120884702F061FF694600F054FFE0
:101C0000684603F0F3F91D20FFF7E6FE308003E09D
:101C100004216878FEF7B4FA04206040FEBD00207D
:101C2000FEBD0000A8AEFF1F1CAEFF1F1BAEFF1FB6
:101C30000149087070470000A8AEFF1F10B500F002
:101C4000D9FF10BD70B50E4C0B46261D07C60546C4
:101C5000102200211846FEF76FFA012803D1102147
:101C6000A06805F0F5FD102200212846FEF764FA71
:101C7000012803D11021606805F0EAFD70BD000065
:101C8000FCDCFF1F38B5054610480C4600784007BD
:101C900001D4122038BD284605F02CFB002812D0B4
:101CA0000B48A90000684058002801D0817D00E061
:101CB0002146684606F074FA064B6A460221284619
:101CC00006F0D0F938BD142038BD000019AEFF1F52
:101CD00088AEFF1FB1860211272807D2044A91421D
:101CE00004D0044A4000115200207047022070477F
:101CF000FFFF000024AEFF1F70B50E4610491546C9
:101D00000978022916D0012914D0002D14D005F02D
:101D1000F1FA040012D0002E03D0207902210843EA
:101D2000207110222946A018FEF794F92869206234
:101D3000002070BD122070BD022070BD142070BD47
:101D400019AEFF1FF8B50D4617461D4906461B4A3A
:101D500012248868954208D100282DD00268002AF4
:101D60002AD029463046904723E0144A521C954217
:101D700013D1002807D00268002A04D02946304633
:101D80009047040005D03946304602F063FD040058
:101D900012D10B48067047700EE0284605F0AAFAEB
:101DA000002809D00078B04205D139462846FEF710
:101DB00023FA044600E003242046F8BDFEFF00009D
:101DC0007CAEFF1FF8B50E4601461948154600784F
:101DD00005221F46104028D0304326D01548012E3A
:101DE0001BD0C468002C20D01F2D18D8002D01D086
:101DF000002F14D001701F220021601CFEF796F9FD
:101E00002A463946601CFEF725F928462570002E23
:101E100007D0611CFEF7F6F9F8BD8468E2E70220FE
:101E2000F8BD611CFEF7F4F9F8BD1220F8BD000002
:101E300019AEFF1F8CAEFF1F014610B50020C90769
:101E400004D0034A0421034800F0A8F910BD0000A3
:101E5000C08E0211B8ABFF1F70B50F4D0F4CA870AC
:101E600029461831204600F01DF8002128460B466F
:101E70001030CA0084521218491C09065360090E1A
:101E8000F7D0012004F0D2FAA87800F071FB0448E2
:101E900005F0A2FA70BD000098ABFF1FFFFF000025
:101EA000755C021170B50A4C0025A04209D10020D2
:101EB00082008C525218401CC0B295700228F7D391
:101EC00070BD03F0A6FE0028FAD00480857070BDB6
:101ED000FFFF0000F8B50E46074606990024079854
:101EE000002902D00B242046F8BD022B01D00D247E
:101EF000F9E711785278120289188DB22946814388
:101F000001D08024EFE73846F16800F03FF9A8429D
:101F1000E9D02A463846F16800F0CAF90400E2D157
:101F200071892A46384600F067F9DCE770B50C463F
:101F3000080412D50A488078FEF70AF9050008D08F
:101F40002878B02802D1284603F080FF2846FEF703
:101F500005F90120C003604070BD002070BD000085
:101F600098ABFF1FFFB583B0087A00250C9E1C4676
:101F70000F46C0060DD5059803F044FE030006D0B9
:101F80000A22394603989847050035D101E00E250D
:101F900032E0387802281DD178682922017840780B
:101FA00012020002081881B2881A91427ED009DC20
:101FB0007348081A23D0012821D002284FD00328C3
:101FC00008D125E0012872D0022871D003286DD0F5
:101FD00004286ED0059803F03DFE00286AD00568FD
:101FE000002DD4D00E990D980191009033462246D1
:101FF00039460398A8470546284607B0F0BD0D9816
:10200000002872D1F868017831800278416896E042
:102010000D98002869D101203080F86800210078EF
:1020200020707889401C80B200F070F900280DD033
:10203000318802788918891C3180817A61704189E0
:10204000090AA17002784168E01C79E03088042216
:10205000001D30800021601CFEF768F8CCE70D9869
:10206000002875D1F86802A900880090042030800B
:10207000009820700098000A6070009800F046F9FF
:10208000070029D0F86800906846028901AB3D49F5
:10209000384600F093F9002810D13B7802213A48E5
:1020A0007A68FEF738FC002808D104E026E030E02A
:1020B0001CE04AE062E03348694688800098007876
:1020C00002280CD1009802224168201DFDF7C2FFB2
:1020D0003088801C308002E069460098888068461D
:1020E0008088A070000AE07086E731E00D98002833
:1020F0002ED1F968039800F049F804E00D98002803
:1021000026D1F8680088022131802070000A6070B2
:1021100072E7F868FEF782F80D99C0B2814212D8D2
:10212000814201D1002206E00E9A8918814202D331
:102130000D99401AC2B23280F9680D9809182046EC
:10214000FDF788FF58E7072556E70D98002801D0CE
:102150000B2551E70721F86831800178217041781B
:1021600061708178A1704188090AE170017921715B
:1021700081796171C088000AA0713DE700252FE7D1
:1021800000280000FFFF0000528F021110B503F07D
:1021900040FD002800D0807810BD00007CB51546B9
:1021A000040019D068460194018000F0E7F90300AB
:1021B0001DD1002D1BD06489002C0DD00C20FEF702
:1021C00003F800280AD0002303608480094A856050
:1021D0009168002904D006E0022308E0132306E0FA
:1021E000906004E011460A68002AFBD10860184696
:1021F0007CBD000098ABFF1FF8B50C4C074620785B
:1022000015460E46FF280FD00A20FEF70DF80100F4
:102210000AD0B12008700020487008714F80CE802D
:102220000D812078FDF7E2FFF8BD000098ABFF1F9D
:1022300070B50C4605460649FFF7A8FF800704D590
:102240002146284600F0EEF970BD012070BD000067
:10225000B0ABFF1F1CB56B461A71120A5A710022EF
:102260000092022301AA00F001F81CBDFFB583B063
:1022700008461F4601A90C9E00F048F8050014D03E
:102280006846808803F0E6FC00280AD04468002CE9
:1022900009D000963B462946059A0398A04707B007
:1022A000F0BD0024F3E70E20F9E70120F7E7000076
:1022B00070B514460E46054603F0ABFC002806D167
:1022C0003146054803F0A5FC002803D00580847042
:1022D000002070BD112070BDFFFF000010B5017817
:1022E000B0290BD14178002908D10179122906D0F3
:1022F0001B2903D14088012100F0E2FA10BDFF2123
:102300000231095C0129F5D010BD0000F0B58C4602
:1023100010494B6819E09F687C89A04214D39E88BD
:102320003119814210D900220CE011017D18698910
:10233000814205D16046002800D004802846F0BDC7
:10234000521C92B29642F0D81B68002BE3D10020B9
:10235000F0BD0000B4AEFF1FFFB5174881B00A9F63
:10236000446824E000251EE0A06829014618708911
:102370000199884215D30299884212D804980028FE
:1023800007D031787068049B039AFEF7C4FA0028DE
:1023900007D0002F02D0A06840893880304605B0B1
:1023A000F0BD6D1CADB2A088A842DDD82468002C19
:1023B000D8D10020F3E70000B4AEFF1FFEB51746EA
:1023C00000256A469580044640891D4A1E46904273
:1023D00008D001AA0092401C237880B26268FFF7FF
:1023E000BBFF05462378022116486268FEF793FA80
:1023F000002807D12378022113486268FEF78BFA80
:10240000002801D060890EE0237802210F4862681D
:10241000FEF781FA00280DD0002D03D06846808891
:10242000B84203D0384604F015F904E06889401E2C
:1024300080B200E06089002E00D030802846FEBDCA
:10244000FFFF0000508F0211528F0211568F0211B0
:10245000FFB581B00F461E4614466946019803F049
:102460001FFA050018D1002C06D001221021019876
:1024700004F01AFF05000FD139460198FEF7E2FA81
:10248000050009D1009CFF2E06D021461E22A31C68
:10249000034804F0EBF8E670284605B0F0BD0000F4
:1024A0005965021110B505490870042100F08CFA35
:1024B00000F006F8FEF7DAFA10BD0000C0AEFF1F0C
:1024C000F8B50F4D0D4B00206E1C1C78FF2209E063
:1024D0009F688100C91900280ED00E80CA70401C68
:1024E0008A70C0B2A042F3D3064803F07DFB0648D1
:1024F00004F072FF0020F8BD0D80EFE7B4AEFF1FBF
:10250000FEFF000085650211D9640211F8B50D4681
:1025100014460646694603F0C3F917280CD0002C70
:1025200006D001221021304604F0BEFE002803D15F
:1025300029463046FEF790FAF8BD000070B50C460B
:10254000080411D509480078FDF702FE050007D000
:102550000178A02901D103F0EBFA2846FDF7FEFD32
:102560000120C003604070BD002070BDC0AEFF1FE1
:102570000149487070470000B4AEFF1F70B50546B2
:10258000008800281DD0686802210378426822482C
:10259000FEF7C1F9002808D1686802210378426873
:1025A0001E48FEF7B8F900280BD01D4C60880028A3
:1025B00005D0012229881204101A814203D9012072
:1025C00070BD022070BD0C20FDF7FEFD060001D09D
:1025D00000200BE0132070BD01016B6862880A3196
:1025E0005A526188491C401C618080B2298881420E
:1025F000F2D80020306008222946301DFDF72AFD60
:102600006068002802D1666004E00846016800297D
:10261000FBD10660002070BD508F0211528F021155
:10262000B4AEFF1F70B5BEB00D46064600240223AF
:102630000E4A0F4901200094FFF78EFE002812D0A9
:1026400040896A4610800420508001201071547126
:10265000FF209071D0712B46002269463046FFF76B
:10266000F7FE3EB070BD0120FBE700006E8F021147
:10267000FFFF00000649496806E08A6852898242E5
:1026800001D18888704709680029F6D10020704779
:10269000B4AEFF1F10B51422114201D0012202E096
:1026A0004A0604D50022102104F0FEFD10BDC80723
:1026B00001D0002010BD022010BD10B514468A06BE
:1026C00004D50122102104F0EFFD10BD8822114233
:1026D0000ED008220A40102104F0E6FD00280BD09D
:1026E000E034617E0029F0D0217E0129EDD103E0A4
:1026F000880701D4032010BD002010BD014610B58D
:102700000020C90704D0034A07210348FFF746FD0C
:1027100010BD0000AC8E021124ABFF1F70B50D463A
:10272000164600241D490300FDF70CFD0805123470
:10273000341934222934152D23D8162200211848A3
:10274000FDF7F4FC2A4631461548FDF783FC22E0EC
:10275000022D16D111491088103908801BE0082D70
:102760000FD10E48082231460838FDF7A3FC12E0CD
:10277000012D06D1CA6909493078283107E0012DB9
:1027800001D0182407E0CA6B04493078483104F0BE
:1027900034F800E00224204670BD000024ABFF1F87
:1027A000D6C9FF1FF0B5069F099E002833D0102818
:1027B00031D800292FD0002A2DD0002B2BD0002F6C
:1027C00029D0079C002C26D0089C002C23D0002E5A
:1027D00021D00A9C002C1ED0104C851D20706570E5
:1027E000A26061600E490F4A0B60059911600E49A5
:1027F0000E4A0F60079911600D4A089911600D4942
:10280000401C08700C490E600C4908700C490A986D
:1028100008600020F0BD1820F0BD0000D0AEFF1F02
:1028200014AFFF1F10AEFF1F88AEFF1F00AFFF1FCA
:1028300004AFFF1FF4AEFF1FF8AEFF1FB4AEFF1FC3
:10284000BCAEFF1F0B7803700B8802221B0A43707B
:102850000B88801C012B02D0022B07D011E08A7854
:1028600002704988090A417004220AE08A780270DD
:102870004A88120A42700A7982708988090AC170EE
:10288000062210467047000008B5044B009313461B
:102890000A46012104F016FC08BD0000452802117B
:1028A0001CB50323019200930A46024B122104F047
:1028B00039FC1CBD9D69021110B5FDF7BBFC10BDB4
:1028C00013B504480078012803D101AA6946FDF731
:1028D000B7FC1CBDCCAEFF1F70B51049104A087084
:1028E00000210B468C00491CC9B213530429F9D3AB
:1028F0000B4C00211034FF260A460A256A4315199D
:102900006B80491CA354C9B26E720329F4D3FDF73E
:102910009DFC04F08DFB04F023FD70BDCDAEFF1FC8
:1029200018DDFF1F082A01D0012070474B780A7874
:102930001B02D2180280CB788A781B02D218428000
:102940004B790A791B02D21882808A79C9790902E7
:102950005118C1800020704770B50C46080411D58D
:1029600009480078FDF7F4FB050007D001789029AD
:1029700001D104F0BFFA2846FDF7F0FB0120C003A7
:10298000604070BD002070BDCDAEFF1F70B50C491A
:102990000978884213D20B4C0601606800258553E4
:1029A00030188581606830188580606830188068CC
:1029B000002804D0FDF750FC60683018856070BDB9
:1029C000D0AEFF1FFCAEFF1F072907D0052905D099
:1029D000042903D0062901D002207047044A8B0045
:1029E0009A181346403B1986203A9074002070478D
:1029F00018DDFF1F70B517490978884228D25C217D
:102A0000154C4843A168054640180026403006741E
:102A1000A068281840304674A06828184030067610
:102A2000A0682818406D002804D0FDF715FCA068A8
:102A3000281846650026A068F1002818401840684C
:102A4000002801D0FDF708FC761CF6B20A2EF2D35E
:102A500070BD0000D0AEFF1FFCAEFF1F70B50A882E
:102A60000C460546072A07D0052A05D0042A03D0BC
:102A7000062A01D0022070BD012104F0DFFC0028ED
:102A800004D02146284603F09FFF70BD142070BD7E
:102A900010B5001D80B2FDF7E5FB002803D003212F
:102AA000C943FDF7E5FB10BD38B50C46050014D051
:102AB000002C12D00321684604F0CAFE69468878CB
:102AC00040218006800E08436946887022462846C9
:102AD00005F026FC050002D006E0022038BD0322E6
:102AE0006946E01CFDF7B6FA284638BDF7B58EB04A
:102AF0000E9815460E4600282DD0002D2BD0301DE7
:102B0000C0B20190FDF760FB040039D001F0E2FF94
:102B100007463246201D0E99FDF7B0FBF8B208902B
:102B2000E0703804000E0B90A0703802000E0A907E
:102B300060703F0E277001F0C7FF0146102202A807
:102B4000FDF79CFB06AB214602A8019A05F03EFB6F
:102B5000060003D010E0022011B0F0BD08982870E4
:102B60000B9868700A98A870EF70082206A9281DB3
:102B7000FDF784FB01F0B4FF2046FDF70DFB00E0FC
:102B800013263046E8E7000010B5064C2070FDF72C
:102B90007BFB06212078FFF717FF034804F01CFC9D
:102BA00010BD0000E8AEFF1FA978021170B50C46F9
:102BB000080419D50D480078FDF7CAFA05000FD0B2
:102BC00004F098FF002808D109480078FF2804D0B5
:102BD0002946FDF70BFB002802D02846FDF7BEFA78
:102BE0000120C003604070BD002070BDE8AEFF1F33
:102BF000A8AEFF1F7CB50C4605001DD0002C1BD0D5
:102C00000322E11C6846FDF725FA694688784021D1
:102C10008006800E08436946887001AA284605F0A0
:102C20007FFB002807D10322214601A8FDF718FAEF
:102C3000012803D001207CBD02207CBD00207CBD8A
:102C400010B505480078400701D5044800E0002091
:102C500004F0D8FF002010BD19AEFF1FDCAEFF1F2F
:102C6000FFB58DB00F98169C0E46002815D0002C8D
:102C700013D00D9804F03EFB050011D06178207848
:102C800009024018A178E278090412068918471849
:102C9000286AB84206D3401C04D0022011B0F0BD0F
:102CA0001420FBE7002E04D02879800701D40120EE
:102CB000F4E70822002106A8FDF738FA1098001D55
:102CC000C0B20190FDF780FA060017D0301D109AAF
:102CD0000F99FDF7D3FA042221463046FDF7CEFACC
:102CE0001022A91802A8FDF7C9FA06AB314602A8BE
:102CF000019A05F06BFA050002D013E01320CDE72E
:102D0000082206A908A8FDF7B9FA0822211D08A87B
:102D1000FDF7A6F9012801D0012503E039460D98F9
:102D200002F002FD3046FDF737FA2846B6E700000C
:102D300010B503F0FBFCFDF7DBF901F0A7FC012067
:102D4000FDF7E8F901A0FDF7A3F910BD4154204DAE
:102D50006F640A00F0B585B00024064657480D465A
:102D60000094019402940394049480210078FDF768
:102D700007FA012E7ED1286801783F290DD05049ED
:102D800002AA0B191B7C1355641CE4B2062CF6D363
:102D9000FDF780FA11287ED10FE0494D49A0297C2A
:102DA000FDF776F901242819017C48A0FDF770F998
:102DB000641CE4B2062CF6D37DE0002401E0052C6F
:102DC00028D2600029682318C85C0246303A092AD4
:102DD00005D9113A052A02D9203A052A5BD85E1C8A
:102DE0008A5D1746303F092F05D9113F052F02D9BB
:102DF000613A052A4FD89B1CCA5C3A2A4BD16A46D5
:102E00001074885D50741022022104A8FEF7B8F9EE
:102E10006E4622E060002A682318D05C01463039F3
:102E2000092905D91139052902D92039052932D8AE
:102E30005B1CD15C0F46303F092F05D9113F052F90
:102E400002D96139052926D869460874D05C4874CE
:102E50001022022104A8FEF793F93055641CE4B255
:102E6000062CACD3164C0020315C2218401C117487
:102E7000C0B200E00FE00628F6D3042001F05AFAB1
:102E8000002818D0002002A90A5C2318401CC0B2F8
:102E90001A740628F8D30FA0FDF7FAF80848802125
:102EA000426B7D20C000424304480078FDF762F980
:102EB000002005B0F0BD09A0EEE7000066ACFF1FE2
:102EC000F8C8FF1F0A253032780000003A2530325A
:102ED000780000000A4552520A0000000A4F4B0ACF
:102EE00000000000FEB50024304F0D460646009459
:102EF000019480213878FDF743F930462C4E0128A3
:102F000034D1286801783F29318C07D00291FDF730
:102F1000C1F9C1B2052929D86B460CE025A0FDF7FF
:102F2000B7F840E02868005D0246303A092A1DD80B
:102F30001855641CE4B28C42F4D30020191948706F
:102F40001846FDF7A7F981B20A226846FEF718F97C
:102F500080B20146184A2039914207D230840820B5
:102F600001F0E8F900280ED00298308413A0FDF794
:102F70008FF87D20726BC000424380213878FDF7C6
:102F8000F9F80020FEBD318C0620FEF7A5FE318C3D
:102F90000720FEF7A1FE318C0820FEF79DFE318C44
:102FA0000920FEF799FE07A0E1E7000066ACFF1FCD
:102FB000F8C8FF1F0A256400E11800000A455252B4
:102FC0000A0000000A4F4B0A0000000010B5FDF790
:102FD00067F9002811D00B4C80212078FDF7D0F83C
:102FE00009A0FDF755F80A488021426B7D20C000FA
:102FF00042432078FDF7BEF802E003A0FDF748F851
:10300000002010BD66ACFF1F0A4F4B0A00000000F5
:10301000F8C8FF1FF0B585B00024254F0D460646C1
:1030200000940194029480213878FDF7A9F8304685
:10303000204E01282BD1286800783F2803D0706BE0
:10304000694603900DE01CA0716BFDF721F82CE0A0
:103050000246303A092A1AD80855082C17D2641C9F
:10306000E4B22868005D0028F2D10919487068466A
:10307000FDF710F981B20A226846FEF781F8706305
:103080000F2001F057F900280FD0039870630BA0B0
:10309000FCF7FEFF7D20726BC00042438021387830
:1030A000FDF768F8002005B0F0BD06A0F0E70000CD
:1030B00066ACFF1FF8C8FF1F0A2564000A4552527C
:1030C0000A0000000A4F4B0A00000000F8B5204E2D
:1030D0000C46074680213078FDF752F81D4DA87840
:1030E000002803D01CA0FCF7D3FF01E0012F01D082
:1030F0001EA020E0206801783F290CD0FDF7CAF817
:1031000021680D280CD30C221A48FDF7CFF8194975
:103110000020087307E0174917A0FCF7B9FF09E082
:103120001448FDF7C9F8288D1249FDF7CBF80020A7
:10313000FDF7CEF811A0FCF7ABFF7D206A6BC00055
:10314000424380213078FDF715F80020F8BD0000DB
:1031500066ACFF1FF8C8FF1F0A4E4120696E204D64
:103160006173746572206D6F646500000A45525288
:103170000A0000005BA9FF1F0A2573000A4F4B0AD3
:1031800000000000F8B5404F0C4606468021387814
:10319000FCF7F6FF3D4D012E60D1206801783F29F4
:1031A00036D03BA12E6BFCF7BBFF002835D03AA1EF
:1031B0002068FCF7B5FF002832D039A12068FCF761
:1031C000AFFF00282FD038A12068FCF7A9FF002806
:1031D0002CD037A12068FCF7A3FF002829D036A106
:1031E0002068FCF79DFF002826D035A12068FCF759
:1031F00097FF002823D034A12068FCF791FF002816
:1032000020D033A12068FCF78BFF00281CD025E0DC
:1032100031A0296BFCF73CFF28E04B20800114E033
:103220004B20C00111E0E12080010EE04B200002A4
:103230000BE04B20400208E0E120000205E0E12025
:10324000400202E0254800E025482863B0420DD046
:103250000E2001F06FF8002802D02E6321A006E0B6
:1032600022A0FCF715FFFFF763FD02E01FA0FCF7AB
:103270000FFF7D206A6BC000424380213878FCF745
:1032800079FF0020F8BD000066ACFF1FF8C8FF1FE3
:103290003438303000000000393630300000000093
:1032A0003134343030000000313932303000000029
:1032B000333834303000000035373630300000000D
:1032C00031313532303000003530303030300000B0
:1032D00031303030303030000A25640020A1070042
:1032E00040420F000A4552520A0000000A4F4B0AA2
:1032F00000000000F3B587B000274E4D0C46009744
:10330000019780212878FCF73BFF07984A4E012857
:1033100002D002280AD069E0206800783F2865D1F1
:10332000B28C718C45A0FCF7B3FE81E0708C0590E7
:10333000B08C6946049008E00246303A092A55D814
:10334000C855042F52D27F1CFFB22068C05D0028F0
:10335000F2D1C91948706846FCF79CFF81B20A2275
:103360006846FDF70DFF80B2374A811F91423DD27A
:1033700069468881002108466F467854491CC9B2C5
:103380000529FAD3002208E00B46303B092B2DD843
:10339000B954042A2AD2521CD2B26168895C00292D
:1033A000F2D1B91848703846FCF774FF81B20A228E
:1033B0006846FDF7E5FE80B2234A811F914215D28F
:1033C00069468989884202D26846018101E06A46DD
:1033D0001081718468460089B084092000F0AAFF3A
:1033E000002811D0059870840498B08417A0FCF7C9
:1033F0004FFE7D20726BC000424380212878FCF78D
:10340000B9FE002009B0F0BD0B49B27F2231F01C9B
:10341000FCF764FF0120FCF75BFF03AA02210D48C3
:10342000FEF714F90B4802AA0221401CFEF70EF920
:1034300009A0DCE766ACFF1FF8C8FF1F0A2564205F
:103440002D202564000000007A0C00000A4552522D
:103450000A000000110300000A4F4B0A00000000A0
:1034600010B5094C80212078FCF78AFE07A0FCF7F4
:103470000FFE08488021426B7D20C0004243207827
:10348000FCF778FE002010BD66ACFF1F0A4F4B0A08
:1034900000000000F8C8FF1FF8B51B4D0F46064698
:1034A00080212878FCF76CFE184C012E1CD138685E
:1034B00000783F2805D0267831280BD030280BD053
:1034C00012E02078002801D011A000E015A0FCF740
:1034D000DFFD16E0012000E000202070002000F059
:1034E00029FF00280DD0267012A0FCF7D1FD7D2009
:1034F000626BC000424380212878FCF73BFE00202D
:10350000F8BD0EA0F1E7000066ACFF1FF8C8FF1F72
:103510000A4E6F742D636F6E6E65637461626C65C5
:10352000000000000A436F6E6E65637461626C6533
:10353000000000000A4552520A0000000A4F4B0AE0
:1035400000000000FEB500242A4F0D4606460094F8
:10355000019480213878FCF713FE3046264E01286E
:1035600031D1286800783F2803D0F08C694602905A
:103570000DE0F18C21A0FCF78BFD38E00246303ADB
:10358000092A20D80855042C1DD2641CE4B22868EE
:10359000005D0028F2D1091948706846FCF77AFEF0
:1035A00081B20A226846FDF7EBFD80B20146144A5B
:1035B0000A39914207D2F0840A2000F0BBFE0028AD
:1035C0000ED00298F0840FA0FCF762FD7D20726B94
:1035D000C000424380213878FCF7CCFD0020FEBDBE
:1035E000054AC520263202218000FEF72FF807A0E9
:1035F000EAE7000066ACFF1FF8C8FF1F0A25640059
:10360000770C00000A4552520A0000000A4F4B0A8C
:103610000000000070B5244E044680213078FCF78D
:10362000AFFD224D002C34D1214C207828706078D9
:103630006870A078A870E11CE81CFCF73DFE002033
:1036400021182A18401C097CC0B211740628F7D32F
:103650001749164816311630FCF72EFEA07FA877C2
:10366000E07FE877208C2884608C6884A08CA88414
:10367000E08CE884206B2863208D2885608D688528
:10368000A08DA885606B686300F012FF09A0FCF7AD
:10369000FFFC7D206A6BC000424380213078FCF73C
:1036A00069FD002070BD000066ACFF1FF8C8FF1F59
:1036B00068A9FF1F0A4F4B0A00000000F8B52C4D07
:1036C0000C46074680212878FCF75AFD294E012F29
:1036D0004CD1206801783F291DD027A1FCF720FD9F
:1036E000002834D025A12068FCF71AFD002827D037
:1036F00023A12068FCF714FD002823D021A1206815
:10370000FCF70EFD00281FD01FA12068FCF708FD64
:1037100000281BD02AE0FCF7E7FD0300FCF712FDB0
:10372000050406080A0C260018A006E019A004E00B
:103730001AA002E01AA000E01AA0FCF7A9FC08E019
:10374000012004E0022002E0032000E00420FCF756
:10375000D1FD15A0FCF79CFC7D20726BC00042439C
:1037600080212878FCF706FD0020F8BD10A0F1E7C5
:1037700066ACFF1FF8C8FF1F323536003132380003
:103780003634000033320000313600000A3235365C
:10379000000000000A313238000000000A36340010
:1037A0000A3332000A3136000A4F4B0A000000008B
:1037B0000A4552520A000000F8B51E4C0F46064654
:1037C00080212078FCF7DCFC1B4D012E21D13868CC
:1037D0001A4900783F2808D00022542815D00DDC63
:1037E00030280FD031280DD10FE00878002801D003
:1037F00013A000E014A0FCF74BFC04E0662801D005
:10380000742802D00A7012A004E0E87F00280DD0CE
:103810000A7011A0FCF73CFC7D206A6BC00042439B
:1038200080212078FCF7A6FC0020F8BD012008705C
:10383000E9E7000066ACFF1FF8C8FF1F58A9FF1F8B
:103840000A747275650000000A66616C7365000099
:103850000A4F4B0A000000000A4552520A000000BD
:103860000148406B70470000F8C8FF1F0148006B1B
:1038700070470000F8C8FF1F70B5194D044628783E
:10388000207068786070A878A070E91CE01CFCF7D4
:1038900013FD002029182218401C097CC0B21174A5
:1038A0000628F7D30E49204616311630FCF704FDE2
:1038B000A87FA077E87FE077288C2084688C6084DC
:1038C000A88CA084E88CE084286B2063288D208558
:1038D000688D6085A88DA085686B606370BD0000F1
:1038E000F8C8FF1F70B5194D044628782070687815
:1038F0006070A878A070E91CE01CFCF7DDFC0020DB
:1039000029182218401C097CC0B211740628F7D36C
:103910000E49204616311630FCF7CEFCA87FA07762
:10392000E87FE077288C2084688C6084A88CA08451
:10393000E88CE084286B2063288D2085688D608565
:10394000A88DA085686B606370BD000068A9FF1F2B
:10395000014800787047000058A9FF1F01484078CF
:1039600070470000F8C8FF1F0148C07F7047000083
:10397000F8C8FF1F014840787047000058A9FF1F92
:1039800010B5FCF7BDFC002803D104210148FCF769
:10399000BDFC10BD00400311F8B5274D0F4606468B
:1039A00080212878FCF7ECFB244C012E25D13868C7
:1039B00000783F280AD06678542814D00FDC3028CD
:1039C00013D031280FD0462817D10EE06078002898
:1039D00001D01BA000E01BA0FCF75AFB29E06628E1
:1039E00003D0742809D1012000E00020607001207C
:1039F00000F0A0FC00280DD0667014A0FCF748FB76
:103A00007D20626BC000424380212878FCF7B2FB26
:103A10000020F8BD607800280BD00C2003F0C8FB14
:103A2000012003F0D7FB012003F0D4FB002003F0BA
:103A3000D1FB08A0E2E7000066ACFF1FF8C8FF1F3B
:103A40000A4F6E000A4F6666000000000A45525297
:103A50000A0000000A4F4B0A00000000FEB50024D7
:103A6000074630480E460094019425468021007890
:103A7000FCF786FB38462C4F01283CD13068017892
:103A80003F2905D02822BA5E0292302905D00AE0EB
:103A9000398D26A0FCF7FCFA42E04078582801D086
:103AA000782800D1022569460EE00246303A092AFC
:103AB00005D9113A052A02D9203A052A1BD80855FA
:103AC000042C18D2641CE4B230686219805C0028AF
:103AD000EBD1091948706846FCF7DCFB81B2102273
:103AE0006846FDF74DFB38850B2000F023FC0028CD
:103AF0000FD0029838850FA0FCF7CAFA7D207A6BA8
:103B0000C0004243074880210078FCF733FB0020C7
:103B1000FEBD388D0949FCF7D5FB0020FCF7D8FB2A
:103B200007A0E9E766ACFF1FF8C8FF1F0A30782539
:103B3000780000000A4552520A0000005BA9FF1FEE
:103B40000A4F4B0A00000000F8B5274D0E46074605
:103B500080212878FCF714FB244CA078002803D09F
:103B600023A0FCF795FA2AE0012F28D130680078CD
:103B70003F2808D0E67F0027302814D0312814D001
:103B800032281CD113E0E07F002804D0012804D0A3
:103B9000022814D103E01BA002E01BA000E01BA040
:103BA000FCF776FA12E0E77703E0012000E002205C
:103BB000E077072000F0BEFB002802D0E67714A0D3
:103BC00005E0E07F002801D01348077013A0FCF740
:103BD0005FFA7D20626BC000424380212878FCF7A9
:103BE000C9FA0020F8BD000066ACFF1FF8C8FF1F2F
:103BF0000A4E4120696E204D6173746572206D6FAD
:103C0000646500000A3000000A3100000A3200003A
:103C10000A4552520A00000058A9FF1F0A4F4B0ADA
:103C200000000000F0B585B00027264E0C46054682
:103C3000009701970297039780213078FCF7A0FA4C
:103C40002846214D012824D1206800783F280FD034
:103C5000E91C6846FCF730FB2068FCF71BFB216879
:103C60000D280AD30C22E81CFCF720FBEF7307E0B9
:103C7000E91C16A0FCF70CFA22E0E81CFCF71CFB80
:103C8000032000F057FB002811D06946E81CFCF720
:103C900013FB0FA0FCF7FCF97D206A6BC0004243C8
:103CA00080213078FCF766FA002005B0F0BD0649A7
:103CB000AA7F2231E81CFCF711FB0120FCF708FB6E
:103CC00005A0E7E766ACFF1FF8C8FF1F0A257300D1
:103CD0000A4552520A0000000A4F4B0A0000000039
:103CE000F8B51B4C0D46074680212078FCF748FAB2
:103CF000184E012F01D018A012E0286801783F2942
:103D00001AD017A1FCF70CFA00281CD015A12868BE
:103D1000FCF706FA002818D0F020FCF7FDFA12A0F4
:103D2000FCF7B6F97D20726BC000424380212078F9
:103D3000FCF720FA0020F8BDFCF7F4FA01460CA0CD
:103D4000FCF7A6F9EBE7A020E7E78020E5E7000015
:103D500066ACFF1FF8C8FF1F0A4552520A00000058
:103D600031363000313238000A4F4B0A0000000073
:103D70000A25640070B50C4C054680212078FCF7BC
:103D8000FFF9002D04D109A0FCF782F9FCF7D0FA65
:103D900008488021426B7D20C00042432078FCF718
:103DA000E9F9002070BD000066ACFF1F0D0A4F4B03
:103DB0000D0A0000F8C8FF1FF8B52E4D0F46064645
:103DC00080212878FCF7DCF92B4C012E37D138689C
:103DD00000783F2808D03038A77F0300FCF7B2F9FD
:103DE00005181A1E22262F00A07F0300FCF7AAF94F
:103DF000050406080A0C270020A006E021A004E024
:103E000022A002E023A000E024A0FCF741F924E076
:103E100000200CE00120A0771F260AE00220A077F6
:103E20000A2606E00320A077012602E00420A077FE
:103E30003F26062000F07EFA002802D0A77719A0BE
:103E40000CE03046FCF77AFA0B49A27F2231E01CE5
:103E5000FCF744FA0120FCF73BFA14A0FCF718F930
:103E60007D20626BC000424380212878FCF782F9F4
:103E70000020F8BD66ACFF1FF8C8FF1F0A3564427A
:103E80006D0000000A3064426D0000000A2D3564A8
:103E9000426D00000A2D323064426D000A313064F8
:103EA000426D00000A4552520A0000000A4F4B0AB8
:103EB00000000000F8B51F4D0F4606468021287807
:103EC000FCF75EF91C4C012E20D1386800783F28A1
:103ED00009D0A6784D280FD053280FD06D280BD0CD
:103EE000732813D10AE0A078002801D013A000E0C5
:103EF00014A0FCF7CDF81BE0012000E00020A0702A
:103F0000022000F017FA00280DD0A6700FA0FCF7D1
:103F1000BFF87D20626BC000424380212878FCF707
:103F200029F90020F8BD0BA0FCF7B2F8FCF700FA65
:103F300008A0ECE766ACFF1FF8C8FF1F0A4D6173CD
:103F4000746572000A536C61766500000A4552522E
:103F50000A0000000A4F4B0A0000000070B51C4E1A
:103F6000044680213078FCF70BF91A4D002C25D13E
:103F7000E91C19A0FCF78CF8A878002801D01AA039
:103F800000E01EA0FCF784F821A0296BFCF780F864
:103F9000297C23A0FCF77CF801242819017C25A0AA
:103FA000FCF776F8641CE4B2062CF6D3094923A08A
:103FB0001631FCF76DF825A0FCF76AF87D206A6BD6
:103FC000C000424380213078FCF7D4F8002070BD57
:103FD00066ACFF1FF8C8FF1F0A4E616D65202020E8
:103FE0002020A3BA257300000A526F6C65202020A0
:103FF0002020A3BA4D617374657200000A526F6C81
:10400000652020202020A3BA536C61766500000053
:104010000A4261756472617465203A20256400006B
:104020000A424C45206164647220A3BA253032787C
:10403000000000003A253032780000000A50494E56
:10404000202020202020A3BA257300000A4F4B0A0D
:1040500000000000F8B51C4C0F4606468021207871
:10406000FCF78EF8194D012E01D019A01CE038681C
:10407000194900783F2808D00022542820D00DDCB0
:1040800030280FD031280DD11AE04878002801D00F
:1040900012A000E013A0FBF7FBFF04E0662801D0AC
:1040A00074280DD04A7011A0FBF7F2FF7D206A6BD7
:1040B000C000424380212078FCF75CF80020F8BD66
:1040C00001204870EFE7000066ACFF1FF8C8FF1F33
:1040D0000A4552520A00000058A9FF1F0A7472755F
:1040E000650000000A66616C736500000A4F4B0AA8
:1040F00000000000F0B589B0002468460477009401
:1041000001940294039404948482FF20274607AA12
:1041100001218130069403F0D9F900287ED1684648
:10412000007F01257C4E002802D0012802D026E025
:10413000347000E0357068460477FF2007AA01213B
:10414000823003F0C3F90028E8D16846007F0028D8
:1041500002D0012802D012E0747000E07570684649
:104160000477FF2007AA0121833003F0AFF900286C
:10417000D4D16846007F002807D0012807D067A067
:10418000FBF786FF042009B0F0BDB47000E0B57005
:10419000FF206A460D21843003F098F90028BDD134
:1041A0006946F01CFCF788F86D46EC557F1CFFB2A1
:1041B0000D2FFAD3FF202A460621853003F086F919
:1041C00000282BD1295C3218401CC0B2117406287B
:1041D000F8D300202C54401CC0B20628FAD3FF208C
:1041E0006A460821863003F071F9002816D14A4842
:1041F00069461630FCF760F800202C54401CC0B211
:104200000828FAD368460477FF2007AA01218730DF
:1042100003F05CF9002876D1684600E073E0007F87
:10422000B07768460477FF2007AA0121883003F0A1
:104230004DF9002867D16846007FF0776846848290
:10424000FF2005AA0221893003F040F900285AD145
:104250006846808A308468468482FF2006AA04214A
:104260008A3003F033F900284DD16846008B708402
:104270006846408BB08468468482FF2005AA0221EC
:104280008B3003F023F900283DD16846808AF08402
:1042900068468482FF2005AA02218C3003F016F9BB
:1042A000002830D16846808A308568468482FF20A5
:1042B00005AA02218D3003F009F9002823D16846B0
:1042C000808A708568468482FF2005AA02218E308C
:1042D00003F0FCF8002816D16846808AB085FF20DC
:1042E00004AA04218F30049403F0F0F800280AD1C6
:1042F00004983063FF2004AA04219030049403F052
:10430000E5F8002804D008A0FBF7C2FE03203AE736
:1043100004987063002036E7F8C8FF1F0A525F4612
:104320005F445F4572720A000A525F465F457272CF
:104330000A000000F0B589B0002569460D770246F5
:10434000009501950295039504958D8201202C46D8
:10435000074653496E4606951300FBF7F3FE100916
:1043600013212B3B50686D72777F84898E959A60FC
:1043700008780028304601D0077700E00577FF2055
:10438000813008E048780028304601D0077700E007
:104390000577FF20823007AA012103F0A9F83EE04B
:1043A00088780028304601D0077700E00577FF20A5
:1043B0008330F0E73046C91CFBF77EFFFF208430D6
:1043C0006A460D2103F094F83555641CE4B20D2CB7
:1043D000FAD324E00819007C3055641CE4B2062CA2
:1043E000F8D3FF32813290B23246062103F080F8D2
:1043F00000217554491CC9B20629FAD30FE0284997
:1044000030461631FBF758FFFF2086306A460821F8
:1044100003F06EF83555641CE4B2082CFAD300287A
:1044200003D020A0FBF734FE052009B0F0BD887F43
:104430003077FF208730AEE7C87F3077FF208830A5
:10444000A9E7088CB082FF2089301AE0488C3083BD
:10445000888C7083FF208A3006AA1FE0C88CB08247
:10446000FF208B300DE0088DB082FF208C3008E0FB
:10447000488DB082FF208D3003E0888DB082FF2010
:104480008E3005AA022188E7086B0490FF208F3048
:1044900003E0486B0490FF20903004AA04217CE7DD
:1044A000F8C8FF1F0A575F465F4572720A00000096
:1044B00010B500242046FFF73DFF641CE4B20F2C2A
:1044C000F8D910BDFEB5002407462F480E460094CB
:1044D0000194254680210078FBF752FE38462B4F89
:1044E00001283CD1306801783F2905D02A22BA5EE4
:1044F0000292302905D00AE0798D25A0FBF7C8FD8E
:104500003FE04078582801D0782800D1022569463C
:104510000EE00246303A092A05D9113A052A02D995
:10452000203A052A1BD80855042C18D2641CE4B282
:1045300030686219805C0028EBD109194870684620
:10454000FBF7A8FE81B210226846FCF719FE7885B9
:104550000C20FFF7EFFE00280FD0029878850EA000
:10456000FBF796FD7D207A6BC00042430648802110
:104570000078FBF7FFFD0020FEBDB98D788DFBF7BD
:10458000E3FE07A0ECE7000066ACFF1FF8C8FF1FC2
:104590000A307825780000000A4552520A000000CF
:1045A0000A4F4B0A00000000FEB5002407462F48C2
:1045B0000E4600940194254680210078FBF7E0FD2B
:1045C00038462B4F01283CD1306801783F2905D06F
:1045D0002C22BA5E0292302905D00AE0B98D25A0BE
:1045E000FBF756FD3FE04078582801D0782800D1ED
:1045F000022569460EE00246303A092A05D9113AE9
:10460000052A02D9203A052A1BD80855042C18D2AD
:10461000641CE4B230686219805C0028EBD109198F
:1046200048706846FBF736FE81B210226846FCF7F8
:10463000A7FDB8850D20FFF77DFE00280FD002985A
:10464000B8850EA0FBF724FD7D207A6BC0004243A5
:10465000064880210078FBF78DFD0020FEBDB98D56
:10466000788DFBF771FE07A0ECE7000066ACFF1F3A
:10467000F8C8FF1F0A307825780000000A4552521A
:104680000A0000000A4F4B0A00000000F8B510496C
:10469000104CCF68206B8E680D68002802D1E12095
:1046A000400220630B484022403800780021FBF78D
:1046B0003DFD094900208870246B02F037F8009016
:1046C0003B46324621462846FBF718FDF8BD000060
:1046D000948E0211F8C8FF1F58A9FF1F0A48094904
:1046E000427D0A70491C027D0A70491CC27C0A7016
:1046F000491C827C0A70491C427C0A70491C007C5F
:10470000087070476509FF1FF8C8FF1F7CB50020BF
:10471000174D0090019080212878FBF731FD302063
:104720006B461870332159702E229A70D87031243C
:104730001C715A719871D9710EA0FBF7A9FC002465
:104740006E46315D0DA0FBF7A3FC641CE4B2082C9F
:10475000F7D30BA0FBF79CFC0B488021426B7D201C
:10476000C00042432878FBF705FD00207CBD000017
:1047700066ACFF1F0A7665723A20000025630000D0
:104780000A4F4B0A00000000F8C8FF1FFFB583B0B6
:1047900016460F461B2A01D0522E04D10398FBF770
:1047A000D9FD00281BD01D49039889684000085A8C
:1047B000FEF76EF904002DD00125601C2670002F35
:1047C00003D00699B847401C85B2300613D5102196
:1047D000039802F033FE002804D0192616E01320B7
:1047E00007B0F0BD6219E9B22046FEF77FF9060076
:1047F0000CD10C35ADB204216846018001940581CD
:1048000069460398FEF72AF9060004D02046FBF714
:1048100023FD00E013263046E2E7000008AEFF1F4C
:10482000024610B50848F42A00D9F422428092B218
:10483000001DFBF73FFC0548034902780448008847
:10484000FBF750FC10BD00000CCEFF1F66ACFF1F35
:104850006AACFF1F10B50C4602F064FD002804D0BE
:1048600040882146FBF7C8FC10BD122010BD002275
:10487000002913D0002811D0012806D04A799206C9
:10488000920E4A71032805D007E04879C0221043F0
:10489000487102E0402002434A71012210467047ED
:1048A00070B5124800250078052108421BD0202051
:1048B000FBF78AFC0E4C0028A06013D020220021B8
:1048C000FBF734FC2020FBF77FFCE060002804D0DD
:1048D00020220021FBF72AFC05E0A068FBF75CFC26
:1048E0000020A0601325284670BD000019AEFF1FF0
:1048F0008CAEFF1F70B50A4D064600240E206043A3
:10490000401906223146FBF7ABFB002801D02046B8
:1049100070BD641CE4B20A2CF0D30A2070BD000004
:1049200040C9FF1F7FB50D460A280BD2002D09D0C4
:10493000062148436A460E21203002F0C7FD0400DC
:1049400003D007E0022004B070BD06226946284665
:10495000FBF780FB2046F6E700218A00835A491CBA
:10496000DB43835212189378C9B2DB4393700A2950
:10497000F3D3704710B50E4B5979002900D00121AF
:104980009A78002A00D004220A439979002900D09D
:1049900008211143DA79002A00D010220A43197A3B
:1049A000002900D020211143FDF76CF910BD000053
:1049B000ECAAFF1F002909D0012807D149798909EC
:1049C0008901C02902D0402901D00220704703206C
:1049D0007047FFB500200E4608701AE01C5C401CB2
:1049E000C5B2002C17D02819904214D85F5D6D1CF9
:1049F000EDB2384600F0C1FE002806D0641EE0B2D9
:104A0000307000998F4202D1581904B0F0BD40199E
:104A1000C0B29042E2D30020F7E7000010B5044C8A
:104A20002068002803D0FBF7B7FB0020206010BDF2
:104A300078AEFF1F70B5104D8400E868005900285B
:104A400019D0006A002801D0FBF7A6FBE8680059DE
:104A5000406A002801D0FBF79FFBE8680059806A94
:104A6000002801D0FBF798FBE8680059FBF794FB9E
:104A7000E9680020085170BD7CAEFF1F10B5044CE2
:104A80006068002803D0FBF787FB0020606010BD42
:104A90007CAEFF1F011E044805D104498978002916
:104AA00001D00248801D70470CDDFF1F18AEFF1FAC
:104AB000014880787047000018AEFF1F0148406829
:104AC00070470000FCDCFF1F014880687047000051
:104AD000FCDCFF1F0148C06800687047FCDCFF1F5A
:104AE00010B50748C0680168491C01600548007896
:104AF000FF2803D001218903FBF7D6FA10BD00007F
:104B0000FCDCFF1F18AEFF1F02484068002800D0E1
:104B10000120704774AEFF1FFFB581B00F460D9E98
:104B20000A9D039802F0E6FB040042D00198002899
:104B30003FD120791021084320710499490702D5FB
:104B40000221084301E0FD21084020710B9928460D
:104B500008430C9908433043207902D004210843CC
:104B600001E0FB2108402071002E06D030691022A0
:104B700020623146A018FBF76DFA002D01D0002FFE
:104B800005D00B98002814D0012F08D011E0606ADE
:104B9000002801D0FBF700FB1C21284606E0606AD4
:104BA000002801D0FBF7F8FA1C210B98FBF7FAFA62
:104BB00060620398274C8700E068C059002846D0FF
:104BC000002D11D0006A002807D11C20FBF7FCFA49
:104BD000E1680028C959086206D0E0681C22C05963
:104BE0002946006AFBF736FA0C98002813D0E068D3
:104BF000C059406A002807D11620FBF7E5FAE168A2
:104C00000028C959486206D0E0681622C0590C999C
:104C1000406AFBF71FFA002E13D0E068C059806A83
:104C2000002807D11420FBF7CFFAE1680028C95902
:104C3000886206D0E0681422C0593146806AFBF7CA
:104C400009FA0B9B049A0399019802F08BFC05B0BA
:104C5000F0BD00007CAEFF1FF3B581B0019802F0FB
:104C600049FB050029D00E20FBF7DEFA040024D012
:104C70002620FCF7B1FE060000D12E78D02020704F
:104C8000002767700B20A0700622E91DE01CFBF7CF
:104C9000E1F9019860810298C1070120002901D043
:104CA000207300E027730299890701D5607300E043
:104CB0006773F0B22146FBF799FAFEBD10B5818803
:104CC0001F4B0124CA1A994237D011DC1D4BCA1A56
:104CD000994219D007DC1C4A8A1810D0022A1ED02B
:104CE000032A29D11BE0472A27D0482A24D124E0CF
:104CF0001300FBF727FA06212222222222218068B4
:104D0000007800F0FBFC08E08068827841781202AD
:104D1000891889B2007800F051FD04460DE0094A77
:104D2000921E914201D1012200E0002280680178A8
:104D3000104600F02BFD00E00024204610BD0000CE
:104D4000532000000A200000FADFFFFF70B51A4D63
:104D50001A4A0146002628781268194C01290CD0FD
:104D6000002A09D017490978490705D50221FBF720
:104D700007FA6680FFF752FE70BD6188002903D0F4
:104D8000114B1B78002B05D0002AF5D01078FCF7CA
:104D9000F9FD70BD3C2902D33C39618070BD022110
:104DA000FBF7EEF962887D20C0004243022128789B
:104DB000FBF7E0F9668070BDA9AEFF1F78AEFF1F5C
:104DC0008CAEFF1F19AEFF1F1BAEFF1F08B5418938
:104DD00000910389C2888188C07800F0DBFB08BDA0
:104DE000F0B504468088A12189004843304987B046
:104DF00009684018FF30FF300230A1794167002C6C
:104E000054D02C4D6868002823D006782A480068C2
:104E1000002804D04168002901D00020884721469D
:104E2000E07908310591FFF7C5FDE0710246277D65
:104E3000638A218AE089019002A88AC0A088009034
:104E4000E0783146059B02F005FCE078002802D0AE
:104E50000DE01A48D9E7E079E2896B46059907C366
:104E6000A379A1880122304602F0F2F9E070686867
:104E7000002811D0FFF702FE287800280CD06978AE
:104E8000FFF7E8FC002807D0E078A28803462978DD
:104E900002F00DFC00202870A0881721FBF750FFBE
:104EA000A088FDF773FDA088FDF7A4FD07B0F0BD55
:104EB0003409FF1F7CAEFF1FACAEFF1F18AEFF1FF3
:104EC00070B504460025808802F014FA002803D04B
:104ED0000578A08802F096FA134E3078002808D0A2
:104EE000854206D17178FFF7B5FC002809D0002073
:104EF0003070002D05D0A379A288A078294602F051
:104F0000D6FBA088F26881005158002901D0FFF734
:104F100091FDA0881721FBF713FFA088FDF736FD50
:104F2000A088FDF767FD70BD7CAEFF1F70B582885D
:104F3000294D0124531B2949AA4242D019DC284D8E
:104F4000531BAA4218D00BDC264BD21826D0254B77
:104F50001033D2181ED0032A17D0042A39D10BE0FF
:104F6000012B09D0022B07D0032B21D0042B30D1E9
:104F70001AE0433B072B2CD8496800292AD009683E
:104F8000002927D08847044624E08068007800F094
:104F9000ADF81FE0806800F001F9F4E78068411C7B
:104FA000007800F0D9F8EEE783681B78002B11D069
:104FB000896800290ED00B6808E001461046984722
:104FC000E1E709490968002904D04B68002BF4D1B6
:104FD00000E00024204670BD0E200000A8AEFF1F98
:104FE00008200000F7EFFFFF84AEFF1F10B5094C4B
:104FF000A17800290CD001460622A01DFBF72AF853
:10500000A11DA078FFF733FCA01DFBF7A9F910BD87
:10501000002010BD18AEFF1F1CB52F4903780124D6
:105020000A68912B02D0A22B2ED13EE041780529AF
:1050300009D00E2904D00F2908D03E2924D115E02B
:10504000FFF774FF10E0FFF73BFF3AE0014680886E
:10505000224B0124C31801D0062B15D1002A30D0D1
:105060005268002A2DD0904704462AE08178012416
:10507000032917D004DC012911D0022904D105E04D
:1050800015291ED016291CD000241AE0144989685D
:10509000002916D04968002913D0884711E0FFF78E
:1050A0009FFE0EE0FFF792FE0BE00E4909780429FF
:1050B00009D0002A05D05268002A02D001460A48C9
:1050C000904720461CBD00216A4611800179408826
:1050D000FDF7DAFBF5E7000084AEFF1FF3DFFFFF0B
:1050E000A8AEFF1F19AEFF1FFFFF0000F8B5164F57
:1050F0000646BD1F2878FF2814D00A20FBF794F835
:1051000004000FD0D020207066700820A070A8780E
:10511000E07006223946201DFAF79CFF21462878C8
:10512000FBF764F8E87801280DD1084800680028EA
:1051300003D08068002800D080470648044A042134
:105140000078FBF747F8F8BD1EAEFF1FACAEFF1F9F
:1051500060EA0000A9AEFF1F70B5002405460028D4
:1051600005D1002903D006220B48FAF773FF0A483D
:1051700010380178012907D10124002D06D0002123
:105180000170284600F0E2F9204670BD022101704E
:10519000FBF7ECF8F8E700000CDDFF1F10B500246A
:1051A000002813D002780B49002A03D14288CA8212
:1051B00002790A760A78022A08D102780124002AA4
:1051C00006D000220A70007800F0C0F9204610BD19
:1051D0000322F7E7FCDCFF1F01494860704700002D
:1051E000A8AEFF1FF8B50746002000907D4CB978A7
:1051F000054607266079A2790B00FAF7A3FF080598
:10520000E61A36365E98CAE6787800285AD175488C
:105210000622F91C3C30FAF71DFF0120A071714BEA
:105220000146423362786079FCF7CCFD002849D111
:10523000CEE07978002945D1F978002906D06A4B6B
:10524000A2780021FCF7BEFD78700AE0022A0BD09C
:105250000121FAF79BFF002803D101216079FAF7B9
:1052600023FF787800282DD1F8BD7B78002B29D139
:10527000032909D0A289002A0CD0217800290AD05C
:105280000121FAF777FF06E0052A01D0022012E09B
:10529000062010E02570A079062802D0042802D04C
:1052A00008E0052007E00120207001466079FAF748
:1052B000FBFE8DE00320A0718AE07878002803D0FF
:1052C000312832D0A67183E046480622391D363097
:1052D000FAF7C0FE7889E081B8892082F889608277
:1052E0000520A071A28A002A03D002216079FAF772
:1052F00041FFB889E083F8892084388A6084E078A7
:1053000001280AD11F20FCF767FB7D21C900484313
:10531000024604216079FAF72DFF7A89F878042390
:10532000391DFBF75FFF257052E02570C2E72D485D
:10533000062200213630FAF7F9FEE58325846584DC
:1053400004216079FAF71CFF08216079FAF718FF49
:10535000B979082911D00320A07124A0FAF798FE8A
:105360002748012149020078FAF79EFE207800289C
:1053700005D06079FCF706FB07E00420ECE701208C
:10538000207001466079FAF78FFE0020C043E0816B
:105390001EE00821FAF7F4FE7878002800D063E7D1
:1053A000F888E083388920847889608404216079D2
:1053B000FAF7ECFE0028F2D1A06A0028EFD00368CB
:1053C000628C218CE08B9847F8BD00980028FBD0B8
:1053D000606A0028F8D001680029F5D0A0798847D4
:1053E000F8BD0000FCABFF1FD4CCFF1F5B4449534A
:1053F000435D2E726561736F6E20253032780A002E
:1054000066ACFF1F10B50178224C912906D0A22965
:1054100026D0D02901D1FFF7E5FE10BD41780E2935
:105420000AD00F29F9D181881B4A9142F5D18178A0
:105430001AA0FAF72DFE10BD81881C4A9142FAD1BC
:10544000816803200856A1790529F4D17F28F2D07C
:10545000616A0029EFD049680029ECD0884710BD67
:1054600041791329FBD10089012802D12079022832
:1054700008D00520FCF7B0FA024608216079FAF757
:1054800079FE10BD08216079FAF77AFEFCF704FA7C
:1054900010BD0000FCABFF1F322000005B484349F9
:1054A000205048595D20253278200A00051400005C
:1054B0007CB5144C0546E08BE18A88420AD3218BE7
:1054C000884207D8208C618B884203D1608CA18BE5
:1054D000884216D00520FCF77FFA0646E08A694626
:1054E0000880208B4880608B8880A08BC880627980
:1054F000E089FDF7D5F92571324608216079FAF780
:1055000039FE7CBDFCABFF1FF8B507460E460846CA
:1055100001F0F0FE040018D02620FCF75DFA05002B
:1055200000D125780620FAF77FFE04000DD0062270
:105530000021FAF7FBFDD020207067700E20A070CC
:10554000A680E8B22146FAF751FEF8BD70B50F4DBE
:1055500006462878FF2818D00E20FAF765FE0400CA
:1055600013D0D020207066700020A0700622084959
:10557000E01CFAF76FFD06481038C18A6181007E91
:10558000207321462878FAF731FE70BD18AEFF1F50
:105590000CDDFF1FFFB581B01E4617460D460C20DF
:1055A000FAF742FE040013D0284601F0A3FE0028BB
:1055B00010D00078D0212170019961700721A1706D
:1055C000A580E78026810A9961812146FAF70EFEBF
:1055D00005B0F0BD0048ECE718AEFF1F70B50D4DEB
:1055E000044628680E46002812D00620FAF71CFE52
:1055F000010009D0D02008704C70032088708E8084
:1056000028680078FAF7F2FD002C01D0FFF706FABF
:1056100070BD000078AEFF1FFFB581B01F460E467B
:10562000084601F067FE050022D01020FAF7FCFDC5
:1056300004001DD010220021FAF778FD2620FCF787
:10564000CBF9002800D12878D02121700199617010
:105650000F21A170A6800399217267720A99A17225
:105660000B99E1720C99E160C0B22146FAF7BEFDD8
:1056700005B0F0BDF0B51F4D85B02868002837D0C3
:105680008778FCF721FA002805D00A20FCF7A4F956
:1056900004900B200EE001F04FF9002805D0062001
:1056A000FCF79AF90490072004E00820FCF794F92D
:1056B00004900920FCF790F904460F480078002870
:1056C00014D001262968C878091DFFF7D0F8296889
:1056D0006D46CA7A8B7A091D0BC5039233463A464A
:1056E00021460498FAF748FE05B0F0BD0026E9E728
:1056F0000120F9E778AEFF1F1AAEFF1F10B5094968
:10570000096800290CD0002805D101204870FAF75B
:105710004FFD002802D00021FFF760FF012010BDDF
:10572000002010BD78AEFF1FF8B50C4601F0E2FD79
:10573000020021D026201462FCF74EF905062D0E3A
:1057400000D115789679D01D00901020176AFAF7CD
:105750006BFD040010D0D020207000206070092064
:10576000A070E6700622201D0099FAF773FC21460E
:105770002846E760FAF73AFDF8BD411E152903D91E
:10578000FF2801D0002070470120704770B50A4EF5
:10579000054630780C46FF280DD00420FAF744FD6A
:1057A000010008D0D02008704C7002208870CD70A5
:1057B0003078FAF71BFD70BD8CAEFF1FF3B5284D96
:1057C00081B0286800284AD04078264E012803D0AE
:1057D0003078002831D041E001F0AEF8224F0028A7
:1057E00013D00120FCF7F8F80446412808D91F4AD5
:1057F00002213878FAF7EEFC1D483C3C44800EE06C
:105800007D20C0002246424303E00020FCF7E4F87C
:105810000246002A03D002213878FAF7ABFC296847
:10582000022048703078002802D00020307015E047
:1058300002990198FFF7D2FE10E00320019CFAF7CD
:10584000F3FC010008D0D02008704C700420887050
:1058500028680078FAF7CAFCFFF7E0F80120FEBDDF
:1058600078AEFF1F1BAEFF1FA9AEFF1F60EA00004E
:105870008CAEFF1F30B5094A0021137809E0956806
:105880008C002C5B844202D18800401930BD491C39
:10589000C9B29942F3D3002030BD0000B4AEFF1F5F
:1058A00010B50C46FFF7E6FF00280DD0002C00D005
:1058B00020608078FE2803D0FF2803D0162010BD7A
:1058C000172010BD002010BD022010BDFFB581B013
:1058D000FF201E46174605300A9DFAF7A5FC040076
:1058E0001BD0B02020706770029860802671002D58
:1058F00006D02046FC2229460830FAF7ABFB05E02B
:105900002046FC2200210830FAF710FC21460198BD
:10591000FAF76CFC002005B0F0BD1320FBE7000097
:105920000548172202800988172901D204207047F0
:10593000018000207047000014AEFF1F0020704758
:1059400008B50A460888498888420BD8002809D03B
:10595000002300931379521DFCF7FEFC002803D0AE
:10596000002008BD012008BD0A2008BDF3B50D4682
:1059700008884988002687B0814215D3002813D0B3
:10598000002769460F710097002369881A46FCF7C3
:10599000E3FC04004FD068460079002807D0694630
:1059A0004979012925D008E0012009B0F0BD21780E
:1059B00002291BD002216A4651711222504301AACA
:1059C0006189801841806846007912235843801805
:1059D0001022001D6168FAF73DFB68460079401C03
:1059E0000106090E684601711FD11AE001216A46BD
:1059F0005171217802291ED1820001A861891218F3
:105A000051806A4612796168920010180222001DC6
:105A1000FAF720FB6A461079401CC0B210710528C5
:105A200003D261890A48814200D101266089401C65
:105A300080B2002EA7D068460079002805D001A9C1
:105A40000798FAF7E3FF0020AFE70A20ADE7000070
:105A5000FFFF000038B50C4608884988884215D8F1
:105A6000002813D02379621D02210B48FAF753FF57
:105A700000280DD000200090237961882088621DC5
:105A8000FCF76AFC002805D0002038BD012038BD95
:105A9000102038BD0A2038BD508F021108B50A46C3
:105AA0000888498888420BD8002809D00023009331
:105AB0001379521DFCF750FC002803D0002008BDCC
:105AC000012008BD0A2008BDF8B500250F4606468E
:105AD0000C46E03717E06800205A0021FCF716FC5E
