:020000041102E7
:1000000003B40148019001BD7511000003B401481B
:10001000019001BD75A9000003B40148019001BD24
:10002000C93E000003B40148019001BD9DA9000034
:1000300003B40148019001BD8944000003B40148A4
:10004000019001BD2144000003B40148019001BDAD
:10005000750F000003B40148019001BD113000008C
:1000600003B40148019001BD53B9000003B4014835
:10007000019001BDB30E000003B40148019001BD21
:100080006189000003B40148019001BD1907010016
:1000900003B40148019001BDA9D8000003B4014890
:1000A000019001BDB352010003B40148019001BDAC
:1000B0000D52010003B40148019001BD8B520100B3
:1000C00003B40148019001BDC1A5000003B401487B
:1000D000019001BD9D6A000003B40148019001BD7B
:1000E000116E000003B40148019001BDE94C01000C
:1000F00003B40148019001BDCD4C010003B4014897
:10010000019001BD51B8000003B40148019001BD48
:1001100085C1000003B40148019001BD2DFC000021
:1001200003B40148019001BD25E7000003B4014874
:10013000019001BDEDB8000003B40148019001BD7C
:100140003148000003B40148019001BDC53F0000E3
:1001500003B40148019001BDF5D5000003B4014886
:10016000019001BDF1FA000003B40148019001BD06
:10017000FD62FF1F03B40148019001BD99460000D4
:1001800003B40148019001BD1547000003B40148C4
:10019000019001BDC5F0000003B40148019001BD0C
:1001A00079F4000003B40148019001BD63EC000044
:1001B00003B40148019001BD05FF000003B40148EC
:1001C000019001BD3161000003B40148019001BDFF
:1001D00059E4000003B40148019001BDD5E40000DA
:1001E00003B40148019001BD01BF000003B4014800
:1001F000019001BD21F1000003B40148019001BD4F
:1002000039B8000003B40148019001BD77F1000046
:1002100003B40148019001BDC1E2000003B40148EC
:10022000019001BD154D010003B40148019001BDCD
:100230008DE3000003B40148019001BD5511010098
:1002400003B40148019001BDA5FD000003B40148BD
:10025000019001BD1141FF1F03B40148019001BD90
:10026000ADAE000003B40148019001BD456B010033
:1002700003B40148019001BD810E000003B40148A0
:10028000019001BD1D4B010003B40148019001BD67
:10029000090E000003B40148019001BDF54E0100B4
:1002A00003B40148019001BD434D010003B401486E
:1002B000019001BD4551010003B40148019001BD09
:1002C0002526000003B40148019001BDC94A010080
:1002D00003B40148019001BD3D4B010003B4014846
:1002E000019001BD014C010003B40148019001BD22
:1002F000F94C010003B40148019001BD691F0000E1
:1003000003B40148019001BD5D17000003B401482A
:10031000019001BD5952010003B40148019001BD93
:100320005125000003B40148019001BD594F01005F
:1003300003B40148019001BD8D12000003B40148CF
:10034000019001BD4D1F000003B40148019001BDA3
:100350005522000003B40148019001BDDD520100A7
:1003600003B40148019001BD1D4D010003B40148D3
:10037000019001BD1DBC000003B40148019001BD06
:100380006DBC000003B40148019001BDB30E000034
:1003900003B40148019001BD0D50FF1F03B4014893
:1003A000019001BD7D50FF1F03B40148019001BDC4
:1003B0001553FF1F03B40148019001BD4D5BFF1FA2
:1003C00003B40148019001BD3D57FF1F03B401482C
:1003D000019001BD017F000003B40148019001BDFF
:1003E000E117000003B40148019001BD7918000035
:1003F00003B40148019001BDD949010003B401488B
:10040000019001BDE928000003B40148019001BD3D
:100410005549010003B40148019001BD295BFF1F4C
:1004200003B40148019001BDC926000003B401488E
:10043000019001BD9147FF1F03B40148019001BD28
:10044000A54EFF1F03B40148019001BDC944FF1F21
:1004500003B40148019001BD0548FF1F03B40148E2
:10046000019001BD2D60FF1F03B40148019001BD43
:10047000D154FF1F03B40148019001BDA957FF1FCC
:1004800003B40148019001BDF554FF1F03B40148B6
:10049000019001BDA552000003B40148019001BDC7
:1004A0003554000003B40148019001BDE156FF1F1F
:1004B00003B40148019001BD9D35FF1F03B40148FD
:1004C000019001BD350E000003B40148019001BD4B
:1004D000C94CFF1F03B40148019001BDE14DFF1F4E
:1004E00003B40148019001BD3519000003B401486F
:1004F000019001BDBD18000003B40148019001BD89
:10050000291C000003B40148019001BD851F0000B3
:1005100003B40148019001BDA946010003B401489C
:10052000019001BD1147010003B40148019001BDD4
:10053000810E000003B40148019001BD7D27FF1F1B
:1005400003B40148019001BDD127FF1F03B4014846
:10055000019001BD114CFF1F03B40148019001BD82
:10056000FD4EFF1F03B40148019001BD614BFF1F09
:1005700003B40148019001BD1D4FFF1F03B40148A2
:10058000019001BD8956FF1F03B40148019001BDD0
:100590002D4BFF1F03B40148019001BD795BFF1F84
:1005A00003B40148019001BD0D5CFF1F03B4014875
:1005B000019001BDBF29FF1F03B40148019001BD97
:1005C000D150FF1F03B40148019001BDB330FF1F9C
:1005D00003B40148019001BD8D30FF1F03B40148F1
:1005E000019001BD9533FF1F03B40148019001BD87
:1005F0008154FF1F03B40148019001BD156B010038
:1006000003B40148019001BD354DFF1F03B40148FB
:10061000019001BDE15BFF1F03B40148019001BDE2
:10062000555CFF1F03B40148019001BD2D80FF1FE1
:1006300003B40148019001BD0974FF1F03B40148D0
:10064000019001BD1574FF1F03B40148019001BD65
:10065000E548000003B40148019001BD29510100A3
:1006600003B40148019001BDD91B000003B4014847
:10067000019001BD5147010003B40148019001BD43
:10068000E15FFF1F03B40148019001BD6D5EFF1FD4
:1006900003B40148019001BD954BFF1F03B401480D
:1006A000019001BDD1A5000003B40148019001BD36
:1006B0007D55FF1F03B40148019001BD7D47FF1F19
:1006C00003B40148019001BD195FFF1F03B4014845
:1006D000019001BDF15CFF1F03B40148019001BD11
:1006E000595FFF1F38B5044600F0B0F9014668466F
:1006F00001704470210A81706A4603210248FFF7A5
:100700007FFC002038BD00001B20000038B50446E7
:1007100000F0C2F90146684601704470210A8170F8
:100720006A4603210248FFF76BFC002038BD000039
:100730001A20000008B5002802D000F05BFB00E0A2
:100740001220694608706A4601210248FFF758FCEA
:10075000002008BD0520000070B50C460546FFF7D7
:1007600055FC21462846FFF757FC0446FFF75AFC84
:10077000204670BDFFB5064601208007816881B024
:100780001D46102211438160554F002038603046CD
:10079000D730FFF74DFC9D20800034468059FF364E
:1007A000CA3401360028306822462CD00121FFF7D8
:1007B00045FC4B4F2078F863641C2046FFF744FC4F
:1007C00000BA000AE17800020843B863241D2046FD
:1007D000FFF73AFC00BA000AE178000208437863A8
:1007E000241D2046FFF730FC00BA000AE178000221
:1007F000084338630398029900020843F860039F96
:1008000000243F1D0EE00021D1E72819401CFFF70E
:100810001BFC0102285D0143324820180160241DA1
:10082000A4B23F1F042FF0DA032F04D0022F08D008
:10083000012F0CD011E02819FFF706FC0102090A6C
:1008400006E0291948780A780102114300E0295D81
:10085000244820180160241DA4B20021214F02E089
:10086000E0190160241DFF2CFADD1D481E4A42607C
:100870000F220261012202604269002AFCD0426913
:10088000930701D4520708D4012080078268102101
:100890008A438260002005B0F0BD01600020039A09
:1008A00011E0C11909682954401C80B20B0A2B546D
:1008B000401C0B0C80B22B54401C80B2090E2954F2
:1008C000401C80B2121F002AEBDC3068401C3060F4
:1008D00001208007826810218A4382600120DAE7C4
:1008E0000000044000010440080F0000FFB5054669
:1008F00001208007816881B01E461022114381606B
:10090000504F002038602846D730FFF791FB9D20DC
:1009100080002C464059CA3480350028E86F2246B2
:100920002BD00021FFF78AFB464F2078F863641C28
:100930002046FFF789FB00BA000AE178000208436D
:10094000B863241D2046FFF77FFB00BA000AE17858
:10095000000208437863241D2046FFF775FB00BAA8
:10096000000AE17800020843386303980299000204
:100970000843F8600024039F0EE00121D2E73019FC
:10098000401CFFF761FB0102305D01432E48201837
:100990000160241DA4B23F1F042FF0DA032F04D0FE
:1009A000022F08D0012F0FD014E03019FFF74CFBB5
:1009B0000102090A09E03119487809780002084360
:1009C00021496118086003E0315D1F48201801606B
:1009D000241DA4B200211C4B02E0E0180160241D7C
:1009E000FF2CFADD0F221748120242600F2202612B
:1009F000012202604269002AFCD00160039A0020B3
:100A0000121D11E0C11809683154401C80B20C0A53
:100A10003454401C0C0C80B23454401C80B2090E7B
:100A20003154401C80B2121F002AEBDCE86F401CDE
:100A3000E86701208007826810218A43826005B040
:100A4000F0BD0000000004400001044010B5114A50
:100A5000A1218900126841438C189D218900095900
:100A6000012901D00C2010BDFFF7F4FA0028FAD1BB
:100A7000E01DF93002790621012A06D041710D21CD
:100A80002046FFF7EDFA002010BDFF202130015570
:100A90000221F5E73409FF1F70B50D46134AA12165
:100AA0008900126841438C189D2189000959012948
:100AB00001D00C2070BD002D16D0FFF7CBFA002816
:100AC000F8D110210B1A2A5C1B19E033401CC0B26C
:100AD0009A711028F6D30121F820015505212046EE
:100AE000FFF7BEFA002070BD122070BD3409FF1F51
:100AF000F8B5069D079C1746002806D0002904D0AB
:100B0000002C04D0012C04D005E01220F8BD2A26C8
:100B100001E0FF260736134A1770134A1060134886
:100B200003701348057013480D4604700024B61D69
:100B300014E0A1212046890048430B490090096830
:100B40004018A1218900FFF791FA07490098096828
:100B50004018FF308130C562AD19641CBC42E8DB2F
:100B60000020F8BD1409FF1F3409FF1F1509FF1FDE
:100B70001609FF1F1709FF1FF8B56B4D0028AB7949
:100B800016D0012B01D0032B12D168490A78FF2A15
:100B90000ED14A78FF2A0BD18A78FF2A08D1CA7869
:100BA000FF2A05D10A79FF2A02D14979FF2930D0DD
:100BB0005F490A78012A1DD000275E4C0F7021780A
:100BC00009296FD00A296DD00B296BD00C2969D067
:100BD0000D2967D0052965D0062963D0AA7B002A94
:100BE0000AD0012A08D0032A06D0022A04D0042AF7
:100BF0000FD101E00C20F8BD002B05D0012B03D054
:100C0000022B01D0032B04D14B4E002869D00128C0
:100C100001D01220F8BDA888012843D0002917D19F
:100C20001300FFF729FA050408100C08240001201E
:100C300020701F200AE002202070202006E00420FF
:100C40002070222002E0032020702120FFF71AFAF2
:100C50002078282101280CD002280AD0042808D0A6
:100C6000032806D007280DD008280BD01AE01E2034
:100C7000ECE7324807602975FFF70AFA00281FD011
:100C8000AF800FE02E488068808D80060AD52D4801
:100C90000278002A06D1AA7B032A05D0022A03D0B3
:100CA000002A01D02120F8BD022202702975140308
:100CB00021463078FFF7F2F921463078FFF7F4F952
:100CC0000120A8802048007800282AD01F48012150
:100CD00002887D20C0004243C9033078FFF7EAF95B
:100CE0001FE0FFF793F9AF802078072808D0082885
:100CF00006D027701648FFF7E3F91E20FFF7C2F968
:100D000010480178002905D0077001214903307887
:100D1000FFF7C4F9FFF786F90121C9033078FFF71F
:100D2000BDF90020F8BD0000A60BFF1F6B09FF1FD7
:100D30001A09FF1F1C09FF1F1B09FF1F4809FF1F7E
:100D4000688CFF1F2309FF1F2109FF1F2C09FF1FAC
:100D500000100040F0B585B0044616489C46154684
:100D600000780B9F0C9E0A9B0D9A04902046202C25
:100D700000D22020202900D2202100930392019745
:100D8000029663462A46FFF7A1F90B49094A4C80AF
:100D900004991170012D01D0042D08D10749802438
:100DA0000978CA0106498B88A3431A438A8005B093
:100DB000F0BD00001C09FF1FA60BFF1F7809FF1FD5
:100DC0006C11FF1F10B5FB2908D8084B9A4205D8B3
:100DD0001B2903D3FF2349339A4201D2302010BD8F
:100DE000034B19825A82FFF777F910BD48080000BB
:100DF0008410FF1FF8B53249097801292AD0022949
:100E000028D0032926D0042924D0052922D0062958
:100E100020D02C49097802291CD004291AD0012994
:100E200018D0032916D0062914D0072912D001782A
:100E3000254C8C462170467866708378A370C27802
:100E4000E270017921714079204D6071AF79012FF5
:100E500002D008E00C20F8BD6746EF712E726B726D
:100E6000AA72E97228730622E91D1948FFF73AF9B8
:100E70000622E91D1748FFF735F9174801780129BF
:100E80000BD12178417061788170A178C170E178CF
:100E900001712179417161798171104801780129CD
:100EA0000BD12178417061788170A178C170E178AF
:100EB000017121794171617981710020F8BD0000D3
:100EC0001C09FF1F2309FF1F6B09FF1FA60BFF1F34
:100ED0007211FF1F8A13FF1FBC0BFF1FD40BFF1FD4
:100EE00070B50446FF30FF300230406F0D460128D8
:100EF00012D1282D10D1A420005BE188401A0B49A3
:100F000080B2884208D321466A3105220E46481F26
:100F1000FFF7EEF8002804D029462046FFF7EEF848
:100F200070BD31462046FFF7EFF870BDFF7F00002F
:100F3000F0B5054687B0E03004902846A030039015
:100F400040380590092080012E462818FF36E136EA
:100F5000029030462030EF1DF9372C468034019046
:100F600098E1E07A801E0300FFF786F81A0E382217
:100F7000396BF638C13892D1A9383838383838F555
:100F8000F4F3F23838F1F038A07A012803D028467B
:100F9000FFF7C0F812E0C2488078002801D016217F
:100FA00029E1608A401E0004000C60826FD06FE16E
:100FB000A07A012804D02846FFF7B2F8A07267E1B2
:100FC000B748C0780028ECD02846FFF7AFF82A468B
:100FD00029462879C832C031FFF7AEF85AE1A07A25
:100FE000012813D00498C07D012821D00498007EE8
:100FF00000287BD02A4629462846D732B031E73030
:10100000FFF7A0F804990120C87543E1A448C0780F
:10101000002805D00399012088710020E06738601E
:10102000B8790128BDD106212846FFF791F831E1B2
:101030002846FFF793F80128B9D10020B8710120A4
:10104000BCE7A07A012803D02846FFF78DF8B5E762
:101050009348C0780028A4D0E88C68842846FFF71D
:1010600065F805990120C87620713879012828791A
:1010700009D001220021FFF77DF800203871387275
:10108000F871B87106E10021FFF77AF8F5E7B1E0F1
:10109000A07A012805D02846FFF778F8012807D064
:1010A000F6E0F8790128BDD12846FFF73FF8F1E0D6
:1010B0000020F871039988710120A072EAE0A07AFB
:1010C000012804D079792846FFF766F876E7744856
:1010D000C178002906D0039A00219171059A012157
:1010E000D176217180780028DED15AE787E0A07A96
:1010F000012803D02846FFF755F85FE76848C07815
:101100000028F2D001203873E88C6884CCE7A07AFC
:10111000012805D00120F8752846FFF749F84DE76A
:10112000787D012806D0608A401E0004000C608291
:1011300013D0ADE0B87D0128B6D1B88B00907B8B81
:101140003A7E29790020FFF739F8ADE788E06BE0B7
:101150003DE02DE01BE009E095E0B88B00907B8B33
:101160003A7E29792220FFF729F843E0A07A012866
:1011700006D02846FFF728F8A0720020707487E098
:101180004748C0780028B0D0012070748CE7A07A5E
:10119000012803D02846FFF71DF80FE74048C07824
:1011A0000028A2D0002030742879FFF719F87BE7D7
:1011B000A07A012803D02846FFF718F82FE0384816
:1011C000C078002891D00199012008726CE7A07ABC
:1011D000012807D0707FB17F084012D0410714D595
:1011E000042017E02E48C07800288AD001990020FA
:1011F000C871E8E722212846FEF7FEFF012007B06C
:10120000F0BD707E7075B07E05E0800701D50220CC
:1012100000E001207075B0752846FEF7F3FFA0725C
:1012200001990020087233E0A07A012807D02846EF
:10123000FEF7EEFFA07202990120087628E0184818
:10124000C0780028A2D1608A401E0004000C608291
:101250001ED11448042200212818FEF7DFFFC9E739
:10126000A07A012803D02846FEF7DEFFA6E60C4848
:10127000C07800280ED00299002008760299C8751F
:10128000FEF7D8FF10E72846FEF7DAFF01288ED0D8
:101290000020B4E7E07B002800D062E6AFE7000062
:1012A000E010FF1F560200000D480C4901600D4977
:1012B00081600B490C4A40314A610D4B0B4A5A611F
:1012C0000C4AC2620C4A82630C4A8A600C49416330
:1012D00007490C484039086270470000550D02115B
:1012E0004000FF1F790B0211016DFF1F896BFF1F6B
:1012F0004002FF1FC962FF1FD161FF1FE10E0211F3
:10130000310F02113164FF1FF8B57E4D7C4900207A
:101310000446A9608200401C8C50FF28FADDA868B2
:101320007949882211507949C1627949097800299F
:1013300002D076491131C1620A21016575490978E7
:1013400081637549C161FEF781FFA96873484861EF
:10135000192080018861084637228030C260082346
:1013600036220B64CA6328224A6436224260322243
:1013700002603B220364C263282242644122C264A9
:101380003922826432224365026528228265022264
:1013900002664222C2651E22836642662822C26617
:1013A00020224267422202675A22436102613C22A4
:1013B0008261AF22D2000A60594A0A63FF222D32AD
:1013C000FF258A60F5350D61CA60564A8A646A0055
:1013D000554EC267CE644A62544A8A627322CA6515
:1013E00006224A658A65CA1DF932022713604F66D4
:1013F0004B27FF008F660927CF664D4F0F678C671D
:101400004B67BB10CB674B4FFF313E60454E86624A
:101410006E008667642646620526C662022606635B
:10142000C8264663846338205060434810644348AC
:101430009061B000D06158101062A8005062D4666C
:101440001E20146790669800906513665364536776
:10145000D0653B4890673B4881315B00D0670E1DEB
:101460000B6029C64B20C0000D611063FF20913036
:1014700048656800C86535483349214A8160344968
:10148000803A11613149334A80318A62324ACA62F4
:10149000324A8261324AC262324A02632B4A32487D
:1014A000403A50633148D0633148C86131482749D8
:1014B0009063314840318861314930488860234821
:1014C0003049803841603049416320492F4AC03952
:1014D000CA60304A2E4B1D4CD3632F4B403C2363D4
:1014E0002E4B8B622E49C1632E49C1602E4850633A
:1014F0002E48E060FEF7B0FE0120FEF7B3FEF8BD17
:101500000004FF1F688CFF1F88D3FF1F6E040000BC
:101510008082FF1F4A0AFF1F3A07000080C3C901EB
:101520009A02000050C30000280A00006A18000058
:10153000204E0000F009FF1F00400011681000005D
:10154000DC05000040420F004967FF1F0001FF1F3C
:101550005531FF1F0970FF1FDD72FF1F3931FF1F5B
:10156000ED08021175070211DD3FFF1FE93EFF1F65
:10157000D97EFF1FD17CFF1F0D31FF1FC50D02114A
:101580000002FF1F0162FF1F0D65FF1F2933FF1FB0
:10159000590702110000FF1F116EFF1F3D63FF1F5F
:1015A0009569FF1F9563FF1F1133FF1F1562FF1F12
:1015B0000A7802708A7842704A88120A8270097921
:1015C000C170042070470A7802700988090A4170C6
:1015D0000220704710B500220EE093005B189C7843
:1015E00004705C88521C240A44701C7984709B88A7
:1015F000D2B21B0AC370001D0B789342EDD81806B7
:10160000800D10BDF8B50D460646497801203170B1
:101610000024761C16E06978012917D01221614355
:1016200049198A7832704A88871C120A7270B61C6F
:1016300010223046091DFEF755FD1037B8B210369E
:10164000641CE4B22978A142E5D8F8BDA10049198B
:101650008A7832704A88871C120A7270B61C02227D
:101660003046091DFEF73EFDBF1CB8B2B61CE7E7C9
:1016700010B50C46097801702188090A417062880A
:10168000211D801CFEF72EFD6088801C80B210BDDD
:1016900010B50C46097801702188090A4170A178BB
:1016A00081706188090AC170A288A11D001DFEF722
:1016B00019FDA088001D80B210BD10B50C460A8827
:1016C000891CFEF70FFD208810BD10B50B788A78B5
:1016D00002705343DCB22246401C091DFEF702FD96
:1016E000601C10BD10B50B788A7802705343DCB2D1
:1016F0002246401C091DFEF7F5FC601C10BD10B50C
:101700000C460A88891CFEF7EDFC208810BD10B538
:101710000C460A88891CFEF7E5FC208810BD7FB5C1
:1017200015460446022901D0102903D1022B04D00A
:10173000102B02D0002004B070BD994202D10A469D
:10174000294607E01029694607D000F00DF810225D
:1017500069462846FEF7CCFCEDE7104600F004F899
:10176000102269462046F5E770B50C4605000CD0FE
:10177000002C0AD0102206492046FEF7B3FC287838
:10178000207368786073012070BD002070BD000078
:10179000C0E1021110B50B460122024903F070FCB2
:1017A00010BD0000B115021170B5064608880C4640
:1017B000172812D30B4603220949304603F060FC78
:1017C000050008D1074920880988884200D20146CF
:1017D000304600F0CFF9284670BD022070BD0000F1
:1017E000C7150211BC8CFF1F10B500231922194622
:1017F00003F046FC10BD000010B50A78002A05D0A1
:101800000B460722024903F03BFC10BD022010BD2D
:10181000D515021110B54A78012A01D0022A08D143
:101820000A78002A05D00B460522034903F028FC5C
:1018300010BD022010BD0000051602110249400033
:101840008968085A70470000B08CFF1F10B50B461E
:101850001D22024903F014FC10BD00007116021194
:1018600010B50B461B22024903F00AFC10BD000014
:101870007116021110B50649002089681723054A20
:1018800002E044000B53401C1478A042F9DB10BD69
:10189000B08CFF1F788DFF1F0098022B01D0042011
:1018A0007047117852781202891801800020704721
:1018B0000098012B01D0042070471178017000209E
:1018C000704770B5049C1E461546062B1BD36978DD
:1018D0002878090240182080E978A8780902401881
:1018E000608002222271291D601DFEF7FBFBB61FDE
:1018F000B2B22281F02A06D82046A91D0A30FEF78E
:10190000F1FB002070BD042070BD0098042B01D0B5
:1019100004207047537811781B02C9180180917810
:10192000D27812028918418000207047F8B5848966
:101930000D460646002C26D0B2681778380620D50A
:101940000C2C20D90C3CA4B21019009001217088F5
:10195000234603F0F3F9002811D0022028707806FE
:10196000C00F6870B806800EA870641E2004000CBA
:10197000A88001D0B068401CA8600020F8BD0120FC
:10198000ECE70020EAE70120F8BD10B50298114607
:10199000042B14D34C780A78240212190280CC78D4
:1019A0008A782402121942801B1F9AB28280F22A7E
:1019B00005D8801D091DFEF795FB002010BD0420F1
:1019C00010BD0098042B01D0042070475378117883
:1019D0001B02C91801809178D278120289184180BF
:1019E0000020704710B502981146062B03D0142B27
:1019F00003D0042010BD022200E0102202714B78B7
:101A00000A781B02D2180280CB788A781B02D2187F
:101A100042800279401D091DFEF764FB002010BDC5
:101A200030B5039CD80718D1D805010E022914D36C
:101A30000B488088814210D8F6200155002008E02C
:101A4000557813782D025B194500401C6353C0B2D2
:101A5000921C8842F4D3002030BD042030BD000029
:101A6000B08CFF1F0098022B01D004207047117822
:101A700052781202891801800020704770B5144610
:101A800002460498022B18D3667825783602AD19E1
:101A900005800546E0352A766976002A0BD0E821D4
:101AA0009B1E9AB242808A4207D8A11C001DFEF7F5
:101AB00019FB002070BDF421F2E7042070BD000086
:101AC00010B50B461722024903F0DAFA10BD0000E8
:101AD0009116021110B50B460D22024903F0D0FAFF
:101AE00010BD0000BB16021110B50A78002A05D0FF
:101AF0000B461122024903F0C3FA10BD022010BDAB
:101B0000CB16021110B50A78002A05D00B4609221F
:101B1000024903F0B5FA10BD022010BDE51602110E
:101B200010B50B460F22024903F0AAFA10BD0000BF
:101B3000FF16021110B50B460B22024903F0A0FA62
:101B400010BD00000F170211F72800D9F720084A2E
:101B500001461080401EC3179B0F18188003000C0D
:101B60005080491EC80F4018C003000C9080704779
:101B7000B08CFF1F034A1388994202D89268400034
:101B800011527047B08CFF1F10B500231322194665
:101B900003F076FA10BD000070B50E4E0546002425
:101BA0000B49304601F0D0FB09493046083101F0BD
:101BB000CBFB094808F05AFEE80706D00448074A5C
:101BC0000721103001F086FD0446204670BD00005C
:101BD0001487FF1FFFFF0000E11B021100E002114C
:101BE00010B504460B48844212D0012907D00229BF
:101BF0000ED10121204608F06BFE002808D10649CD
:101C0000204601F0A1FB04492046083101F09CFB6D
:101C100010BD0000FEFF00001487FF1FF8B512483A
:101C200015460F784678027800244868022F0ED0B7
:101C3000077B407B000238180C4F80B2C01909D0D6
:101C400001280AD0002018800A242046F8BD077811
:101C50004078EFE71A80C96802E01E80C968324602
:101C60002846FEF73FFAF0E70C87FF1FFF4FFFFF04
:101C7000FEB50E7A0024099F089DF60601D50820BE
:101C8000FEBD002D01D00B20FEBD0E78022E01D02E
:101C9000102E03D101970095FFF7C0FF2046FEBD2F
:101CA000FEB5194DFF26072713460C46002803D022
:101CB000012814D00220FEBD002C0ED00A46194681
:101CC0001248FEF70FFA104B2C70183300221846FA
:101CD0000E4910380097019613E01820FEBD002C25
:101CE000FBD00A480A4619461430FEF7FBF9064BAA
:101CF0006C701833054918460022143108380097D3
:101D0000019601F065FBFEBD0C87FF1F54C0FF1F4D
:101D10007CB50C46097A069D890601D508207CBD54
:101D20002178022902D0012528467CBD61680E7801
:101D30004978090271180F4E89B2F1420FD1012181
:101D40000191DBB20095214601F016FB0500EBD1B5
:101D500009496089498F884203D108A007E00A2514
:101D6000E2E705494031498D8842DDD108A003F002
:101D7000CBFED9E7FED6FFFF2487FF1F617564699C
:101D80006F20737461727420636D640A0D0000002B
:101D9000617564696F2064617461207472616E732F
:101DA000660A0D0010B50549054801F0CDFA034853
:101DB000044A0521083001F08DFC10BD4086FF1F4C
:101DC000FFFF0000F8DD0211034610B50020104AA5
:101DD000002B08D0012B08D01032022B08D0032B87
:101DE00009D0022010BD127800E052780A7010BDB0
:101DF00052890A8010BD064B9B1C1C780C715B78C5
:101E00004B71538D0B80528F4A8001228A7110BD15
:101E10003886FF1F10B50446084884420DD00129BA
:101E200007D0022909D10121204608F051FD0028E0
:101E300003D10349204601F087FA10BDFEFF0000E0
:101E40004086FF1F10B504497D220870D200012191
:101E5000FEF730F910BD00007A88FF1F10B5054964
:101E60005F200A785F2A03D90870034808F0E4FC71
:101E7000002010BD3886FF1FFD5002110149486047
:101E8000704700003886FF1F10B50C46C80709D000
:101E900003F020F80548044A01210078FEF70AF90A
:101EA0000120604010BD0000102700007A88FF1F4D
:101EB00010B50249887003F069FD10BDDC86FF1F74
:101EC00070B5194D0C46A97881422AD1A00703D5D7
:101ED00007F0B2F8022022E0E0071BD003F08AFBF3
:101EE000064604220121A878FEF7E4F8FF2E0FD061
:101EF0006968304688472878002809D003F054FBE9
:101F0000002805D00121A878FEF7C8F80020287025
:101F1000012004E0200704D503F038FD08206040CC
:101F200070BD002070BD0000DC86FF1F10B5034AA5
:101F30001321034801F0CEFB10BD0000C4DD0211E7
:101F40008884FF1FF8B504460F468068154661690E
:101F50004019461A2046216902F0ADFB002816D030
:101F6000002E03DC2A463946A06808E0AA1B394641
:101F7000A068FEF77DF97819811B3246E068FEF70C
:101F800077F92946204602F086FF2846F8BD002052
:101F9000C043F8BD70B50C460146012080020A1A04
:101FA00000251C481300FEF767F80F32090B0D10CF
:101FB00012181A1C2A1F212325272A00408A23E0F1
:101FC000807800E0C078207021E00079FBE71022E3
:101FD00011492046FEF786F819E04079F3E7C07A08
:101FE000F1E78069206012E0407AECE7807AEAE766
:101FF000007BE8E7807BE6E704F02CFAE3E727299B
:1020000004D2084600F0F4FE208000E002252846B5
:1020100070BD00000483FF1FECACFF1F10B5024928
:10202000087004F02DFB10BD0483FF1FFFB599B0AD
:1020300000261F46079607AA089600F0CFF9054626
:102040000A287AD204460620444320462030C0B2F3
:102050006A460E2108F0A2FE002802D16846808957
:10206000C6B21B980990082F14D000201790082F93
:1020700012D020462130C0B218901C2200216846A0
:10208000FEF7CCF86A461C21189808F087FE002855
:1020900005D010E00120E9E720462230EBE7684652
:1020A000807EC01F092806D8F107C90F6A46179B12
:1020B000099800F0E9FD1422002110A8FEF7AEF8FF
:1020C00020462430C0B210AA102108F067FE002874
:1020D00012D11022FF2110A8FEF7D0F800280BD152
:1020E0002534E0B214AA042108F058FEF107C90F04
:1020F00010AA1B9801F030F87035E8B20BAA102135
:1021000008F04CFE002811D10BA804F0AAFA002414
:102110000BADA00040190188002903D082781B98DC
:1021200001F034FB641CE4B2042CF2D3B00704D5F4
:10213000094801781B9801F017FB042F08D10649C4
:102140001B98491C085C022802D11B9804F0D0FAA5
:1021500000201DB0F0BD00000483FF1F70B50024F7
:10216000054600290BD108491046FEF78DF80846B0
:10217000294600F0D5FE040003D00121284601F0D5
:1021800011F8204670BD000040420F0070B50C46AB
:10219000080428D515480078FEF77CF805001ED005
:1021A0000178B02908D0B1290ED0D02914D100F07F
:1021B0001FF8002810D112E001791E290CD168887F
:1021C000002100F067F907E00179002904D10289B4
:1021D000C188688800F04AFA2846FEF761F80120B5
:1021E000C003604070BD002070BD00000483FF1F6D
:1021F0007FB582786F4C921FE1691300FDF73CFFB9
:102200000AB3D7D7681B06D7D75F7AD70546002908
:1022100008D00E68002E05D06B7B2A7B6989E81CEC
:10222000B047C4E06989A06900F07AFE0028F8D0C0
:102230006889012191E00546407800282DD1A879D0
:10224000C0072AD0A8885B498000203108580028A0
:1022500023D10E2200216846FDF7E0FF69690029BD
:1022600003D006226846103107E0A88808F072FA09
:1022700000283ED0C11D06226846FDF733FF69469F
:102280008889A9794907C90F084369468881294681
:10229000684603F0A5FF002809D0E069002828D08F
:1022A0004368002B25D06A78A888012152E0A888CD
:1022B0002A46694604F0EEFA002004B070BD0029F9
:1022C00075D04B68002B72D042788088022141E0A3
:1022D0000446C0780022211D00F080F80A2866D24A
:1022E0000621484325302246C0B20C32042108F0B2
:1022F00060FD5CE00546607A0028A88801D0A17ADC
:102300002BE02C49491C095C002925D008F022FA51
:102310000646A87AC0070ED0002E48D0B079002813
:1023200009D0A889800506D4B0796A46F11D00F06D
:1023300055F8002814D02A46B179A888083203F04D
:10234000FFFFE069002832D04368002B2FD0002225
:10235000A888114698472AE0052100F023FF26E0CF
:10236000A8880321F9E700F0BBFD00281FD1E07B1E
:102370000026012805D0104D0024285D012809D031
:102380000CE004F0ABF8E6730A2200210A48FDF7DE
:1023900045FF07E0204604F0ADF82E55641CE4B27A
:1023A0000A2CEAD3502008F0F7FC04F069F9012068
:1023B00083E700000483FF1F88ADFF1F10B5064CA4
:1023C000E0612178FF2905D0262000F0B5FE2078B5
:1023D00001F07AF910BD00000483FF1FF0B50A2454
:1023E00085B016460F46002807D0012805D00A25DB
:1023F000022810D0032847D11FE0084604F0DAF87D
:1024000004460A2840D2002E3ED0062239463046E5
:10241000FDF768FE38E01E4F002400910E20604357
:10242000C0190622801D0099FDF762FE002823D105
:10243000641CE4B20A2CF1D31CE0002420460621DF
:1024400048432330C0B26A46102108F0A7FC002898
:102450000CD11022FF216846FDF710FF002805D19E
:102460003946684600F01AFE002805D0641CE4B224
:102470000A2CE3D32C4607E00A2C05D2002E03D009
:102480003146204604F0D2F8204605B0F0BD0000E9
:10249000FCACFF1F70B50E4617491525884212D1B6
:1024A000002432460221204603F0ECFF002800D031
:1024B0000025641CE4B20A2CF3D3002E1AD00F4876
:1024C00008F0BAF916E008F045F9040011D0A07937
:1024D0000022E11DFFF782FF0A2804D232460221C2
:1024E00003F0D0FF0025002E04D0204604F0F6F8BB
:1024F00000E01425284670BDFFFF0000DD660211D4
:10250000FEB5154601229202821A00240127544E7C
:102510001300FDF7B1FD110A151A21282F373E438C
:102520004B767E858D9B9B569B00012970D1297827
:1025300002297FD84A480122401CFDF76FFE8DE03A
:10254000022977D12888708288E0012972D1287801
:1025500001286FD8B07081E001296BD12878042858
:1025600068D8F0707AE0012964D12878012861D810
:10257000307173E010295DD1102229463948FDF7EA
:10258000B1FD6BE0012955D12878012852D870712E
:1025900064E001294ED12878F0725FE0042949D126
:1025A00031492868884245D8B06157E0002941D1B7
:1025B00000F096FC002801D0F7734FE003F08EFF87
:1025C00019E0072936D10622691C6846FDF76EFE20
:1025D000287800226946FFF701FF05460A280ED237
:1025E00000F07EFC002803D01E489C30475535E0A3
:1025F000284603F07FFF502008F0CEFB23E00224A2
:102600002CE0012916D12878012813D8707225E012
:1026100010E001290ED1287809280BD8B0721DE0EE
:10262000012907D12878C11F092903D8307315E083
:10263000012901D0182411E0B07B2978B17300285A
:102640000CD101290AD104F01BF807E02728D6D2C3
:102650000229D4D1298800F06FFD04462046FEBD32
:102660000483FF1FECACFF1F3F420F00F8B50F467D
:1026700013491525164688420DD1002432463946A5
:10268000204604F057F8002800D00025641CE4B26E
:102690000A2CF3D312E008F05DF800280DD08379FE
:1026A000C11D00221846FFF799FE0A2806D23246BD
:1026B000394604F03FF8002500E014252846F8BD0F
:1026C000FFFF000070B50C460146032000020A1A05
:1026D000002534481300FDF7CFFC1D1012151C1FF8
:1026E0002326282C303234383A3C3E404244464877
:1026F0004A4E50525A5456585A00C07911E010228E
:10270000294902E02849102210312046FDF7EAFC51
:1027100045E0C06A206042E0224906223C31F4E7ED
:10272000007820703BE0808936E01E4942784231D3
:10273000EBE71D4982781F39E7E7007AF1E7407A35
:10274000EFE7184906223031DFE7807AE9E7C07AFF
:10275000E7E7C08920E0808A1EE0C0781CE0C08ADC
:102760001AE0008B18E0408B16E0808B14E00D49D6
:1027700006223631C9E7C08B0EE0008C0CE0408C9D
:102780000AE08079CDE7008A06E0408A04E0272944
:1027900004D2084600F02CFB208000E002252846E9
:1027A00070BD0000B083FF1FC7ADFF1F70B50E4C9A
:1027B00000256071A571691EE18100F069FC0420AB
:1027C000E071102200210948FDF728FD074810227A
:1027D00000211030FDF722FDE562257265720720A9
:1027E000A072E57270BD0000B083FF1FC7ADFF1F70
:1027F000FEB53B4D0C4608040CD56879FDF74AFD43
:10280000050004D004F092FD2846FDF749FD0120A3
:10281000C00360E0600403D5012080034840FEBD92
:102820002F48E1070126807900292AD0297800293C
:1028300020D0052821D0297A68460170697A417034
:10284000274906223031801CFDF74CFCA97A6846E6
:102850000172E97A41726946687900F0E1FA00286C
:1028600008D00720A871696A002903D009680029E7
:1028700000D0884720467040FEBD0320694608709E
:10288000E4E7A1070DD5052809D1E889FDF714FD76
:10289000AA8A002A03D002216879FDF70BFC0220E6
:1028A00019E0600704D5002004F098FD042012E030
:1028B000200712D52879012802D002280AD107E082
:1028C0000096AB8B6A8B298BE88A00F013F801E045
:1028D00000F062F908206040FEBD0020FEBD00004F
:1028E000B083FF1F002801D00149886270470000B3
:1028F000B083FF1FF8B5134C069EA579052D01D0B6
:102900001420F8BD104F851FBD4219D2062917D3D8
:10291000BD1DA94214D2FF27F537BA4210D20A2BA7
:102920000ED3AB420CD2E08221836283A383304674
:1029300004F054FD04216079FDF7B0FB0020F8BDE0
:102940001820F8BDB083FF1F7A0C0000F7B50D46C4
:1029500080490098164642187F4F00247879B9794B
:102960001300FDF789FB190E141BE920404559702F
:10297000777E888FE996A2A9B4BFC8E9E9E9E9D3CF
:10298000E900102D76D11022314674486FE0102DE9
:1029900070D1724810223146103068E0042D69D1A0
:1029A0003068F862CEE0012D64D13B7832783A701D
:1029B000002B0AD0002A07D1022903D0062901D012
:1029C000042901D100F0EAF9BCE0002A0AD001296B
:1029D00005D0032903D0052901D0042902D1012102
:1029E000FDF762FBAEE0022D44D13088B881A9E04A
:1029F0001F2D3FD858481F2200214230FDF70EFC02
:102A000055482A4631464230FDF76CFB524B7D70EB
:102A100042332A46012112E01F2D7CD84F481F2245
:102A200000211F38FDF7FAFB4C482A4631461F3873
:102A3000FDF758FB494B2A461F3BBD7000217879B2
:102A400000F000FC83E0012D65D13078042862D8C5
:102A5000387277E0012D5ED1307803285BD8787228
:102A600070E0062D57D13C48062231463030FDF744
:102A700039FB67E04FE0012D4DD1307807284AD867
:102A8000B8725FE0012D46D13078032843D8F87240
:102A900058E0022D3FD13288BA82002A52D005294F
:102AA00050D10221FDF706FB4CE0012D33D13078E7
:102AB000012830D8F87045E03088022D2BD1062847
:102AC00029D31921C901884225D8F8823AE03088F3
:102AD000022D20D106281ED31921C90188421AD8F7
:102AE00038832FE03088022D15D1FF21F53188423F
:102AF00011D2788326E03088022D0CD10A280AD31F
:102B00001921C901884206D8B8831BE03178012D0C
:102B100001D1012901D0182414E00821FDF7D2FBCE
:102B2000002801D016240DE0002004F057FC0421F9
:102B30007879FDF7B3FA05E00098272801D2022D35
:102B400002D002242046FEBD318800F0F5FA04468A
:102B5000F8E70000FFFCFFFFB083FF1FC7ADFF1FBA
:102B60001CB50B4CA179002901D011201CBD0028F7
:102B700000D06062064907482C310346019100905D
:102B8000103B0022E179607900F0C2F800201CBD02
:102B9000B083FF1FD7ADFF1F10B506488179052907
:102BA00001D0122010BDC1891322407900F00AFB28
:102BB00010BD0000B083FF1FF8B504462F480F4634
:102BC0000078022805D0012803D0082803D1002F5F
:102BD00001D01220F8BD002C08D0294D2088EA68C9
:102BE00081005158002903D01120F8BD0220F8BD02
:102BF00007F0B0FD06003BD02C20FDF769FB2188D3
:102C0000EA6889005050002834D02C220021FDF7BA
:102C100005FB2088EA68810051581C2248802088E2
:102C2000E96880000858211D001DFDF75BFA218826
:102C3000EA6889005158022008702288E9689000EB
:102C40000B5870791B1D002816D000200D490978FB
:102C500002F018F80546002F03D03946304609F037
:102C600039FA002D02D0208803F08EFE2846F8BDE8
:102C70001420F8BD1320F8BD0120E7E7C18CFF1F29
:102C8000248DFF1F518DFF1FFFB5204D81B0287887
:102C90001E461746022823D0012821D0002F22D01B
:102CA000019807F057FD04001FD0606A002801D08A
:102CB000FDF714FB1C213846FDF716FB6062011E70
:102CC00015D02878000714D5002E12D0887E0090E9
:102CD0000B4612330A8A019809F0DAFC014609E032
:102CE000122005B0F0BD0220FBE71420F9E7132005
:102CF000F7E700212079042210432071029A002A6C
:102D000002D00222104320710846EAE7C18CFF1F5F
:102D1000FFB581B01E460D4602240B9F0B00FDF748
:102D2000ABF90D1A0B1A1A0B1A1A1A1A1A1A1A08D0
:102D30001A000AA002F0E8FE2946019800F0D4F833
:102D4000040008D13A4630460A9900F0ABF900F089
:102D50000BF901F087FF204605B0F0BD4741505FF9
:102D6000446576696365496E69743A204741505FEE
:102D700050524F46494C455F43454E5452414C20BA
:102D80007C204741505F50524F46494C455F50456B
:102D9000524950484552414C200A000070B5104C31
:102DA0002168002904D00978814203D0032070BD36
:102DB000122070BD0B4D02212878FDF76FF90A48EB
:102DC0000026468004212878FDF768F90748068028
:102DD0002168032048700020FDF78CFA70BD0000C8
:102DE000208DFF1F518DFF1F348DFF1FC48CFF1FCF
:102DF000272803D202494000085A7047014870470B
:102E0000CC8CFF1FFFFF000010B5044C6070FDF775
:102E100077FA0521607801F045FD10BD508DFF1F48
:102E200070B5284E054630680C46002801D01120A8
:102E300070BD254801780520014216D023488068DE
:102E4000002805D00078002802D0C80706D101E08C
:102E5000102070BD00F044F8002808D02078032826
:102E600005D0022803D0002801D0122070BD0C200C
:102E7000FDF72EFA3060002820D005700021417047
:102E80000A222146801CFDF72DF904F0B7FB04004F
:102E900002D003F06DFD12E00D48007803280ED13A
:102EA0001D20FFF7A5FF0B490028088007D00B481D
:102EB000094A04210078FDF729FA00E0132420468E
:102EC00070BD0000208DFF1FC18CFF1F348DFF1FC0
:102ED000C28CFF1FC48CFF1F60EA0000518DFF1FD2
:102EE00010B507F093FC10BD70B50C4605461C22CA
:102EF00000210948FDF792F9084805704470FDF774
:102F00000BFA0549002803D000200870122070BD7C
:102F100001220A7070BD0000D4CEFF1FC08CFF1FBD
:102F20007FB504460D46084607F014FC002805D07E
:102F30000C48844204D9022004B070BD1220FBE783
:102F4000102200216846FDF769F968460470210ADD
:102F50004170210C8170210EC170294601F0F0FDF5
:102F6000EAE700003F420F0070B50F4C0025A06853
:102F7000002802D0FDF7B2F9A560E068002802D071
:102F8000FDF7ACF9E560094805210078084206D054
:102F90000548103004F0CAF803F0F8F870BD0020BE
:102FA00004F0C4F8002070BD348DFF1FC18CFF1FDA
:102FB000FEB5344D0C46080419D56878FDF76AF95A
:102FC0000121C9034C40064600280ED003F0CEFF75
:102FD000002807D12878FF2804D03146FDF7A2F950
:102FE000002802D03046FDF75BF92046FEBDE00721
:102FF000012700280AD0A868002804D041680029C9
:1030000001D00020884720467840FEBDA00709D5A2
:103010006868002804D04168002901D00120884751
:1030200002202AE060072AD5174E308800281FD0DA
:10303000401E0004000C30801ED103F00FFD00285C
:1030400009D0124807706868002804D04168002938
:1030500001D00120884703F0DBFC694601F0EFFC5A
:10306000684603F06DFF1D20FFF7C2FE308003E0CD
:1030700004216878FDF712F804206040FEBD0020AE
:10308000FEBD0000508DFF1FC48CFF1FC38CFF1FAF
:103090000149087070470000508DFF1F10B501F006
:1030A000BBFD10BD70B50E4C0B46261D07C6054670
:1030B000102200211846FDF7E1F8012803D1102164
:1030C000A06808F06BFE102200212846FDF7D6F814
:1030D000012803D11021606808F060FE70BD000077
:1030E000D4CEFF1F38B5054610480C46007840077F
:1030F00001D4122038BD284607F02CFB002812D03E
:103100000B48A90000684058002801D0817D00E0EC
:103110002146684609F016FB064B6A4602212846FE
:1031200009F072FA38BD142038BD0000C18CFF1FB1
:10313000308DFF1F55CC0211272807D2044A914237
:1031400004D0044A4000115200207047022070470A
:10315000FFFF0000CC8CFF1F70B50E4610491546CE
:103160000978022916D0012914D0002D14D007F0B7
:10317000F1FA040012D0002E03D020790221084376
:10318000207110222946A018FCF7ACFF28692062A4
:10319000002070BD122070BD022070BD142070BDD3
:1031A000C18CFF1F38B50C46054607F0D3FA00283E
:1031B00006D0684604706946284609F013FA38BDFF
:1031C000142038BDF8B50D4617461D4906461B4A62
:1031D00012248868954208D100282DD00268002A60
:1031E0002AD029463046904723E0144A521C954283
:1031F00013D1002807D00268002A04D0294630469F
:103200009047040005D03946304602F061FD0400C5
:1032100012D10B48067047700EE0284607F09AFA64
:10322000002809D00078B04205D139462846FDF77C
:103230007FF8044600E003242046F8BDFEFF0000AE
:10324000248DFF1FF8B50E46014619481546007833
:1032500005221F46104028D0304326D01548012EA5
:103260001BD0C468002C20D01F2D18D8002D01D0F1
:10327000002F14D001701F220021601CFCF7CEFF2C
:103280002A463946601CFCF72DFF28462570002E83
:1032900007D0611CFDF752F8F8BD8468E2E7022010
:1032A000F8BD611CFDF750F8F8BD1220F8BD000014
:1032B000C18CFF1F348DFF1F014610B50020C907C8
:1032C00004D0034A0421034800F004FA10BD0000B2
:1032D00028DD02113484FF1F10B5002309E01C0112
:1032E0002418E468944202D11901081810BD5B1C2F
:1032F0009BB28B42F3D3002010BD000070B50F4D80
:103300000F4CA87029461831204600F01DF8002106
:1033100028460B461030CA0084521218491C090670
:103320005360090EF7D0012005F062F8A87800F08C
:10333000B9FB044807F09AFA70BD00001484FF1F1F
:10334000FFFF0000FD7B021170B50A4C0025A04272
:1033500009D1002082008C525218401CC0B29570D6
:103360000228F7D370BD04F018FC0028FAD00480BE
:10337000857070BDFFFF0000F8B50E460746069940
:1033800000240798002902D00B242046F8BD022B08
:1033900001D00D24F9E711785278120289188DB204
:1033A0002946814301D08024EFE73846F16800F0D8
:1033B00083F9A842E9D02A463846F16800F012FAAB
:1033C0000400E2D171892A46384600F0B1F9DCE701
:1033D000FFB50446C1B01F4600881E4A00254A9B1F
:1033E000904233D0A078002830D00A46194638469B
:1033F000FFF772FF060029D0174A208812684100A3
:10340000515C0023C91EC9B203AA02320193029182
:1034100000927A8904AB314600F03CF8002815D1BF
:10342000708969468881A078C00705D0208803A9E3
:10343000439A00F005FB0546A078800706D5208852
:1034400003A94B9B439A00F09DFA0543284645B0DB
:10345000F0BD0000FFFF0000B88CFF1F70B50C46E8
:10346000080412D50A488078FCF714FF050008D03C
:103470002878B02802D1284604F0ACFC2846FCF796
:103480000FFF0120C003604070BD002070BD000030
:103490001484FF1FFFB587B0087A0025109E1C46D4
:1034A0000F46C0060DD5099804F070FB030006D046
:1034B0000A22394607989847050035D101E00E25C4
:1034C00032E0387802281DD17868292201784078C6
:1034D00012020002081880B2811A90427ED009DCE4
:1034E0007249401A23D0012821D0022851D0032844
:1034F00008D125E0012972D0022971D003296DD0AD
:1035000004296ED0099804F069FB0028D7D005681B
:10351000002DD4D012991198019100903346224683
:1035200039460798A847054628460BB0F0BD1198C4
:10353000002873D1F868017831800278416897E0FB
:10354000119800286AD101203080F86800210078A5
:1035500020707889401C80B200F072F900280FD0EA
:10356000318802788918891C3180817A617041899B
:10357000090AA17002784168E01CFCF7B3FDD3E7AB
:1035800030880422001D30800021601CFCF746FEBC
:10359000CAE71198002872D1F86804A90088009041
:1035A00004203080009820700098000A6070009815
:1035B00000F046F9070028D0F86805906846028AAE
:1035C00003AB3B49384600F093F900280FD13B7814
:1035D000022138487A68FEF7A2F803E027E031E0DC
:1035E0001DE049E0002802D13148694688810598EC
:1035F000007802280CD1059802224168201DFCF7B2
:1036000071FD3088801C308002E069460098888116
:1036100068468089A070000AE07085E72FE0119865
:1036200000282CD1F968079800F046F804E01198BA
:10363000002824D1F8680088022131802070000A17
:10364000607071E7F868FCF785FE1199C0B281429D
:1036500010D8814201D1002206E0129A89188142D5
:1036600002D31199401AC2B23280F9681198091830
:10367000204682E7072557E71198002801D00B253F
:1036800052E70721F8683180017821704178617034
:103690008178A1704188090AE170017921718179ED
:1036A0006171C088000AA0713EE700000028000098
:1036B000FFFF000036E2021110B504F06EFA002898
:1036C00000D0807810BD00000149087070470000EC
:1036D0001484FF1F7CB51446050019D06846019577
:1036E000018000F0E5F903001DD1002C1BD06D898D
:1036F000002D0DD00C20FCF7EBFD00280AD0002394
:1037000003608580094A84609168002904D006E03E
:10371000022308E0132306E0906004E011460A68E3
:10372000002AFBD1086018467CBD00001484FF1FEE
:10373000F8B50C4C0746207815460E46FF280FD0EA
:103740000A20FCF70DFE01000AD0B120087000200D
:10375000487008714F80CE800D812078FCF7E2FD23
:10376000F8BD00001484FF1F70B50C4605460649DD
:10377000FFF7A2FF800704D52146284600F0ECF9A8
:1037800070BD012070BD00002C84FF1F1CB56B466E
:103790001A71120A5A7100220092022301AA00F043
:1037A00001F81CBDFFB583B008461F4601A90C9E59
:1037B00000F046F8050012D06846808804F00EFA42
:1037C00000280AD04468002C07D000963B462946C2
:1037D000059A0398A04707B0F0BD0E20FBE7012033
:1037E000F9E7000070B514460E46054604F0D5F919
:1037F000002806D13146054804F0CFF9002803D04F
:1038000005808470002070BD112070BDFFFF000096
:1038100010B50178B0290BD14178002908D1017980
:10382000122906D01B2903D14088012100F0B6FFE0
:1038300010BDFF210231095C0129F5D010BD000047
:10384000F0B58C4610494B6819E09F687C89A0420E
:1038500014D39E883119814210D900220CE0110145
:103860007D186989814205D16046002800D0048016
:103870002846F0BD521C92B29642F0D81B68002B2D
:10388000E3D10020F0BD00005C8DFF1FFFB517489D
:1038900081B00A9F446824E000251EE0A068290149
:1038A000461870890199884215D30299884212D826
:1038B0000498002807D031787068049B039AFDF7BC
:1038C0002EFF002807D0002F02D0A0684089388042
:1038D000304605B0F0BD6D1CADB2A088A842DDD861
:1038E0002468002CD8D10020F3E700005C8DFF1F76
:1038F000FEB5174600256A469580044640891D4A54
:103900001E46904208D001AA0092401C237880B243
:103910006268FFF7BBFF05462378022116486268FC
:10392000FDF7FDFE002807D12378022113486268C5
:10393000FDF7F5FE002801D060890EE02378022112
:103940000F486268FDF7EBFE00280DD0002D03D074
:1039500068468088B84203D0384604F05DFE04E033
:103960006889401E80B200E06089002E00D030805F
:103970002846FEBDFFFF000034E2021136E20211CC
:103980003AE20211FFB581B00F461E461446694661
:10399000019803F049FF050018D1002C06D0012240
:1039A0001021019806F0B0FE05000FD139460198AC
:1039B000FDF74CFF050009D1009CFF2E06D02146E3
:1039C0001E22A31C034804F033FEE670284605B00F
:1039D000F0BD00001D85021110B5054908700421D5
:1039E00000F060FF00F006F8FDF744FF10BD000096
:1039F000688DFF1FF8B50F4D0D4B00206E1C1C7815
:103A0000FF2209E09F688100C91900280ED00E80AE
:103A1000CA70401C8A70C0B2A042F3D3064804F0BA
:103A2000A7F8064806F022FF0020F8BD0D80EFE75A
:103A30005C8DFF1FFEFF0000498502119D8402116D
:103A4000F8B50D4614460646694603F0EDFE172804
:103A50000CD0002C06D001221021304606F054FE76
:103A6000002803D129463046FDF7FAFEF8BD0000D4
:103A700070B50C46080411D509480078FCF70AFC1B
:103A8000050007D00178A02901D104F015F82846D7
:103A9000FCF706FC0120C003604070BD002070BD33
:103AA000688DFF1F01494870704700005C8DFF1F43
:103AB00070B50546008800281DD06868022103788B
:103AC00042682248FDF72BFE002808D168680221D1
:103AD000037842681E48FDF722FE00280BD01D4CDB
:103AE0006088002805D0012229881204101A81421A
:103AF00003D9012070BD022070BD0C20FCF7E8FB4B
:103B0000060001D000200BE0132070BD01016B689E
:103B100062880A315A526188491C401C618080B217
:103B200029888142F2D80020306008222946301DC1
:103B3000FCF7D8FA6068002802D1666004E0084605
:103B400001680029FBD10660002070BD34E202113B
:103B500036E202115C8DFF1F70B5BEB00D46064601
:103B6000002402230E4A0F4901200094FFF78EFE25
:103B7000002812D040896A4610800420508001201D
:103B800010715471FF209071D0712B46002269464C
:103B90003046FFF7F7FE3EB070BD0120FBE70000A6
:103BA00052E20211FFFF00000649496806E08A68F8
:103BB0005289824201D18888704709680029F6D16C
:103BC000002070475C8DFF1F10B51422114201D0F8
:103BD000012202E04A0604D50022102106F094FDDD
:103BE00010BDC80701D0002010BD022010BD10B5C7
:103BF00014468A0604D50122102106F085FD10BD69
:103C0000882211420ED008220A40102106F07CFDC5
:103C100000280BD0E034617E0029F0D0217E0129FC
:103C2000EDD103E0880701D4032010BD002010BDB2
:103C3000014610B50020C90704D0034A07210348F4
:103C4000FFF748FD10BD000014DD02113C83FF1F8B
:103C500070B50D46164600241D490300FCF70CFA0A
:103C600008051234341934222934152D23D816228C
:103C700000211848FCF7D2FA2A4631461548FCF7CD
:103C800031FA22E0022D16D111491088103908802E
:103C90001BE0082D0FD10E48082231460838FCF7EA
:103CA000E7FA12E0012D06D1CA69094930782831B6
:103CB00007E0012D01D0182407E0CA6B04493078D1
:103CC000483104F09AFD00E00224204670BD000057
:103CD0003C83FF1F92ADFF1F426881688A4201D872
:103CE000881A7047C3684069C91A801A0818704753
:103CF000FEB5194DFF26092713460C46012803D0AF
:103D0000022814D00220FEBD002C0ED00A4619460F
:103D10001248FCF7E7F9104B2C70183300221846B4
:103D20000E4910380097019613E01820FEBD002CB4
:103D3000FBD00A480A4619461430FCF7D3F9064B63
:103D40006C70183305491846002214310838009762
:103D50000196FFF73DFBFEBD9887FF1F90C0FF1F38
:103D600038B5154C69466071002008706A4601211B
:103D70001248FEF7C5FB0025ED432846FFF758FF24
:103D80002846FFF799FAFEF7D1F8FEF70BF801F095
:103D90003DF80020FEF772F8094801F049F800F0FC
:103DA000A7F9214628310846083800F0C3F8012158
:103DB0006079FCF779F938BD308CFF1F0D040000E5
:103DC000ED40021170B51C4D0C46080409D5687908
:103DD000FCF760FA002801D0FCF762FA0120C0036A
:103DE00026E0E00708D014481830FEF7B9FE134863
:103DF000FEF7E4FA01201BE00F48610700780BD5BD
:103E0000052807D1A878002802D005F0C7FC01E0FA
:103E1000FEF7C2FE04200BE0A1070BD5052806D152
:103E2000FEF71CF8064A02216879FCF743F90220E4
:103E3000604070BD002070BD308CFF1FB8E10211E2
:103E4000983A0000FEB51D464B6817461C785B7813
:103E5000089A1B02E3189CB200260998314B002AED
:103E600004D09B1E9C4227D00B20FEBD9C420AD052
:103E70002C4B2B3B9C4206D02A4B1B3B9C4202D036
:103E80005B1C9C4214D1488905F020FC00280CD012
:103E900001970095244A4179126900791568012338
:103EA0002246A847060038D039E00020288034E0B8
:103EB0001C4B9B1E9C420FD11C4B1B889A4201D36A
:103EC00007262CE09B1A834200DC184680B228802B
:103ED000C968891802461DE01248C01E844204D1F8
:103EE00004202880C968024614E0114A0220944246
:103EF0000DD00C4A521C944205D101202880C8687C
:103F00000078387009E00A4A521E944205D1288090
:103F1000C96802223846FCF7E5F805F03FFC304658
:103F2000FEBD00004D2A0000308CFF1FC889FF1F16
:103F300008290000014A116150617047308CFF1F51
:103F4000014AD16090717047308CFF1FF8B51A4D4F
:103F500000242E78052E22D0022E2AD005F054FA05
:103F6000002824D020210620FFF7E6F83021072082
:103F7000FFF7E2F805210120FFF7DEF8032168468C
:103F800001706A4601210D48FEF7E0FC01216846F8
:103F900001700A486A460838FEF7D8FC09E06C78D8
:103FA000002C02D005F0ACFBF8BD0620F8BD05F0F2
:103FB00019FB2046F8BD0000308CFF1F0D030000E8
:103FC000FFB583B00C9B002415460F468446002B9A
:103FD00002D00B2007B0F0BD78680178407800026D
:103FE000081886B23E48864203D03D481B388642B8
:103FF00012D1788905F06AFB00286AD006A90195DC
:104000000091384A417912690079146800233246D8
:10401000A04704005DD05EE03248314A016968463D
:10402000521E008B96420AD1012841D128780028DF
:1040300001D0012843D1002849D0012047E02A4A75
:1040400096422FD1012100930191C3B22A463946ED
:104050006046FFF791F904003DD16978287809029C
:104060004018204982B2C8687B89897915E0478861
:104070009F420FD100282CD006A901950091012A5A
:104080000ED00323174A4179126900791568324628
:10409000A8471EE0491EC9B208300029E7D118E040
:1040A0000223EFE70E4A521C964212D1012801D09A
:1040B0000D2410E02878002803D0012801D08024A6
:1040C00009E0FA6810702878002806D003204968B3
:1040D000884705F063FB20467CE70220F7E70000F5
:1040E0004D2A0000308CFF1F02290000704700009D
:1040F000F8B53A493A48FFF727F9384938480831BE
:10410000FFF722F93548374A22211230FFF7E2FA49
:10411000009032481230C1690220FDF755FE2F4948
:10412000314C08390B7823714E786671DA314A893F
:104130002280498B618029490125A571891F0A7850
:10414000274696463A73254A3946921F57780831D2
:10415000FF32BC464F7119325789278100204880B1
:104160008D7127463B757E75528F204B22825A896E
:104170007A82B875724626463277674677775A8DC7
:1041800022837083B077214630310320FDF71CFE77
:1041900012492046091F0A7820300271497841717E
:1041A00012498031498F21841049C03149894180A9
:1041B0000A498571891E0A7808300271497841716F
:1041C0000A4940314A892285498B418085712146BF
:1041D0000B20FFF7B5FE0098F8BD0000DE89FF1F39
:1041E000FFFF0000ACE1021118CCFF1F308BFF1F56
:1041F00070B50B4C049816190A4A0124002E0DD0F4
:1042000000251B2E03D1022903D0032904D01D80D1
:1042100002E0117801701C80002070BD5178F9E730
:10422000CED5FFFFD489FF1F70B556498AB0C8703C
:1042300009F0A2FA06211F20FEF77EFF002468463F
:104240000472047069465048FDF7A4FE6846017880
:104250004EA001F059FC684600780125002801D0E5
:10426000684605726846848105740621818201834F
:10427000FF218483F531018402AA01214848FEF719
:1042800065FB474803AA0221401CFEF75FFB3D4A3D
:1042900043481A320D21801CFEF758FB394A612031
:1042A0000C320E21C000FEF751FB312004AA01217F
:1042B0000001FEF74BFB3A4805AA02210C30FEF73D
:1042C00045FB374806AA02210D30FEF73FFB344874
:1042D00007AA02210E30FEF739FBC52008AA0221E9
:1042E0008000FEF733FBC421684601710326467146
:1042F00001AA02210120FFF7ABFC2A4A1521002068
:10430000FFF7A6FC684600940572047306740575F1
:1043100081206A460421C000FEF7F2F8012102AABA
:104320008802FEF7EDF8184803AA01210C38FEF7C1
:10433000E7F8154804AA01210B38FEF7E1F8124806
:1043400005AA01210838FEF7DBF850242146062093
:10435000FEF7F2FE21460720FEF7EEFE214608207A
:10436000FEF7EAFE21460920FEF7E6FE0020FBF7F5
:10437000FDFF0020FCF700F802480830FEF7B2FA13
:104380000AB070BD9C86FF1F0E0400005B426F6E7A
:104390006420636F756E745D2025640D0A00000053
:1043A0000503000004DE0211FEB52E4D0C46080484
:1043B00023D5E878FBF76EFF06001BD03078B028D5
:1043C00015D0B22813D12879401CC1B22971F278D6
:1043D000B3781002184340BAC82803D9012901D183
:1043E000FEF7DAFB2879C82801D9C82028713046A1
:1043F000FBF756FF0120C00330E0E10700201A4F11
:10440000002915D0012669460E70087101AA3146AF
:10441000381DFEF79BFA6A4601213846FEF796FAE8
:10442000C8220821E878FBF745FE20467040FEBD13
:10443000610708D5694608706A4601213846FEF7CB
:1044400085FA04200AE0A00703D501F0A9FC0220A8
:1044500004E0200704D500F0D1FE08206040FEBD36
:104460000020FEBD9C86FF1F0503000030B50E4DE9
:1044700000205519039C0D4A11D01B2D04D102298F
:1044800003D0032908D00A2030BD012B02D12178A6
:10449000117030BD0D2030BD012BFCD0FAE7012B8F
:1044A000F8D12178517030BDCED5FFFFD489FF1FE0
:1044B000F0B5069F099E002833D0102831D8002976
:1044C0002FD0002A2DD0002B2BD0002F29D0079CD5
:1044D000002C26D0089C002C23D0002E21D00A9C32
:1044E000002C1ED0104C051D20706570A26061600C
:1044F0000E490F4A0B60059911600E490E4A0F6074
:10450000079911600D4A089911600D49401C087007
:104510000C490E600C4908700C490A98086000208C
:10452000F0BD1820F0BD0000788DFF1FBC8DFF1F6F
:10453000B88CFF1F308DFF1FA88DFF1FAC8DFF1F94
:104540009C8DFF1FA08DFF1F5C8DFF1F648DFF1FC3
:10455000F8B50C4C07462069A1680546401CFBF7DE
:1045600093FEE0680E46B0420BD086214D43606951
:104570000A4640193946FBF7B5FD26616068401CC4
:104580006060F8BD3CC0FF1F70B50446002020707D
:104590006380E160616022618818A1600D466061FE
:1045A00011462846FBF7EEFE204670BD07480A215B
:1045B00081600021C160016101224160027041708F
:1045C0008170C17002494161704700003CC0FF1F0B
:1045D00000BBFF1F10B51C491C4A887119214901F5
:1045E000802001F07DFA194C0221083CA21C812098
:1045F00001F076FA221D0221822001F071FAA21D3B
:104600000221832001F06CFA22460221842001F06D
:1046100067FA00211420FBF7BBFE002803D101211B
:104620001420FBF7BBFE01211320FBF7B1FE002194
:104630001320FBF7B9FE0648FBF7BCFE002211462B
:104640006020FBF7BDFE10BD4488FF1FC4C1FF1FE3
:10465000612EFF1F10B50C46C80704D0002005F0DE
:10466000EDF9012019E0A00705D500210F20FBF787
:104670009BFE022011E0200704D5042005F052F92A
:1046800008200AE0600703D505F0CAF8042004E01A
:10469000E00604D501F0F0F91020604010BD0020C4
:1046A00010BD10B50C46FFF717FBA04201D3012047
:1046B00010BD002010BD10B50C46FFF70DFBA04249
:1046C00001D8012010BD002010BD00000448016980
:1046D000C068814201D1012070470020704700006E
:1046E0003CC0FF1F10B505480068022805D10448EA
:1046F000C068C1B203A001F007FA10BD800AFF1F15
:10470000C0F000405B706F7765726F6666206B6506
:10471000795D2070726573733A25640D0A0000009C
:104720000B7803700B8802221B0A43700B88801CD5
:10473000012B02D0022B07D011E08A780270498841
:10474000090A417004220AE08A7802704A88120A33
:1047500042700A7982708988090AC170062210465F
:104760007047000008B5044B009313460A46012128
:1047700005F01AFF08BD0000214702111CB50323F4
:10478000019200930A46024B122105F03DFF1CBD29
:10479000899E021110B5FBF719FE10BD13B5044830
:1047A0000078012803D101AA6946FBF715FE1CBD5C
:1047B000748DFF1F70B51049104A087000210B4618
:1047C0008C00491CC9B213530429F9D30B4C0021A6
:1047D0001034FF260A460A256A4315196B80491CC6
:1047E000A354C9B26E720329F4D3FBF7FBFD05F0A5
:1047F00091FE05F0E5FF70BD758DFF1FF0CEFF1F28
:10480000082A01D0012070474B780A781B02D21881
:104810000280CB788A781B02D21842804B790A79C1
:104820001B02D21882808A79C97909025118C18085
:104830000020704770B50C46080411D5094800786F
:10484000FBF728FD050007D00178902901D105F07C
:10485000C3FD2846FBF724FD0120C003604070BD66
:10486000002070BD758DFF1F70B50C490978884216
:1048700013D20B4C060160680025855330188581E2
:10488000606830188580606830188068002804D01F
:10489000FBF7AEFD60683018856070BD788DFF1F36
:1048A000A48DFF1F072907D0052905D0042903D0AF
:1048B000062901D002207047044A8B009A1813463B
:1048C000403B1986203A907400207047F0CEFF1FBD
:1048D00070B517490978884228D25C21154C4843A5
:1048E000A16805464018002640300674A0682818C4
:1048F00040304674A068281840300676A068281812
:10490000406D002804D0FBF773FDA06828184665A9
:104910000026A068F100281840184068002801D03F
:10492000FBF766FD761CF6B20A2EF2D370BD0000CE
:10493000788DFF1FA48DFF1F70B50A880C460546B1
:10494000072A07D0052A05D0042A03D0062A01D059
:10495000022070BD012105F0BBFF002804D02146D4
:10496000284605F0A7FA70BD142070BD10B5001DD3
:1049700080B2FBF743FD002803D00321C943FBF7B6
:1049800043FD10BD10B505490870012006F0B6FDC5
:104990000248001D06F022FD10BD00009489FF1F93
:1049A00010B50C46C80706D003A001F0ADF8FBF720
:1049B00031FD0120604010BD736C62206F74612076
:1049C0006F76657220746F2072657365740D0A00CE
:1049D00010B50B4C2269E1688A4201D1012010BD5B
:1049E00086236269594351181A46FBF77BFBE0683E
:1049F000A168401CFBF748FC0020E16010BD0000EE
:104A00003CC0FF1FF8B50F46144606464168726960
:104A10000819851A002D02DC2246384607E0621B81
:104A20003846FBF725FC3819401B2A46F168FBF78E
:104A30001FFC2146304600F01FFA2046F8BD38B56D
:104A40000C46050014D0002C12D00321684607F054
:104A5000A5F96946887840218006800E084369469A
:104A600088702246284607F02DFF050002D006E098
:104A7000022038BD03226946E01CFBF733FB2846C1
:104A800038BDF7B58EB00E9815460E4600282DD0CD
:104A9000002D2BD0301DC0B20190FBF719FC040093
:104AA00039D001F0C1FF07463246201D0E99FBF7B1
:104AB000FDFBF8B20890E0703804000E0B90A07077
:104AC0003802000E0A9060703F0E277001F0A6FFBA
:104AD0000146102202A8FBF7E9FB06AB214602A81B
:104AE000019A07F045FE060003D010E0022011B045
:104AF000F0BD089828700B9868700A98A870EF703D
:104B0000082206A9281DFBF7D1FB01F093FF2046E0
:104B1000FBF7E4FB00E013263046E8E710B5064C4F
:104B20002070FBF77DFC06212078FFF7BBFE0348D1
:104B300005F09CFE10BD0000908DFF1FF5BD021119
:104B4000F8B50E46214C0146A068B5004059002733
:104B5000002807D02422125C022A05D0032A03D0A1
:104B6000042A01D01220F8BDC288B24201D002202E
:104B7000F8BD10220C30FBF7B5FAA068102140599F
:104B8000353007F00BF9A068415930460B460A460C
:104B9000253335320C3107F0B7FEA06802214059A9
:104BA0000278002A427807D0032A0BD141703046A0
:104BB00007F0BAF8074605E0042A02D0032A03D01A
:104BC00000E041703846F8BD0521EFE7B48DFF1FC6
:104BD00070B50C46080419D50D480078FBF75AFB50
:104BE00005000FD007F02CFA002808D109480078FA
:104BF000FF2804D02946FBF795FB002802D0284661
:104C0000FBF74EFB0120C003604070BD002070BD6B
:104C1000908DFF1F508DFF1F7CB50C4605001DD0E9
:104C2000002C1BD00322E11C6846FBF75BFA6946A7
:104C3000887840218006800E08436946887001AA62
:104C4000284607F03FFE002807D10322214601A88D
:104C5000FBF74EFA012803D001207CBD02207CBD69
:104C600000207CBD10B505480078400701D50448F8
:104C700000E0002007F098FA002010BDC18CFF1F53
:104C8000848DFF1FFFB581B000202B4C0090A068E1
:104C9000950040591E461746002802D0112005B045
:104CA000F0BD002E0BD02120FEF7A2F8317E884205
:104CB00005D82220FEF79CF8317E884201D20220DE
:104CC000EDE77820FBF704FBA1680028485130D0BD
:104CD00078220021FBF7A2FAA06800214059417018
:104CE000A268019852591070A268029852599070A7
:104CF000A268FF205259D070A0684259D78042590B
:104D00009660425911624059203001710198002883
:104D100003D0384607F020F80090A16801204959D7
:104D200048700098002802D0384606F0C7FF009867
:104D3000B5E71320B3E70000B48DFF1FFFB58DB0BA
:104D40000F98169C0E46002815D0002C13D00D98F5
:104D500005F000FD050011D06178207809024018A7
:104D6000A178E2780904120689184718286AB8421F
:104D700006D3401C04D0022011B0F0BD1420FBE784
:104D8000002E04D02879800701D40120F4E70822FE
:104D9000002106A8FBF742FA1098001DC0B201904E
:104DA000FBF796FA060017D0301D109A0F99FBF703
:104DB0007DFA042221463046FBF778FA1022A91822
:104DC00002A8FBF773FA06AB314602A8019A07F076
:104DD000CFFC050002D013E01320CDE7082206A97E
:104DE00008A8FBF763FA0822211D08A8FBF780F941
:104DF000012801D0012503E039460D9802F058FC46
:104E00003046FBF76BFA2846B6E7000010B50549B7
:104E10000548FEF799FA0348044A06210830FEF7D0
:104E200059FC10BDCC85FF1FFFFF0000E0DD021123
:104E30000149086070470000C485FF1F10B5044990
:104E4000087004480068022801D008F069FA10BD13
:104E50007088FF1F800AFF1F10B50C46C80704D0DA
:104E600000F0C4FF0120604010BDA00702D5022061
:104E7000484010BD002010BD426843695118CA1A4D
:104E8000002A05DC4160994201D1C1684160704748
:104E9000C1688918FAE7826843695118CA1A002A5A
:104EA00005DC8160994201D1C16881607047C168A9
:104EB0008918FAE710B508F04FFA10BD10B508F0E0
:104EC00081FA10BD0A4610B50146002004F08CFAA4
:104ED00010BD000038B5FBF7A9FA1548802102780B
:104EE000114220D0807800281DD112480021C579B8
:104EF0002846FBF7A1FA01212846FBF755FA0422C0
:104F00000B496846FBF7B4F90B490098FBF79AFA8E
:104F1000044600212846FBF78FFA002C04D02146D6
:104F200006A000F0F1FD38BD0120FBF791FA38BD75
:104F30007688FF1FF882FF1F552FFF1F72657420B0
:104F40003D2025640A000000FFB584469D7838485E
:104F5000AE00002486591C5F01200390D00F8018FA
:104F60004210552008701878487018880012887010
:104F70009878C870091D00914EE061460020085ED7
:104F8000891C8C46011BC80FC000029000D049420A
:104F90000020F710B14202DB0420891BBF197610F4
:104FA000B646714504DB022630437646891B7744BA
:104FB0007610B14202DB01210843BF190299002992
:104FC00001D0E41B00E0E4191A498C4202DCC94319
:104FD0008C4200DA0C460299154E08438100403E8F
:104FE00071584D1901D5002502E0582D00DD5825D6
:104FF0000F49AE008E590399002903D0000101909A
:10500000002007E001990843009908700098401CAF
:1050100000900120521E0390002AAEDC0398002865
:1050200002D10098019901701C809D70FFBD0000A5
:1050300064DE0211FF7F000010B5104C1021A07932
:10504000FBF740F9012803D11021A079FBF726F8DE
:105050006078012801D1FBF701FA01211520FBF747
:1050600097F901211520FBF79FF91420FBF7FCF9B4
:10507000002020706020FBF7FDF910BD4488FF1F61
:10508000FFB50F4683B01C49039889684000164657
:10509000085AFFF76BFC04002AD00125601C26701B
:1050A000002F03D00699B847401C85B2300610D5B2
:1050B0001021039805F00CFC002801D0192613E0FC
:1050C0006219E9B22046FFF7DCFC06000CD10C3572
:1050D000ADB20421684601800194058169460398B8
:1050E000FFF72AFC060004D02046FBF781F900E018
:1050F0001326304607B0F0BDB08CFF1F10B5044634
:105100000079BEB0C00716D060880C49FEF7D4FA0B
:10511000C00710D0094800220830418D6846018040
:10512000012141800548083801786846017160888E
:105130006946FEF785FC3EB010BD00004086FF1FAB
:1051400070B5049800241546002801D00B2070BDCE
:10515000486802784078000210180E4A80B29042E7
:105160000AD10D495F200A785F2A00D90870012012
:105170001880087828700BE0084A904207D1022076
:1051800018800246C9682846FAF7ACFF00E00A24F6
:10519000204670BD192A00003886FF1F082900002C
:1051A0007CB515464A68069C167852781202B218E9
:1051B000104E92B2F24209D101220192DBB2009468
:1051C0002A46FEF7D9F8040003D000E00A2420465E
:1051D0007CBD6978287809024018074980B249687F
:1051E0000029F4D0002802D001208847EFE70220F0
:1051F000FBE70000FED6FFFF3886FF1F10B51A48F8
:105200000078022807D000210F20FBF7CDF80F20EF
:10521000FBF736F910BD154CFF21E0882D31401CFD
:1052200080B2E080884212D2A07800280DD0002100
:10523000A1700F20FBF7B8F80F20FBF721F9C82267
:105240000821E078FAF736FF10BD0121F0E70020D1
:10525000E08001460F20FBF7A7F80F20FBF710F9BD
:10526000C8220421EDE70000308CFF1F9C86FF1F41
:105270007CB50325684605701A481B4C0078022847
:105280000AD0052815D0012801D0032828D117A05D
:1052900000F03AFC0A221FE01EA000F035FC0020BE
:1052A00069460871087001AA01212448FDF74EFBE8
:1052B00011E023A000F028FCFDF76EFC68460570A5
:1052C0001E486A460121001DFDF740FB64220421AF
:1052D000E078FAF7EFFEC8220121E078FAF7EAFE5B
:1052E0007CBD0000308CFF1F9C86FF1F626F6E64C8
:1052F000696E675F696E666F5F6B65795F61647623
:105300006572746973655F68616E646C652D2D2DBF
:10531000330D0A00626F6E64696E675F696E666F57
:105320005F6B65795F6164766572746973655F68E8
:10533000616E646C652D2D2D310D0A000503000092
:10534000626F6E64696E675F696E666F5F6B6579C9
:105350005F6164766572746973655F68616E646CC1
:10536000652D2D2D320D0A006822504370B52D4A4F
:105370008018002909D0012906D1801D01F01AF9F1
:1053800001F0B8F808F0F8F970BD0446801D01F08E
:1053900011F90A280CD301F033F90A2808D1224E5A
:1053A0000A21707B0546FAF76FFF6D1C084675737E
:1053B0000621484305462030A21DC0B20E2105F04B
:1053C000F8FC2846224621300C32C0B21C2105F0E0
:1053D000F0FC2846224622302832C0B21C2105F0BB
:1053E000E8FC2846224623304432C0B2102105F0A2
:1053F000E0FC2846224624305432C0B2102105F089
:10540000D8FC224625356432E8B2042105F0D1FCEF
:1054100001F036F9062221460448FAF763FEFAF74E
:105420007BFF70BDD3DB02110483FF1F6509FF1FE3
:1054300070B52E4905460C20496868434418284633
:1054400000F0BEF900260028A078E17836D0884226
:1054500001D2A17070BD4900884202D2401CA070E8
:1054600070BD6078002807D1012060702078C007E7
:1054700002D0284600F0CEF8E0880028F0D0A188BD
:10548000814209D2491C89B2A1808142E8D12078A9
:105490004007E5D580350DE020890028E0D06189FE
:1054A000491C89B261818142DAD366812078000784
:1054B000D6D5C035E8B200F0ADF870BD884201D94C
:1054C000A1700FE0002802D0401EA0700AE06078B2
:1054D000012807D166702078800703D54035E8B2EF
:1054E00000F098F8A680668170BD0000CC86FF1F92
:1054F00007490A7D487D824201D1FF207047885CC0
:10550000521CD2B20A75142AF8D300220A757047C9
:10551000E0B0FF1FF0B59C460024214B00281C750D
:105520005C7503D0002901D0202901D90120F0BDEC
:105530001C4B00265860197016E00C2533466B434F
:105540001D186C70AC700527EF70AC80C35C1B0736
:105550009B0F05D0FF239133EB8064232B8101E067
:10556000EC802C816C81761C8E42E6DB0D4B0C337B
:105570001C606346002B10D04B1E9A420DDC094B79
:1055800064465A709C60102405E00C235343C55CAC
:105590002543C554521C8A42F7DB0020F0BD0000B1
:1055A000E0B0FF1FCC86FF1F10B5104900200B781C
:1055B0004A680FE00C21414389184C78012C12D025
:1055C0008C78002C0FD18C88002C0CD149890029B3
:1055D00009D1401C9842EDDB0548017D407D8142A8
:1055E00001D1012010BD002010BD0000CC86FF1F9E
:1055F000E0B0FF1F70B50024054D03E0E0B2FFF7F7
:1056000017FF641C28788442F8DBFFF771FF70BD38
:10561000CC86FF1F05494A7D8854487D401CC0B296
:105620004875142801D3002048757047E0B0FF1F6B
:105630000121C903421A884276D033DC802874D015
:1056400014DC08287AD00ADC554940186FD0491E6E
:10565000401826D0012824D003286BD16CE01028F4
:105660006ED020286ED0402864D16DE00121C9029F
:10567000421A884273D00ADCFF38401E68D0FF38D7
:10568000401E67D0FF38FF38022853D165E0501A1A
:1056900067D001210903401A65D04900884249D1E9
:1056A0000E207047FF23DB03D01A9A4269D01CDC1E
:1056B0003C48131A82425ED00ADC501A57D00121AE
:1056C0000904401A55D04900884233D1122070474E
:1056D0000120C004181A50D001210905401A4ED0EB
:1056E0004900884226D1162070470F21C905421A69
:1056F00088424CD00BDC2C49401A44D0FF210906CB
:10570000401842D04900C84214D11A2070471F20C7
:10571000C00610183DD00F21090740183BD04900A2
:10572000C84207D11E2070471FE00FE006E034E0BA
:1057300000E005E0FF20F6E70220F4E70320F2E7AF
:105740000420F0E70520EEE70620ECE70720EAE773
:105750000820E8E70920E6E701E00A20E3E70B205C
:10576000E1E70C20DFE70D20DDE70F20DBE710206D
:10577000D9E71120D7E71320D5E71420D3E7152068
:10578000D1E71720CFE71820CDE71920CBE71B2062
:10579000C9E71C20C7E71D20C5E71F20C3E700009D
:1057A00000000080008007000000800010B5034862
:1057B00008218078FAF778FC10BD0000DC86FF1F16
:1057C000F8B50C2102464A43164901244B680E469F
:1057D0009A5C10231A400C36002A19D04A7889683E
:1057E000801A80000F5800252046A84038420AD071
:1057F000FFF71EFF41098900C2067158D20E2046EC
:10580000904001420CD06D1C202DEDD30120F8BD3D
:1058100041098900C0067158C00E84402142F5D16B
:105820000020F8BDCC86FF1FF8B50C464443414329
:105830008918A51848098000C9060124C90E224606
:10584000164E8A403158002B01D0114300E091439D
:1058500031500C202946414310480C384268515CB5
:10586000C90619D541788068691A8900475800250A
:105870002046A84038400CD0FFF7DAFE41098900E5
:10588000C2067158D20E20469040014201D100203C
:10589000F8BD6D1C202DEBD30120F8BDD886FF1F6D
:1058A00008B50020694600900870487001216B46D9
:1058B00002220846FEF74AFB08BD38B5144600220E
:1058C00000926A461070517001216B460222084610
:1058D000FEF73CFB012C01D1FFF7E2FF38BD1CB500
:1058E0000020009001906B46082201210B20FEF75A
:1058F0002DFB1CBD7CB500236C46009320706370AB
:10590000A170E370154601936B46082201210B201C
:10591000FEF71CFB012D01D1FFF7E1FF7CBD00006C
:1059200010B5044601210F20FAF73EFD0C48A100F6
:10593000081841884B290DD04E290BD0C8B2090A4E
:105940000022FFF7BAFF0748642202218079FAF7A4
:10595000B1FB10BD0022C9B21046FFF7CBFFF2E742
:1059600054E002114488FF1F074910B58000401819
:1059700040884B2804D04E2802D0FFF791FF10BD7D
:10598000FFF7ADFF10BD000054E0021110B51D4837
:105990004178002907D0807804F0DAF800200F223F
:1059A000194903230BE0FF21403118A000F0ACF8A7
:1059B00010BD102820D011281ED00D281CD00C247A
:1059C00044430B55401C1328F3DB0E4900201031D3
:1059D00082008A58002A13D0401C0328F8DB094BA8
:1059E0001022103313210848FFF794FD0028DFD060
:1059F0000BA000F089F810BD0C2444430A55E1E7E0
:105A00000DA0F6E7DC86FF1FF6B0FF1F62746E2064
:105A1000636F6E666967206572726F720A000000BC
:105A200062737020627574746F6E20696E69742081
:105A30006572726F720A0000636F6D62696E652035
:105A4000627574746F6E206461746120696E69742C
:105A5000206572726F720A0001680A0508D1103160
:105A6000044A016092781203914201D3891A0160BD
:105A700070470000DC82FF1F10B501211520FAF7E6
:105A800087FC01211520FAF78FFC1420FAF7ECFCB3
:105A90006020FAF7EFFC2720FAF7ECFC064C002018
:105AA00020701021A079FAF7F9FA6078012801D165
:105AB000FAF7D4FC10BD00004488FF1F08B5FF2191
:105AC0006846018069460548FCF7FCFD6846008889
:105AD000102801D9002008BD012008BD16030000D0
