:020000041102E7
:1000000003B40148019001BD75A9000003B4014883
:10001000019001BDA93C000003B40148019001BD5D
:100020009DA9000003B40148019001BDC52CFF1F2C
:1000300003B40148019001BD6133FF1F03B40148BF
:10004000019001BDADAE000003B40148019001BDB7
:10005000456B010003B40148019001BD9131FF1FC0
:1000600003B40148019001BDB30E000003B4014880
:10007000019001BD0D37FF1F03B40148019001BD80
:100080002D35FF1F03B40148019001BDC534FF1F8A
:1000900003B40148019001BD6537FF1F03B4014857
:1000A000019001BDF934FF1F03B40148019001BD67
:1000B000810E000003B40148019001BDCD37FF1F40
:1000C00003B40148019001BDB536FF1F70B5FFF7BD
:1000D00097FF904C002025682060FFF797FF0646A9
:1000E0002560FFF799FF304670BD8B49C968FF3125
:1000F000813188657047F8B5FFF794FF864D874AD0
:1001000068721178022903D9002801D101201070EA
:10011000834900200446E9608300401CCC50FF283E
:10012000FADDE8687F49882319507F49C1627F4919
:100130000978002902D07C491131C1620A21016588
:10014000117881637A49C161FFF772FFE9687948E4
:100150004861192080018861084637228030C260DA
:10016000082336220B64CA631E224A643622426088
:10017000322202603B220364C2632822426441228D
:10018000C264392282643222436502652822826574
:10019000022202664222C2651E228366426628222D
:1001A000C26620224267422202675A2243610261EC
:1001B0003C228261192292010A605F4A0A63FF228F
:1001C0002D328A60CA60FF22F5320A615B4A8A6476
:1001D0007D22D2005A4EC267CE644A62594A8A6270
:1001E0003222CA6506224A658A65CA1DF93202258D
:1001F00013604D664B25ED008D660925CD66524D89
:100200000D678C674B67AB10CB67504FFF313E607B
:100210004A4E86627D26F60086676426466205267B
:10022000C66202260663C82646638463382050608F
:10023000474810644B2080019061B000D061581095
:1002400010627D2000015062D46695651366536488
:10025000D565146753671E2090663E4890673E48F8
:100260005B008131D0670B608B604860FF20F53008
:10027000C86008614B20C00010630E6538483749DC
:10028000274A81603749803A11613549364A8031C1
:100290008A62364ACA62364A8261364AC262364A3F
:1002A00002632F4A3548403A50633548D063354899
:1002B000C861354890632A493448403188613549DE
:1002C0003348886026483449803841603349244A9D
:1002D00041633349C03AD1603349324B204CCB6340
:1002E000324B403C2363324B9362324AC263324A00
:1002F000C260324A4A63324AE260324A8A63324A10
:100300000A6332498163FFF799FE0120FFF79CFEE3
:10031000F8BD00009809FF1F745DFF1F4A0AFF1F08
:100320000004FF1F6090FF1F6E040000105DFF1FA0
:100330003A07000080C3C9019A02000050C30000C0
:10034000280A00006A180000204E0000F009FF1F74
:1003500000400011DC05000040420F005D40FF1F1F
:100360000001FF1FDD25FF1F194DFF1FED4FFF1F70
:10037000E922FF1F7D24FF1F0523FF1F9132FF1F6E
:100380005130FF1F855AFF1F7158FF1FD53AFF1FBD
:100390002120FF1F0002FF1F913BFF1FE13DFF1FB8
:1003A0000528FF1FE91EFF1F0000FF1F454BFF1F11
:1003B000A53CFF1F3943FF1FDD3CFF1FED27FF1F3B
:1003C000E53BFF1F5120FF1F9927FF1FA145FF1F7E
:1003D000002809DBC106C90E0120884003490860D6
:1003E000BFF34F8FBFF36F8F7047000080E100E0D5
:1003F0008307FF22DB0E9A408907090E99400028E7
:1004000008DB830809489B001B18186890430843C1
:10041000186070470007000F0838830804489B00E5
:100420001B18D86990430843D861704700E400E086
:1004300000ED00E08307FF22DB0E9A408907090EDA
:100440009940002808DB830809489B001B1818689E
:1004500090430843186070470007000F083883086E
:1004600004489B001B18D86990430843D861704723
:1004700000E400E000ED00E0F0B50646801E85B027
:1004800005286BD83848B2001418236C0A46314648
:1004900036A0FFF7DFFD3C49F001401843681D0519
:1004A0002D0D1801020D206C0105206C090D0002B4
:1004B000276C000D002F04DA8D4206D88A4204D83A
:1004C0003FE0854201D382423BD2009501920391E5
:1004D0000290226C31462D48FFF7BCFD2C4DE86898
:1004E000401CE8600A280DD9206C3146C20FD207A3
:1004F00028A0FFF7AFFD0020E860206C002801DB9A
:100500000120A8701849206C8A03904320640320BE
:10051000401EFDD2206C104320640320401EFDD2FB
:10052000CA690120B04082430243CA610322521EBD
:10053000FDD2CA698243CA610320401EFDD205B0C4
:10054000F0BD0095019203910290226C314618484B
:10055000FFF780FD0E490020C860D3E7314615A0A3
:10056000FFF778FDEBE7000000000540636F6D705A
:1005700061726520696E743A256420307825782090
:10058000307825780A00000000040540201202118E
:10059000405DFF1F61646320636F6D706172652051
:1005A000696E643A25642C307825780A00000000D2
:1005B00064120211636F6D70617265206572723A28
:1005C00025640A0010B502211D20FFF711FF10BDA0
:1005D00010B50448002141708170C1702821FFF7D7
:1005E0003FFD10BD8886FF1F10B508490C5CFF2C2D
:1005F0000BD00021204600F0D1F90021204600F068
:1006000075FA0021204600F0ABFA10BD505DFF1FC7
:10061000F0B52C48A3B0C16B8F03416BBF0B490AE7
:100620004902416328484078B84243D1022404AECD
:100630000125A5403D4234D022494A6BAA434A6372
:100640000020E1018C466246810053181F4A9A1827
:1006500093681B051B0D7352926889191201120DC4
:10066000401C4A801E28EEDB16480123856316498C
:100670000878002815D0E00701D0601E00E0601C5B
:10068000820051184968002907D06A46009310710A
:100690003C2002961073684688470A48416B2943FC
:1006A0004163641C072CC3DD0748C078002801D1D2
:1006B00000F054FB0348416B054A1143416323B0EA
:1006C000F0BD0000000005408886FF1F00040540C3
:1006D000FF010000F0B5274C85B0E06B8005800D70
:1006E0000090606B03273F02B84360630098224D7F
:1006F000224EC0051AD5224B00208100CA1812686C
:10070000401C6A508028F8DBA06BFF2101310843B0
:10071000A063E06BC005FCD4F168002906D001207D
:10072000019080200390029501A8884700988005D9
:100730001AD5144A002081008B181B68401C6B508E
:100740008028F8DBA06B012149020843A063E06B1D
:100750008005FCD4F168002906D00120009080209B
:100760000290019568468847606B3843606305B026
:10077000F0BD000000000540C086FF1FB086FF1FCF
:1007800000080540000A0540F0B5464CA9B0E06BF2
:100790008003800B0190606BFF25AD02A84360636E
:1007A000E06B8003800B0390606B400A4002606343
:1007B000019801268003000E002816D00A20009020
:1007C000014630468840019901408903090E06D050
:1007D000A063009801990A3880B2FFF74DFE009897
:1007E000401C00901128EBDBA5632F4F039978780C
:1007F00088424DD102200BAD069002460120904068
:10080000039A10423AD0626B8243626300210091E6
:100810000699CB010099254A89005E18B21896689E
:100820003605360D6E52926849191201120D4A8032
:100830000099491C00911E29ECDB0126A063387841
:1008400000281BD00698C007069801D0401E00E083
:10085000401C00908000C0194168002908D007960C
:1008600008AA009810703C200995107207A88847C4
:10087000616B069A30469040014361630698401CC4
:1008800006900728B9DDF878002801D100F030F88B
:10089000606B0749074A896889021143084360630E
:1008A00029B0F0BD000005408886FF1F0004054008
:1008B000405DFF1FFF03000010B50448C16B034AF1
:1008C00040321068D06000F0E5F910BD00800040B3
:1008D00010B5054901200870044A00211120FFF7D6
:1008E000C5FBFFF775FE10BD405DFF1FC50502117A
:1008F000F8B524484022807841088C090240A401C0
:100900005200144310220B46134002401C43520075
:1009100014430422114010400C43400004431A4881
:10092000007800282BD01A4E184D75631D20FFF754
:100930004FFD184900204863B563174EB068082181
:100940008843B060002501273846A840204202D0E5
:10095000E8B2FFF749FE6D1C092DF5DBB0684008D1
:100960004000B0601120FFF787FB1120FFF78AFBE2
:10097000FFF72EFE1120FFF78BFB0020F8BD1220A1
:10098000F8BD00008886FF1F405DFF1FFF010000CB
:1009900000000540C003FF1F40F0004030B5C21FFB
:1009A0000A2A01D3062030BD162801D9052030BD02
:1009B0000124074D9440002905D0002100F0D0F813
:1009C0002868204301E02868A0432860002030BD4B
:1009D00000380040162809D8054A01238340D06812
:1009E000002901D0184300E09843D0607047000010
:1009F00000380040F3B50646FF2819D0B007C40EF2
:100A0000B708651D304600F0EBF80A48B900091830
:100A100088692B1B01225B1C9A40521EA240904306
:100A2000019AA2401043886101213046FFF7D2FFAE
:100A3000FCBD00000038004010B5104C20780028A4
:100A400001D0072010BDFF2131310C48FFF708FB12
:100A5000012020700A4900200863486309490862A0
:100A60004862094801688022090A090211430160AD
:100A7000064950020860002010BD00009484FF1F4A
:100A80000080004080F0004010E400E000E100E061
:100A900010B5162801D9052010BD0C4B9C6B012206
:100AA0008240104620439863586B90435863DC6B38
:100AB000012907D020469043D863186B02431A637C
:100AC000002010BD10462043F6E7000000800040E3
:100AD000054B0122801E82405869002901D0104335
:100AE00000E090435861704700380040F0B50F4671
:100AF0000446162801D90520F0BD1748012506191E
:100B00007178A540012904D18069284201D0002FC5
:100B100008D000212046FFF75DFF022C04D0032CF3
:100B200002D005E00620F0BD01212046FFF7D0FFEE
:100B300000212046FFF732FF0848012F06D0416808
:100B4000A9434160022070700020F0BD426801217D
:100B50002A4342607170F7E79484FF1F00800040D1
:100B600070B5162816D84200104B82189E5CD21819
:100B7000547893780E4D012213280CD2B0004519F9
:100B8000A868E41A641CA240521E9A4090439940FF
:100B90000843A86070BD6869E41A641CA240521E34
:100BA0009A40904399400843686170BDDB1102117F
:100BB00000F00040162801D90120704707494A6813
:100BC000012383401A4201D0096802E00349403101
:100BD0000969C140C807C00F70470000008000408D
:100BE00030B504460E48162C01D9052030BD0C2125
:100BF0000025614345540A4829461C3800194570B0
:100C00002046FFF773FF07494A6B0120A04082434B
:100C100002434A630A6B82430A63284630BD0000E0
:100C2000B084FF1F0080004070B5044618480026BD
:100C3000162C01D9052070BD21460C2251430D18F8
:100C40006A68002A02D1AA68002A1CD0104B02222E
:100C50001C3B1B195A700122425400212046FFF709
:100C600045FF6868002808D0A86800280DD02046F5
:100C7000FFF7A0FF002808D0002631462046FFF7E6
:100C800007FF002070BD122070BD0126F5E70000AF
:100C9000B084FF1FF3B5204D81B00746002401202A
:100CA000A040384233D00299084201D0012600E02A
:100CB0000026E0B2162810D80C22424351194A6887
:100CC000002A03D0002E01D0012105E08A68002A05
:100CD00003D0002E01D1002190470C206043401921
:100CE0004168806800290DD0002806D0002E02D06F
:100CF0000021E0B203E00121FBE7E0B20121FFF7B0
:100D0000C7FE04E0002802D0E0B20021F7E7641C2F
:100D1000172CC4DBFEBD0000B084FF1FF8B51746DA
:100D20000E4604460A4DFFF75BFF0C206043401956
:100D3000876046602046FFF777FF050006490548B3
:100D4000086002D02046FFF74BFF2846F8BD0000A0
:100D5000B084FF1FB9080211C003FF1F70B51B4804
:100D60000078002830D01D20FFF732FB19491848C1
:100D70004863194B00225A638863184DA8680821FC
:100D80008843A860164E1446A000801940680028C9
:100D900002D0E0B2FFF728FC641C092CF4DBA86841
:100DA00040084000A8601120FFF766F91120FFF706
:100DB00069F9FFF70DFC1120FFF76AF901200949D5
:100DC00040070860002070BD122070BD405DFF1F0D
:100DD000FF01000000000540C003FF1F40F000407D
:100DE0008886FF1F80E200E004498A680F23DB0445
:100DF00000079A43400A02438A60704740F000406F
:100E00000B48C16849084900C1600A488168E0226E
:100E100091438160C16B10221143C163C16B0122F8
:100E20001143C163C16B06229143091DC163704721
:100E30000000054040F00040024841690122114392
:100E40004161704700000540024841694908490076
:100E5000416170470000054037B5424C86B02078AC
:100E60001546002802D0112009B030BD002D0FD04A
:100E70001120FFF713F96846E560007E002809D0CD
:100E800000F090F86846817E407E00F093F817E00D
:100E90000620E9E7FFF7B4FF6846C07EFFF7A4FF2E
:100EA00000210C20FFF75CFE00210D20FFF758FE0B
:100EB00000210920FFF754FE01210920FFF76EFDF4
:100EC0006846007F00F098F86846407F00F088F898
:100ED0006846807F00F0AEF82348C1680C22914339
:100EE00004221143C160C16802229143C160684677
:100EF000C07F002802D0FFF79FFF01E0FFF7A4FFAB
:100F00000A220321302003AB029207C337210120BC
:100F100001910090002309220621402000F002F9EF
:100F2000082206A9601CFFF7BFF81048C16B4022D9
:100F30001143C1630D484030016812031143016041
:100F400041688022114341604168920391434160AE
:100F50004168421411434160C16B10221143C163C7
:100F6000002081E7B086FF1F0000054000F0004030
:100F700010B51120FFF79EF81420FFF79BF8002012
:100F800010BD000010B5064801684908490001601D
:100F90001120FFF771F81120FFF774F810BD000061
:100FA000000005400248C16801221143C16070473A
:100FB0000000054010B50C462221FFF71BFD212142
:100FC0002046FFF717FD10BD10B51120FFF766F89A
:100FD0000248016801221143016010BD0000054074
:100FE0000449CA6803231B039A4300030243CA60EF
:100FF00070470000000005400449CA687F231B04B5
:101000009A4300040243CA60704700000000054094
:1010100010B5064A00211420FFF728F804480021E3
:10102000016041608160C16010BD0000B911021112
:10103000B086FF1F0449CA6803231B029A430002BB
:101040000243CA60704700000000054070B51120DF
:10105000FFF724F8184D01242C701120FFF730F809
:101060001420FFF72DF8687800280FD11348816805
:1010700022041143816081680822114381608168E4
:1010800021438160816812051143816002211D2086
:10109000FFF7D0F901200A4940070860FFF794FFE5
:1010A0000949084848630948416B03221202114369
:1010B0004163002070BD0000B086FF1F40F000407B
:1010C00000E100E0D5060211C003FF1F000005404B
:1010D00010B51048416B0322120291434163FFF7A0
:1010E00051FF0D4C0D486178002904D1816801221F
:1010F0001204914381608168082291438160142029
:10110000FEF7C6FF1120FEF7C3FF05490020486324
:10111000207010BD00000540B086FF1F40F0004069
:10112000C003FF1FF0B5224C089F2569214E000522
:1011300035400543256120690F252D04A843090486
:101140000843206120693F210902884311020843B6
:1011500020612069F021884319010843206120693A
:101160000599000900010843206160690699304033
:101170000905084360616069311308400799090255
:1011800008436061A069FF210902884339020843CE
:10119000A061A06970218843099909010843A061F1
:1011A000A0690A99000900010843A061F0BD000090
:1011B00000000540FFFF0F8010B502211D20FFF742
:1011C00039F910BD0001020307090A0B0E0F1011B7
:1011D00012141718191A1B1F2021220002010005E2
:1011E00004000807000B0A001716001D1C0102016D
:1011F000010504010E0D0111100114130117160150
:101200001A19020201020B0A020E0D021110021439
:1012100013021716030504030807030B0A030E0D38
:101220002B61646320636F6D7061726520696E74F9
:101230003A2564207265673A307825782076616CAB
:1012400075653A30782578203078257820307825F3
:1012500078206C3A3078257820683A307825780AFA
:10126000000000002D61646320636F6D7061726522
:1012700020696E743A2564207265673A3078257863
:101280002076616C75653A3078257820307825783D
:101290002030782578206C3A3078257820683A30EC
:0812A0007825780A0000000027
:020000041FFFDC
:1000000000000000194BFF1F045DFF1F0C5DFF1F68
:10001000145DFF1F00000000000000000000000051
:1000200000000000000000000000000000000000D0
:1000300000000000000000000000000000000000C0
:1000400000000000000000000000000000000000B0
:1000500000000000000000000000000000000000A0
:100060000000000000000000000000000000000090
:100070000000000000000000000000000000000080
:100080000000000000000000000000000000000070
:100090000000000000000000000000000000000060
:1000A0000000000000000000000000000000000050
:1000B0000000000000000000000000000000000040
:1000C0000000000000000000000000000000000030
:1000D0000000000000000000000000000000000020
:1000E0000000000000000000000000000000000010
:1000F0000000000000000000000000000000000000
:1001000000000000000000000000000000000000EF
:1001100000000000000000000000000000000000DF
:1001200000000000000000000000000000000000CF
:1001300000000000000000000000000000000000BF
:1001400000000000000000000000000000000000AF
:10015000000000000000000000000000000000009F
:10016000000000000000000000000000000000008F
:10017000000000000000000000000000000000007F
:10018000000000000000000000000000000000006F
:100190006137FF1F2938FF1F9550FF1F0000000027
:1001A000000000000000000000000000000000004F
:1001B000000000000000000000000000000000003F
:1001C000000000000000000000000000000000002F
:1001D000000000000000000000000000000000001F
:1001E000000000000000000000000000000000000F
:1001F00000000000000000000000000000000000FF
:1002000000000000000000000000000000000000EE
:1002100000000000000000000000000000000000DE
:1002200000000000000000000000000000000000CE
:1002300000000000000000000000000000000000BE
:1002400000000000000000000000000000000000AE
:10025000000000000000000000000000000000009E
:10026000000000000000000000000000000000008E
:10027000000000000000000000000000000000007E
:10028000000000000000000000000000000000006E
:10029000000000000000000000000000000000005E
:1002A000000000000000000000000000000000004E
:1002B000000000000000000000000000000000003E
:1002C000000000000000000000000000000000002E
:1002D000000000000000000000000000000000001E
:1002E000000000000000000000000000000000000E
:1002F00000000000000000000000000000000000FE
:1003000000000000000000000000000000000000ED
:1003100000000000000000000000000000000000DD
:1003200000000000000000000000000000000000CD
:1003300000000000000000000000000000000000BD
:1003400000000000000000000000000000000000AD
:10035000000000000000000000000000000000009D
:10036000000000000000000000000000000000008D
:100370000D19FF1F00000000000000000000000039
:10038000000000000000000000000000000000006D
:10039000000000000000000000000000000000005D
:1003A000000000000000000000000000F533FF1F07
:1003B000000000000000000000000000000000003D
:1003C000000000000000000000000000000000002D
:1003D000000000000000000000000000000000001D
:1003E000000000000000000000000000000000000D
:1003F00000000000000000000000000000000000FD
:0C04000001FF01FF01FF01FF910000005F
:020000041FFFDC
:101838006090FF1F4519FF1F81840000F1280000F8
:101848000000000000000000000000000000000090
:101858000000000000000000000000005119FF1FF8
:101868000000000000000000CD8400005519FF1F93
:101878005719FF1F5719FF1F5719FF1F5719FF1F28
:101888005719FF1F5719FF1F5719FF1F5719FF1F18
:101898005719FF1F5719FF1F5719FF1F5719FF1F08
:1018A8005719FF1F5719FF1F5719FF1F5719FF1FF8
:1018B8005719FF1F5719FF1F5719FF1F5719FF1FE8
:1018C8000000000000000000000000000000000010
:1018D8000000000000000000000000000000000000
:1018E8005719FF1F000000005719FF1F5719FF1F46
:1018F8000348854600F030F8004800478D48FF1F30
:101908006090FF1F0A484838694601600430F0C0FB
:1019180044464D4656465F46F0C030BCF0BCF0C069
:10192800F0BCF0C044380349034A95460847000014
:101938000008FF1F892AFF1F3018FF1F044880472F
:1019480004480047FEE7FEE7FEE7FEE7FEE7FEE79E
:101958009D28FF1FF918FF1F064C0125064E05E0BC
:10196800E36807CC2B430C3C98471034B442F7D3B8
:10197800FFF7C2FFD45CFF1F045DFF1F30B58C1852
:101988000278401C13071B0F01D10378401C120971
:1019980006D10278401C03E005780D70401C491CF4
:1019A8005B1EF9D101E00B70491C521EFBD1A1420C
:1019B800E6D3002030BD000003B40148019001BD0A
:1019C80075A9000003B40148019001BDC93E00009B
:1019D80003B40148019001BD9DA9000003B401486A
:1019E800019001BDB30E000003B40148019001BD90
:1019F800116E000003B40148019001BD8BB90000CD
:101A080003B40148019001BDD1D4000003B40148DA
:101A1800019001BDF9A6000003B40148019001BD81
:101A2800A1AF000003B40148019001BD810E000080
:101A380003B40148019001BDB30E000003B401488E
:101A4800019001BDDD3F000003B40148019001BDD4
:101A58008944000003B40148019001BD21440000FD
:101A680003B40148019001BD750F000003B401489B
:101A7800019001BDC95C010003B40148019001BD9A
:101A88001907010003B40148019001BDBD0B010015
:101A980003B40148019001BDDD0C010003B4014805
:101AA800019001BDDD0A010003B40148019001BDA8
:101AB8000134010003B40148019001BD093401005B
:101AC80003B40148019001BD0534010003B4014885
:101AD800019001BDF535010003B40148019001BD35
:101AE800F935010003B40148019001BDE91701006F
:101AF80003B40148019001BD6137010003B40148F6
:101B0800019001BD01D7000003B40148019001BD57
:101B18006DF6000003B40148019001BD791201007F
:101B280003B40148019001BD4DF9000003B4014818
:101B3800019001BDC1F7000003B40148019001BD47
:101B4800413F000003B40148019001BD095A00005B
:101B580003B40148019001BD0966000003B40148BF
:101B6800019001BD8D82000003B40148019001BDC0
:101B7800E1AC000003B40148019001BD79B3000055
:101B880003B40148019001BDE53A010003B40148DE
:101B9800019001BD156B010003B40148019001BD1E
:101BA800ED4A010003B40148019001BDA54F0100B1
:101BB80003B40148019001BD8552010003B40148F6
:101BC800019001BD0189000003B40148019001BDE5
:101BD800016C010003B40148019001BDBD5C010026
:101BE80003B40148019001BD8512010003B4014806
:101BF800019001BDD1AE000003B40148019001BDC0
:101C0800C53F000003B40148019001BDCD4C01005F
:101C180003B40148019001BD810E000003B40148DE
:101C2800019001BD610B021103B40148019001BD8F
:101C380021A9000003B40148019001BDADAE000028
:101C480003B40148019001BDB54C010003B401483B
:101C5800019001BDC56D010003B40148019001BDAB
:101C68000972010003B40148019001BDE9D40000E4
:101C780003B40148019001BD79D5000003B40148BF
:101C8800019001BDADFF000003B40148019001BD02
:101C98005DB0000003B40148019001BDE1B000004F
:101CA80003B40148019001BD6142000003B401483A
:101CB800019001BD8576010003B40148019001BD82
:101CC800C115010003B40148019001BDCD0C01000C
:101CD80003B40148019001BD71B0000003B401488C
:101CE800019001BDD9B0000003B40148019001BDC5
:101CF8005976010003B40148019001BD53B90000B1
:101D080003B40148019001BD8D11010003B40148DD
:101D1800019001BDB9B0000003B40148019001BDB4
:101D28001DB0000003B40148019001BDED6B010036
:101D380003B40148019001BDAD0F010003B401488F
:101D4800019001BD3D4B010003B40148019001BD64
:101D5800CD36010003B40148019001BDC9A90000B6
:101D680003B40148019001BDF700021103B4014812
:101D7800019001BD390A021103B40148019001BD67
:101D8800D108021103B40148019001BD090E0000F9
:101D980003B40148019001BD154D010003B4014889
:101DA800019001BDB14E000003B40148019001BD8E
:101DB800D94F010003B40148019001BD2D11010064
:101DC80003B40148019001BD8914010003B401481E
:101DD800019001BD6189000003B40148019001BD73
:101DE800B352010003B40148019001BDD1100211A2
:101DF80003B40148019001BD710F021103B40148F9
:101E0800019001BD8B52010003B40148019001BD4E
:101E1800D509021103B40148019001BDD1A5000004
:101E280003B40148019001BDF509021103B401484A
:101E3800019001BDED0A021103B40148019001BDF2
:101E4800590E021103B40148019001BD5D0D021144
:101E580003B40148019001BD1110021103B40148F7
:101E6800019001BD4D10021103B40148019001BD5C
:101E78001D0D021103B40148019001BDF54E01008A
:101E880003B40148019001BD434D010003B401486A
:101E9800019001BD0D52010003B40148019001BD3C
:101EA800D544010003B40148019001BD2D6C010027
:101EB80003B40148019001BD7997000003B40148BB
:101EC800019001BD6911010003B40148019001BDF1
:101ED800E512010003B40148019001BDF90D0100AC
:101EE80070B50C460546FFF767FD21462846FFF703
:101EF80069FD0446FFF76CFD204670BDFEB5089DE0
:101F0800099C1746002874D0002972D0002C02D0F2
:101F1800012C02D003E02A2201E0FF220732921DA1
:101F28000192354A0E461770344A106034480370DF
:101F38003448057034480470002446E0A12080002D
:101F4800254645432D48A121006889002818FFF738
:101F580045FD2A482D49006862002818FF30813065
:101F6800C6620198361800208854511848702649CE
:101F7800097800293BD0FF211131009121461C200E
:101F880041432248002220300D182A764254E0B2FC
:101F9800009902F03BFA686000202872E0B2012242
:101FA800009902F033FAE86000202874E0B20222B7
:101FB800009902F02BFA68616968002919D0E9686C
:101FC800002916D0002814D0641CBC42B6DB0020BF
:101FD8000F4D104A014683009C186580401CD1545F
:101FE800C0B261701028F6D30020FEBD01E0342194
:101FF800C3E71220F9E700001409FF1F3409FF1F87
:102008001509FF1F1609FF1F1709FF1F0C8AFF1F5D
:10201800FFFF0000EC8BFF1F10B5FB2908D8084B09
:102028009A4205D81B2903D3FF2349339A4201D288
:10203800302010BD034B19825A82FFF7D5FC10BD22
:10204800480800008410FF1FFFB50D46A121890034
:102058004843234981B009681E464418002D09D019
:10206800FF20D930015B0398814203D3002E04D0AE
:10207800012E02D0122005B0F0BDE07800280AD069
:102088000520C00127181748F9780078801C81427C
:1020980003D30720EFE70220EDE7FFF78DFCF87880
:1020A800A91E401CF87003980870002E10D001205B
:1020B800487020467C30091FFFF79CFCFFF788FC1E
:1020C80009480078082805D0072803D00020D2E75F
:1020D8000220EDE700212046FFF792FCF6E700001A
:1020E8003409FF1F1509FF1F1C09FF1F70B5344A6B
:1020F8008AB0012800D1334A430133486D461C1881
:10210800207E00280AD084208058C3B2002002E034
:1021180016782E54401C9842FADB03E0107D012308
:1021280010782870E269002A04D0297506952B7763
:1021380005A890470AB070BDFEB504464201224882
:102148001F4D1318805C191D002829D0187E0028FF
:1021580026D0987E002823D00878022820D18888A5
:102168004A888E68801A82B2102A01D9102201E0AA
:10217800002A02D0012C16D01CE001200870002093
:1021880048808880D969002905D0104B6D460DCB51
:102198000DC568468847002C03D0192001F0DEFAE7
:1021A800FEBD0820FAE7074D04E04888431C4B8031
:1021B800305C28701046521E92B20028F5D1FEBD40
:1021C8000040004000900040C485FF1F245CFF1FB2
:1021D8000446FFF7F1FB0A49C86940229043C861E9
:1021E8002046FFF713FC01F02DFA05480021C03006
:1021F8004160042101600120FFF70EFCFEE70000AA
:1022080000F00040F8B504460F468068154661693D
:102218004019461A2046216900F058F8002816D0BF
:10222800002E03DC2A463946A06808E0AA1B394676
:10223800A068FFF7F7FB7819811B3246E068FFF7C3
:10224800F1FB2946204600F03CFB2846F8BD00205B
:10225800C043F8BD426881688A4201D8881A70472D
:10226800C3684069C91A801A0818704770B50446CF
:10227800002020706380E160616022618818A1609D
:102288000D46606111462846FFF7D2FB204670BD17
:102298000748052181600021C16001610122416078
:1022A800027041708170C17002494161704700003D
:1022B800FC7FFF1F087EFF1F10B50C46FFF7CAFF03
:1022C800A04201D3012010BD002010BD10B50C465E
:1022D800FFF7C0FFA04201D8012010BD002010BDAB
:1022E80070B50124A407A36810252B43A360FFF74A
:1022F800A5FBA068A843A06070BD0000FFB5064616
:1023080001208007816881B01D4610221143816039
:10231800554F002038603046D730FFF795FB9D2099
:10232800800034468059FF36CA34013600283068A8
:1023380022462CD00121FFF78DFB4B4F2078F86304
:10234800641C2046FFF78CFB00BA000AE178000203
:102358000843B863241D2046FFF782FB00BA000A31
:10236800E178000208437863241D2046FFF778FBD4
:1023780000BA000AE178000208433863039802991A
:1023880000020843F860039F00243F1D0EE000216F
:10239800D1E72819401CFFF763FB0102285D0143C0
:1023A800324820180160241DA4B23F1F042FF0DA20
:1023B800032F04D0022F08D0012F0CD011E02819C8
:1023C800FFF74EFB0102090A06E0291948780A7846
:1023D8000102114300E0295D244820180160241DF2
:1023E800A4B20021214F02E0E0190160241DFF2C56
:1023F800FADD1D481E4A42600F2202610122026076
:102408004269002AFCD04269930701D4520708D4D4
:1024180001208007826810218A438260002005B06D
:10242800F0BD01600020039A11E0C1190968295420
:10243800401C80B20B0A2B54401C0B0C80B22B544E
:10244800401C80B2090E2954401C80B2121F002A79
:10245800EBDC3068401C3060012080078268102166
:102468008A4382600120DAE700000440000104404A
:10247800080F0000FFB5054601208007816881B07C
:102488001E46102211438160504F002038602846B4
:10249800D730FFF7D9FA9D2080002C464059CA341E
:1024A80080350028E86F22462BD00021FFF7D2FAAA
:1024B800464F2078F863641C2046FFF7D1FA00BA2B
:1024C800000AE17800020843B863241D2046FFF79C
:1024D800C7FA00BA000AE178000208437863241DAD
:1024E8002046FFF7BDFA00BA000AE1780002084367
:1024F80038630398029900020843F8600024039F98
:102508000EE00121D2E73019401CFFF7A9FA0102B9
:10251800305D01432E4820180160241DA4B23F1FDE
:10252800042FF0DA032F04D0022F08D0012F0FD088
:1025380014E03019FFF794FA0102090A09E0311989
:10254800487809780002084321496118086003E0C7
:10255800315D1F4820180160241DA4B200211C4BC6
:1025680002E0E0180160241DFF2CFADD0F22174855
:10257800120242600F220261012202604269002AAF
:10258800FCD00160039A0020121D11E0C1180968EF
:102598003154401C80B20C0A3454401C0C0C80B2DC
:1025A8003454401C80B2090E3154401C80B2121FB2
:1025B800002AEBDCE86F401CE8670120800782688E
:1025C80010218A43826005B0F0BD0000000004407D
:1025D80000010440F8B5FFF749FA6449086004208F
:1025E800FFF74AFAFFF74EFA0546C00715D06049CB
:1025F800002008605F480078012811D0032813D014
:10260800042815D0022817D0052819D0FFF740FA5A
:10261800594F044601281AD01EE0FFF73FFAF8BDCB
:102628002846FFF741FA0EE02846FFF743FA0AE08A
:102638002846FFF745FA06E02846FFF747FA02E082
:102648002846FFF749FA40B20128E8D05FE0387819
:10265800052809D0062807D04848494E007802289E
:1026680006D0052804D009E0284601F041FF4EE0D5
:10267800002C06D0022808D0052806D0022C0ED03F
:1026880005E0284601F058FF41E0022C02D0012C59
:1026980013D016E0B17B002907D0022905D039787C
:1026A800052906D001281AD00BE0284601F050FF72
:1026B80018E0284601F028FF14E0012807D0062872
:1026C80009D02846FFF70EFA022C0BD01FE0284647
:1026D80001F056FF1BE0284601F046FF17E02846A8
:1026E80001F01EFF3878012811D168050FD4707BDE
:1026F800C10701D0252004E0800701D5262000E08D
:102708002720317D814202D93220FFF7F1F91B4C95
:102718002078042804D003281AD007281DD020E0E8
:10272800FFF7ECF900281CD0FFF7EEF95820FFF767
:10273800F1F92078002801D0022020701148407853
:1027480000280ED0207800280BD10320207008E044
:102758000D48807CFFF7E4F903E00C48807BFFF725
:10276800E5F90320FFF788F9F8BD00009C09FF1F71
:102778009809FF1F9009FF1F1C09FF1F2309FF1F4E
:10278800A60BFF1F745DFF1FBC0BFF1FD40BFF1FA1
:10279800F8B50C4610490C421AD1610518D5002528
:1027A8000E48AF003E187178012909D1C15D7088C3
:1027B800FFF7C2F90A48708008490020C8557070B0
:1027C8006D1CEDB2102DEBD3012080026040F8BDE6
:1027D8002146FFF7B7F9F8BDDE090000EC8BFF1FB3
:1027E800FFFF000010B5012002F0D0F9FFF7B0F9A3
:1027F8000446002002F0CAF9204610BD70B5044610
:10280800FFF7ACF9E21DFF32FA32D06F0021000C5D
:102818000004D067104680388B001B19FF33013342
:10282800C56A491CDD660829F6DB00218B001B19E7
:10283800FF338133C56A491CDD600829F6DB0120B6
:10284800D06470BDC106C90E0120884001490860E6
:102858007047000000E100E0F8B50F461446064650
:10286800416872690819851A002D02DC224638462B
:1028780007E0621B3846FFF7D5F83819401B2A468F
:10288800F168FFF7CFF82146304600F00BF82046F4
:10289800F8BD0000024901480860704740787D0192
:1028A800705DFF1F426843695118CA1A002A05DC87
:1028B8004160994201D1C16841607047C168891877
:1028C800FAE7826843695118CA1A002A05DC816050
:1028D800994201D1C16881607047C1688918FAE7D7
:1028E8008307FF22DB0E9A408907090E99400028CA
:1028F80008DB830809489B001B18186890430843A5
:10290800186070470007000F0838830804489B00C8
:102918001B18D86990430843D861704700E400E069
:1029280000ED00E002E008C8121F08C1002AFAD131
:1029380070477047002001E001C1121F002AFBD137
:10294800704700000248C069002800D0004770475F
:102958004003FF1FFFB5074601208007816883B049
:102968001C4615460291466939490968384A4900A2
:10297800490801910021C94380321160354A126823
:10298800520052080092334A803211603249816005
:10299800212141611F20FFF755FFE20780212F48C1
:1029A800002A02D042680A434260A20704D542685E
:1029B800FF2301331A434260002D0CD02A07520F1F
:1029C80004D00122144342680A43426041682A073E
:1029D800D20B1143416021494039CA6B5201520F51
:1029E800BA4206D0CA6B07231B069A433B061A4312
:1029F800CA63CA6B5307049A5B0F934205D0CA6B2C
:102A0800049BD208D2001A43CA634168FF2281326C
:102A18009143E2011143416041680F2252039143FF
:102A28006A03114341600C480299014380078160A1
:102A380001210E4346614100054880300160054987
:102A48000098086002490198086007B0F0BD0000CE
:102A580000E100E000E200E00100080040F0004072
:102A68001CB569460120FFF77FF801200090034854
:102A7800019000F02BFC01201CBD0000BB0B0000E6
:102A880008B5334F0446F86800250678E1202B4640
:102A9800122205214002FFF76DF82EA0FFF770F80B
:102AA800206B0090214624310EC930A0FFF768F84A
:102AB80020690090211D0EC937A0FFF761F8206A30
:102AC8000090214614310EC93EA0FFF759F8E06B7B
:102AD800009047A0A36B2268616BFFF751F84FA0E5
:102AE800216CFFF74DF85148416851A0FFF748F8AD
:102AF80053480178B14202D2B8688A0085585148D3
:102B08000E460768FFF742F800903B462A463146D2
:102B18004DA0FFF735F859A0FFF732F8614E256848
:102B2800354000242919B1420BD8200702D15EA0F4
:102B3800FFF726F829595EA0FFF722F8241DFF2C7D
:102B4800F0DD5D480068002800D08047FEE70000FF
:102B58000000FF1F0A5B48617264206661756C742F
:102B68002068616E646C65725D0A000052302D52F7
:102B78003320202020202020203D20307825303888
:102B8800782030782530387820307825303878200B
:102B98003078253038780A0052342D5237202020DA
:102BA80020202020203D20307825303878203078AB
:102BB800253038782030782530387820307825301E
:102BC80038780A0052382D52313120202020202018
:102BD800203D2030782530387820307825303878F6
:102BE80020307825303878203078253038780A0039
:102BF8005231322C53502C4C522C5043203D203013
:102C08007825303878203078253038782030782585
:102C1800303878203078253038780A0050535220E0
:102C2800203D2030782530387820200000ED00E065
:102C380049435352203D203078253038780A000027
:102C4800B408FF1F6008FF1F5B4F53414C5D696468
:102C5800782025642046756E6320307825303878D2
:102C6800207379737469636B202530387820727407
:102C78006320253038780A20000000002D2D2D2DE6
:102C88002D2D2D2D2D2D2D64756D70207374616380
:102C98006B2D2D2D2D2D2D2D2D2D2D2D2D2D2D0A41
:102CA80000000000FCFFFF1F0A5B253038585D005C
:102CB80025303878200000006C5DFF1F1CB5694680
:102CC8000320FEF751FF684600F002FF0098002835
:102CD80002D10198002800D001201CBD10B500F0D9
:102CE8006BFAFFF7BDFE002802D00248804710BDEE
:102CF800FEE70000E1A200000A4610B501460020E8
:102D080000F078FE10BD00000E480D4981600021DA
:102D1800C1601B22520302614D22D20342610A4A5A
:102D280082610A4AC26101624162C1620163416310
:102D380004488030016241628162012181637047E9
:102D4800000C000600F0004040400601ABFF010007
:102D580010B5FEF721FF0120FEF724FFFEF728FF3C
:102D6800002010BDF8B54E484068C043000603D5A2
:102D78003C20FEF723FFF8BDFEF708FF484D009002
:102D8800803D28680121890408432860E86945498D
:102D980008402830E8610320FEF710FF686AC7037F
:102DA800FF0B0320FEF70AFF686AC403E40B032045
:102DB800FEF704FF686AC603F60BA74201D3204654
:102DC80000E03846B04200D33046A74201D3394626
:102DD80000E02146B14200D23146334ABA18C32A2C
:102DE80026D2314BDB439C4222D9304A94421FD22F
:102DF8009E421DD996421BD2081A132818D2284879
:102E080042680C218A4342604168FF2212029143C2
:102E180041601420FEF7D2FE21488038416AC26919
:102E2800C903C90B08239A43C26121488162F8BDCE
:102E3800274634460320FEF7C1FE19488038406A09
:102E4800C603F60BFEF7A2FE0099884201D3401A8A
:102E580001E0401A401E17498842AED31048416825
:102E680009040D0E4168FF22120291436A1C1206E2
:102E7800120C1143416041680C229143091D4160C5
:102E88000020FEF7A1FE642D02D305480021416011
:102E9800062D00D306250748A840FFF799F98CE7C7
:102EA800C0F0004000FEFEFF91FCFFFF320400006E
:102EB800745DFF1FE40C0000F8B53D4840683C4CC9
:102EC8000006803C8021002806DB606808436060BB
:102ED8000320FEF773FEF8BD364D002028632068F6
:102EE8000122920410432060334F60688021084318
:102EF80060600320FEF762FE286B401C2863606850
:102F080001210904084360600026E0692B49384024
:102F18004018E0610320FEF751FE606AE169C003D2
:102F2800C00B08229143E161A96A062251438142FC
:102F380001D3091A00E0411A3C2909D2E2690121AA
:102F480009048A43E26162688A436260E862F8BD04
:102F5800761CF6B2052ED8D3E1690120000481431E
:102F6800E161616881436160286B2E46052807D3BB
:102F7800BFF34F8F13491248C860BFF34F8FFEE766
:102F880060688021884360600320FEF717FEE069CF
:102F980038402830E0610320FEF710FE606AC00365
:102FA800C00BB062E16908208143E1619DE7000040
:102FB800C0F00040745DFF1F00FEFEFF2800010006
:102FC8000400FA0500ED00E0FEB504461948C16B9F
:102FD800194D4907C90E6958164AC90B4032009164
:102FE8001168490304D4116801239B041943116033
:102FF800C16B18221143C163C06B104F4001400FD1
:103008000190B84706462046B84706430C49F007E2
:10301800C00F88470346A0000A492858086000984E
:10302800411E0091FBD2324621460198FFF792FCDF
:103038000020FEBD00F00040E07B0100018C000094
:10304800A98A00007408FF1FF8B506460120FEF79C
:10305800B5FD214D214F2878214C002816D0FEF7C8
:10306800B9FD206000F02AFD002802D001F04AFED8
:1030780078611C498B6A1C4803601C48C76A1C4A53
:103088001268974205D2C06A101A03E0F8684069CE
:10309800E7E70020174A10609819C862486A292291
:1030A800D203104348622878002812D012480178C9
:1030B800022908D00178012908D00078032820685F
:1030C80008D0C01E04E020680F3801E020680838E6
:1030D8002060F8BD401FFBE71C09FF1F745DFF1F40
:1030E800E408FF1F00F00040340AFF1F00100040F2
:1030F800180AFF1F1C0AFF1F4A0AFF1F10B51E48A7
:10310800A1218078890048431C49A12309689B00B4
:103118004418912189000A59174900208978594390
:10312800164B1B68C918C98E002A1ED01448C068DF
:10313800FF300130012A0CD0114BDB68FF3381339B
:10314800062A08D86479012C05D00D4C5234125D3A
:1031580004E0006B09E00A4A543212791B6D006BD7
:103168005A430B0A5B1C5A431018064AC9085143B4
:10317800814200D8084610BD300DFF1F3409FF1FDB
:10318800745DFF1F530700000FB410B503AA04486D
:10319800029901F043FA10BC08BC04B018470000BB
:1031A800012DFF1F38B5034B00240FCB009400F00E
:1031B800EFFB38BD145CFF1F034900204861034939
:1031C800086048607047000040F0004040F100404F
:1031D8001CB52748A12180788900484325490968FA
:1031E80044182548406A80B2009091208000015917
:1031F80000290FD02148C068FF30013001290ED0C6
:103208001E4AD268FF32813206290AD81B4B523334
:10321800C95C09E0608CE18E484340100DE0006B0A
:103228000AE0164954310979126D006B5143E28E58
:10323800120A521C51430818400000994018009087
:10324800FFF75CFF0190019900980D4B421AE06965
:10325800C10859438A4201D8009805E00949400845
:103268004843019940180090FEF7BAFC1CBD0000C5
:10327800300DFF1F3409FF1F00100340745DFF1F4E
:10328800530700007102000070B50D4C0546E06858
:10329800808D400505D50B48406AC003C00B01F07E
:1032A80005FD002001F056FC002808D006480168FA
:1032B800E068FF30813041652846FEF797FC70BD15
:1032C800745DFF1F40F000400080FF1F70B58AB09A
:1032D80000241E4D049405942878012806D004A9DA
:1032E8000120FEF741FC002802D000200AB070BD82
:1032F8000498009005980190154881680291C0686B
:103308001349039006AA10316846FEF775FC104E63
:1033180010222036314606A8FEF774FC002811D08A
:10332800012028700B4A31466846FEF765FC049474
:103338000020694605948200401C8C500428FADB62
:103348000120D3E7FF202870CFE70000DD5DFF1FD5
:10335800002900114C8CFF1F10B522480378224920
:103368001022C968022B08D00378012B05D00378F6
:10337800032B02D00378042B00D10A6204780E23B1
:10338800022C09D00478012C08D00478032C07D02B
:103398000478042C06D007E01B2404E0122402E081
:1033A8004B6001E00C244C6004780F49C9688031F7
:1033B800022C0BD00478012C0CD00478032C0ED0EE
:1033C8000078042801D1CB610A6210BD1F20C861B2
:1033D800212002E01420C8611820086210BD1320C3
:1033E800CA61FAE74A0AFF1F745DFF1F10B50F484C
:1033F80080680007000F062808D008DC02280CD0D7
:10340800042803D101210020FEF770FE10BD072813
:1034180007D00C28FAD10221F5E70020FEF78CFE30
:1034280010BD02484030C06B10BD00000040004095
:1034380010B50F4880680007000F062808D008DC80
:1034480002280CD0042803D101210120FEF74EFEEA
:1034580010BD072807D00C28FAD10221F5E7012072
:10346800FEF76AFE10BD02484030C06B10BD000078
:103478000090004038B5FEF79FFA01229207936A40
:1034880008240094002B01D1012090620A480221EF
:10349800016000994D1E0095FBD203210160009444
:1034A800641E0094FCD200210160002B00D19162BF
:1034B800FEF78EFA38BD000000C0004001218907E0
:1034C8000122202804D28B68824093438B60704786
:1034D800402805D24B692038824093434B6170479E
:1034E8006028FCD20B6A4038824093430B627047D5
:1034F800012292070121202804D2936881400B43BE
:1035080093607047402805D25369203881400B43A7
:10351800536170476028FCD2136A403881400B43DE
:1035280013627047012110B589070122202813D2A0
:103538000346153B012B07D80A68202082430A60FE
:103548000A6802430A6010BD0B68824093430B600F
:1035580008681043086010BD402814D20346353B64
:10356800032B07D8CA6810208243CA60CA6802437E
:10357800CA6010BDCB68203882409343CB60C868CE
:103588001043C86010BD6028FCD24B6A4224201A40
:10359800824093434B62486A1043486210BD000062
:1035A80030B58DB0302217496846FEF731FB00244C
:1035B8006D46600041194978285CFEF72FFB641CB2
:1035C800E4B2172CF5D310484169C2009143052293
:1035D800120489184161416901225206114341616F
:1035E800416903225205914301225205891841611C
:1035F800072000F015F800F02FF800F007F80DB0DC
:1036080030BD0000E45BFF1F00F000400348416943
:1036180001229206914341610F20704700F000405B
:10362800074943090A78D208D200002B02D00A7051
:10363800062070474007400F02430A700020704779
:10364800315DFF1F0348C1691F2252049143C161C4
:103658000020704700F000400648C1691F2252044C
:103668009143054A12785207120B1143C161002099
:103678007047000000F00040315DFF1F10B5782151
:103688000848FEF7ABF908480078012803D002285B
:1036980004D0042804D1FEF7C7FA01E0FEF7CAFAFD
:1036A800002010BD0486FF1F305DFF1F70B5054662
:1036B800124812240078012815D0042813D0FEF7E8
:1036C8007BF90F4800210C224A43825C002A11D062
:1036D800AA420CD10C235943012208184270FEF764
:1036E800A3FA002406E0FEF79FFA002070BD491CEB
:1036F8000A29E8DBFEF76CF9204670BD305DFF1F34
:103708000486FF1F70B5124C00230C255D43655DD0
:10371800854201D1072070BD002D04D05B1C0A2B07
:10372800F3DB032070BD0C256B431B19094C25786E
:103738006E07ED086D1C760FED002E432670002BEA
:10374800EFD000245C7018709A602046596070BDF4
:103758000486FF1F315DFF1F0020704770B50546C6
:10376800164800240078012811D004280FD0FEF74D
:1037780023F90021124A0B4608460C267043165CB2
:10378800002E0FD0AE4205D18018437007E0FEF737
:103798004BFA0DE080184078002800D0641C491CC2
:1037A8000A29E9DB002C05D0FEF73EFAFEF710F9EE
:1037B800002070BDFEF73EFAF8E70000305DFF1FFD
:1037C8000486FF1F70B5144900240C2262438A5CEA
:1037D80082421AD1114A1378D808C0005B075B0FE0
:1037E8000838184310700C206043451812D0FEF7B3
:1037F800E3F80920021B0C20424329182846FEF74B
:1038080007FAFEF7E5F8002070BD002A02D0641C14
:103818000A2CDADB122070BD0486FF1F315DFF1F02
:103828000020704710B5064904480860054908603B
:10383800FFF76AFA04490020486010BD841E0000A2
:10384800140AFF1F380AFF1FC0F000401CB51A49B0
:103858001F200870194801240470194900200870B5
:103868001848C16B490949010931C163C16B60221C
:103878001143C163FFF7D6FF00F02CF800210420A4
:10388800FFF72EF801211420FFF72AF8012115204F
:10389800FFF726F801211720FFF722F821030A482D
:1038A800FEF7CEF90420034600900122074901944F
:1038B8000748FEF723FB1CBD480AFF1F490AFF1FE4
:1038C800680AFF1F80F00040086EFF1FE85DFF1FB9
:1038D800846BFF1F10B5FFF701FA10BD70B54025C6
:1038E8001C4C012802D0002811D027E0606905216E
:1038F80040014009C90640186061E069164908405E
:1039080016494018E061E0692843E06116E00021AB
:103918000A20FEF783F900210B20FEF77FF9E06902
:10392800032109020843E061E069A843E061606996
:103938000B214001400909074018606160690121B5
:10394800090708436061A069032149048843A0610D
:1039580070BD000000F000407F00FEFF80FD010008
:1039680010B50549486000F055F8044A00211320B5
:10397800FFF7C8FE002010BD5C5DFF1F1D3AFF1F4A
:103988000248006A002800D0004770474003FF1F24
:10399800FFB581B00A9F144D7E01A85D002802D0B2
:1039A800112005B0F0BD6846407B002801D00520F5
:1039B800F7E7741920212046FEF710F801A80FC870
:1039C80010340FC4384601F07BFD0120A855002FA4
:1039D80006D0064A00211920FFF794FE0020E0E7F0
:1039E8000021034A0820F7E7C485FF1F7B56FF1F05
:1039F8007156FF1F10B5064C43011B199B7E002B07
:103A080002D001F0BFFC10BD01F086FC10BD000023
:103A1800C485FF1FF8B522480178022901D904207E
:103A280000E000781F49204B0A68012100249A42CF
:103A380001D1009100E0009400230121FEF706F96E
:103A48001B491A4888631A484030046110214161B3
:103A580002268661880317490860BFF34F8FBFF3BA
:103A68006F8F15480168FF2212049143B205114374
:103A78000160642000904120FFF73AFD4020FFF7E5
:103A880037FD75076E620098411E0091FBD2032036
:103A98006862FFF7EFFCAC620020FEF7DDF8F8BDC6
:103AA8004A0AFF1F605DFF1F6B000208050001FF47
:103AB80000C8004080E100E010E400E002488069AE
:103AC800C00700D001207047401000407047000038
:103AD80030B50AC8284A4C071068A40F800880002F
:103AE8002043CC08E50704241060002D3CD0A043F7
:103AF8007824A0430C06240FE40020430F24E4019B
:103B0800A0430C05240FE40120430C0BE5071B4CD4
:103B180010602BD0A0431A4C20404C02A40D240363
:103B280020430F24A405A0434C01240FA4052043DF
:103B38009C01C90E6408214303C2990ECC070121D8
:103B48008906083A002C13D08843D90ECC070D49B2
:103B580010600FD088430321090788439900890F13
:103B680009070843106030BD2043C1E72043D2E76E
:103B78000843EAE70843EEE7E05DFF1F000800009E
:103B8800FF0FC0FF00000008F8B5054612480F46B1
:103B9800C07881421FD1E878002818D00024A000FE
:103BA8004619FF368136F16800290DD008680028CB
:103BB8000AD1287900F074FC0020F0600520C001CB
:103BC80028184178491E4170641C082CE7DB3946E7
:103BD8002846FEF747F8F8BD745DFF1FF8B507469D
:103BE8000546FF37052000268137C0012C18B00094
:103BF8004019FF3001300090C16E002905D02879A6
:103C080000F04EFC2078401E20700098F96A761C5F
:103C1800C166082EEBDB0026B0004019FF3081306A
:103C28000090C168002905D0287900F039FC607837
:103C3800401E60700098F96A761CC160082EEBDBA4
:103C48000026B0004719FF378137396B002905D0A6
:103C5800287900F025FCA078401EA0700020761C72
:103C68003863082EEDDB284600F088F82846FDF773
:103C7800FFFF002108468A005219FF320132491C11
:103C8800D0660829F7DB00218A005219FF328132F9
:103C9800491CD0600829F7DBE070F8BD10B50B4867
:103CA800A12180788900484309490968401841786A
:103CB800002907D0FF30FF300230C16C002901D045
:103CC8000021C164FDF7DAFF10BD0000300DFF1FB1
:103CD8003409FF1FFFB504466030C07E072581B058
:103CE8001746012842D12046FDF7CEFF00283DD0D7
:103CF8002148007800283CD0FF2611362046FDF7E1
:103D0800C9FF009020790022314600F07FFB00991E
:103D180089000E19FF360136F066002826D0A62045
:103D2800005D002807D03A462046049B0299FDF71B
:103D3800B7FF3F1DFFB20520C001251828783A4675
:103D4800401C2870029938020843F16E8880F06E92
:103D58000499801DFDF766FEF16E0120086020467B
:103D6800FDF7A4FFE878401EE8700025284605B056
:103D7800F0BD3426C2E700001709FF1F10B501790E
:103D8800134A4900515C002920D012490B688C1550
:103D9800A3430B600146FF3121310B46097D022404
:103DA800214004796400A418647821431975094BEB
:103DB800403BDC6BA408A4000C43DC6303790021BE
:103DC8005B00D154007940008018417010BD00009C
:103DD8000C8AFF1F40100340F3B507469848A121FD
:103DE800807889004843974989B0096800264418B3
:103DF8002046FF3021300690407D322822D02228EC
:103E080020D02546FF358135E86A0168002909D0A8
:103E18008188001D090A891CFDF74EFFE96A002008
:103E2800761C0860FDF74EFF0A9900250880204699
:103E3800FF30C1300790007C002829D0B84227DC29
:103E4800002018E0804901200860FF20AD300021E3
:103E5800005901260160E5E780000019FF30813034
:103E6800006B6D1C8188EDB2090A001D891CFDF7E5
:103E780023FF0098401C00900798017C009881421D
:103E8800EADC0798007C3F1A86190798002101741C
:103E98006E490020C870FF20AD3000590168002924
:103EA80003D00079C04380073AD00698C07D002827
:103EB80036D00698807D002832D10798007CB84219
:103EC8002EDA5F4881781C20414361480818017A3E
:103ED800002925D101210172A9000919FF31C06803
:103EE8008131086300281FD00520C001201881787F
:103EF8006D1C491C8170FF204930005BEDB2010A3E
:103F08002046FF304930891CFDF7D6FE069800216F
:103F1800C1750698012181754C48761CC1707F1EB9
:103F28000798007C002802D030460BB0F0BD204630
:103F3800FDF7CEFE049000283BDD002F39DD002080
:103F480031E02046FDF7CAFE80000019FF3001303D
:103F58000790C06E8188001D090A891CFDF7ACFE18
:103F680000281ED00798C16EA8000019FF308130C4
:103F7800016307990020C8660520C00120188178D0
:103F88006D1C491C81700178EDB2491E01702046F4
:103F9800FDF7AAFEE11DFF31FA31086A401C761CC4
:103FA80008620098401C04990090884201DAB842DF
:103FB800C7DB23491C228878254B5043C218107A46
:103FC800002822D00020691E1DE083001B19FF3342
:103FD80081331B6BD768BB4214D1884212D0A90029
:103FE8000A198000FF3200198132FF308130D16A0E
:103FF8000163134881781C20414315480818C0689C
:10400800D06202E0401CA842DFDB092080012018B2
:10401800817E002911D0017D00290ED0428E002A10
:104028000BD0817F914202D2491C817705E00021A3
:1040380081771A212046FDF75DFEB0B275E70000D2
:10404800300DFF1F3409FF1F00140340E010FF1F4D
:104058002C8AFF1FF0B589B0FDF71AFD05469A486E
:10406800A1218078890048439849096844189848EC
:104078000068012803D19748816D491C8165052D89
:1040880001D0042D02D12046FFF778FEFDF7EEFCA3
:104098009149924A0861924842610122C2600260D5
:1040A800052D17D0042D7DD1E08E8E4AC968504366
:1040B800FF22DF32125B801AF8225258896C801A6C
:1040C800814A52785208D040814200D20846FDF712
:1040D80017FE04E06079012801D0FFF779F8FDF7B1
:1040E800C5FC069080480078002805D0FF201130D4
:1040F80000273E46009033E03420F9E72046FDF7DC
:1041080005FE8119794800788142204603D2FDF7DF
:10411800FDFD801905E0FDF7F9FD81197348007868
:10412800081AC0B20790684802228078009900F007
:104138006DF9079989000919FF318131C860002894
:1041480013D00520C001201842787F1C521C4270F1
:104158000020CA68761C1060C968FFB28880F6B271
:104168002046FDF7D9FDB042C8D85D48FF210904B3
:104178004268002F04D08A4339040A43426025E08C
:104188008A430121090451184160217901204A001C
:1041980057498854FF203530005D2279C007C00F89
:1041A800520000E015E0521850704D484030026847
:1041B80083151A43026002682379520852005B0093
:1041C800591849780A43026002218162069800F072
:1041D80001FA4849486B484AC0B21278002A17D1F8
:1041E800464A0023D356002B454BD35606DB1B0407
:1041F8000026965732029A18121808E0FF331B045B
:104208000026965732029A183E4B1218D2184A6363
:10421800022801D2022002E0502800D950203A4A50
:104228001278022A11D0394A1678394B1F78BE42C3
:104238000FD916781B78F31A801E40104343107864
:104248004001C01A1030401104E0324A1678324B4F
:10425800ECE710784A69120A120210434861052DEA
:1042680001D0042D16D12D480078002806D02C48FE
:104278000078002802D00020FDF754FDFF34FF34F9
:104288000234207B042801D0032803D1FF205F30AB
:10429800FDF740FC022D12D122480078012807D0F2
:1042A800032805D0022803D01F480078022806D129
:1042B80011480078002802D16C20FDF72BFC1B491F
:1042C8000120C88209B0F0BD300DFF1F3409FF1F5F
:1042D8009809FF1FFC0FFF1F745DFF1FFF3F0000C1
:1042E80000100340710200001709FF1F1609FF1F85
:1042F8000C8AFF1F800003408C09FF1F680AFF1FFC
:1043080000000000FFFE0000490AFF1F440AFF1FCB
:10431800450AFF1F460AFF1F470AFF1FF908FF1F2C
:104328002209FF1F1C09FF1F2309FF1FBC0BFF1FCA
:10433800F8B53148A1218078890048432F49096898
:1043480044182646FF3681360020F16A3546403546
:10435800086028742A48C1684A050169520D490154
:104368004B0DC169274F39401143C1619F1A1EE0A7
:10437800F06A016800291ED02349287C0978884200
:1043880015D280000019FF308130006B00280ED054
:10439800001DFDF7CDFC3F1A287C81000919FF316B
:1043A8008131096B8988090A01D0401C2874002FC3
:1043B800DEDC2D7C1CE0001DFDF7BAFC3F1AF16A1B
:1043C80001200860F3E7A8000619FF368136316B33
:1043D80000290BD00848807800F062F8002030638C
:1043E8000520C00120188178491E81706D1CEDB22E
:1043F800082DE8D3F8BD0000300DFF1F3409FF1F5A
:10440800401003400000FF071509FF1FF7B584B0EF
:104418000C46FDF7D1FA1C4D1C4E286802903068F6
:104428001B4F0190386800901A48816B2960C16B56
:104438003160006C38601848002101702046FDF793
:104448007DFC044602982860019830600098386026
:104458001148012202700499104B1C256943C918A0
:10446800002C03D0087E401C087607E00698C000A0
:104478000B5C002B02D10A5408184468FDF7A8FA0F
:10448800204607B0F0BD0000D808FF1FD408FF1F62
:10449800DC08FF1F745DFF1FD008FF1F2C8AFF1F59
:1044A80070B50C460546FDF787FA10481C21002216
:1044B8004D432818D100435C002B09D041184968A6
:1044C800A14205D10021D2008154FDF781FA70BDC7
:1044D800521CD2B2032AEDD3241F21884904490C67
:1044E8002180017E491E0176EFE700002C8AFF1F1C
:1044F80010B504490968002901D0884710BDFDF7A7
:10450800F1FA10BD8002FF1F10B50449896800291F
:1045180001D0884710BDFDF7E5FA10BD8002FF1FE6
:1045280010B504498969002901D0884710BDFDF7F5
:10453800D9FA10BD8002FF1F10B504494969002946
:1045480001D0884710BDFDF7CDFA10BD8002FF1FCE
:1045580010B504494968002901D0884710BDFDF706
:10456800C1FA10BD8002FF1F10B50449096900296E
:1045780001D0884710BDFDF7B5FA10BD8002FF1FB6
:1045880010B50449C968002901D0884710BDFDF756
:10459800A9FA10BD8002FF1F10B50A48A121807832
:1045A80089004843084909684018007907494000CC
:1045B800085C002803D006490020887110BDFDF76B
:1045C800C3FB10BD300DFF1F3409FF1F0C8AFF1FEE
:1045D800E010FF1F10B50446FDF748FAA04203D3C8
:1045E800FDF744FA011B04E0FDF740FA0949091BED
:1045F80041180948026A914200D20162C269914297
:1046080000D9C161426AD3009A1A5118C908416297
:1046180010BD0000FFFF3F00745DFF1FF7B50646A1
:1046280086B0002004900390079810E125290AD04D
:104638000499002901D0039802E004900020039017
:10464800401C039000E10398002805D081B204982B
:10465800B04700200490039000250422082310216D
:104668000798401C079000782B2819D004DC2028D4
:1046780018D0232804D117E02D280FD0302815D0C2
:10468800079A00271078FF430346303B3C46092B26
:104698000FD807A800F006FE044615E00D43DFE733
:1046A8001543DDE71D43DBE7202000E0012005433B
:1046B800D6E72A2808D1521C0898079210C80890F3
:1046C800002C01DA64420D43079938460A782E2AED
:1046D80014D1491C079108780246303A092A03D8B0
:1046E80007A800F0DFFD06E02A2806D1491C07913B
:1046F800089901C90891002800DA0020079A39466C
:104708001778682F03D06C2F01D04C2F02D1521C80
:1047180039460792079B0A221B786E2B2CD00CDC9B
:10472800632B2AD004DC412B26D0582B11D19BE0D7
:10473800642B01D0692B0CD19AE0732B3DD004DC9B
:104748006F2B77D0702B04D164E0752B73D0782B46
:104758006FD0252B09D0252069460872012102A8AF
:10476800B04707980178002975D0079869460078FE
:104778000872012102A8B04766E0E80609D420259E
:10478800641E002C05DD68460572012102A8B047A9
:10479800F6E708986A4601781172001D0890012111
:1047A80002A8B047202504E068460572012102A846
:1047B800B047641E002CF7DC46E0089A02CA08924B
:1047C8000091002901D12DA100910A4600E0491C61
:1047D8000B78002B01D0401EF9D28F1AE8060AD4B4
:1047E80020252046641EB84205DD68460572012171
:1047F80002A8B047F5E7B9B20098B047202504E011
:1048080068460572012102A8B0472046641EB842D6
:10481800F6DC19E0611C02D1082401210D43009047
:104828000898019502C823461022089009E001E083
:1048380001E01BE00822089B02CB08930195009039
:104848002346304600F0B0F80798401C07900178DE
:10485800002901D0EAE60EE00398002802D081B2D0
:104868000498B04709B0F0BD402215431022E2E792
:1048780002231D43DFE7401E0790E5E73C4E554CF9
:104888004C3E00007CB5214C02202070204D0120B8
:104898002870FDF75FFAFDF763FAFEF7D7FFFEF71A
:1048A8007FFE2078FEF790FB2878FFF717F8FEF7D1
:1048B800E5FE18480068FFF753F8FEF773FCFDF7AC
:1048C80055FAFDF759FA144914A0FEF75DFC194989
:1048D8000978194800780191009023782A781748B8
:1048E800017817A0FEF750FC214C0821224621A090
:1048F800FEF74AFC0123A1221B0392002146294806
:10490800FEF742FCFEF724FA00207CBD4A0AFF1F8E
:10491800105DFF1FE05BFF1F0301030053444B20A2
:1049280056657273696F6E204944202530387820A7
:104938000A000000450AFF1F440AFF1F4B0AFF1F19
:104948007266436C6B202564207263436C6B202570
:104958006420737973436C6B202564207470436101
:10496800705B2530327820253032785D0A000000EF
:104978009C0D000073697A656F662873747275639D
:1049880074206C6C5F706B745F6465736329203D81
:104998002025642C206275662073697A65203D2085
:1049A80025640A00305CFF1FFFB50746574897B0DB
:1049B800219D006815901E460A46680602D5534890
:1049C80040681590E80601D56D086D001998801E9D
:1049D800232870D2E80701D0302100E0202110A858
:1049E800017300210172A80710D5002A04DA2D20CE
:1049F80010A90872524208E0680701D52B2002E08E
:104A0800280703D5202010A908725E1EA80608D51D
:104A18001998102802D0082802D002E0B61E00E03B
:104A2800761E0024002A14D010461999FDF7AAF919
:104A3800159A525C01A90A55641C0200F4D1209809
:104A4800844200DD20942098361A112005420BD0AC
:104A58000EE03020694608710124F0E720206946FD
:104A6800087001216846B8473046761E0028F5DCF4
:104A780010A8007A002802D0012112A8B847A80679
:104A880016D51998082802D0102802D010E0302036
:104A980009E030206946087001216846B8471B487C
:104AA8000068203040786946087001216846B84798
:104AB800E80604D507E027E0012113A8B8473046E7
:104AC800761E0028F8DC30252099481E2090A14247
:104AD8000BDD684605700121B847F5E7285D694692
:104AE800087001216846B84700E001AD2046641E01
:104AF8000028F3DC20243046761E002804DD6846B2
:104B080004700121B847F6E71BB0F0BD245DFF1F14
:104B180010B500240420FDF711F9074904220860A4
:104B28000021FDF735F920460124FDF737F9204625
:104B380000F0FEFD10BD0000145DFF1F10B5044815
:104B48000178C90701D07621C160FDF72DF910BDA4
:104B58000020004010B50C4A0021D36812691B7868
:104B68001268002A03D04C00145B002C03D1491CA6
:104B7800C9B29942F5D3994204D2002800D00170F5
:104B8800002010BD012010BD0000FF1FF0B5234E0E
:104B9800234B002822D000211CE0A120800032688D
:104BA8004843801804460022FF34813497003F1898
:104BB800FF370137E56A521CFD66082AF6DB00223A
:104BC80097003F18FF378137E56A521CFD60082AB5
:104BD800F6DB491C18788142DFDBF0BD002108466E
:104BE80017E0A122920034684A4314190022950064
:104BF8002D19FF350135521CE866082AF7DB00221B
:104C080095002D19FF358135521CE860082AF7DB1D
:104C1800491C1A789142E4DBF0BD00003409FF1FFB
:104C28001409FF1F10B500F04DFB10BDF8B51E4864
:104C38004168090601D50020F8BD4168802211436A
:104C48004160194D0A260027803DE8694008400068
:104C5800E8610620FCF7B2FF134CC03CA069802134
:104C68000843A061E86901210843E86102E00820DF
:104C7800FCF7A4FFA86A800504D43046761EF6B275
:104C88000028F4D1002E07D0286A7E21C70BA0691E
:104C98000F4088433843A061A16980208143A16106
:104CA8003806400EF8BD0000C0F00040124B10B5A9
:104CB80012497E2298420AD98B695B069B0E06D060
:104CC80088698B694006800E9343401E0CE00C4BAC
:104CD80098420FD2886910407E280BD288698B6968
:104CE8004006800E9343401C400003438B61032021
:104CF800FCF764FF10BD00000B20000000F000402E
:104D0800FD1C0000014840698008704740100040C1
:104D180010B500F013FAFFF789FF10BD30B5394818
:104D280001680122920411430160416803221206BE
:104D38009143354A13781B061943416043680321A0
:104D480089058B4331490C78A405234343604368A4
:104D58006024234343601378022B08D01378012B77
:104D680005D00B78022B02D00B78012B04D14368B5
:104D7800FF240134234343601278032A02D00A78BF
:104D8800032A03D1426880231A43426042680323FE
:104D98009B041A4342600B780122D2051C48002B61
:104DA80003D11C4B1B78032B1BD0C3689343C360F0
:104DB800174A194B4032D360FF2361331361174CF4
:104DC8005461174B9361FF25114B813580335D602A
:104DD8009C60144CDC60144B03600978002903D0F4
:104DE80006E0C3681343E2E7016801231943016041
:104DF8000E4909780E4BC906C90BC91881630D48BD
:104E0800D06130BD40F000404C0AFF1F4B0AFF1F25
:104E1800800003404A0AFF1FC00B00207A3E6A0741
:104E28000000890400808904CC240000480AFF1F80
:104E3800250800002FFCA601F8B505004C4A4D488E
:104E48004D4B4E4C4E4936D0022D34D08615B70204
:104E5800066286699E43F31983612078002835D05D
:104E68001120400308614748086347480078012239
:104E7800120380184861424E414C444B803E403CEE
:104E8800002D28D06521424AC9024248012D2FD061
:104E9800022D32D0032D5BD0042D59D03E4969181C
:104EA80031603E49A1602360E06002210846FCF7BA
:104EB80081FF3B482CE08026066286699E430123D9
:104EC800DB04F31883612078002801D00A61CAE75F
:104ED80087200003C6E7334830600020A0602360C5
:104EE8003148E06003210846FCF764FF2F480FE0D3
:104EF8002F4B3360A2602160D6E72D4B5B1C3360DB
:104F0800A2602160E06002210846FCF753FF2948AF
:104F18002061F068FF210843F06027486061274856
:104F2800A0612748E0612748206227486062274837
:104F3800A0622748E0622748206327486063E02092
:104F4800012D0DD02168022D0ED081432160F8BDBE
:104F5800224BEB183360224B73602160A260A3E7F9
:104F6800216881432031F1E781434031EEE70000B9
:104F780000450400C000034000001C004B0AFF1F4E
:104F88008000034002000001440AFF1F00280B00B4
:104F980055555537D6BE898E008006425555550061
:104FA800805508220080067807EE7536806608224C
:104FB8000180063D80450822A49C5C544C44434231
:104FC80041524C46403A342E28007F554F49433DC4
:104FD80037312B4C46403A342E28221C0080069844
:104FE800545A9850F0B5224B214D21498026204A29
:104FF8000727BF04403BC03DE024803902281662E1
:10500800966914D0BE430127BF04F6199661194A60
:105018001278002A1ED07A101A6101281ED0164A6A
:1050280080182860154808610868A04314E001202A
:10503800BE43C004361896610E4A1278002A00D082
:10504800401018610E4828600E4808610868A0439F
:10505800403001E01F61E0E70860F0BD0848401EED
:105068002860094808610868A0432030F4E7000078
:10507800C00003404B0AFF1F008006988055082295
:105088000280063D804508228066082210B50A493C
:1050980000200870094902200870FFF73FFE084801
:1050A800007800F011F8074C2078FFF7C5FE20784B
:1050B800FCF786FE10BD00004B0AFF1F4C0AFF1FBD
:1050C800480AFF1F490AFF1FF0B51A4A032307259C
:1050D800D60019499B026024ED0157693F281AD070
:1050E800B74305263604BE195661CA689A43CB14DD
:1050F800D218CA60CA69A2432032CA61CA69AA43DF
:10510800CA610D4940398A6BC0061205120DC00BE1
:1051180002438A63F0BDB7430126B604BE1956613F
:10512800CA689A43CA60CA69A243CA61CA69AA43DB
:105138008032E5E700F00040C000034000B50021E0
:10514800022000F021F80C49801C08700021422040
:1051580000F01AF80949801C08700121022000F0AB
:1051680013F80749801C08700121422000F00CF850
:105178000449801C087000BD440AFF1F450AFF1F30
:10518800460AFF1F470AFF1FF8B53B4C394A226001
:10519800394D394A07239B04803540320129A969D2
:1051A8000ED0994301239B04C918A9613349D160E2
:1051B80033490B780121C905324E002B07D009E08D
:1051C80099430123DB04C918A9612F49EFE7337814
:1051D800032B14D0D3688B43D36050630E20106226
:1051E80000275762FF201530506228480090307819
:1051F8000300FCF7EBFD0507070D090B0D00D3684D
:105208000B43E9E7224802E0224800E022480090E8
:105218000098431E0093FBD2686B57620002000E91
:1052280017621E4BD360FF23413353626523DB02B1
:1052380023601B4D2F78E023012F0AD02D78022DF3
:1052480025680AD09D4325600D4B1B78002B07D09D
:1052580009E025689D432035F5E79D434035F2E791
:105268003378032B03D0D3688B43D360F8BDD3685E
:105278000B43FAE710000300400003407F4073002F
:105288004B0AFF1F4A0AFF1F7F40530010270000E8
:10529800204E000030750000409C00004040100087
:1052A800490AFF1F0146002006E0531C0B600A2331
:1052B80012785843303810180A681378303B092B95
:1052C800F3D9704710B5104C04212078FCF784FD01
:1052D800FCF788FDFCF78CFDFF2381335A000B494E
:1052E8006068FCF7C3FFFCF7D3FF0949002008708A
:1052F800084A80212078FCF781FDC8220221207805
:10530800FCF77CFD10BD00001C5DFF1F9481FF1F92
:10531800185DFF1F8813000078B5174B012800D1CE
:10532800164B00241648009404E0009D6E1C00965D
:1053380085421ADCDD6FED07F7D10AE0009D6E1C8F
:105348000096854211DC1D7DAD06F7D50D781D70E0
:10535800491C1546521E92B2002D0094F3D106E066
:1053680000994A1C0092814201DD0D2078BD197D0B
:105378004906F5D5002078BD004000400090004067
:10538800A0860100F7B507462A49400144182A4E6D
:10539800241D1546002A10D0019800280DD0217828
:1053A800002908D0E088A84205D3012916D0A18891
:1053B8004919814203D90320FEBD0620FEBDFCF732
:1053C800FBFAA188A0682A4640180199FCF72AFB35
:1053D800A0884019A080FCF7FBFA27E0A068019993
:1053E800FCF720FBA5800020608002202070A168C7
:1053F800102D00D91025012F00D1104E72680220FF
:105408008243726004E06088421C6280085C3070ED
:1054180028466D1EADB20028F5D1002F08D01920FE
:10542800FEF744F970680221084370600020FEBD51
:105438000820F5E7C485FF1F0040004000900040A9
:1054480070B5054608260B201849012D02D11926EA
:10545800174911200122824016480260BFF34F8F7E
:10546800BFF36F8F8020087300240C710C700C73CD
:105478000C724C603046FEF755F83046FEF71EF8C1
:10548800002D0ED00C4844600C4869010C18207C93
:105498000021FCF7B9FC607C0021FCF7B5FC00207A
:1054A80070BD05484038C462EEE700000040004087
:1054B8000090004080E100E0C003FF1FC485FF1F8B
:1054C800F0B587B00746FCF7A5FC049008200390C8
:1054D8000420009005200290594C0B263846FFF70F
:1054E800AFFF012F07D11920039008201126009043
:1054F800544C09200290544879010D18287CFF2843
:1055080002D1687CFF282FD010350398FDF7F0FFF3
:105518000398FEF707F801211220FCF77FFB012111
:105528001220FCF77BFB12200099FCF779FC122073
:105538000299FCF775FC0020207304986968001133
:105548004A088018FCF71EFC002121618021217384
:10555800010A21712070E87A002852D038493B4866
:105568008C4204D1007803E0062007B0F0BD4078F3
:10557800002801D01B2000E00B202073287A002887
:1055880000D08720207201206060287A002803D08C
:105598006068802108436060A87A002803D06068AA
:1055A80002210843606028780121FCF737FB6878FE
:1055B8000121FCF733FB28780099FCF731FC687867
:1055C8000299FCF72DFC00211220FCF71DFC032199
:1055D8001220FCF723FB002F15D01E491C484860F9
:1055E800FF20002E14DBB2081B49920051180A68EC
:1055F800B307DB0E984082438020984002430A603C
:1056080016E00320B9E7134914484039C862E7E7B0
:105618003107090F08398A08114992005118CA69D7
:10562800B307DB0E98408243802098400243CA614A
:10563800002E03DB01200B49B0400860002094E7EE
:105648000040004000900040C485FF1F2C5DFF1FF4
:105658003934FF1FC003FF1F00E400E0F533FF1FCC
:1056680000ED00E000E100E010B50020FFF728FFA2
:1056780010BD10B50120FFF723FF10BD1CB5002198
:105688006846017008214170092181700221C170AA
:10569800282101710321417181710121C17100210A
:1056A8000D20FCF7C3FB00210D20FCF7B7FA064AD2
:1056B80001990098FCF7C0FB0090002803D0014630
:1056C80002A0FDF761FD1CBDF157FF1F5B566F6916
:1056D80063655D3A636F6E66696775726174696F59
:1056E8006E206E6F3A25640A0000000010B5FCF7C2
:1056F800CFFD0B4800240470FCF7A4FBFCF7A8FBC3
:10570800FFF7BCFF07480462FF23084881335A00AB
:1057180005494068FCF7AAFDFCF7A0FB10BD000096
:10572800185DFF1F00F000409481FF1F1C5DFF1FE4
:1057380010B50B4C20701820FCF700FB01216060AD
:105748000846FCF76BFA03210020FCF767FA0022F1
:1057580004491046FCF788FBFFF7C8FF10BD00009E
:105768001C5DFF1F2D4CFF1F10B50C4608040AD501
:1057780012480078FCF77EFB002801D0FCF780FB7C
:105788000120C00310E0E00703D0FFF7AFFF0120BE
:105798000AE0200703D500F013F8082004E0E0062B
:1057A80004D5FFF78FFD1020604010BD600702D5BB
:1057B8000420484010BD002010BD00001C5DFF1FE4
:1057C80070B50024054DFF268136295D04A0FDF73C
:1057D800DBFC641CA4B2B442F7D370BD1480FF1F75
:1057E8002530325820000000F8B50546006800242E
:1057F80001281CD10E4E0CE06868A100405869468B
:10580800001408700012487002227068FCF7FAFC55
:10581800641CA868A042EFD8FF218131054800F038
:105828000BF8002803D008213078FCF72FFBF8BDCF
:105838001C5DFF1F1480FF1F70B506460C000ED0BC
:10584800084D6868FCF738FD002807D02246314625
:105858006868FDF701F8A04201D1012070BD002061
:1058680070BD00001C5DFF1FF8B56E4CFF21E0689D
:10587800D5316D4A095811608030806880F30888F6
:10588800FCF768FA69486A4900680226884206D027
:105898000020FCF799F970070169B1430161002004
:1058A800FCF792F900F0EAF862480078FCF788FA09
:1058B800614D0027EF61EE61604868610120FCF7E7
:1058C8007DF90320E861FCF761F90646FCF7CEF89C
:1058D8000546FCF75BF95A490860FFF7D7FB5948BA
:1058E8000068864201D9301A01E0301A401E564934
:1058F800884200D90840E1688A8DD20709D0534A06
:10590800030C126880B2534350431B02000A181854
:105918000BE0C2018300D21A4300D21AC300181840
:10592800921C80309208400A10182065FF314848C0
:10593800013149680068091846480068091A3F4853
:10594800401C09188A0844488B07444902600E68BD
:105958009B0F9B190B60042B04D9521C02609A07F9
:10596800920F0A60216D006808183D49FCF70AFA91
:1059780002463C483C4E0368D318036032688A18D4
:10598800374932608A4205D95B1C03601046FCF730
:10599800F9F93160FCF780FA34480078002810D013
:1059A800FCF764F8324A216D401B12680B189342C9
:1059B80002D2511A091A01E07D21C9001E48FCF7DC
:1059C80071FA2C4E307A002810D0FCF74FF8216D70
:1059D800401BF2680B189A4202D9511A091A00E0C2
:1059E800254915483C30FCF75DFA3772A078002845
:1059F80010D0FCF73BF8411B226D0F48636955181E
:105A080050309D4202D29A1A511A00E01A49FCF706
:105A180049FAA770FCF74CFA0220FCF72DF8FCF7BE
:105A2800C7F8F8BD745DFF1F0080FF1F0C0AFF1F39
:105A3800B6412103490AFF1F00100040C3090000B6
:105A4800100AFF1F340AFF1FFFFF3F00380AFF1F1D
:105A58001C0AFF1F200AFF1F240AFF1F280AFF1F16
:105A6800710200006008FF1F2C0AFF1F1C09FF1F9E
:105A7800E408FF1F740BFF1FDC050000F8B50120C8
:105A880081078862FDF798FBFCF75CFF0120009016
:105A9800FDF776FF434E3078434C022810D0FCF7D0
:105AA80075F805460F20FCF789F8FDF75BF9052026
:105AB800FCF784F83078012808D0FDF7FDF91AE0E2
:105AC8003A48C068006AFCF779F824E0364840385C
:105AD800C06B4007400F012802D10020FDF774FA7F
:105AE8006068FF270137B84360600220FCF766F85A
:105AF800606838436060FCF749F8A84201D3401B4E
:105B080001E0401B401E29491E2248635043284A91
:105B1800C9688018C8612849264808602648274966
:105B28008030C163FF21413141623078FDF74CFA82
:105B380023492448FCF7B6F9224800211438C161EA
:105B48000221C161204941610321C1611D481F49EA
:105B58001430FCF7A7F90420FCF774FE1420FCF7B6
:105B680071FE1520FCF76EFEFF20FCF7DBF8012024
:105B7800FCF7A4F9FF20F530FCF732F85820FBF7C2
:105B8800C9FF1348FCF7BCF80098FCF79DF90720FB
:105B9800FCF7A0F9E0690F490840FF300930E061DF
:105BA800F8BD00004A0AFF1F40F00040745DFF1F67
:105BB800720600000180063D000003403408000022
:105BC8007102000014100040C3090000FFFF3F00ED
:105BD8003075000000FEFEFF3B00010802000300D4
:105BE800050206020703080309030A000C030D0354
:105BF8000003010304030B000E030F03100311033A
:105C08001203130314031503160300000506FFFF10
:105C180000C20100010000000000000003000000B5
:105C2800000000000000000073697A656F6628674D
:105C38005F70436F6E6E656374696F6E42756666FA
:105C4800657229203D2025642C2073697A656F666A
