:020000041100E9
:109000002CECFF1F09900011024981F3088808F039
:0890100011FF00002CECFF1F12
:089018003C67020001000000AA
:1090200008000000F1590000FD240000C1190211E0
:1090300025070211C917021191350111CD1A01112D
:1090400041460100431E0200581E834117485B42FF
:10905000F0B503401648174D1B1850012A18127E10
:109060008BB00191002A1BD01A000832D46F002265
:10907000E6B206AFE4B294420EDC2818C369002BB6
:1090800008D0019902AA117106AA049202AA1673C5
:1090900003A898470BB0F0BD1978B9540132EAE73C
:1090A0001A7D1A7806AB01261A70E6E700B0FFFFBA
:1090B00000900040C8ABFF1F7FB5244B4101CA5C44
:1090C0000400002A2AD05A18107E002826D0907E4C
:1090D000002823D01079022820D11689D588701B4A
:1090E00080B2021C102800D9102292B2AE4216D1D2
:1090F00001225B181A710022DA801A81DB6993421F
:1091000006D06846032102730171029201A89847B4
:109110000820002C00D0192004F053F87FBD013C3A
:10912000601E84410A48644204400A485B182418BF
:109130000948DD680633013A92B28242EED01988BE
:109140004E1C1E80695C2170F5E7C046C8ABFF1F4E
:1091500000B0FFFF00900040FFFF000010B505F0D9
:1091600063FB074A0121130010CB4942D967054B25
:109170000020136002F020F905F026FC200010BD4D
:1091800000E100E01000100010B5040005F04CFBF9
:10919000034B01201C6002F00FF905F015FC10BD17
:1091A00000E100E010B5040005F03EFB4021094A53
:1091B000200013688B43136005F006F904F064F88F
:1091C0000022054B01201A60044B04321A6005F09E
:1091D0003BFAFEE71CF00040C4F00040C0F0004045
:1091E00010B505F031FC072805D0122809D0022857
:1091F00006D1142004E00420034A936B01339363E7
:1092000010BD0220FCE7C04640CBFF1FF8B50700A9
:109210000C0026002500503630785135002803D147
:109220005834287020701DE02978CA00481E8141FA
:10923000A3183800A25C5B68C9B2FFF7D1FF002811
:109240000DD12B78DA00A218013350602B703378DF
:10925000054A013B3370936A01339362D9E70123D6
:1092600058342370F8BDC04640CBFF1F5C2110B5B9
:109270004143074C636859180B0058331B78012B86
:1092800004D1FFF7C3FF236B0133236310BDC04636
:1092900040CBFF1F70B501790E4C49000B5D002BD0
:1092A00017D00D4A0D4D13682B4013609A225200BF
:1092B000835C0435FF352B4065186E7833430326F5
:1092C000835407480268B2431343036000230B55DD
:1092D0006B7070BD90C6FF1F40100340FFFEFFFF84
:1092E0003C100340A12170B5184B89009B7859436D
:1092F000174B1B68591891239B00CB58C88E002B25
:1093000016D0144A126A1400FC34646B012B1AD074
:10931000E8256D005559020A0F4E0132062B0ED872
:10932000497901290BD0023BF35C53436B431B1972
:10933000C2080A485043984200D9180070BD3379DA
:109340006B435343F3E72300F2E7C046300DFF1FA2
:109350003409FF1F90C6FF1F6484FF1F53070000DE
:1093600000220C4BDA741A7D0132D2B21A75022A2D
:1093700009D180211A8A4900520092B28A4207D844
:109380001A8200221A75044A536F013353677047DB
:109390001982F6E7BC0BFF1FFC0FFF1FA12210B5BF
:1093A000094B92009978094B4A431B689B181B791B
:1093B000074A5B009B5C002B03D00022054B9A718F
:1093C00010BD05F061F9FBE7300DFF1F3409FF1FE9
:1093D00090C6FF1FE010FF1F10B5040005F0CCFA87
:1093E0009F229200A3581B0C1B04A350D6232200DB
:1093F0005B00E358FC32136753679367D367BE2261
:109400005200A3500432A3500432A3500432A3509C
:109410000432A3500432A3500432A3500432A350A8
:109420000432A3500432A3500432A3500432A35098
:109430009323A83A9B00FF3AE25010BD10B505F007
:1094400003FAA1229F21074B92009B788900534386
:10945000054A1268D2185358548C1B0C1B04234322
:10946000535010BD300DFF1F3409FF1FA12210B54E
:10947000114B92009B785343104A1268D2189F23D5
:109480009B00D358511DC97F9BB28B4209D9D26929
:10949000441C06D0C82804D05B1A5A43084B5343D7
:1094A000C01805F041FA05F037F8002803D114215F
:1094B000044805F091F810BD300DFF1F3409FF1F5F
:1094C0007102000000100040F8B53E4C2368002BEC
:1094D0002CD005F0F1F82368D840A1243A4BA40021
:1094E0009B783A495C433A4B3A4E1B683A4D1C19FB
:1094F000912362789B00002A22D12278002A02D090
:10950000E2580132E2500B68B26E934215D3D23B5F
:109510009B1A9127BF002B60E359012B1FD1336A9F
:10952000FC335B6B2A689B182B603FE005F0C4F8A6
:109530002A4B196804F086FDCFE729495B18E7E755
:109540000022E2500A68B36E9A4205D3D31A326AF7
:10955000D268101AC318DCE722495218F6E7013B1B
:10956000052B23D86379012B20D0FFF7BBFEE38EB8
:109570001D49DA085143814219D8E05900220228D6
:1095800011D01A4A0338125C1B0A01335343E822F4
:10959000366A52003000B258FC305A430723406B01
:1095A000E351091A8A1A2B689A182A60F8BDE82232
:1095B000316A52008958E2591B0A4A430133534326
:1095C000B0E7C0461C08FF1F300DFF1F9C09FF1F9E
:1095D0003409FF1F90C6FF1FA009FF1F1808FF1FB7
:1095E0002DFF3F00FFFF3F00530700006484FF1F73
:1095F000F7B5050005F018F92D4A2E4C1378002B0D
:1096000046D12D4988892D49484305211170237081
:10961000294B2A4C9B895C43844200D90400284B87
:1096200001279A78A123274E9B005343264A37707F
:1096300012683078D318C0B2019303F0B9FB05F07B
:1096400023F905F039FA214804F076FF204804F0A8
:10965000D3FF280004F058FF280005F09DF9FF20F3
:1096600005F0EAF9200005F067FA04F085FF032011
:1096700005F0B2F805F068FA05F046F9154B019AC5
:10968000186083239B00D35C3370134B1F600BE087
:1096900005F02AF8002801D00123B8E703230F4A78
:1096A0002370D3690133D36105F08EF9F7BDC0464D
:1096B0001C09FF1F2309FF1FBC0BFF1F71020000C5
:1096C000300DFF1F490AFF1F3409FF1F5555550074
:1096D000D6BE898ECC09FF1F9809FF1FFC0FFF1F04
:1096E000012210B5024B1A7005F08EF910BDC0466C
:1096F000490AFF1FF0B587B005F006F9644BA124B5
:109700001A00FC3250619B78A4005C43614B1B68DB
:109710001C1905F089F8604D60492B6A0E785A6D66
:109720009B6D964202D3002A00D016005C4A127844
:1097300003929A4202D3002B00D003938922270080
:109740009200A3583D370133A350564B1B68002BA2
:1097500007D0B9213A78490052009B185A5A013271
:109760005A5223003C331A789A7005F00DF983237E
:109770009B00E05C03F01CFB83239B00E05C05F096
:109780005BF805F099F905F07FF8E06A04F0D4FE83
:10979000A06A04F031FF387804F0B6FE387805F09E
:1097A000FBF8582005F0C8F9FF2005F045F962796B
:1097B00063693D4F002A04D193229200A258002AE7
:1097C00058D02A6A5B00D06F2200323212781B1800
:1097D0007A43E08E9B187843344A904200DD1000B3
:1097E000334A8018984200D9180005F06DF8EF222E
:1097F0002B6AE08E52004743A05A1A00FC32381AF6
:109800009B6C1768C01B984200D9180083270E254F
:10981000BF0005F061F8E05D05F076F9042004F082
:10982000EBFD072004F0D8FF02ABED182900300053
:1098300004F0BAFF9A2101266B46C2B2288849007B
:10984000615C1B7B01900096302004F00DFF194DE8
:109850002B78DBB20393E35D2B7005F075F9164BA3
:109860001E60039B2B7005F0AFF8142005F004F880
:1098700007B0F0BD296A2078CA6C002806D0A0691C
:1098800018180B69181840008018AEE7C868F9E787
:10989000300DFF1F3409FF1F90C6FF1F1509FF1F62
:1098A0001609FF1FBC09FF1F71020000DA2F00001C
:1098B0001EFBFFFF490AFF1F9809FF1F70B50B78B9
:1098C0000400002B10D1C378012B0DD14A790B79FC
:1098D00012029B189BB2002B06D12222FF320721D5
:1098E000835404F041FE70BD23008F331B78002B9E
:1098F0000DD023008A330E4A1B88934207D10D4BAB
:10990000DB78002B03D0822301229B00E2548226C5
:109910002000B600A55D05F0A7F80022064B6D33C8
:109920001A70012DDFD1A25D002ADCD11D70DAE7AB
:1099300001170000E010FF1F90C6FF1FF0B587B0B1
:10994000050004F071FF02AB9E1D3100BC4805AB61
:1099500004AA05F0C9F8040005F0B6F8002805DDF2
:109960000024B84A3480536E013353660F21B64B3E
:109970009A8811405206D20F0092B44A002C00D1AE
:10998000DBE0680500D456E1032900D0F1E1AD48E1
:10999000016A01310162187BD179884200D04AE125
:1099A000D96810890902090C884200D043E1D87BAC
:1099B000917A884200D03EE1187CD17A884200D06A
:1099C00039E1597C127B914200D034E1009AD97A76
:1099D000002A2FD03F220800904340282AD19C4BD8
:1099E0009C4D1C78012C5ED1280004F0ADFD0728A9
:1099F0005BD82E254543984821352D18974F914E19
:109A00003B6ADB6A1B0757D50222904BDB7B9343F3
:109A1000012B51D1012C4AD0336B01333363904B6E
:109A20001B68002B01D104F087FE04F0CDFF01205C
:109A300007B0F0BD9A799446DA79019200221C7A37
:109A40005D7A9E7A874B5F78674525D19F7801982C
:109A5000874221D1DF78A7421ED11F79AF421BD1A7
:109A60005F79B74218D19F798F4215D11F7800983E
:109A7000874211D12E235A43774901248B1808338A
:109A8000DB7F744D002BB9D11032501804F0ACFDBF
:109A9000431E9841C4B2B1E701322E33082AD2D115
:109AA00001246C4DAAE7009CA8E70024A6E7290042
:109AB000009804F099FE0400002CADD0336D013302
:109AC0003365694B1B68002B33D104F06DFF012314
:109AD000664C237004F018FF654B1A68831A8242A3
:109AE00002D3831A634A9B18386A426C016C45683A
:109AF0007620401BC01AC9B2C0B2D2B204F0D4FD65
:109B000005F022F80122564B1A600023237004F05E
:109B1000D3FF04F0B9FE584B58489988090A02311E
:109B200004F0BAFF0E2004F0A7FE736A01337362DB
:109B300075E798470028C8D171E705297BD16905E9
:109B400079D54048816A01318162187BD179884298
:109B500071D1D96810890902090C88426BD1D87B70
:109B6000917A884267D1187CD17A884263D1597C36
:109B7000127B91425FD1009AD97A002A00D187E006
:109B80003F2208009043402800D081E0304B314E06
:109B90001C78012C00D0B5E0300004F0D5FC0300A7
:109BA000072800D9B1E02E2043431D002A48213563
:109BB0002D18C0180130C37F314A023313703100B1
:109BC0000622304804F028FE244B2F4E1B6ADB6A25
:109BD0001B070ED53378012B0BD11C4BDB7B023BD3
:109BE000012B06D8012C04D12900009804F0FCFDBB
:109BF00004003378134E022B18D1244B29785A785D
:109C0000914215D169789A78914211D1A978DA7880
:109C100091420DD1E9781A79914209D129795A797D
:109C2000914205D16A799B799A4201D1002C6ED17B
:109C3000736B01337363054A00230121547B7BE07E
:109C40009414FF1FFC0FFF1F9014FF1FA60BFF1F94
:109C50001809FF1F9614FF1F890EFF1F90C6FF1FD4
:109C60009809FF1FA90EFF1FC409FF1F8C09FF1FC2
:109C70009C09FF1FFFFF3F008413FF1F8813FF1F76
:109C80008D09FF1FDA09FF1F1C09FF1F7809FF1F3D
:109C90009A799446DA79019200221C7A5D7A9E7A4A
:109CA000364B5F78674526D19F780198874222D14D
:109CB000DF78A7421FD11F79AF421CD15F79B7422D
:109CC00019D19F798F4216D11F780098874212D1FF
:109CD0002E235A432A4901248B180833DB7F294D50
:109CE000002B00D070E71032501804F07DFC431EAA
:109CF0009841C4B268E701322E33082AD1D1012439
:109D0000204D61E7009C35005EE70024FBE7336DE2
:109D1000009A013333651C4B29001A701B48062238
:109D200004F07AFD746C04F057FB736C9C4200D015
:109D300075E680E70133DBB2200018410842F9D014
:109D4000117D2533994202D004F0EEFC67E6104BFA
:109D50001978052902D100221A7060E6538805227D
:109D600080215A430B4BD2101878890104F09CFDD6
:109D700055E6052900D05EE7E3E6C046A90EFF1FC1
:109D8000890EFF1F9614FF1F7809FF1F7909FF1F17
:109D90002309FF1F1B09FF1F70B580241025E40550
:109DA000A3682B43A36004F01FFBA368AB43A3602D
:109DB00070BD0000F7B5009280221F001023D2056D
:109DC0000191916804000B43936000225B4BD730F4
:109DD0001A6004F0D1FA9D23260025009B00E35869
:109DE000CA3632000121FC35002B00D00021286842
:109DF00004F0C2FE20003278514BCB301A6041781B
:109E00000378827809021943C378120411431B06B0
:109E10004C4A0B431BBA13604179037982790902DA
:109E20001943C379120411431B06474A0B431BBA5B
:109E30001360D33461782378A27809021943E37858
:109E4000120411431B06414A0B431BBA13603A002C
:109E5000009B3F4E1902019BF61B19433D4B1960B5
:109E60000099032941DC009B00999B089A0013008C
:109E7000891A032948D13649581C5218991C795C13
:109E8000385C090400020143F85C043301431160AB
:109E90000022FF2B4CDDF0222F4B12011A600F2203
:109EA0002E4B1A602E4A1368002BFCD00023234A45
:109EB000274813603B00009AC01B0432C118096890
:109EC000043A0C0A19705C700C0C090E9C70D97065
:109ED0000433002AF2DC802210212B68D2050133E2
:109EE0002B6093688B439360F7BDD47893782406F6
:109EF0001B0423431478B0182343547804392402F4
:109F0000234303600432ACE702290BD11049F85C0B
:109F10005218591C89B2795C09020143043311605B
:109F20009BB2B5E70129B3D109495218F95CF5E7AD
:109F3000074959180A600433ABE7C04600000440E3
:109F40003C00044038000440340004403000044029
:109F5000000104400C0004400400044010000440D0
:109F600014000440F7B5150080221C001023D20510
:109F70000091916807000B4393600023654AD73036
:109F8000136004F0F9F99D233E009B00F9583B0053
:109F9000CA363200FC33002900D080E0586804F053
:109FA000EBFD380032785C4BCB301A604178037897
:109FB000827809021943C378120411431B06574AD9
:109FC0000B431BBA13604179037982790902194363
:109FD000C379120411431B06514A0B431BBA136089
:109FE000417A037A827A09021943C37A120411432F
:109FF0001B06009E4B4A0B431BBA290213600E43FB
:10A00000AC4621002200484B281D1E60474B1B1BFD
:10A010000093009BD678D3180193937836061B04DF
:10A0200033431678043833435678043236023343C8
:10A03000019E33600328ECDC0322A808431C9B002C
:10A040001540800095422CD1384A5D1C9E189A1C00
:10A05000A25C655D12042D022A43E55C2A4332604E
:10A06000030008330022FF2B2DDD314B314A1A60EB
:10A070000F22314B1A600123264A13602F4B1A68B6
:10A08000002AFCD006221B681340042B20D080221B
:10A0900010210020D20593688B439360FEBD0121FF
:10A0A0007CE7022D08D1214A9D185A1CA25CE35C72
:10A0B00012021A432A60D3E7012DD3D11B4A9A1802
:10A0C000E35C1360CCE71948181802600433CAE750
:10A0D0000023104A13606346002B0CDC38008022FA
:10A0E0001021FC304368D20501334360936801209E
:10A0F0008B439360D2E7009BCB181B681A0A0B7046
:10A100004A701A0C1B0ECB7004235B428A709C446D
:10A110000431E0E7000004403C0004403800044003
:10A1200034000440300004400C00044000010440AE
:10A1300004000440080F0000100004401400044014
:10A14000F0B5914B85B0009001919A78A1239B00C6
:10A1500053438E4AD62715681022ED183623FF3355
:10A16000EB5C7F000024E8599343222B61D1012648
:10A17000874A1660046004F097FC019B1880E8236E
:10A180005B00EF5C002F04D0009B9F4200DC78E076
:10A19000002700237F4AD370AD33FF33EB581A6892
:10A1A000002A03D09B88DB439B073AD03823FF3338
:10A1B000EB5C002B35D09B235B00EB5C002B30D19C
:10A1C000D133FF33EB5C009A93422ADA6E4B9A78D4
:10A1D0001C235A43704B9B181A7A002A21D1012460
:10A1E000DA681C723B006A339B00EB189A60B0B2CD
:10A1F000002A1CD0694A3F19AB5CFFB21B19AB5453
:10A20000A4235B00E95AE818090A023104F044FC6F
:10A21000009B3619013B00932B00FE331C875D4BDE
:10A22000DC70E8235B00EC5C002C2CD0B0B205B0F5
:10A23000F0BD0668002E9ED081880430090A0231E4
:10A2400004F02AFCEB5901261C6094E72B00B13383
:10A25000A200FF339858013481880430090A023182
:10A2600004F01AFCE8235B00EB5CE7B2A342EDDCF0
:10A27000009AF618D21A0092E82200235200AB543A
:10A2800087E70024EEE7280004F0E6F902900028B2
:10A2900038D0009B002B35DD0194280004F094F9A0
:10A2A00084002C19FC34206F81880430090A0231A3
:10A2B00004F0F2FB00281BD03B006A33226F9B00A6
:10A2C000EB189A600023354A2367AB5C2800013302
:10A2D000AB54023AAB5C0137013BAB5404F0ECFAEF
:10A2E00088229200AB58FFB2039301330136AB5082
:10A2F000019B01330193019A029B934202DD009B73
:10A300009342CAD11C20204B9B785843224B1818EB
:10A31000037A002B2CD1224BEB5C002B00D185E77C
:10A3200095239B00EB5C002B00D17FE71D4BE95A86
:10A33000002900D17AE71C4AAB5C99421DD9013350
:10A34000AB5473E701339F42E5DD9A00A158C26820
:10A350009142F7D17A1E9A42F4D0D8209200AA18DE
:10A3600040006A3314589B00EB189C601150D2E7F0
:10A370002C00B1340023FF34E5E700231A21280024
:10A38000AB5404F0F1F851E7300DFF1F3409FF1F03
:10A3900000140340E010FF1FA0C7FF1F820200004F
:10A3A0005A020000720200005E020000044B10B569
:10A3B0001A78D20701D57622DA6004F0ADFA10BD22
:10A3C0000020004010B504F02FFA04F04DF804000E
:10A3D00004F0FAFA200010BD10B50A4B9A78A123B8
:10A3E0009B005A43084B1B689B185A78002A06D0DA
:10A3F000932292009958002901D00021995004F02D
:10A4000073F810BD300DFF1F3409FF1F0022084BE9
:10A410001A75DA7C0132D2B2DA74022A05D11A8AAC
:10A42000520803D01A820022DA7470470122F9E739
:10A43000BC0BFF1F10B5074C238A012B01D1E3820F
:10A4400010BD04F0B1F8218A03F06CFF0131E18204
:10A45000F6E7C046BC0BFF1F8022F8B5104B0D007D
:10A46000D2000B40934217D10E4E012734007F4299
:10A47000243464366378012B07D12178608804F096
:10A48000D3FA00236780237063700434B442F1D19F
:10A490008020C0006840F8BD04F02EFBFBE7C046FA
:10A4A000DE0D000090C6FF1F10B510494A7F0B7FDC
:10A4B00012029B189BB2002B17D0A12404F09CF928
:10A4C0000B4BA400587D0B4B60431C6820222418C2
:10A4D00020006D300021FF3003F094FC20008D300F
:10A4E00020220021FF3003F08DFC10BD9014FF1FCF
:10A4F000A60BFF1F3409FF1FA121104A104B127831
:10A50000890051431B686D33FF33C918994200D14C
:10A5100070471A6C1A605A609A60DA601A615A6160
:10A520009A61DA611A625A629A62DA621A635A634B
:10A530009A63DA63A12292009B18E7E71409FF1FD0
:10A540003409FF1F10B504F0DFF9054B00205B68EC
:10A55000052B04D9034A5268D20200D4980810BDD2
:10A5600000100040FCE100E070B5104B01251B78A5
:10A57000002B19D004F058F90D4B1B6AFC33DC6931
:10A580001E6AFFF7DFFFA419A04203D9094B1B681D
:10A59000002B07D004220025074B1A70074A936945
:10A5A0000133936104F010FA280070BD1C09FF1FED
:10A5B00090C6FF1F9809FF1F2309FF1FFC0FFF1FF5
:10A5C00070B5144C236AFC335D6A04F02DF9FFF773
:10A5D000B9FF114B1B78073B012B0AD823006433CA
:10A5E0001B78012B05D10D4B5B689B08984200D965
:10A5F0001800236A0024FC339B6AEB18834204D2C0
:10A60000074B1B68A34200D1441B04F0DDF9200076
:10A6100070BDC04690C6FF1F1C09FF1F50100040B0
:10A620009809FF1F034B10B51B68002B00D09847FB
:10A6300010BDC0465C03FF1F034B10B51B68002B09
:10A6400000D0984710BDC0466003FF1F044B10B5F3
:10A650001B68002B01D0984710BD04F015FAFBE7EA
:10A660008002FF1F044B10B51B68002B01D09847D8
:10A6700010BD04F009FAFBE78402FF1F044B10B57C
:10A680001B68002B01D0984710BD04F0FDF9FBE7D3
:10A690008802FF1F044B10B51B68002B01D09847A0
:10A6A00010BD04F0F1F9FBE78C02FF1F044B10B55D
:10A6B0001B68002B01D0984710BD04F0E5F9FBE7BB
:10A6C0009002FF1F044B10B51B68002B01D0984768
:10A6D00010BD04F0D9F9FBE79402FF1F044B10B53D
:10A6E0001B68002B01D0984710BD04F0CDF9FBE7A3
:10A6F0009802FF1F70B504F007F95E4B1860042044
:10A7000004F0BAF803F058FE0400C30702D404F0C2
:10A7100013F870BD0022584B1A60584B1B78012B60
:10A7200024D104F011F80128F3D0554C2378042BE0
:10A7300000D08FE004F0D8F8002813D003F0F4FF25
:10A74000582004F0F9F92378002B01D0022323705C
:10A750004C4B64331B78002B04D02378002B01D1A1
:10A7600003332370032004F087F8D2E7032B02D1D0
:10A7700003F092FED7E7042B02D104F005F8D2E7EC
:10A78000022B02D104F048F9CDE7052B02D103F0EA
:10A7900003FFC8E703F048FE0500012808D13A4B43
:10A7A0001B78053B012B03D82000FFF74FFFBCE7C8
:10A7B000334B1B78022B01D0052B26D1002D20D046
:10A7C000022D2CD1314A927BAA4320D12000FFF7E1
:10A7D00049FF2D4B18780128A7D16305A5D42B4933
:10A7E00025224B7B034205D1233A13405A42534161
:10A7F00026331A000B7D934297D9322004F004F8D7
:10A8000093E72000FFF75EFF8FE7022D07D11E4A76
:10A810001278052A11D12000FFF730FFD9E7012D6A
:10A8200011D1012B03D12000FFF734FF7DE7062B68
:10A8300009D12000FFF73AFF77E7012B03D1200071
:10A84000FFF74CFFC5E7200004F01EF9022D00D0F1
:10A850006BE7BEE7032B04D10D4B987C03F0DCFDC6
:10A8600080E7072B00D07DE70A4B987B03F01CFEA6
:10A8700078E7C0469C09FF1F9809FF1F9009FF1F3A
:10A880002309FF1F90C6FF1F1C09FF1FA60BFF1FF8
:10A89000BC0BFF1FD40BFF1F10B5040004F034F8ED
:10A8A000A04213D304F030F8001B0B4B9A6882428D
:10A8B00000D99860094A1369834200D210610723C6
:10A8C00051694B431818C008506110BD04F01CF8C2
:10A8D000034B001BC018E8E76484FF1F10C7FF1F6D
:10A8E000FFFF3F00F0B587B004000D00170004A97A
:10A8F00005AA03A81E0003F067FF059900291EDDC5
:10A90000134A136823601B041B0E181D801001934B
:10A91000831C99420FDD0130810061180434A1428B
:10A9200013D81168019B3960126802333260C0B2DB
:10A930002B8007B0F0BD074A536E013353660020E9
:10A940002070386030602880F3E7136808C4E6E7B9
:10A95000001C0340FC0FFF1F0722F0B5524C534E62
:10A96000236889B013409B009B590090DB0B079331
:10A9700080236268DB021A4202D16268134363607B
:10A98000182322684A4F1343236023685B015B0F3F
:10A9900018000193B84705000098B8470543012007
:10A9A000444B28409847009B9B00F258424B1A604A
:10A9B000079B5A1E0792002BFAD180220126D2054E
:10A9C00093687642029353693C4F03933C4B19685A
:10A9D0004900490804913B49CE678C467968490093
:10A9E00049080591C02149005E50374991602121F5
:10A9F0005161802212061A60C20703D58022A16825
:10AA00000A43A260820704D58022A16852000A434B
:10AA1000A2606E03002D0ED00E22154205D0A16853
:10AA20000D3A10437F320A43A260F022A16852021D
:10AA300032400A43A260226801995201520F9142AA
:10AA400006D02168214A0A40019909060A4322607A
:10AA500007212268009D0A40954203D022688A435C
:10AA60002A4322601A491B4A0C68C0012240024353
:10AA70000A600A681848024032430A60029A124982
:10AA800003980A438021C9058A60012202434A6172
:10AA90008022614600201206CA67059A7A60049AED
:10AAA0001A6009B0F0BDC0463CF00040E07B0100F8
:10AAB000018C0000A98A00007408FF1FFCE100E07F
:10AAC00000E100E004E100E001000800FFFFFFF802
:10AAD00044F000407FFEFFFFFF1FFEFF80230122A6
:10AAE000F0B5DB059A6287B003F0F0F8FFF79AFD46
:10AAF000FFF7A2FDCF4BD04C1B78022B4CD1CF4B94
:10AB00001B6A186A04F030F8CD4BCE4ACE4D1A605D
:10AB1000CE4BCF4A1A60A022CE4B52001A60C54BD2
:10AB20001878C0B2FFF718FF2800CB4903F054FD96
:10AB30000023AB600233AB60C84BC9492B600323D1
:10AB4000C848AB6003F048FD1022C74BFF201A60D5
:10AB5000802252031A60802292031A6003F06CFF75
:10AB6000012003F051FDFA20400003F0ADFE582013
:10AB700003F0E2FFBD4803F0AFFE012003F0E4FE66
:10AB8000072003F029FE2268B94B1A4084235B009A
:10AB90001343236007B0F0BD03F01EFFB54F0390D1
:10ABA0000F2003F0E1FF3B681B0627D43C2003F095
:10ABB000DBFF052003F0D8FF9E4BAF4E1B78012B27
:10ABC00000D11DE180223B68AC4D134200D0A7E0CC
:10ABD0002B68032013432B6003F0C6FF03F0FCFE39
:10ABE000039B834200D921E1C01A944B30621A6A58
:10ABF0001E235843A24BC018D06185E703F0ECFE3A
:10AC00008023A04ADB02116804900B431360226882
:10AC1000974B9D4E1A40282313432360032003F0D3
:10AC2000A3FF0320356803F09FFF33680320DB0395
:10AC3000DB0B019303F098FF3368ED03DB03ED0BAF
:10AC4000DB0B924A0293AB18C22B30D8019B9B18A6
:10AC5000C22B2CD8029B9B18C22B28D8019B2A0000
:10AC60009D4200D21A00019B9D4200D91D00029B0B
:10AC7000934200D21300029A954200D915005D1B41
:10AC8000122D14D80C223B68142093433B603B6880
:10AC90007F4A13403B6003F067FF08213368226856
:10ACA000DB038A432260744ADB0B936281E7032053
:10ACB00003F05AFF3368DB03DB0B059303F08CFED4
:10ACC000049B834228D8C01A724B98421FD9FF2395
:10ACD0003D6839682D0A1D406A1C1206130C6C4A27
:10ACE00000200A4013433B600C233A689A43083B18
:10ACF00013433B6003F048FF632D01D900233B6001
:10AD0000062D00D906256448A840FEF74BFA029BA1
:10AD1000019D0193059B94E7049BDB431818D3E73F
:10AD200000235E4F574A3B6180231168DB020B43CF
:10AD3000136080222B68032013432B6003F014FF61
:10AD40003B6901333B6180232A685B0213432B601C
:10AD5000052301932268464B03201A40504B1343AE
:10AD6000236003F001FF0821474B1A682368D203D0
:10AD70008B432360B36A02394B43D20B9A420BD800
:10AD80009B1A3B2B0AD821684648014021602B685A
:10AD900003402B60F26221E7D31AF2E7019B013BEB
:10ADA000DBB20193002BD5D122683E490A402260D4
:10ADB0002B680B402B603B69042B07D9BFF34F8FE7
:10ADC000394B3A4ADA60BFF34F8FFEE780222B6897
:10ADD000032093432B6003F0C7FE2268244B03201B
:10ADE0001A4028231343236003F0BEFE0822264B9B
:10ADF0001B68DB03DB0BB36223689343236098E794
:10AE000007222B4D2B681340012B02D10020FFF7A6
:10AE1000A3FDAB68274A02201340AB6003F0A4FEF9
:10AE20008023AA685B001343AB60D7E6039BDB4338
:10AE30001818DAE64A0AFF1F5CF0004090C6FF1FB0
:10AE4000000003400180063D14100040BC00034098
:10AE500034080000A400034071020000C309000090
:10AE6000FFFF3F002810004000E100E030750000C7
:10AE700000FEFEFFC4F0004010C7FF1F44F000407A
:10AE80007206000040F0004064F0004091FCFFFFBB
:10AE9000FF00FFFFE30C0000E40C00006484FF1FD0
:10AEA00028000100FFFFFEFF00ED00E00400FA05AE
:10AEB0003CF00040FFFEFFFFF7B5EA22794D52005B
:10AEC0002B6A00AF9958784A88331B68116083F366
:10AED000088803F041FE754A754B12689A4207D004
:10AEE000002003F051FE0221724A13688B43136065
:10AEF000002003F049FEFFF7F1FD6F4B6F4C18780F
:10AF0000C0B203F099FC0023A3600233A3606C4B32
:10AF10000120236003F028FE0323A36003F05CFDFF
:10AF2000040003F0F1FC060003F056FD654B1860C9
:10AF300002F0C8F8644B1868A04200D39AE0201AC7
:10AF40008023DB03984201D38002800A2B6ADA6AED
:10AF5000D20700D491E05D4A040C126880B25443D9
:10AF600042432402120AA4180320594AFC331268EF
:10AF70009B6858499B1A584A8C461268574D9B1833
:10AF8000574A2C639A180340564892080A60016891
:10AF90005B180360042B05D9614601320A60032265
:10AFA0001340036063461B684F49E418200003F018
:10AFB00049F84E4B4C491B68C3187B607A684B4B71
:10AFC00020001A6003F0C4F8494C2368C8184649A9
:10AFD0002060884206D97B68444A0133136003F03D
:10AFE000B7F8216003F0C0F9424B1B78002B0ED05C
:10AFF00003F08AFC296B404B8A1B1B6812189A428B
:10B0000048D2591A8919091A3C4803F0E5FA3C4C10
:10B01000237A002B0FD003F077FC296BE3688A1B9F
:10B020001218934239D9591A8919091A354803F067
:10B03000D3FA002323722B0034331B78002B10D05B
:10B0400003F062FC296BAB6B8A1B12189A4226D262
:10B05000591A8919091A2C4803F0BEFA002334350D
:10B060002B7003F049FB022003F006FC03F05CFDAB
:10B07000BD46F7BDC043001962E7C4018200023437
:10B08000A41A4200A41AC20080301018A408400A72
:10B09000241869E7FA218900B6E71C49C6E71B496D
:10B0A000D9E7C04690C6FF1F0080FF1F0C0AFF1F94
:10B0B000B641210310000040490AFF1F1410004050
:10B0C000C3090000100AFF1F340AFF1F380AFF1FC0
:10B0D000200AFF1F240AFF1F1C0AFF1F10C7FF1FA3
:10B0E000C4090000280AFF1F710200006008FF1F4A
:10B0F0002C0AFF1F1C09FF1FE408FF1F001000405F
:10B10000740BFF1F3C10004050100040DC05000095
:10B11000124B10B5984211D97E20114A1368034290
:10B120000BD0136811685B069B0E013B81435B00EB
:10B130000B4313607B3803F017FD10BD094B984299
:10B14000FBD87E20064A136803408342F5D013687B
:10B1500011685B069B0E0133E8E7C0460B20000038
:10B1600018F00040FC1C000030B50E4A03001268C5
:10B1700014780D4A126810680022D1B2002803D05A
:10B180005500455B002D05D10132D1B2A142F4D367
:10B19000012030BD01208C42FBD9181EF9D00020BF
:10B1A0001970F6E70C00FF1F1000FF1F70B50D4D62
:10B1B00004002B6ADB6A5B0505D50B4B1868C003DE
:10B1C000C00BFFF7A5FF0020FFF7CEFF002808D037
:10B1D000064B2A6A1968EA235B002000D15003F06D
:10B1E00053F970BD90C6FF1F64F000400080FF1F40
:10B1F000A12292004243064B1B689B18054A9B18EC
:10B200001878054B1B789842804140427047C046F1
:10B210003409FF1F830200001509FF1F024B9868C5
:10B22000012318407047C04650100040F8B5060092
:10B23000012003F099FC224D224C2B78002B2ED1BB
:10B24000214B1B6A5B692360FFF7E8FF002804D0ED
:10B250001E4B1F4A5B689B0893631E4B1E4A1B686C
:10B260001E4813601E4A4768116800228F4201D2AF
:10B2700042688A1A1B499B190A601B4AD362A4239D
:10B28000516A5B030B4353622B78002B06D0174A9D
:10B2900023681178022906D10F3B2360F8BD03F023
:10B2A0004BFB2060D0E71178012901D1083BF4E77E
:10B2B0001278032A01D1053BEFE7033BEDE7C046D7
:10B2C0001C09FF1FE408FF1F90C6FF1F501000401D
:10B2D00010C7FF1F28F00040340AFF1F281000404D
:10B2E000180AFF1F1C0AFF1F00F000404A0AFF1F38
:10B2F0002F4B1A78022A04D110212E4A126A1162A9
:10B3000008E01A78012AF7D01A78032AF4D01A78BC
:10B31000042AF1D01A78022A10D11B21254A126A78
:10B3200051601A78022A1ED1224B1F211B6A1A0073
:10B330009C3211602122A0331A6070471A78012ACA
:10B3400003D11C4A1221126AEAE71A78032A03D1B0
:10B35000184A0E21126AE3E71A78042AE1D1154A45
:10B360000C21126ADCE71A78012A08D1114B14214A
:10B370001B6A1A009C321160A0331822DCE71A788D
:10B38000032A08D10B4B10211B6A1A009C32116052
:10B39000A0331322D0E71B78042BCED1054B0E210E
:10B3A0001B6A1A009C321160A0331022C4E7C04609
:10B3B0004A0AFF1F90C6FF1F70B5144B002811D01A
:10B3C00000221348134D14334030D15C002905D0BE
:10B3D00094002458002C01D089004C510132102ACD
:10B3E000F3D170BD14331A00040009494031835C65
:10B3F000002B06D0074D9B005B191E6885006E5020
:10B400001C6001301028F2D1EBE7C0466484FF1FB6
:10B4100010C7FF1F0000FF1F10B503F07DF9124B8E
:10B42000124A1A60124B134A1A60134B134A1A60DD
:10B43000134B144A1A60144B144A1A60144B154AE1
:10B440001A60154B154A1A60154B164A1A60164BAE
:10B45000164A1A60164B174A1A60174B174A1A6099
:10B46000174B184A1A6010BDF001FF1FC92DFF1FAE
:10B47000F801FF1F497603115402FF1FCD1CFF1F67
:10B480008402FF1F9D21FF1FD401FF1F517A03116A
:10B49000D001FF1FA97A03118002FF1FE13DFF1FAA
:10B4A0008802FF1F7947FF1FEC01FF1F511EFF1F7E
:10B4B000E401FF1F411FFF1FF401FF1F212EFF1F8B
:10B4C0008C02FF1F0949FF1F10B502F06DFC10BD73
:10B4D000F8B5002403F0A8F9134A2600250010004F
:10B4E000124F134B98420CD9124803F00DF903F098
:10B4F0006BFA3200290023000F4803F005F92800F9
:10B50000F8BD1368002BF2D0138851785B045B0CF4
:10B510007F2902D9ED18D218E3E7F6189C42FAD237
:10B52000BA42F8D91C00F6E73089FF1FA48BFF1F31
:10B53000FFEFFFFF74570311AA570311F0B585B051
:10B540000AAC20CC0D4F03950025029365573C00B3
:10B550003F6A6534BC46EC2763467F002678DF5996
:10B56000BE4208D2039B01950093029B02F01CFF90
:10B5700023780133237005B0F0BDC04690C6FF1F8D
:10B58000F0B58FB0040003F04FF902F04DFF050055
:10B590000390012800D0BBE0B74E3378053B012B68
:10B5A00000D9B5E0062003F067F93378052B00D009
:10B5B000C1E1C023DB001C409C4212D10E2108A82F
:10B5C00009180DABAD480CAAFFF78CF9AC4C05007F
:10B5D000A68803F079FA002829DDAA4A536E0133C0
:10B5E0005366A94B1A68A94B1B689A4200D89AE186
:10B5F000D31AA74A11685B181360A64AA64915001A
:10B600008C89887C6543AB4201D200F014FC013088
:10B61000C0B2272800D9252088744889844200D0E8
:10B6200084E103F051F80022994B1A6070E0002D7C
:10B63000D7D00F231E400696022E01D9062ED0D158
:10B64000A3885B06DA0F0592E27A002B00DB6AE042
:10B650003F2311009943402965D1904B904C1E78AF
:10B66000012E00D099E0200002F06EFF00230500BB
:10B670000494039307280CD82E2242431100894BCF
:10B680002131C9189B180133DB7F039602330491E3
:10B69000DEB2854F804C3B6ADB6A1B070AD5A37B71
:10B6A000012B07D1039B012B9BD10499059803F033
:10B6B0009BF80390039B012B93D1A27C7B4B1A60D8
:10B6C000637A0393012B00D16AE000230393069B66
:10B6D0000020013BDBB2052B01D8754AD05C0E235C
:10B6E00008AA9B180D9A1B88120E524252B2019260
:10B6F000704A083BDBB200923100049AFFF71EFF4C
:10B70000604A936B01339363039B002B00D168E77E
:10B71000694B1B68002B01D103F00EF803F054F9BC
:10B7200001200FB0F0BD0025A379E7799C46267A69
:10B73000617AA07A614B1C78644526D15C78BC4262
:10B7400023D19C78B44220D1DC788C421DD11C7965
:10B7500084421AD15C79944217D12E236B4351490C
:10B760004F4CCA180832D27F012A03D1059EEDB290
:10B7700004948EE71033581802F036FF0028F5D1F4
:10B78000059E03900825049483E701352E33082D88
:10B79000D1D1434B059E04937BE7059E0396F1E7C9
:10B7A000069B002B02D0062B00D08EE73A4AD38AA4
:10B7B000002B55D1424B434A9A80434B1B68002BC8
:10B7C00055D10122414B0A201A7002F0C5FD9E207E
:10B7D00003F0B2F9FF2003F02FF903F095F82A4B9C
:10B7E0001B68C41A834202D3C41A394BE4183B6A5B
:10B7F0009C33186876231B1A1C1B03F02DF83B6A38
:10B80000E0B25A6C196CD2B2C9B202F04DFF03F02B
:10B810009BF91C4AD36B0133D3630122264B1A6078
:10B8200003F04AF903F030F8032002F0D5FF1A4F75
:10B83000234C072D50D82E2045431A482D18280098
:10B8400002F0D2FE002847D13B78023B012B43D8BF
:10B850002800204902F0F0FE4023A288134347E06D
:10B86000013B9BB2D382002B00D02EE7A2E7984782
:10B870000028A6D129E7C0461C09FF1F9414FF1F0A
:10B880009014FF1FFC0FFF1F9C09FF1FCC09FF1F17
:10B89000B809FF1F71020000BC0BFF1F1809FF1F32
:10B8A0009614FF1F890EFF1F90C6FF1FD009FF1FB0
:10B8B000AE5A03119C14FF1F9809FF1FAA0EFF1F09
:10B8C00060C9FF1F030C0000C009FF1F8C09FF1F88
:10B8D000FFFF3F0066C9FF1F02223B78AE4893433B
:10B8E0001CD10432AD4902F097FF4022A388934354
:10B8F000A380059BAA48D901A3881943A94BA1801D
:10B90000DA88090AA2811A895B89E28123820231DD
:10B9100003F0C2F80022A44B1A70D8E60622A3490D
:10B9200002F07AFF98E7A249521861E6001B5043E3
:10B9300002F06AFF77E6062B00D0E9E69D4B1B6814
:10B9400008939D4B1B7C0993C023DB001C409C4249
:10B9500012D10E2108A809180DAB98480CAAFEF7C1
:10B96000C1FF904C0700A68803F0AEF800281CDD4C
:10B97000934A536E013353668F4A137A002B00D0DB
:10B9800036E2A1208F4A80001370099B5843089B20
:10B99000181802F0E9FF8C4A10215378013B5370CC
:10B9A0008A4B187802F090FDB2E6002FE4D00E2307
:10B9B00031001940F2B204911E42DDD10F273A4006
:10B9C0000792A388991129400693CBB20593059A53
:10B9D0007F4B1A70002A00D116E1E07A3F23020063
:10B9E0009A43402A00D00FE17A4B1B78012B00D0FC
:10B9F00024E2794B1978012900D0B4E0774B694AE9
:10BA00001D789479A54200D0ADE05D78D479A54247
:10BA100000D0A8E09D78147AA54200D0A3E0DD789C
:10BA2000547AA54200D09EE01C79927A944200D0CC
:10BA300099E05B79834200D095E02E22684B049117
:10BA40001F78684B7A4314002134E4189B180133A3
:10BA5000DB7F5F4A02331370574BDB7B002B00D038
:10BA600037E1049B012B87D15F4B21785A789142B3
:10BA700082D161789A78914200D07DE7A178DA7816
:10BA8000914200D078E7E1781A79914200D073E7CB
:10BA900021795A79914200D06EE762799B799A4276
:10BAA00000D069E70121404B50481970424B006AB1
:10BAB0001A7CA1239B0053433E4A4D4C1268C56A31
:10BAC000D3184C48A2882D0600D424E1069D6D11A0
:10BAD0000D4200D11FE1195420231343A380464D8A
:10BAE000072F00D91FE12E267E433E4BF61830006B
:10BAF00002F07AFD002800D015E12F4B1B78023BA5
:10BB0000012B00D90FE12900300002F095FD402300
:10BB1000A28813430322A380384B1A7002F0F4FE6C
:10BB2000374B1B68834200D319E1C01A2F4B196AA7
:10BB30000B00A0331B684A6C9C469E1876239E1B04
:10BB40003300304E834200D30DE10122224B3100FD
:10BB50001A70234B053221481F7002F05DFE00224F
:10BB6000114B1A7008E7274C200002F0EDFC07008B
:10BB7000072800D970E72E2242431400194B2134C4
:10BB8000E4189B180133DB7F114A02331370079BC3
:10BB9000012B63D0059B8FE066C9FF1F6509FF1F5E
:10BBA00064C9FF1F9014FF1F8C09FF1F6B09FF1F43
:10BBB000FFFF3F003409FF1FD40BFF1F9414FF1F2A
:10BBC000FC0FFF1F1C09FF1F300DFF1F1B09FF1F6C
:10BBD0008D09FF1F1809FF1F8B09FF1FE009FF1FB9
:10BBE0008F09FF1F890EFF1F7809FF1F90C6FF1FD7
:10BBF0006C11FF1F0D0200007211FF1F8E09FF1F45
:10BC00009C09FF1F9614FF1F00260827A94CAA4B6A
:10BC1000617C9A79914217D1A17CDA79914213D152
:10BC2000E17C1A7A91420FD1217D5A7A91420BD14F
:10BC3000617D9A7A914207D1A27DDB7A9A4203D143
:10BC4000E37D002B3AD0F7B201362E34082EDED138
:10BC5000079B9A4C012B3AD1012D38D198490126E6
:10BC60000D780121944A023D9388EDB2DB111E400C
:10BC70000B4200D1E5E0537C3F229343402B00D0A0
:10BC800013E1082F00D1E7E62E267E438D4BF618F0
:10BC9000300002F0A9FC0390002800D0DCE6300060
:10BCA000894902F019FF039B0493002800D0D3E6D2
:10BCB0000122AA425B41DBB20493CDE6200002F0F0
:10BCC00093FC0028BFD10500BEE7804BCCE0049573
:10BCD000C2E6012B1AD1049B012B00D04CE62100B7
:10BCE000059802F081FD012800D045E6784B059AC1
:10BCF0001A7022785A7062789A70A278DA70E278B4
:10BD00001A7122795A7162799A71CBE6049B012BE0
:10BD100000D1C7E630E60021195420239A431300CE
:10BD20006C4A9380DBE60222654B1B7893430CD16F
:10BD300066490432280002F06FFD4021654A93886D
:10BD40008B4393800122644BE7E606226349280077
:10BD500002F062FD40235F4A91880B43F1E7C01A6D
:10BD60005F4BC018E2E663467627096CFB1A181A87
:10BD7000D2B2C9B2C0B202F097FC02F09DFE02F04E
:10BD800083FD02F011FE02F0DFFE0122554B564901
:10BD90001A602800053202F03FFD062231005348A8
:10BDA00002F03AFD8023A18851489943059BDB01AD
:10BDB0001943A180090A023102F06EFE4D4B1B7837
:10BDC000012B04D9062231004B4802F025FD424BDD
:10BDD0001B78032B04D106222900484802F01CFDE1
:10BDE00002F06AFB0023464A1370464A13708FE440
:10BDF000454B1968454B1B68994219D9444CCB1ADD
:10BE00002500444908681B180B609189907B4D43BD
:10BE1000AB4210D30130C0B2272800D9252090733F
:10BE20005089814201D1FFF7FCFB401A60437FE556
:10BE30002B480918E2E702F09FFC69E408271F4C31
:10BE4000A5E6012D00D940E7082F09D02E20784320
:10BE50001C4BC01802F0C8FB431E9841C3B20393A9
:10BE6000002E00D131E71D4B134A1978107B884210
:10BE700000D0F1E5507B5978884200D0ECE5907B0A
:10BE80009978884200D0E7E5D07BD978884200D005
:10BE9000E2E5107C1979884200D0DDE5527C5B79BF
:10BEA0009A4200D0D8E5039B06E7012DCCD9039632
:10BEB000D9E7C046990EFF1F9014FF1F9614FF1F6D
:10BEC000D40BFF1F890EFF1F9C14FF1F6509FF1F66
:10BED0007809FF1F6C11FF1F8E09FF1F6B09FF1FE1
:10BEE000FFFF3F009809FF1FD50BFF1F7811FF1FB1
:10BEF0007011FF1F8D09FF1FDA09FF1FD409FF1FF3
:10BF00008B09FF1F8C09FF1F9C09FF1FCC09FF1F16
:10BF100071020000B809FF1FF0B587B0040002F0FD
:10BF200083FC072002F0A8FC504B1A68504B1B689A
:10BF30009A421ED94F4FD31A3A68D3183B60630513
:10BF400014D50E214C4805AB04AA6944FEF7CAFC7F
:10BF50004A4D0600AC8802F0B7FD00280CDD484AC7
:10BF6000536E0133536600236A46D381FDF7F8F917
:10BF700059E044495218DDE7002EF7D00F231C404A
:10BF8000042CF3D16B46DE893F4BA988E8889A8957
:10BF90004906059CC90F904216D12889DA8990423A
:10BFA00012D16A891B8A9A420ED100290FD101E071
:10BFB000012938D1354A24E0001B504302F024FC0B
:10BFC00047E002F0D9FB46E000292CD000213F22B7
:10BFD000EB7A9343402BEBD12D4B1B78012BE7D110
:10BFE0002A4802F0B1FA030007281CD82E20434348
:10BFF0001A00284821321218C0180130C17F0231BE
:10C00000C9B23300240E24486442083B64B2DBB258
:10C01000009001940420FFF791FA194A136C013340
:10C020001364FEF7F3F9FEF705FA1C4A1C491300E6
:10C030008C893D686343887CAB42C2D80130C0B272
:10C04000272800D92520887448898442B4D102F079
:10C050003BFB00233B60134B1B68002B01D102F01C
:10C060006BFB02F0B1FC012007B0F0BD9C09FF1F83
:10C07000CC09FF1FB809FF1F9414FF1F9014FF1F66
:10C08000FC0FFF1FFFFF3F0060C9FF1F9614FF1F3B
:10C090001809FF1F890EFF1F9C14FF1F710200006B
:10C0A000BC0BFF1F9809FF1FF0B58BB0040002F016
:10C0B000BBFBC023DB001C409C424BD10E2404ABD5
:10C0C000E4182100534809AB08AAFEF70BFC00282E
:10C0D00040D00F230D20504A91880B40014201D0DF
:10C0E000062B37D14D484906006AC90FC06A0007C0
:10C0F0005ED54B48807B01285AD190790290D07947
:10C100000390107A0490507A05900020967AD77A9E
:10C11000444A15788D4219D15578AC46029DAC45FC
:10C1200014D19578AC46039DAC450FD1D578AC467B
:10C13000049DAC450AD11579AC46059DAC4505D1A9
:10C140005579B54202D19579BD4231D001300732DF
:10C150000828DED1344B1A68344B1B689A4244D904
:10C16000334CD31A226833489B182D4A2360918997
:10C170004843834245D3937C0133DBB2272B00D95C
:10C18000252393742C4B52891878914230D1802109
:10C19000490102F099F900232360284B1B68002B0A
:10C1A00001D102F0C9FA02F00FFC01200BB0F0BD82
:10C1B0001B4A013B907C224ADBB210600020052B19
:10C1C00001D8204AD05C099A2388120E524252B2FA
:10C1D00001921D4A083BDBB200921C4AFFF7AEF900
:10C1E0001B4A936B01339363B4E71A495218B7E7BC
:10C1F000511A05224A438021D210490102F054FB12
:10C20000C9E7154B1B78012BC7D1907C02F004F9CC
:10C21000C3E7C0469414FF1F9014FF1F90C6FF1F72
:10C22000BC0BFF1F510EFF1F9C09FF1FCC09FF1FF6
:10C23000B809FF1F710200001B09FF1F9809FF1FAB
:10C24000D009FF1FAE5A03119C14FF1F9614FF1F45
:10C25000FC0FFF1FFFFF3F002309FF1F70B50028E1
:10C260001AD1A1250E4BAD001C680E4B6D341B7806
:10C27000FF345D432D19AC4210D020220021200054
:10C2800001F0C0FD200020220021203001F0BAFD85
:10C29000A1239B00E418EEE7FEF72EF970BDC0461F
:10C2A0003409FF1F1409FF1F10B5FEF725F902F02E
:10C2B0003BF904000020FFF7D1FF200010BD000073
:10C2C00080230A001B0210B51A40194213D103241F
:10C2D000094B1860094B1860094B1960A1434118BC
:10C2E00004390A601A68043A0260064A1060506015
:10C2F0001A68054B5A6210BDD408FF1FD808FF1FEB
:10C30000DC08FF1F90C7FF1F6484FF1FF0B587B0D4
:10C310000C000592019002F087FA1E4F1E4E3B68FA
:10C320001E4D02933368200003932B6804931C4B2B
:10C330001A685B683A6033601A4B1B4A5B6A2B6071
:10C340000023137002F010FA0121029B04003B60ED
:10C35000039B1C203360049B2B60134B1970134B01
:10C36000002C0AD0019A50431818037E5B180376FC
:10C3700002F02AFB200007B0F0BD019D059A68433A
:10C38000D20010181A5C002AF2D119541818446807
:10C39000EEE7C046D808FF1FD408FF1FDC08FF1FC8
:10C3A00090C7FF1F6484FF1FD008FF1FA0C7FF1F97
:10C3B000F0B589B002F038F8A124B94D0190AB78FE
:10C3C000A4005C43B74E33681C19B74B1B68012BA4
:10C3D00003D1B64A936D01339365019B043B0293ED
:10C3E000012B02D82000FCF755FF02F08DFAB04A6D
:10C3F000B049B14B986611600122B0490A60B0495A
:10C400000A60029A012A00D9CDE0019A042A60D17B
:10C41000E28EAC481B6A5043EF225200A25A801AA7
:10C420001A00F83212689B6C801A6A785208D04061
:10C43000984200D9180002F04FFA02F065FAA24BB8
:10C4400034261B780390002B00D0DC36002520001A
:10C4500002F012F8A84219D9200002F05DFB9B4FB0
:10C4600028183B78984200DB83E0200002F054FB60
:10C470004019C7B28A4B022231009878FFF746FF75
:10C480006237BF00E719786000287AD1904A914955
:10C49000002D00D07FE0802513686D020B401D4306
:10C4A0009A230120156025795B00E15C824A6D00CA
:10C4B000A854014052195170874A343B15682B43E8
:10C4C0001360136883430B4313600222834B1A608B
:10C4D00066E0019A052AB0D16279012AADD0AA7826
:10C4E000A125AD005543326855197D4A126892B2B4
:10C4F000059291229200AA58002A1CD1698CEB8ED9
:10C50000059A4B435B109B180693FCF7EBFE0790D4
:10C510000699079BEA69C91A724BD00843439942AE
:10C5200005D9684B5208534307995B180693069840
:10C5300002F0CAF981E71B6A1900FC31496B012A34
:10C5400002D1059A4B00DEE7E82040001858EB8E38
:10C55000654E1B0A0133062A07D8023AB65C059AD3
:10C56000734343435B185B00CDE73679059A70430C
:10C57000F7E7200002F0D0FA3F78EF1BC719FFB2AF
:10C5800078E75A4A0135A35CEDB20133A354002386
:10C59000036083805BE713682D040B401D43156027
:10C5A0000398FEF779F95248524A05681278E9B2C1
:10C5B000002A0ED1504EEDB23278337852B25BB2CF
:10C5C000002A5ADB36781B0476B236029B195B19B7
:10C5D00003600B1C502900D95023DAB2022A00D282
:10C5E0000223464AFF2012784549DBB2022A4ED187
:10C5F0000A68444D8243444807782E78B7424CD9A4
:10C60000067800782D78023B5B10401B434376018F
:10C61000F31A10335B1113430B60029B012B14D8E8
:10C620003A4B1B78002B06D0394B1B78002B02D0DD
:10C63000002002F001FA83239B00E35C033B012B03
:10C6400003D8AF20400002F077FA019B022B0FD1F4
:10C65000304B1B78013B022B03D92F4B1B78022B4D
:10C6600006D1244B1B78002B02D16C2002F064FA17
:10C6700001222A4BDA8209B0F0BD3278FF3352B280
:10C68000FF321B0412029A186B1ED318A0E70A6827
:10C69000234D824323480778AFE70378DBB2BAE73C
:10C6A000300DFF1F3409FF1F9809FF1FFC0FFF1FEC
:10C6B00014100340FF3F000090C6FF1F0C10034002
:10C6C00000100340710200001709FF1F1609FF1F29
:10C6D00004100340FFFF00FF4010034068100340B8
:10C6E00024100340530700006484FF1F81020000F0
:10C6F000B40003408C09FF1F680AFF1F490AFF1F8F
:10C7000094000340470AFF1F460AFF1FF908FF1F56
:10C710002209FF1F1C09FF1F2309FF1FBC0BFF1F5E
:10C72000450AFF1F440AFF1FF7B51E0003000091D2
:10C730007B331B7804001500012B01D00720FEBDC0
:10C7400001F00AFF0028F9D01E4B34271B78002B7C
:10C7500000D0DC37200002F0CFF839000190002231
:10C760002079FFF7D3FD019B9F00E719FC3738675D
:10C770000028E3D02300A6331B78002B07D02A0023
:10C7800033002000009901F047FF0435EDB2A022EC
:10C790009200A35C29020133A354009B386F194314
:10C7A00081802A003100063001F080FB01223B6FBE
:10C7B00020001A6002F018F9034A0020A35C013B34
:10C7C000A354BCE71709FF1F8302000070B50400E3
:10C7D0000D0002F029F81C2200236243104E92192A
:10C7E000117800290BD05168A94208D11C200022E1
:10C7F0004443DB001B19F25402F0E6F870BD01332C
:10C800000832032BECD17F22043D6B7813406B7010
:10C810001C235C433619337E013B3376ECE7C0467C
:10C82000A0C7FF1FF7B5134B04005B790E008B42C6
:10C830001FD1C378002B18D003000500AD338D3510
:10C84000FF33FF350193296800290AD00F68002FB4
:10C8500007D12079FFF7BAFF074A2F60A35C013B9D
:10C86000A354019B04359D42EDD13100200001F01D
:10C87000EBFDF7BD6484FF1F81020000F8B5A12421
:10C88000314BA4009B78D6275C43304BE8261B68CD
:10C890007F001C190023E25976001360A3552C4B2E
:10C8A0002C4A1D682C496D056B0D2C4815680A68CB
:10C8B0006D0102401A436D0D0A60ED1A002D09DC6E
:10C8C000E8235B00E65C35006C35AD006519072E8A
:10C8D00028D9F8BDE0590368002B07D1043001F0D6
:10C8E0006BFE0122E3592D1A1A60E7E71C4AA35D8B
:10C8F00012789A42E2D96A339B00E31898680028BC
:10C90000DCD0043001F058FEA25DFF2113006A3331
:10C910009B00E3189B682D1A9B888B43CED0013275
:10C92000A255CBE72968002909D0074B9878FFF773
:10C930004DFF00230B4A2B60A35C013BA35401363F
:10C94000F6B20435C3E7C046300DFF1F3409FF1FA0
:10C950004C100340501003405C1003400000FF07E0
:10C960001509FF1F820200000300F7B56D330700B1
:10C97000FF33A02604001D008D370093FF37B6005B
:10C980002968002905D02079FFF720FFA35D013B2E
:10C99000A355D6235B00E35808C50193AF42EFD1FE
:10C9A0002300D6263D00AD33FF330193760029687E
:10C9B000002906D02079FFF709FF194AA35C013B43
:10C9C000A354A35908C5019BAB42F0D12300260014
:10C9D000D133B136FF33FF3601933168002906D0D9
:10C9E0002079FFF7F3FE0F4AA35C013BA354002517
:10C9F000019B20C6B342F0D12000FCF74BFC200085
:10CA000001F03AFE29002022009801F0FBF92900EC
:10CA10003800202201F0F6F9034BE554F7BDC0467B
:10CA200081020000820200008302000080233D4A50
:10CA300030B51168DB020B4313603B483B4B3C4C69
:10CA40001A680178224009060A431A60394A1968AF
:10CA5000394D14782940A4052143196060211C68D0
:10CA6000214319600178022908D00178012905D0F5
:10CA70001178022902D01178012904D180211C6883
:10CA80004900214319600178032902D01178032954
:10CA900003D18021186801431960C0211868090377
:10CAA000014319601178254B002936D124490978B2
:10CAB000032932D180211868090401431960214BF0
:10CAC000214922481960B021214B49001960214BAE
:10CAD00021490B6021490860C020214940000860BD
:10CAE00020490B60204B21491960214B21491960D5
:10CAF0001278002A03D1196801320A431A60F82219
:10CB00001D4B52021B781B0313401C4A13431C4A43
:10CB100013601C4B1C4A1A6030BD19681B48014049
:10CB2000CCE7C04640F000404C0AFF1F44F00040F4
:10CB3000FFFFFFFC4B0AFF1FFFFF3FFF8C0003407E
:10CB40004A0AFF1FCC000340C00B002000008904EC
:10CB5000D00003407A3E6A07D4000340D800034067
:10CB600004010340080103400C01034000808904D4
:10CB700080000340CC240000480AFF1F2508000065
:10CB8000B8000340DC0003402FFCA601FFFF7FFF3D
:10CB9000F8B50223040055499843554A554E564D61
:10CBA000564B55D180278030086011683F033140D3
:10CBB000394311602A78002A56D1872212031A605D
:10CBC0004F4B504A50491A608022504B52011B78FB
:10CBD0004F4D9B184F4A504E1360504A504B002CFB
:10CBE00047D150480860032114604F4A08002A606A
:10CBF0004E4A1A6001F038FE4D4B3360FF234D4A18
:10CC000011680B4313604C4B4C4A1A604C4B4D4A15
:10CC10001A604D4B4D4A1A604D4B4E4A1A604E4BAE
:10CC20004E4A1A604E4B4F4A1A604F4B4F4A1A6099
:10CC30004F4B504A1A60504B504A1A60E0222B6802
:10CC40009343012C4CD11A00202313432B60F8BDD1
:10CC5000802780207F000F601168C00231400143AF
:10CC600011602A78002A01D1454AA8E78822920259
:10CC7000A5E74448012C07D1434F0F604349116099
:10CC8000CA2292022A601DE0022C0DD1404F0F6093
:10CC90003E491160CA2292022A60210018602000D9
:10CCA00001F0E2FD3B4BA8E7E71E012F11D83A4FF8
:10CCB00027430F6039493A4F0F60CA218902296022
:10CCC0003249116002211860080001F0CDFD354B9A
:10CCD00093E7354F27430F6034491160124AD1E77B
:10CCE000022CB3D11A004023AFE7C046E000034056
:10CCF000D8000340FFFFE3FF4B0AFF1F90000340F3
:10CD0000B00003400200000100000340440AFF1F7E
:10CD1000400003409400034050000340480003409B
:10CD20004C0003400080067800280B0007EE7536A3
:10CD3000806608220C00034054000340A49C5C540D
:10CD4000580003404C4443425C00034041524C466F
:10CD500060000340403A342E6400034028007F55B1
:10CD6000680003404F49433D6C00034037312B4C72
:10CD70007000034046403A34740003402E28221CC1
:10CD800000450400D6BE898E0180063D55555537B5
:10CD90000280063D8045082200800698040003407A
:10CDA000545A985080550822008006425555550027
:10CDB0008023F0B59C46264F2649274A274C284D0C
:10CDC000284B02281BD1604638600868264E064072
:10CDD0008020000306430E602449097800290AD107
:10CDE0001060E021224A2260224A2A601A688A439F
:10CDF000110040222AE08021C9021160F1E7664655
:10CE00003E600F68184E3E408027FF023E430E6092
:10CE10001649097800290CD1176001280DD0E021AE
:10CE2000154A1043154A20602A601A688A431A601E
:10CE3000F0BD802189021160EFE7E021104A2260F5
:10CE4000104A2A601A688A43110020220A43EEE73A
:10CE5000E0000340D800034090000340000003407E
:10CE60005000034040000340FFFFE3FF4B0AFF1F59
:10CE70000280063D804508220080069880550822E1
:10CE80000180063D80660822F7B5434B434A444C77
:10CE90001360444E444B01292BD18021256809039E
:10CEA0003540294321604149414D19602978414C61
:10CEB000002926D12178032923D180211E68090465
:10CEC000314319603C493D4E08600E21002031601D
:10CED0003B4908601530FF3008603A4801902778D8
:10CEE000F8B2072F45D801F02DFA1010443D414407
:10CEF000131321680E408021C90231432160324959
:10CF0000D2E71968314E3140DBE7019840000190CB
:10CF1000019F781E0190002FFAD12D4800680F6004
:10CF200037602C4E000C1E60A02676000E60CA21D1
:10CF3000890211602849C0B20E78012E1BD11168F8
:10CF4000DF36B1430E002021314311602A78002AD8
:10CF50001DD12278032A1AD18022196812040A43AB
:10CF60001A60FEBD0320019F7843D0E7019880003E
:10CF7000CDE70198CBE70978E026022904D11168B2
:10CF8000B1430E004021DFE71168B143DDE71A68C5
:10CF90000E490A40E4E7C046100003004000034089
:10CFA000D8000340FFFFE3FF8C0003407F405300A5
:10CFB0004B0AFF1F4A0AFF1FB4000340A0000340B2
:10CFC000A4000340102700007F407300FFFF7FFF95
:10CFD000F400034040401000490AFF1F10B5002133
:10CFE0000220FFF751FF0E4B0230C0B21870002133
:10CFF0004220FFF749FF0B4B0230C0B218700121ED
:10D000000220FFF741FF084B0230C0B21870012127
:10D010004220FFF739FF054B0230C0B2187010BD37
:10D02000440AFF1F450AFF1F460AFF1F470AFF1F4A
:10D030001D4BF0B59C4666461C491D4A0F681D4CA9
:10D040001D4B1E4D37403F281AD18026F6023E4325
:10D050000E6011680C40602114601A688A431A60DF
:10D060001A68154080222A43F8211A60144A49029E
:10D07000136800031B0508401B0D18431060F0BD2A
:10D08000A026F6023E430E6011680C408021090183
:10D0900021431160602220211C68944321431960C0
:10D0A0001A682A40E0E7C046FF7FF8FF14F000400E
:10D0B000CC000340FFF3FFFFDC0003407FFCFFFFD9
:10D0C000B800034000220B4B10B51A700A4B023215
:10D0D0001A70FFF7ABFC094B1878C0B2FFF7A8FF36
:10D0E000074C2078C0B2FFF753FD2078C0B201F0A2
:10D0F000A3FB10BD4B0AFF1F4C0AFF1F480AFF1F6E
:10D10000490AFF1FF8B51E4B80261A68002014003C
:10D110003440324232D11A681A4F32431A60012227
:10D120003B68063093433B6001F01EFD0122164D23
:10D130002B681E432E603B680A2613433B60802702
:10D14000BF00124B1B683B4211D1013EF6B2FF2ECD
:10D1500009D17E220E4B1C682B68E40B14409343CC
:10D1600023432B6005E0082001F0FEFCE9E7002ED8
:10D17000EFD180222B68600893432B60F8BDC04636
:10D18000C4F000405CF0004018F0004068F000403F
:10D1900060F0004010B5FFF721FFFFF7B3FF10BDAF
:10D1A00010B578220021034800F02CFE01F024FC89
:10D1B000002010BD44ADFF1F10B501F01DFC002084
:10D1C00010BD10B501F018FC002010BDF0B5002313
:10D1D00004000C270C4D3E005E43705DA04211D050
:10D1E00000280AD12F0078373B7808333B70AB1901
:10D1F0005870745559609A60F0BD01330A2BEAD11A
:10D200000320F9E70720F7E744ADFF1F70B50025BD
:10D210000C26104B34006C43E25C824213D119009F
:10D2200078310A781C19F8320A7001F0FDFA0922E7
:10D230002100521B72430C31200000F037FE01F038
:10D24000C3FB002070BD002A02D001350A2DE1D1B8
:10D250001220F7E744ADFF1F002070470020704701
:10D260001F22030010B5904309D1183A1340072438
:10D27000044978310A78A24313430B7010BD002390
:10D280000620F4E744ADFF1F034A04491368002059
:10D290000B4013607047C0461CF00040FFFFC1FF09
:10D2A000064B074878331A7801685207130B054A72
:10D2B0000A401343036000207047C04644ADFF1F7F
:10D2C0001CF00040FFFFC1FF034A044913680F2010
:10D2D0000B4013607047C04614F00040FFFFFFFB97
:10D2E000B4220023FF2005499200C85448339342DA
:10D2F000FBD10022024B1A605A607047CBB1FF1F6E
:10D3000080B1FF1F094B02005B68002B0BD000208F
:10D31000934203D0DB68002B01D10548704793424C
:10D32000F8D10020FAE70348F8E7C04680B1FF1FB4
:10D3300015C0000013C00000084B5B68002B0AD02A
:10D340001A788A4202D1036000207047DB68002B04
:10D35000F6D10348F9E70348F7E7C04680B1FF1F5D
:10D3600015C0000013C00000F7B5482304000026D4
:10D370002C491A00724301928A5C002A19D12A4D65
:10D38000019B0127EB18180042300770DA60226B0E
:10D39000991C1A6362685A60A21CD28FCA87202A1D
:10D3A0000CD82100019810311030401900F07EFD9A
:10D3B00006E001360A2EDCD11C48FEBDA2689A6048
:10D3C00001F0EAF9482300217343EB181A6B9863C4
:10D3D000D9638A421CDA52005208019B1448EF18A4
:10D3E00043333900EB1801F037FB002818D14823EC
:10D3F0005E43AB5DAD19237043352B784334237006
:10D400000C4B5A68002A07D110001F605F60D4E7F8
:10D41000FA239B005A43E0E71A681F60D760CCE705
:10D420000548CAE7CAB1FF1F88B1FF1F14C000003A
:10D43000E55DFF1F80B1FF1F18C00000F0B595B07B
:10D440001F001AAB16001C880191050001F0ECF9D1
:10D4500000F08AFF01F0B8FA002D29D0002E29D063
:10D46000002C0BD0202C1DD9200001F045F80028FD
:10D4700022D004902200390000F018FD02AB039680
:10D480009E1C019B02A8F4870E93FFF76DFF041EFC
:10D490000AD0F38F202B02D9049801F08DFA2000D6
:10D4A00015B0F0BD06A8E5E702AB1B782B70F6E7D8
:10D4B000024CF4E7024CF2E7024CF0E711C0000026
:10D4C00012C0000005C00000010030B503000025B7
:10D4D000821C002400204231087018635860986054
:10D4E000D0879C63DD63D86030BD000070B5002438
:10D4F000FF26074D2800FFF7E7FF2B0043331E7080
:10D500002C700134A4B248350A2CF3D170BDC0464A
:10D5100088B1FF1F184A70B5536815680400AB4204
:10D5200014D1002B26D0834217D1002313605360FF
:10D53000012906D1A31CDB8F202B02D9A06801F0A2
:10D540003BFA2000FFF7C0FF002070BD834201D1ED
:10D55000C368ECE7D868002801D10848F5E7C66839
:10D56000A04204D1DE60A542E2D11360E0E70300EF
:10D570003000F0E70248E8E780B1FF1F15C0000067
:10D5800013C0000007B5017801A8FFF7D5FE0028F9
:10D590000DD101984368002B05D0821CD18F202922
:10D5A00006D98068984701210198FFF7B3FF07BDAE
:10D5B0001030F7E7F7B503780500092B03D9FF23EF
:10D5C00003701C48FEBD48245C431B4BE41820003C
:10D5D000FFF798FE002801D01848F3E72300012741
:10D5E00043331E780F21300000F0B2FD3B00C9B27A
:10D5F0008B4030009BB20F21019300F023FD104BB4
:10D6000001991B881818C0B201F036FA00280ED014
:10D6100039002000FFF77EFF0028D3D1300001F051
:10D620005BF80028D8D1FF2300202B70CAE7606088
:10D63000F9E7C04611C0000088B1FF1FFFFF0000DE
:10D64000C008FF1FF7B50500019109282ED848260C
:10D650004643174BF6183000FFF754FE041E1ED148
:10D66000336B002B1DDA5B005B08009301F094F82C
:10D670004821002369430E4D02006D18AE6BEF6B1D
:10D680009F420CD186420AD8921BBB41002B06D187
:10D6900000998A4203D8019B8E19361A1E60200019
:10D6A000FEBDFA2292005A430092DFE7014CF6E7F2
:10D6B00088B1FF1F11C0000070B504002025194B70
:10D6C00086B00493049B002B03D1174800F09CFE06
:10D6D000FEE7002102220B0001910091052000F0DD
:10D6E000DBFF022311490A681A42FCD10595059B0C
:10D6F0005A1E0592002BFAD10D4A1368002BFCDA52
:10D700000F266E440121300000F0A6FE337823423C
:10D7100006D0052001F028FA049B013B0493D1E7D1
:10D7200006B070BDFFFFFF07743E031190C80040B4
:10D7300000C8004007B501F077F880220821D20523
:10D74000936A0191002B01D10739916202210C4AA1
:10D7500011600199481E01900029FAD1033111602E
:10D76000053101910199481E01900029FAD11160FB
:10D77000002B02D18022D205936201F025F907BD6A
:10D7800000C0004010B5002001F0E6F8002010BDF8
:10D7900030B5234B04201A7885B0022A01D81878B6
:10D7A000C0B2204B1A68204B9A4234D10121002389
:10D7B000009100F0E9FD1D4B1D4A02259A630022ED
:10D7C0001A6510325A658022C4219D65194B1A488A
:10D7D000D202DA6789004358184A80241A4080230D
:10D7E0001B0413434350642341200393E40500F0DA
:10D7F00050F9402000F04DF96562039D6B1E0393C4
:10D80000002DFAD103236362FFF794FFA562FFF7AF
:10D81000B9FF05B030BD002301210093C9E7C04620
:10D820004A0AFF1F4474FF1F6B00020800C8004033
:10D83000050001FF04E100E000E100E0FFFF00FF60
:10D8400010B5054B1860FFF7A3FF00211320034A12
:10D85000FFF7BCFC002010BD4474FF1FF15FFF1FE9
:10D86000F0B5040085B003920291FBF777FC8822A3
:10D8700063035B0B52051A438023DB059D6AF82383
:10D8800027001B04060001921F401C4206D0802284
:10D890001D4B52025F6219680A431A60002D0BD1BA
:10D8A00000F0C2FF0222194B1A608023DB055A6286
:10D8B000013A9A6201F088F80023039A93421BD13F
:10D8C000002D0AD100F0B0FF104B03221D60802311
:10D8D000DB055A629D6201F077F8002F06D0002226
:10D8E000094B0B495A621A680A401A603000FBF76C
:10D8F0004BFC002005B0F0BD019A0299D2181278B5
:10D90000CA540133D9E7C04600C8004000C00040F7
:10D91000FFFFFEFFF0B52A4C87B0237801900291FB
:10D920000F200392002B49D101272770FBF716FC2B
:10D93000009000F079FF80230226224DDB052E6047
:10D940005E629F6201F040F81F4F3B683342FCD19A
:10D9500020230493049B5A1E0492002BFAD11B4EE1
:10D960003368002BFCDA0120FFF7A6FE039A029928
:10D97000019800F021FF022301903A681A42FCD17D
:10D9800020230593059B5A1E0592002BFAD133687C
:10D99000002BFCDA0120FFF78FFE00F045FF80230B
:10D9A00000260322DB052E605A629E6201F00CF80D
:10D9B0000098FBF7E9FB6B461879267007B0F0BDBD
:10D9C0000AACFF1F00C0004090C8004000C80040E3
:10D9D000F0B5802685B00400FBF7C0FBF605B36AFE
:10D9E00002250193009000F01FFF0123214F3D60AD
:10D9F0007562B36200F0E8FF1F4E33682B42FCD122
:10DA000020230293029B5A1E0292002BFAD11B4D37
:10DA10002B68002BFCDA0120FFF74EFE200000F0FF
:10DA2000B3FD0223040032681A42FCD12023039381
:10DA3000039B5A1E0392002BFAD12B68002BFCDAB1
:10DA40000320FFF739FE00F0EFFE802300220321C0
:10DA5000DB053A6059629A6200F0B6FF019B002B29
:10DA600001D1FFF767FE0098FBF78EFBE0B205B02F
:10DA7000F0BDC04600C0004090C8004000C8004053
:10DA800007B5000201910422000A01A9FFF742FF35
:10DA90000EBD1F2807D8012380228340D20591683C
:10DAA0000B43936070473F2808D801238022203819
:10DAB0008340D20551690B435361F3E75F28F1D8E6
:10DAC0000123802240388340D205116A0B43136240
:10DAD000E8E71F2807D8012280218240C9058B680A
:10DAE00093438B6070473F2808D80122802120385B
:10DAF0008240C9054B6993434B61F3E75F28F1D836
:10DB00000122802140388240C9050B6A93430B6291
:10DB1000E8E71F2810D880230200DB05153A1968B2
:10DB2000012A06D820229143196019680A431A6015
:10DB3000704701228240F6E73F2811D88023020077
:10DB4000DB05353AD968032A06D810229143D960FB
:10DB5000D9680A43DA60EBE7012220388240F5E712
:10DB60005F28E5D842238022181A413B8340D20522
:10DB7000516A99435162516A0B435362D8E70000DE
:10DB800070B505001D4C01281CD1A0222368920508
:10DB90005B015B0913432360194B1A491A68114052
:10DBA000194A0A431A60402219680A431A608023FE
:10DBB00022685B051343154A2360136814490B4020
:10DBC000136070BD0028F2D101000A2000F034FC7F
:10DBD00029000B2000F030FCC022094B920019688C
:10DBE0000A4340211A601A688A431A60B0222368E7
:10DBF00012065B015B0913432360D8E714F0004071
:10DC00001CF000407F00FEFF80FD010018F0004086
:10DC1000FFFFF9FF174B184AD8211360174A8902F2
:10DC20001360174B174A1A600023174A1360174AEC
:10DC300011609A21164A89031160164A164911602B
:10DC4000164A174911600121164A1360164A1360DB
:10DC5000164A1360164A1360164A1360164A136078
:10DC6000164A1360164A1360164A1160164A13606A
:10DC70007047C046841E0000140AFF1F380AFF1FA9
:10DC800008F00040000C00060CF0004010F00040CE
:10DC900014F0004018F00040404006011CF0004025
:10DCA000ABFF010020F0004024F000402CF00040C9
:10DCB00030F0004034F00040A0F00040A4F00040FC
:10DCC000A8F00040B8F00040C4F000400023034A30
:10DCD0001360034A1360034A1360704754F0004016
:10DCE00040F1004044F1004007B50320694600F0D0
:10DCF000D3FD684600F098FC009B01981843431E32
:10DD00009841C0B20EBD000070B50025194E8CB010
:10DD1000337802951C000395012B1FD0012002A926
:10DD200000F0BAFD2C00A84218D1029B12490493BE
:10DD3000039B08AA05930193104B04A81B68069344
:10DD40000F4B1B68079300F007FD10220D4908A830
:10DD500000F0C2FBA84204D1FF23337020000CB0B6
:10DD600070BD01240749321D04A8347000F0F4FC92
:10DD7000F4E7C0466CCAFF1F1029001108290011E2
:10DD80000C2900112029001113B501246946012036
:10DD900000F082FD034B00940193FFF7B5FF2000D4
:10DDA00016BDC046BB0B000010B5FFF78FFFFFF795
:10DDB000EBFF002802D0024B984710BDFEE7C0469B
:10DDC000E1A200000EB400B50B499CB0079104918C
:10DDD0000A491DAB05910A4904CB029006900868D8
:10DDE00002A9019300F0D8FA0023029A13701CB024
:10DDF00008BC03B01847C046FFFFFF7F0802FFFFC3
:10DE0000B87AFF1FF0B50500830749D0541E002AD9
:10DE100045D003000326CAB202E00135013C3ED3DF
:10DE200001332A703342F8D1032C30D9FF220A4043
:10DE3000150215432A0415430F2C34D92700103F2F
:10DE40003F093E01B4461E001A00103666441560B4
:10DE500055609560D5601032B242F8D101373F016C
:10DE6000DB190F270C22274022403C00002A0ED04D
:10DE70003E1FB608B400A4461A001C1D644420C20C
:10DE8000A242FCD103240136B6009B193C40002C71
:10DE900005D0C9B21C19197001339C42FBD1F0BDE9
:10DEA00003001400C0E72700E2E7C046F0B5C6460D
:10DEB00000B50F2A41D903270D003E0005430C0091
:10DEC00003002E402F423DD11500103D2D09A846DC
:10DED0002D01AC46844427681D001F6067685F60A1
:10DEE000A7689F60E7681034DF6010336545F2D1A2
:10DEF00045460F230C2401352D01491913404519BE
:10DF0000144222D08C59AC5104369C1B032CF9D8F6
:10DF1000043B9B0801339B00ED18C91803231A40EA
:10DF2000561E002A06D00023CC5C1A00EC540133A4
:10DF30009642F9D180BCB846F0BD0500561E002AB5
:10DF4000F1D1F7E70500561EEDE71A00F6E7C046E7
:10DF500030B5032A0CD903000B439B0719D1036882
:10DF60000C68A34215D1043A04300431032AF6D8D0
:10DF7000551E002A0BD0002303E05A1C9D4206D0F8
:10DF80001300C25CCC5CA242F7D0101B00E0002062
:10DF900030BD551EEFE7C046F0B588420AD98B1850
:10DFA000984207D2531E002A03D0CA5CC254013BD8
:10DFB000FBD2F0BD0F2A0BD80500561E002AF8D060
:10DFC0000023CC5C1A00EC5401339642F9D1F0E7FF
:10DFD00003270D003E0005430C0003002E402F4296
:10DFE0002BD11500103D2D09AC462F013F18256897
:10DFF0001D6065685D60A5689D60E5681034DD6042
:10E000001D001033BD42F2D165460F230C240135AB
:10E010002D01491913404519144211D08C59AC51A6
:10E0200004369C1B032CF9D8043B9B0801339B004E
:10E03000ED18C91803231A40BFE70500561EBFE7B5
:10E040001A00BAE7002243088B4274D303098B42BB
:10E050005FD3030A8B4244D3030B8B4228D3030CB8
:10E060008B420DD3FF22090212BA030C8B4202D35A
:10E070001212090265D0030B8B4219D300E0090A82
:10E08000C30B8B4201D3CB03C01A5241830B8B428B
:10E0900001D38B03C01A5241430B8B4201D34B0374
:10E0A000C01A5241030B8B4201D30B03C01A5241D9
:10E0B000C30A8B4201D3CB02C01A5241830A8B425E
:10E0C00001D38B02C01A5241430A8B4201D34B0247
:10E0D000C01A5241030A8B4201D30B02C01A5241AB
:10E0E000CDD2C3098B4201D3CB01C01A524183095F
:10E0F0008B4201D38B01C01A524143098B4201D399
:10E100004B01C01A524103098B4201D30B01C01AC3
:10E110005241C3088B4201D3CB00C01A524183083D
:10E120008B4201D38B00C01A524143088B4201D36A
:10E130004B00C01A5241411A00D2014652411046CA
:10E140007047FFE701B5002000F0F0F802BDC046BF
:10E150000029F7D076E7704703460B437FD40022AF
:10E1600043088B4274D303098B425FD3030A8B426B
:10E1700044D3030B8B4228D3030C8B420DD3FF22D5
:10E18000090212BA030C8B4202D31212090265D0A3
:10E19000030B8B4219D300E0090AC30B8B4201D356
:10E1A000CB03C01A5241830B8B4201D38B03C01A9D
:10E1B0005241430B8B4201D34B03C01A5241030B14
:10E1C0008B4201D30B03C01A5241C30A8B4201D3C5
:10E1D000CB02C01A5241830A8B4201D38B02C01A70
:10E1E0005241430A8B4201D34B02C01A5241030AE7
:10E1F0008B4201D30B02C01A5241CDD2C3098B42CC
:10E2000001D3CB01C01A524183098B4201D38B0148
:10E21000C01A524143098B4201D34B01C01A5241EB
:10E2200003098B4201D30B01C01A5241C3088B4230
:10E2300001D3CB00C01A524183088B4201D38B001B
:10E24000C01A524143088B4201D34B00C01A5241BD
:10E25000411A00D201465241104670475DE0CA0F94
:10E2600000D04942031000D34042534000229C4654
:10E2700003098B422DD3030A8B4212D3FC2289015E
:10E2800012BA030A8B420CD3890192118B4208D334
:10E29000890192118B4204D389013AD0921100E096
:10E2A0008909C3098B4201D3CB01C01A52418309AA
:10E2B0008B4201D38B01C01A524143098B4201D3D7
:10E2C0004B01C01A524103098B4201D30B01C01A02
:10E2D0005241C3088B4201D3CB00C01A524183087C
:10E2E0008B4201D38B00C01A5241D9D243088B42D2
:10E2F00001D34B00C01A5241411A00D20146634675
:10E3000052415B10104601D34042002B00D54942D8
:10E31000704763465B1000D3404201B5002000F017
:10E3200005F802BD0029F8D016E770477047C046CF
:10E3300002B4714649084900095649008E4402BC9E
:10E340007047C04602B4714649084900095C49005B
:10E350008E4402BC7047C04601B40248844601BCEA
:10E36000604700BFF113010001B40248844601BCBC
:10E37000604700BFD544010001B40248844601BC97
:10E38000604700BF8944000001B40248844601BCD4
:10E39000604700BFC56D010001B40248844601BC5E
:10E3A000604700BF117D011101B40248844601BCE1
:10E3B000604700BF112B000001B40248844601BC35
:10E3C000604700BFBD0B010001B40248844601BC98
:10E3D000604700BFF9A6000001B40248844601BCB2
:10E3E000604700BF6D40010001B40248844601BC93
:10E3F000604700BFDD3F000001B40248844601BC15
:10E40000604700BF8111010001B40248844601BC8D
:10E41000604700BF592B011101B40248844601BC7A
:10E42000604700BF4DF9000001B40248844601BCBA
:10E43000604700BFDD0C010001B40248844601BC06
:10E44000604700BFB525011101B40248844601BCF4
:10E45000604700BFE9D4000001B40248844601BC13
:10E46000604700BF3D71010001B40248844601BC11
:10E47000604700BFC1D8000001B40248844601BC17
:10E48000604700BF1DB0000001B40248844601BCD3
:10E49000604700BFD1AE000001B40248844601BC11
:10E4A000604700BF0934010001B40248844601BC42
:10E4B000604700BFC1F7000001B40248844601BCB8
:10E4C000604700BF093F010001B40248844601BC17
:10E4D000604700BF0D52010001B40248844601BCF0
:10E4E000604700BFCD4C010001B40248844601BC26
:10E4F000604700BFADFF000001B40248844601BC84
:10E50000604700BF7145011101B40248844601BC57
:10E51000604700BF5D6B010001B40248844601BC46
:10E52000604700BF61B5000001B40248844601BCE9
:10E53000604700BF0966000001B40248844601BC80
:10E54000604700BF9D6B010001B40248844601BCD6
:10E55000604700BFCD09010001B40248844601BCF8
:10E56000604700BF5DB0000001B40248844601BCB2
:10E57000604700BF53B9000001B40248844601BCA3
:10E58000604700BFA512010001B40248844601BCE7
:10E59000604700BFA96F010001B40248844601BC76
:10E5A000604700BFF935010001B40248844601BC50
:10E5B000604700BF5944000001B40248844601BCD2
:10E5C000604700BFAD0F010001B40248844601BCA2
:10E5D000604700BFD9B0000001B40248844601BCC6
:10E5E000604700BF2D6C010001B40248844601BCA5
:10E5F000604700BFC716010001B40248844601BC51
:10E60000604700BF516B010001B40248844601BC61
:10E61000604700BF6911010001B40248844601BC93
:10E62000604700BF6142000001B40248844601BC5B
:10E63000604700BFFDED011101B40248844601BCF2
:10E64000604700BF8F02010001B40248844601BC4C
:10E65000604700BFA1AF000001B40248844601BC7E
:10E66000604700BF71B0000001B40248844601BC9D
:10E67000604700BFED0A010001B40248844601BCB6
:10E68000604700BF79D5000001B40248844601BC50
:10E69000604700BFCD36010001B40248844601BC8A
:10E6A000604700BF496D010001B40248844601BCC7
:10E6B000604700BFDD13010001B40248844601BC7D
:10E6C000604700BF6D0B010001B40248844601BCE5
:10E6D000604700BFF97F000001B40248844601BCD6
:10E6E000604700BF1147010001B40248844601BCE5
:10E6F000604700BFEDB6000001B40248844601BC8B
:10E70000604700BF7997000001B40248844601BC0D
:10E71000604700BFE53A010001B40248844601BCED
:10E72000604700BF797E031101B40248844601BCF2
:10E73000604700BF6DF6000001B40248844601BC8A
:10E74000604700BFDD0A010001B40248844601BCF5
:10E75000604700BF0134010001B40248844601BC97
:10E76000604700BFC53F000001B40248844601BCB9
:10E77000604700BF3D4B010001B40248844601BC24
:10E78000604700BFA5F4000001B40248844601BC04
:10E79000604700BF0534010001B40248844601BC53
:10E7A000604700BF4949010001B40248844601BCEA
:10E7B000604700BF0108010001B40248844601BC63
:10E7C000604700BF4D74010001B40248844601BC9B
:10E7D000604700BF250C010001B40248844601BC1B
:10E7E000604700BFF90D010001B40248844601BC36
:10E7F000604700BF4916010001B40248844601BCCD
:10E80000604700BF8540010001B40248844601BC56
:10E81000604700BF6137010001B40248844601BC73
:10E82000604700BFE94C010001B40248844601BCC6
:10E83000604700BF75A9000001B40248844601BCCE
:10E84000604700BF8914010001B40248844601BC3E
:10E85000604700BFF9ED000001B40248844601BCE6
:10E86000604700BFC913010001B40248844601BCDF
:10E87000604700BF2D11010001B40248844601BC6D
:10E88000604700BF1907010001B40248844601BC7B
:10E89000604700BFE910010001B40248844601BC92
:10E8A000604700BFE1AC000001B40248844601BCEF
:10E8B000604700BF8B52010001B40248844601BC8E
:10E8C000604700BF5976010001B40248844601BC8C
:10E8D000604700BF8512010001B40248844601BCB4
:10E8E000604700BF8D11010001B40248844601BC9D
:10E8F000604700BF01D7000001B40248844601BC54
:10E90000604700BFE1B0000001B40248844601BC8A
:10E91000604700BFC95C010001B40248844601BCE5
:10E92000604700BFD94F010001B40248844601BCD2
:10E93000604700BF8937010001B40248844601BC2A
:10E94000604700BFBD5C010001B40248844601BCC1
:10E95000604700BFE512010001B40248844601BCD3
:10E96000604700BF0972010001B40248844601BC3F
:10E97000604700BF61D5000001B40248844601BC75
:10E98000604700BF8D82000001B40248844601BC8C
:10E99000604700BFEDD6000001B40248844601BCC8
:10E9A000604700BFC96C010001B40248844601BC45
:10E9B000604700BFB912010001B40248844601BC9F
:10E9C000604700BFA945011101B40248844601BC5B
:10E9D000604700BF9DA9000001B40248844601BC05
:10E9E000604700BF156B010001B40248844601BCBA
:10E9F000604700BF8576010001B40248844601BC2F
:10EA0000604700BF21A9000001B40248844601BC50
:10EA1000604700BFBDF4000001B40248844601BC59
:10EA2000604700BFF535010001B40248844601BCCF
:10EA3000604700BF413F000001B40248844601BC6A
:10EA4000604700BFED6B010001B40248844601BC81
:10EA5000604700BFE927000001B40248844601BCBA
:10EA6000604700BFA946010001B40248844601BCCA
:10EA7000604700BF49CC000001B40248844601BC95
:10EA8000604700BFB544010001B40248844601BCA0
:10EA9000604700BFE917010001B40248844601BC89
:10EAA000604700BFC115010001B40248844601BCA3
:10EAB000604700BFCD0C010001B40248844601BC90
:10EAC000604700BFB110010001B40248844601BC98
