:020000041100E9
:109000000CDBFF1F09900011024981F3088807F06B
:089010006BFE00000CDBFF1FEA
:08901800845902000100000070
:1090200008000000F1590000FD2400003D09021174
:10903000E9F6011145070211512501118D090111B0
:1090400041460100431E0200581E834117485B42FF
:10905000F0B503401648174D1B1850012A18127E10
:109060008BB00191002A1BD01A000832D46F002265
:10907000E6B206AFE4B294420EDC2818C369002BB6
:1090800008D0019902AA117106AA049202AA1673C5
:1090900003A898470BB0F0BD1978B9540132EAE73C
:1090A0001A7D1A7806AB01261A70E6E700B0FFFFBA
:1090B00000900040609DFF1F7FB5244B4101CA5CBA
:1090C0000400002A2AD05A18107E002826D0907E4C
:1090D000002823D01079022820D11689D588701B4A
:1090E00080B2021C102800D9102292B2AE4216D1D2
:1090F00001225B181A710022DA801A81DB6993421F
:1091000006D06846032102730171029201A89847B4
:109110000820002C00D0192003F0A3FA7FBD013CE9
:10912000601E84410A48644204400A485B182418BF
:109130000948DD680633013A92B28242EED01988BE
:109140004E1C1E80695C2170F5E7C046609DFF1FC4
:1091500000B0FFFF00900040FFFF000010B504F0DA
:109160007BFB074A0121130010CB4942D967054B0D
:109170000020136002F084FC04F01EFB200010BDF0
:1091800000E100E01000100010B5040004F064FBE2
:10919000034B01201C6002F073FC04F00DFB10BDBA
:1091A00000E100E010B5040004F056FB4021094A3C
:1091B000200013688B43136004F076FA03F0A6FADC
:1091C0000022054B01201A60044B04321A6004F09F
:1091D000D3FDFEE71CF00040C4F00040C0F00040AA
:1091E00010B504F0F9FA072805D0122809D0022892
:1091F00006D1142004E00420034A936B01339363E7
:1092000010BD0220FCE7C046B0BAFF1FF8B507004A
:109210000C0026002500503630785135002803D147
:109220005834287020701DE02978CA00481E8141FA
:10923000A3183800A25C5B68C9B2FFF7D1FF002811
:109240000DD12B78DA00A218013350602B703378DF
:10925000054A013B3370936A01339362D9E70123D6
:1092600058342370F8BDC046B0BAFF1F5C2110B55A
:109270004143074C636859180B0058331B78012B86
:1092800004D1FFF7C3FF236B0133236310BDC04636
:10929000B0BAFF1FF0B505002026184B87B0049325
:1092A000049B002B03D11124200007B0F0BD002146
:1092B00002220B0001910091052004F005FD02231C
:1092C0000F490A681A42FCD10596059C631E059356
:1092D000002CFAD10B4A1368002BFCDA0F276F44DD
:1092E0000121380004F090FA3B782B42DCD00520B5
:1092F00004F052FA049B013B0493D1E7FFFFFF0700
:1093000090C8004000C8004007B504F0A5FA8022CC
:109310000821D205936A0191002B01D1073991628E
:1093200002210C4A11600199481E01900029FAD1CE
:1093300003311160053101910199481E0190002906
:10934000FAD11160002B02D18022D205936204F081
:1093500033FA07BD00C0004010B5002004F034FC13
:10936000002010BD30B5234B04201A7885B0022AA6
:1093700001D81878C0B2204B1A68204B9A4234D1D9
:1093800001210023009104F04FFB1D4B1D4A0225D3
:109390009A6300221A6510325A658022C4219D65A5
:1093A000194B1A48D202DA6789004358184A8024B8
:1093B0001A4080231B04134343506423412003932A
:1093C000E40504F021FC402004F01EFC6562039DCE
:1093D0006B1E0393002DFAD103236362FFF794FF02
:1093E000A562FFF7B9FF05B030BD0023012100934E
:1093F000C9E7C0464A0AFF1F2467FF1F6B00020827
:1094000000C80040050001FF04E100E000E100E0C9
:10941000FFFF00FF10B5054B1860FFF7A3FF002109
:109420001320034A03F022F9002010BD2467FF1F18
:10943000C51BFF1FF7B504000E000192FFF78EFE5B
:109440008027050088206403640B4005FF05204346
:10945000BC6A0090002C09D104F0FEF90223114AE5
:1094600013607B62013BBB6204F0A6F90023019A02
:10947000934211D1002C0AD104F0EEF9094B0322DA
:109480001C608023DB055A629C6204F095F9280079
:10949000FFF77AFE0020FEBD009AD2181278F2542F
:1094A0000133E4E700C00040F0B52D4B87B01B78D6
:1094B000019002910F200392002B25D10126284B09
:1094C00002241E70FFF74AFE009004F0C5F98023C5
:1094D000244DDB052C605C629E6204F06DF9224F26
:1094E0003B682342FCD120230493049B5A1E049220
:1094F000002BFAD11D4E3368002BFCDA0120FFF758
:10950000C9FE002802D0112007B0F0BD039A0299CD
:10951000019804F089F9022304003A681A42FCD148
:1095200020230593059B5A1E0592002BFAD1336820
:10953000002BFCDA0120FFF7ADFE061EE3D104F09C
:109540008BF980230322DB052E605A629E6204F0B1
:1095500033F90098FFF718FE014BE0B21E70D3E715
:10956000A29DFF1F00C0004090C8004000C80040FE
:10957000F0B5802687B00400FFF7F0FDF605B36A6A
:1095800002250393029004F067F90123244F3D6004
:109590007562B36204F010F9224E33682B42FCD19D
:1095A00020230493049B5A1E0492002BFAD11E4DD3
:1095B0002B68002BFCDA0120FFF76CFE002802D09C
:1095C000112007B0F0BD200004F05EFB02230190E3
:1095D00032681A42FCD120230593059B5A1E05923E
:1095E000002BFAD12B68002BFCDA0320FFF752FE88
:1095F000041EE5D104F030F980230322DB053C6032
:109600005A629C6204F0D8F8039B002B01D1FFF74B
:109610007BFE0298FFF7B8FD6B461879D1E7C0468C
:1096200000C0004090C8004000C8004007B50002DC
:1096300001910422000A01A9FFF736FF0EBD0000C8
:1096400000220C4BDA741A7D0132D2B21A75022A4A
:1096500009D180211A8A4900520092B28A4207D861
:109660001A8200221A75044A536F013353677047F8
:109670001982F6E7BC0BFF1FFC0FFF1F10B504009B
:1096800004F03AF89F229200A3581B0C1B04A3502D
:10969000D62322005B00E358FC32136753679367BD
:1096A000D367BE225200A3500432A3500432A35009
:1096B0000432A3500432A3500432A3500432A35006
:1096C0000432A3500432A3500432A3500432A350F6
:1096D0000432A35010BD000010B504F0CDF8A12253
:1096E0009F21074B92009B7889005343054A1268DB
:1096F000D2185358548C1B0C1B042343535010BDD9
:10970000300DFF1F3409FF1FA12210B5114B92002D
:109710009B785343104A1268D2189F239B00D3585A
:10972000511DC97F9BB28B4209D9D269441C06D016
:10973000C82804D05B1A5A43084B5343C01803F09F
:1097400093FF04F099F9002803D11421044804F090
:1097500003FB10BD300DFF1F3409FF1F7102000015
:109760000010004070B5274C2368002B31D004F066
:109770003BFB2368D840244B244D9A78A1239B00BF
:109780005343234A23491268D65CD4189123224AB2
:109790009B00002E27D0E0580130E0502B688D68E8
:1097A000AB421DD3D23B5B1B1360E58EEA240968F4
:1097B00064000C59A54205D3EE2464000C594443BF
:1097C000E3181360012819D1FC314B6B11685B1849
:1097D00013E004F009FB114B196803F0E5FFCAE739
:1097E0000F4E9B19DFE7E6502C688B689C4206D32E
:1097F0000968E31AC968081AC318136070BD094DD7
:109800006419F5E71C08FF1F300DFF1F9C09FF1F9F
:109810003409FF1F28B8FF1FA009FF1F1808FF1FEA
:109820002DFF3F00FFFF3F00F7B5050004F014F8DF
:109830002D4A2E4C1378002B46D12D4988892D496D
:109840004843052111702370294B2A4C9B895C43A6
:10985000844200D90400284B01279A78A123274E7F
:109860009B005343264A377012683078D318C0B231
:10987000019303F019FB03F01FFF03F0E5FE2148FD
:1098800004F0EAF8204804F0CFF9280004F054F876
:10989000280004F0D9F9FF2003F046FF200004F06F
:1098A000FBF903F0F1FE032004F0EEF804F09CF95C
:1098B00004F0CAFA154B019A186083239B00D35C0D
:1098C0003370134B1F600BE003F096FF002801D0AC
:1098D0000123B8E703230F4A2370D3690133D3610F
:1098E00003F06AFFF7BDC0461C09FF1F2309FF1FD5
:1098F000BC0BFF1F71020000300DFF1F490AFF1F44
:109900003409FF1F55555500D6BE898ECC09FF1F5F
:109910009809FF1FFC0FFF1F012210B5024B1A70A0
:1099200003F0DAFF10BDC046490AFF1F70B50B787F
:109930000400002B10D1C378012B0DD14A790B798B
:1099400012029B189BB2002B06D12222FF32072164
:10995000835403F079FF70BD23008F331B78002BF5
:109960000DD023008A330E4A1B88934207D10D4B3A
:10997000DB78002B03D0822301229B00E254822655
:109980002000B600A55D03F08FFF0022064B1A737E
:10999000012DE0D1A25D002ADDD11D73DBE7C046B9
:1099A00001170000E010FF1F28B8FF1FF0B587B0B7
:1099B000050003F051FF02AB9E1D3100BC4805AB12
:1099C00004AA03F039FE040004F0EEF8002805DDD7
:1099D0000024B84A3480536E013353660F21B64BCE
:1099E0009A8811405206D20F0092B44A002C00D13E
:1099F000DBE0680500D456E1032900D0F1E1AD4871
:109A0000016A01310162187BD179884200D04AE1B4
:109A1000D96810890902090C884200D043E1D87B3B
:109A2000917A884200D03EE1187CD17A884200D0F9
:109A300039E1597C127B914200D034E1009AD97A05
:109A4000002A2FD03F220800904340282AD19C4B67
:109A50009C4D1C78012C5ED1280004F0DDF807280D
:109A60005BD82E254543984821352D18974F914EA8
:109A70003B68DB6A1B0757D50222904BDB7B934385
:109A8000012B51D1012C4AD0336B01333363904BFE
:109A90001B68002B01D104F07FF903F08DFE01203B
:109AA00007B0F0BD9A799446DA79019200221C7AC7
:109AB0005D7A9E7A874B5F78674525D19F780198BC
:109AC000874221D1DF78A7421ED11F79AF421BD137
:109AD0005F79B74218D19F798F4215D11F780098CE
:109AE000874211D12E235A43774901248B1808331A
:109AF000DB7F744D002BB9D11032501803F0ECFD10
:109B0000431E9841C4B2B1E701322E33082AD2D1A4
:109B100001246C4DAAE7009CA8E70024A6E72900D1
:109B2000009804F0A1F90400002CADD0336D01338E
:109B30003365694B1B68002B33D103F025FF0123EC
:109B4000664C237004F080F9654B1A68831A8242D0
:109B500002D3831A634A9B183868426C016C4568CB
:109B60007620401BC01AC9B2C0B2D2B204F0DCF8F1
:109B700004F03AF80122564B1A600023237003F0D8
:109B800063FD03F099FD584B58489988090A023142
:109B900003F01AFE0E2003F09FFF736A0133736215
:109BA00075E798470028C8D171E705297BD1690579
:109BB00079D54048816A01318162187BD179884228
:109BC00071D1D96810890902090C88426BD1D87B00
:109BD000917A884267D1187CD17A884263D1597CC6
:109BE000127B91425FD1009AD97A002A00D187E096
:109BF0003F2208009043402800D081E0304B314E96
:109C00001C78012C00D0B5E0300004F005F803000A
:109C1000072800D9B1E02E2043431D002A482135F2
:109C20002D18C0180130C37F314A02331370310040
:109C30000622304803F090FE244B2F4E1B68DB6A4F
:109C40001B070ED53378012B0BD11C4BDB7B023B62
:109C5000012B06D8012C04D12900009804F004F946
:109C600004003378134E022B18D1244B29785A78EC
:109C7000914215D169789A78914211D1A978DA7810
:109C800091420DD1E9781A79914209D129795A790D
:109C9000914205D16A799B799A4201D1002C6ED10B
:109CA000736B01337363054A00230121547B7BE00E
:109CB0009414FF1FFC0FFF1F9014FF1FA60BFF1F24
:109CC0001809FF1F9614FF1F890EFF1F28B8FF1FDA
:109CD0009809FF1FA90EFF1FC409FF1F8C09FF1F52
:109CE0009C09FF1FFFFF3F008413FF1F8813FF1F06
:109CF0008D09FF1FDA09FF1F1C09FF1F7809FF1FCD
:109D00009A799446DA79019200221C7A5D7A9E7AD9
:109D1000364B5F78674526D19F780198874222D1DC
:109D2000DF78A7421FD11F79AF421CD15F79B742BC
:109D300019D19F798F4216D11F780098874212D18E
:109D40002E235A432A4901248B180833DB7F294DDF
:109D5000002B00D070E71032501803F0BDFC431EFA
:109D60009841C4B268E701322E33082AD1D10124C8
:109D7000204D61E7009C35005EE70024FBE7336D72
:109D8000009A013333651C4B29001A701B480622C8
:109D900003F0E2FD746C03F0E7FD736C9C4200D0AD
:109DA00075E680E70133DBB2200018410842F9D0A4
:109DB000117D2533994202D004F03EF867E6104B3E
:109DC0001978052902D100221A7060E6538805220D
:109DD00080215A430B4BD2101878890103F044FDBF
:109DE00055E6052900D05EE7E3E6C046A90EFF1F51
:109DF000890EFF1F9614FF1F7809FF1F7909FF1FA7
:109E00002309FF1F1B09FF1F70B580241025E405DF
:109E1000A3682B43A36003F07FFDA368AB43A3605B
:109E200070BD000010B5044B1B788B4202D11900A5
:109E300003F07AFE10BDC0465475FF1F044B10B5E9
:109E40001A78D20701D57622DA6003F0ADFF10BD93
:109E50000020004010B503F0FFFC03F0EDFC04000F
:109E600003F0AAFC200010BD0022084B1A75DA7C12
:109E70000132D2B2DA74022A05D11A8A520803D00A
:109E80001A820022DA7470470122F9E7BC0BFF1F27
:109E900010B5074C238A012B01D1E38210BD03F0DA
:109EA0004BFE218A03F0D8FE0131E182F6E7C0467D
:109EB000BC0BFF1F10B510494A7F0B7F12029B1885
:109EC0009BB2002B17D0A12403F086FE0B4BA400FD
:109ED000587D0B4B60431C682022241820006D30F5
:109EE0000021FF3003F0E4FA20008D302022002111
:109EF000FF3003F0DDFA10BD9014FF1FA60BFF1F0B
:109F00003409FF1FA121104A104B127889005143D8
:109F10001B686D33FF33C918994200D170471A6C22
:109F20001A605A609A60DA601A615A619A61DA615D
:109F30001A625A629A62DA621A635A639A63DA633D
:109F4000A12292009B18E7E71409FF1F3409FF1FA5
:109F500010B503F079FF054B00205B68052B04D991
:109F6000034A5268D20200D4980810BD0010004085
:109F7000FCE100E070B5104B01251B78002B19D0D7
:109F800003F06AFC0D4B1B68FC33DC691E6AFFF7AB
:109F9000DFFFA419A04203D9094B1B68002B07D08F
:109FA00004220025074B1A70074A93690133936115
:109FB00003F002FC280070BD1C09FF1F28B8FF1F1A
:109FC0009809FF1F2309FF1FFC0FFF1F70B5134CDB
:109FD0002368FC335D6A03F03FFCFFF7B9FF104BC9
:109FE0001B78073B012B08D82379012B05D10D4B9A
:109FF0005B689B08984200D9180023680024FC3352
:10A000009B6AEB18834204D2074B1B68A34200D122
:10A01000441B03F0D1FB200070BDC04628B8FF1FD1
:10A020001C09FF1F501000409809FF1F034B10B57B
:10A030001B68002B00D0984710BDC0465C03FF1F73
:10A04000034B10B51B68002B00D0984710BDC046CD
:10A050006003FF1F044B10B51B68002B01D098470D
:10A0600010BD03F0C9FDFBE78002FF1F044B10B5D4
:10A070001B68002B01D0984710BD03F0BDFDFBE726
:10A080008402FF1F044B10B51B68002B01D09847BA
:10A0900010BD03F0B1FDFBE78802FF1F044B10B5B4
:10A0A0001B68002B01D0984710BD03F0A5FDFBE70E
:10A0B0008C02FF1F044B10B51B68002B01D0984782
:10A0C00010BD03F099FDFBE79002FF1F044B10B594
:10A0D0001B68002B01D0984710BD03F08DFDFBE7F6
:10A0E0009402FF1F044B10B51B68002B01D098474A
:10A0F00010BD03F081FDFBE79802FF1F70B503F070
:10A10000A3FE5D4B1860042003F0E6FC03F0CCFCDA
:10A110000400C30702D403F03FFE70BD0022574B7A
:10A120001A60574B1B78012B23D103F0F5FA012855
:10A13000F3D0544C2378042B00D08EE003F0D4FDF0
:10A14000002812D003F078FE582003F0A5FD2378F4
:10A15000002B01D0022323704B4B1B79002B04D022
:10A160002378002B01D103332370032003F0B4FCC8
:10A17000D3E7032B02D103F0A7FAD8E7042B02D1CF
:10A1800003F01AFED3E7022B02D103F04DFECEE717
:10A19000052B02D103F080FAC9E703F095FC050016
:10A1A000012808D1394B1B78053B012B03D820002F
:10A1B000FFF750FFBDE7334B1B78022B01D0052B77
:10A1C00026D1002D20D0022D2CD1314A927BAA43DA
:10A1D00020D12000FFF74AFF2C4B18780128A8D186
:10A1E0006305A6D42A4925224B7B034205D1233A95
:10A1F00013405A42534126331A000B7D934298D99B
:10A20000322003F051FD94E72000FFF75FFF90E755
:10A21000022D07D11D4A1278052A11D12000FFF71F
:10A2200031FFD9E7012D11D1012B03D12000FFF718
:10A2300035FF7EE7062B09D12000FFF73BFF78E7CB
:10A24000012B03D12000FFF74DFFC5E7200003F0ED
:10A25000D3FC022D00D06CE7BEE7032B04D10D4BDD
:10A26000987C03F049FC80E7072B00D07DE70A4B80
:10A27000987B03F0C1FB78E79C09FF1F9809FF1F3B
:10A280009009FF1F2309FF1F28B8FF1F1C09FF1F8C
:10A29000A60BFF1FBC0BFF1FD40BFF1F10B5040044
:10A2A00003F0D2FDA04213D303F0CEFD001B0B4BF5
:10A2B0005A68824200D95860094A136B834200D21F
:10A2C00010630723516B4B431818C008506310BD2F
:10A2D00003F0BAFD034B001BC018E8E75475FF1FDD
:10A2E00028B8FF1FFFFF3F00F0B587B004000D0046
:10A2F000170004A905AA03A81E0003F09DFC0599F8
:10A3000000291EDD134A136823601B041B0E181D51
:10A3100080100193831C99420FDD01308100611888
:10A320000434A14213D81168019B396012680233CA
:10A330003260C0B22B8007B0F0BD074A536E0133C4
:10A34000536600202070386030602880F3E713687F
:10A3500008C4E6E7001C0340FC0FFF1FF0B58FB0F8
:10A36000040003F079FA03F0AFFB05000390012825
:10A3700000D0BBE0B74E3378053B012B00D9B5E0E8
:10A38000062003F0A9FB3378052B00D0C1E1C023E0
:10A39000DB001C409C4212D10E2108A809180DAB0D
:10A3A000AD480CAAFFF7A0FFAC4C0500A68803F04F
:10A3B000FBFB002829DDAA4A536E01335366A94BE3
:10A3C0001A68A94B1B689A4200D89AE1D31AA74A87
:10A3D00011685B181360A64AA64915008C89887C11
:10A3E0006543AB4201D200F014FC0130C0B2272813
:10A3F00000D9252088744889844200D084E103F084
:10A4000083FA0022994B1A6070E0002DD7D00F23F9
:10A410001E400696022E01D9062ED0D1A3885B06D7
:10A42000DA0F0592E27A002B00DB6AE03F2311008D
:10A430009943402965D1904B904C1E78012E00D055
:10A4400099E0200003F0E8FB002305000494039347
:10A4500007280CD82E2242431100894B2131C918FC
:10A460009B180133DB7F039602330491DEB2854FE4
:10A47000804C3B68DB6A1B070AD5A37B012B07D105
:10A48000039B012B9BD10499059803F0EDFC0390ED
:10A49000039B012B93D1A27C7B4B1A60637A0393BD
:10A4A000012B00D16AE000230393069B0020013BAF
:10A4B000DBB2052B01D8754AD05C0E2308AA9B1885
:10A4C0000D9A1B88120E524252B20192704A083BFA
:10A4D000DBB200923100049A03F086FA604A936B73
:10A4E00001339363039B002B00D168E7694B1B6822
:10A4F000002B01D103F050FC03F05EF901200FB0F6
:10A50000F0BD0025A379E7799C46267A617AA07A86
:10A51000614B1C78644526D15C78BC4223D19C7881
:10A52000B44220D1DC788C421DD11C7984421AD1EE
:10A530005C79944217D12E236B4351494F4CCA1872
:10A540000832D27F012A03D1059EEDB204948EE732
:10A550001033581803F0C0F80028F5D1059E039079
:10A560000825049483E701352E33082DD1D1434BC0
:10A57000059E04937BE7059E0396F1E7069B002B5F
:10A5800002D0062B00D08EE73A4AD38A002B55D151
:10A59000424B434A9A80434B1B68002B55D1012202
:10A5A000414B0A201A7003F067FB9E2003F074FBF6
:10A5B000FF2003F0B9F803F047FC2A4B1B68C41ACC
:10A5C000834202D3C41A394BE4183B689C331868A1
:10A5D00076231B1A1C1B03F017FC3B68E0B25A6C75
:10A5E000196CD2B2C9B203F09FFB03F0FDFA1C4A0A
:10A5F000D36B0133D3630122264B1A6003F024F896
:10A6000003F05AF8032003F03FFA1A4F234C072DAA
:10A6100050D82E2045431A482D18280003F05CF826
:10A62000002847D13B78023B012B43D82800204922
:10A6300002F0FAFF4023A288134347E0013B9BB29C
:10A64000D382002B00D02EE7A2E798470028A6D19E
:10A6500029E7C0461C09FF1F9414FF1F9014FF1F19
:10A66000FC0FFF1F9C09FF1FCC09FF1FB809FF1F2C
:10A6700071020000BC0BFF1F1809FF1F9614FF1F7B
:10A68000890EFF1F28B8FF1FD009FF1F1D470311A8
:10A690009C14FF1F9809FF1FAA0EFF1FC8B8FF1FB9
:10A6A000030C0000C009FF1F8C09FF1FFFFF3F00C4
:10A6B000CEB8FF1F02223B78AE4893431CD1043230
:10A6C000AD4903F049F94022A3889343A380059B39
:10A6D000AA48D901A3881943A94BA180DA88090A9D
:10A6E000A2811A895B89E2812382023103F06CF82E
:10A6F0000022A44B1A70D8E60622A34903F02CF9D5
:10A7000098E7A249521861E6001B504303F0CCFAC7
:10A7100077E6062B00D0E9E69D4B1B6808939D4B1E
:10A720001B7C0993C023DB001C409C4212D10E21EC
:10A7300008A809180DAB98480CAAFFF7D5FD904C56
:10A740000700A68803F030FA00281CDD934A536EF8
:10A75000013353668F4A137A002B00D036E2A120D2
:10A760008F4A80001370099B5843089B181803F008
:10A7700003FA8C4A10215378013B53708A4B1878A6
:10A7800003F062F9B2E6002FE4D00E233100194045
:10A79000F2B204911E42DDD10F273A400792A388FE
:10A7A000991129400693CBB20593059A7F4B1A70F5
:10A7B000002A00D116E1E07A3F2302009A43402AA2
:10A7C00000D00FE17A4B1B78012B00D024E2794BAB
:10A7D0001978012900D0B4E0774B694A1D78947943
:10A7E000A54200D0ADE05D78D479A54200D0A8E0C4
:10A7F0009D78147AA54200D0A3E0DD78547AA54272
:10A8000000D09EE01C79927A944200D099E05B7966
:10A81000834200D095E02E22684B04911F78684B4C
:10A820007A4314002134E4189B180133DB7F5F4A1C
:10A8300002331370574BDB7B002B00D037E1049BB6
:10A84000012B87D15F4B21785A78914282D1617870
:10A850009A78914200D07DE7A178DA78914200D0D1
:10A8600078E7E1781A79914200D073E721795A7933
:10A87000914200D06EE762799B799A4200D069E7F5
:10A880000121404B50481970424B00681A7CA123AB
:10A890009B0053433E4A4D4C1268C56AD3184C483E
:10A8A000A2882D0600D424E1069D6D110D4200D131
:10A8B0001FE1195420231343A380464D072F00D9CD
:10A8C0001FE12E267E433E4BF618300002F004FFB7
:10A8D000002800D015E12F4B1B78023B012B00D93B
:10A8E0000FE12900300002F09FFE4023A2881343AD
:10A8F0000322A380384B1A7003F0A6FA374B1B686B
:10A90000834200D319E1C01A2F4B19680B00A03302
:10A910001B684A6C9C469E1876239E1B3300304E63
:10A92000834200D30DE10122224B31001A70234BE8
:10A93000053221481F7003F00FF80022114B1A70E6
:10A9400008E7274C200003F067F90700072800D923
:10A9500070E72E2242431400194B2134E4189B184F
:10A960000133DB7F114A02331370079B012B63D045
:10A97000059B8FE0CEB8FF1F6509FF1FCCB8FF1FF6
:10A980009014FF1F8C09FF1F6B09FF1FFFFF3F0083
:10A990003409FF1FD40BFF1F9414FF1FFC0FFF1F70
:10A9A0001C09FF1F300DFF1F1B09FF1F8D09FF1F13
:10A9B0001809FF1F8B09FF1FE009FF1F8F09FF1FE9
:10A9C000890EFF1F7809FF1F28B8FF1F6C11FF1F9A
:10A9D0000D0200007211FF1F8E09FF1F9C09FF1F4F
:10A9E0009614FF1F00260827A94CAA4B617C9A7970
:10A9F000914217D1A17CDA79914213D1E17C1A7A84
:10AA000091420FD1217D5A7A91420BD1617D9A7A80
:10AA1000914207D1A27DDB7A9A4203D1E37D002BDC
:10AA20003AD0F7B201362E34082EDED1079B9A4C6D
:10AA3000012B3AD1012D38D1984901260D780121F9
:10AA4000944A023D9388EDB2DB111E400B4200D1C7
:10AA5000E5E0537C3F229343402B00D013E1082FC5
:10AA600000D1E7E62E267E438D4BF618300002F02B
:10AA700033FE0390002800D0DCE63000894902F064
:10AA8000DBFF039B0493002800D0D3E60122AA42F7
:10AA90005B41DBB20493CDE6200002F01DFE0028EE
:10AAA000BFD10500BEE7804BCCE00495C2E6012B88
:10AAB0001AD1049B012B00D04CE62100059803F02D
:10AAC000D3F9012800D045E6784B059A1A70227810
:10AAD0005A7062789A70A278DA70E2781A712279E4
:10AAE0005A7162799A71CBE6049B012B00D1C7E6BB
:10AAF00030E60021195420239A4313006C4A9380B6
:10AB0000DBE60222654B1B7893430CD16649043285
:10AB1000280002F021FF4021654A93888B439380EF
:10AB20000122644BE7E606226349280002F014FF85
:10AB300040235F4A91880B43F1E7C01A5F4BC0186E
:10AB4000E2E663467627096CFB1A181AD2B2C9B23C
:10AB5000C0B203F0E9F802F077FD02F0ADFD02F0BB
:10AB600013FF03F041F80122554B56491A602800A3
:10AB7000053202F0F1FE06223100534802F0ECFEED
:10AB80008023A18851489943059BDB011943A1808B
:10AB9000090A023102F018FE4D4B1B78012B04D933
:10ABA000062231004B4802F0D7FE424B1B78032BA4
:10ABB00004D106222900484802F0CEFE02F0CCFD66
:10ABC0000023464A1370464A13708FE4454B1968B8
:10ABD000454B1B68994219D9444CCB1A250044496E
:10ABE00008681B180B609189907B4D43AB4210D3D2
:10ABF0000130C0B2272800D92520907350898142A6
:10AC000001D1FFF7FCFB401A60437FE52B48091890
:10AC1000E2E702F069FF69E408271F4CA5E6012D71
:10AC200000D940E7082F09D02E2078431C4BC018CC
:10AC300002F052FD431E9841C3B20393002E00D18F
:10AC400031E71D4B134A1978107B884200D0F1E59B
:10AC5000507B5978884200D0ECE5907B9978884207
:10AC600000D0E7E5D07BD978884200D0E2E5107CBF
:10AC70001979884200D0DDE5527C5B799A4200D098
:10AC8000D8E5039B06E7012DCCD90396D9E7C0464A
:10AC9000990EFF1F9014FF1F9614FF1FD40BFF1F68
:10ACA000890EFF1F9C14FF1F6509FF1F7809FF1FF6
:10ACB0006C11FF1F8E09FF1F6B09FF1FFFFF3F0075
:10ACC0009809FF1FD50BFF1F7811FF1F7011FF1F81
:10ACD0008D09FF1FDA09FF1FD409FF1F8B09FF1F12
:10ACE0008C09FF1F9C09FF1FCC09FF1F7102000088
:10ACF000B809FF1FF0B587B0040002F0ADFD0720D2
:10AD000002F0EAFE504B1A68504B1B689A421ED95B
:10AD10004F4FD31A3A68D3183B60630514D50E2100
:10AD20004C4805AB04AA6944FFF7DEFA4A4D060019
:10AD3000AC8802F039FF00280CDD484A536E01331D
:10AD4000536600236A46D381FEF77AFC59E04449F2
:10AD50005218DDE7002EF7D00F231C40042CF3D14E
:10AD60006B46DE893F4BA988E8889A894906059C8D
:10AD7000C90F904216D12889DA89904212D16A8986
:10AD80001B8A9A420ED100290FD101E0012938D146
:10AD9000354A24E0001B504302F086FF47E002F0F2
:10ADA000A3FE46E000292CD000213F22EB7A9343FA
:10ADB000402BEBD12D4B1B78012BE7D12A4802F019
:10ADC0002BFF030007281CD82E2043431A002848D5
:10ADD00021321218C0180130C17F0231C9B23300CC
:10ADE000240E24486442083B64B2DBB20090019414
:10ADF000042002F0F9FD194A136C01331364FFF7C4
:10AE000033F8FFF745F81C4A1C4913008C893D684C
:10AE10006343887CAB42C2D80130C0B2272800D936
:10AE20002520887448898442B4D102F06DFD002346
:10AE30003B60134B1B68002B01D102F0ADFF02F009
:10AE4000BBFC012007B0F0BD9C09FF1FCC09FF1F10
:10AE5000B809FF1F9414FF1F9014FF1FFC0FFF1F62
:10AE6000FFFF3F00C8B8FF1F9614FF1F1809FF1F00
:10AE7000890EFF1F9C14FF1F71020000BC0BFF1FF7
:10AE80009809FF1FF0B58BB0040002F0E5FCC02369
:10AE9000DB001C409C424BD10E2404ABE418210083
:10AEA000534809AB08AAFFF71FFA002840D00F2328
:10AEB0000D20504A91880B40014201D0062B37D11A
:10AEC0004D4849060068C90FC06A00075ED54B4867
:10AED000807B01285AD190790290D0790390107A22
:10AEE0000490507A05900020967AD77A444A1578D3
:10AEF0008D4219D15578AC46029DAC4514D1957858
:10AF0000AC46039DAC450FD1D578AC46049DAC450D
:10AF10000AD11579AC46059DAC4505D15579B542A8
:10AF200002D19579BD4231D0013007320828DED1F7
:10AF3000344B1A68344B1B689A4244D9334CD31AA9
:10AF4000226833489B182D4A2360918948438342E5
:10AF500045D3937C0133DBB2272B00D9252393748F
:10AF60002C4B52891878914230D18021490102F04E
:10AF70006BFD00232360284B1B68002B01D102F0DE
:10AF80000BFF02F019FC01200BB0F0BD1B4A013B86
:10AF9000907C224ADBB210600020052B01D8204AA9
:10AFA000D05C099A2388120E524252B201921D4A75
:10AFB000083BDBB200921C4A02F016FD1B4A936B61
:10AFC00001339363B4E71A495218B7E7511A0522BF
:10AFD0004A438021D210490102F046FCC9E7154BD3
:10AFE0001B78012BC7D1907C02F086FDC3E7C046D9
:10AFF0009414FF1F9014FF1F28B8FF1FBC0BFF1FE6
:10B00000510EFF1F9C09FF1FCC09FF1FB809FF1F2E
:10B01000710200001B09FF1F9809FF1FD009FF1FC5
:10B020001D4703119C14FF1F9614FF1FFC0FFF1FE9
:10B03000FFFF3F002309FF1F0722F0B5524C534E7C
:10B04000236889B013409B009B590090DB0B07934A
:10B0500080236268DB021A4202D162681343636094
:10B06000182322684A4F1343236023685B015B0F58
:10B0700018000193B84705000098B8470543012020
:10B08000444B28409847009B9B00F258424B1A6063
:10B09000079B5A1E0792002BFAD180220126D20567
:10B0A00093687642029353693C4F03933C4B196873
:10B0B0004900490804913B49CE678C4679684900AC
:10B0C00049080591C02149005E503749916021210E
:10B0D0005161802212061A60C20703D58022A1683E
:10B0E0000A43A260820704D58022A16852000A4365
:10B0F000A2606E03002D0ED00E22154205D0A1686D
:10B100000D3A10437F320A43A260F022A168520236
:10B1100032400A43A260226801995201520F9142C3
:10B1200006D02168214A0A40019909060A43226093
:10B1300007212268009D0A40954203D022688A4375
:10B140002A4322601A491B4A0C68C001224002436C
:10B150000A600A681848024032430A60029A12499B
:10B1600003980A438021C9058A60012202434A618B
:10B170008022614600201206CA67059A7A60049A06
:10B180001A6009B0F0BDC0463CF00040E07B010011
:10B19000018C0000A98A00007408FF1FFCE100E098
:10B1A00000E100E004E100E001000800FFFFFFF81B
:10B1B00044F000407FFEFFFFFF1FFEFFF0B587B0A9
:10B1C00002F06AF8FEF732FFFEF73AFFCF4BD04CA1
:10B1D0001B78022B4CD1CF4B1B68186A02F0DCFAAB
:10B1E000CD4BCE4ACE4D1A60CE4BCF4A1A60A0222C
:10B1F000CE4B52001A60C54B1878C0B2FFF71CFF47
:10B200002800CB4902F0A8FD0023AB600233AB60FD
:10B21000C84BC9492B600323C848AB6002F09CFDB2
:10B220001022C74BFF201A60802252031A6080222E
:10B2300092031A6002F078FA012002F085FAFA20EF
:10B24000400002F0D1FA582002F026FDBD4802F07D
:10B2500033FD012002F078FB072002F015FC226884
:10B26000B94B1A4084235B001343236007B0F0BD41
:10B2700002F00AFBB54F03900F2002F08DFA3B68F5
:10B280001B0626D43C2002F087FA052002F084FA3F
:10B290009E4BA04E1B78012B00D11CE180223B6805
:10B2A000AB4D134200D0A6E02B68032013432B6064
:10B2B00002F072FA02F0E8FA039B834200D920E11F
:10B2C000C01A1E2330645843A24B3268C018D061A4
:10B2D00086E702F0D9FA80239F4ADB0211680490C6
:10B2E0000B4313602268984B9C4E1A40282313434B
:10B2F0002360032002F050FA0320356802F04CFA74
:10B3000033680320DB03DB0B019302F045FA33685B
:10B31000ED03DB03ED0BDB0B914A0293AB18C22B61
:10B3200030D8019B9B18C22B2CD8029B9B18C22B98
:10B3300028D8019B2A009D4200D21A00019B9D4201
:10B3400000D91D00029B934200D21300029A95423D
:10B3500000D915005D1B122D14D80C223B68142057
:10B3600093433B603B687F4A13403B6002F014FA12
:10B37000082133682268DB038A432260654ADB0BBD
:10B38000536482E7032002F007FA3368DB03DB0B28
:10B39000059302F079FA049B834228D8C01A724BB5
:10B3A00098421FD9FF233D6839682D0A1D406A1C49
:10B3B0001206130C6B4A00200A4013433B600C2317
:10B3C0003A689A43083B13433B6002F0B5FC632D97
:10B3D00001D900233B60062D00D906256348A8400B
:10B3E000FDF7E0FE029B019D0193059B94E7049B02
:10B3F000DB431818D3E700235D4F574AFB608023D7
:10B400001168DB020B43136080222B680320134377
:10B410002B6002F0C1F9FB680133FB6080232A68CE
:10B420005B0213432B60052301932268464B0320E4
:10B430001A40504B1343236002F0AEF90821474BEA
:10B440001A682368D2038B432360736C02394B4321
:10B45000D20B9A420BD89B1A3B2B0AD8216846483C
:10B46000014021602B6803402B60B26422E7D31AAD
:10B47000F2E7019B013BDBB20193002BD5D122689F
:10B480003D490A4022602B680B402B60FB68042B6F
:10B4900007D9BFF34F8F394B394ADA60BFF34F8F6B
:10B4A000FEE780222B68032093432B6002F074F99F
:10B4B0002268254B03201A4028231343236002F0FF
:10B4C0006BF90822254B1B68DB03DB0B73642368D5
:10B4D0009343236098E707222A4D2B681340012BE2
:10B4E00002D10020FFF7A8FDAB68274A02201340D5
:10B4F000AB6002F051F98023AA685B001343AB6094
:10B50000D8E6039BDB431818DBE6C0464A0AFF1F58
:10B510005CF0004028B8FF1F000003400180063D9A
:10B5200014100040BC00034034080000A400034095
:10B5300071020000C3090000FFFF3F002810004017
:10B5400000E100E03075000000FEFEFFC4F00040A6
:10B5500044F000407206000040F0004064F00040FB
:10B5600091FCFFFFFF00FFFFE30C0000E40C000074
:10B570005475FF1F28000100FFFFFEFF00ED00E0F3
:10B580000400FA053CF00040FFFEFFFFF7B5F02293
:10B59000784D52002B6800AF9958774A88331B6862
:10B5A000116083F3088802F017FA744A744B12682A
:10B5B0009A4207D0002002F0BFFB0221714A1368B3
:10B5C0008B431360002002F0B7FBFFF7F7FD6E4BD3
:10B5D0006E4C1878C0B202F0A7F90023A3600233C2
:10B5E000A3606B4B0120236002F0D6F80323A36015
:10B5F00002F04AF9040002F027FC060002F044F9C8
:10B60000644B186001F0DAFD634B1868A04200D368
:10B6100099E0201A8023DB03984201D38002800A3C
:10B620002B68DA6AD20700D490E05C4A040C1268F6
:10B6300080B2544342432402120AA4180320584AF9
:10B64000FC3312689B6857499B1A574A8C4612680C
:10B65000EC649B18554A9A180340554892080A60B2
:10B6600001685B180360042B05D9614601320A604A
:10B6700003221340036063461B684E49E418200010
:10B6800002F092F84C4B4B491B68C3187B607A68F8
:10B69000494B20001A6002F057FB484C2368C81839
:10B6A00044492060884206D97B68434A01331360CD
:10B6B00002F04AFB216002F0AFFB414B1B78002BEC
:10B6C0000ED002F0C1FBE96C3E4B8A1B1B681218BE
:10B6D0009A4248D2591A8919091A3B4802F03CFB90
:10B6E0003A4C237A002B0FD002F0AEFBE96CE368F2
:10B6F0008A1B1218934239D9591A8919091A3448E0
:10B7000002F02AFB002323722B0050331B78002BFE
:10B7100010D002F099FBE96C6B6D8A1B12189A42EB
:10B7200026D2591A8919091A2A4802F015FB002352
:10B7300050352B7002F038F9022002F0CDF902F0FA
:10B7400023FABD46F7BDC043001963E7C401820078
:10B750000234A41A4200A41AC20080301018A408AF
:10B76000400A24186AE7FA218900B6E71A49C6E7B1
:10B770001949D9E728B8FF1F0080FF1F0C0AFF1FD7
:10B78000B641210310000040490AFF1F1410004079
:10B79000C3090000100AFF1F340AFF1F380AFF1FE9
:10B7A000200AFF1F240AFF1F1C0AFF1FC4090000F4
:10B7B000280AFF1F710200006008FF1F2C0AFF1FEC
:10B7C0001C09FF1FE408FF1F00100040740BFF1F3F
:10B7D0003C10004050100040DC050000124B10B53A
:10B7E000984211D97E20114A136803420BD0136886
:10B7F00011685B069B0E013B81435B000B431360AA
:10B800007B3801F0C9FF10BD094B9842FBD87E2060
:10B81000064A136803408342F5D0136811685B063B
:10B820009B0E0133E8E7C0460B20000018F00040F3
:10B83000FC1C000030B50E4A0300126814780D4A53
:10B84000126810680022D1B2002803D05500455B71
:10B85000002D05D10132D1B2A142F4D3012030BD77
:10B8600001208C42FBD9181EF9D000201970F6E790
:10B870000C00FF1F1000FF1F70B50D4D04002B685A
:10B88000DB6A5B0505D50B4B1868C003C00BFFF7DF
:10B89000A5FF0020FFF7CEFF002808D0064B2A683E
:10B8A0001968F0235B002000D15002F05DFA70BDF2
:10B8B00028B8FF1F64F000400080FF1FA122920003
:10B8C0004243064B1B689B18054A9B181878054B8A
:10B8D0001B789842804140427047C0463409FF1FA0
:10B8E000830200001509FF1F024B986801231840CE
:10B8F0007047C04650100040F8B50600012001F026
:10B900004BFF224D224C2B78002B2ED1214B1B6854
:10B910005B692360FFF7E8FF002804D01E4B1D4A37
:10B920005B689B0853651D4B1D4A1B681D481360CF
:10B930001D4A4768116800228F4201D242688A1A64
:10B940001A499B190A601A4AD362A423516A5B03FD
:10B950000B4353622B78002B06D0164A23681178CC
:10B96000022906D10F3B2360F8BD02F0CDF920601B
:10B97000D0E71178012901D1083BF4E71278032AB6
:10B9800001D1053BEFE7033BEDE7C0461C09FF1F74
:10B99000E408FF1F28B8FF1F5010004028F00040A7
:10B9A000340AFF1F28100040180AFF1F1C0AFF1F3F
:10B9B00000F000404A0AFF1F2F4B1A78022A04D1D8
:10B9C00010212E4A1268116208E01A78012AF7D075
:10B9D0001A78032AF4D01A78042AF1D01A78022AA5
:10B9E00010D11B21254A126851601A78022A1ED1F3
:10B9F000224B1A211B681A009C3211602122A033AD
:10BA00001A6070471A78012A03D11C4A1221126861
:10BA1000EAE71A78032A03D1184A0E211268E3E7ED
:10BA20001A78042AE1D1154A0C211268DCE71A7849
:10BA3000012A08D1114B14211B681A009C32116095
:10BA4000A0331822DCE71A78032A08D10B4B102107
:10BA50001B681A009C321160A0331322D0E71B78B8
:10BA6000042BCED1054B0E211B681A009C321160AD
:10BA7000A0331022C4E7C0464A0AFF1F28B8FF1FA0
:10BA800070B5194B002816D000221848184D1033F5
:10BA90005830D15C002905D094002458002C01D0E6
:10BAA00089004C510132102AF3D18021C9058B68DD
:10BAB00093438B6070BD10331A0004000B4958315A
:10BAC000835C002B06D00A4D9B005B191E68850025
:10BAD0006E501C6001301028F2D18023DB059A687B
:10BAE00010439860E6E7C0465475FF1F28B8FF1F53
:10BAF0000000FF1F10B501F08FFE124B124A1A60B2
:10BB0000124B134A1A60134B134A1A60134B144A10
:10BB10001A60144B144A1A60144B154A1A60154BDC
:10BB2000154A1A60154B164A1A60164B164A1A60C7
:10BB3000164B174A1A60174B174A1A60174B184AC8
:10BB40001A6010BDF001FF1FD527FF1FF801FF1F6E
:10BB5000D96103115402FF1F691FFF1F8402FF1FD9
:10BB60000D22FF1FD401FF1FA1690311D001FF1F88
:10BB7000F96903118002FF1FBD2BFF1F8802FF1F01
:10BB80005535FF1FEC01FF1F8920FF1FE401FF1F38
:10BB90007921FF1FF401FF1F2D28FF1F8C02FF1FBB
:10BBA000E536FF1F10B501F0DFFB01F083FB10BD90
:10BBB00070B500281AD1A1250E4BAD001C680E4BA4
:10BBC0006D341B78FF345D432D19AC4210D0202218
:10BBD0000021200001F06CFC2000202200212030F8
:10BBE00001F066FCA1239B00E418EEE7FEF78AF95A
:10BBF00070BDC0463409FF1F1409FF1F10B5FEF7C2
:10BC000081F902F0E9F804000020FFF7D1FF2000DD
:10BC100010BD000010B5040001F0F6FE03230A4A2F
:10BC20001168994363180021043B196013680749A0
:10BC3000043B23600968064B12689961054909684D
:10BC4000D961054B1A6210BDDC08FF1FD808FF1F21
:10BC5000A8B8FF1FD408FF1F5475FF1FF0B585B0AB
:10BC6000040001F0F9FD134F134E3B68134D01938F
:10BC70003368200002932B680393114B9A69DB69A8
:10BC80003A6033600F4B104A1B6A2B60002313701D
:10BC900001F0F2FC019B04003B60029B0A4A336006
:10BCA000039B2B600123137001F086FD200005B07B
:10BCB000F0BDC046D808FF1FD408FF1FDC08FF1FD7
:10BCC000A8B8FF1F5475FF1FD008FF1FF0B585B03F
:10BCD00001F0FAFEA126794B02909B78B6005E43F4
:10BCE000774B1B689E19774B1B68012B03D1764A53
:10BCF000936D0133936502F0A7F8744B744A986012
:10BD0000744B1A600123744A1360744A1360029BD7
:10BD1000043B0193012B30D8002001F005FD02F017
:10BD200093F86F4B34271B780390002B00D0DC373F
:10BD30000025300001F0D8FDA84218D9300001F0EC
:10BD4000CBFF684C28182378984200DB82E0300053
:10BD500001F0C2FF4019C4B23800FFF77FFFC623CD
:10BD6000A40034195B00E050002800D07AE0002DD8
:10BD700000D087E00398FEF791FA5B485B4A0468BD
:10BD80001278E1B2002A0FD1594DE4B22A782B780B
:10BD900052B25BB2002A00DA7CE02D781B046DB24F
:10BDA0002D025B191B1903600B1C502900D950236D
:10BDB000DAB2022A00D202234E4AFF2012784E49FC
:10BDC000DBB2022A00D06FE00A684C4C82434C4838
:10BDD00007782578AF4200D86CE0057800782478A1
:10BDE000023B5B10001B43436D01EB1A10335B11E8
:10BDF00013430B60019B012B14D8424B1B78002B83
:10BE000006D0414B1B78002B02D0002001F08CFCA7
:10BE100083239B00F35C033B012B03D8AF2040003E
:10BE200001F03AFF029B022B0FD1384B1B78013BEC
:10BE3000022B03D9364B1B78022B06D12B4B1B78D8
:10BE4000002B02D16C2001F027FF0122314BDA8256
:10BE500005B0F0BD300001F03FFF24782C1B041921
:10BE6000E4B279E7FF2001F05FFC2B4A0135B35CB7
:10BE7000EDB20133B354C62300225B00E3581A60CD
:10BE80009A8056E7254A264913682D040B401D4326
:10BE900015606FE72A78FF3352B2FF321B0412029B
:10BEA0009A18631ED3187EE70A681E4C82431E4808
:10BEB00007788EE70378DBB29AE7C046300DFF1FA4
:10BEC0003409FF1F9809FF1FFC0FFF1F28B8FF1F31
:10BED000FF3F0000141003400C100340001003400B
:10BEE0001709FF1F1609FF1FB40003408C09FF1F2D
:10BEF000680AFF1F490AFF1F94000340470AFF1FFB
:10BF0000460AFF1FF908FF1F2209FF1F1C09FF1F18
:10BF10002309FF1FBC0BFF1F810200000410034018
:10BF2000FFFF00FF450AFF1F440AFF1FF7B51E0071
:10BF3000030000917B331B7804001500012B01D016
:10BF40000720FEBD01F040FF0028F9D01D4B34272B
:10BF50001B78002B00D0DC37200001F01DFE019083
:10BF60003800FFF77BFE019B9F00E719FC3738671D
:10BF70000028E5D02300A6331B78002B07D02A0029
:10BF800033002000009901F0C7FD0435EDB2A02276
:10BF90009200A35C29020133A354009B386F19431C
:10BFA00081802A003100063001F030FA01223B6F17
:10BFB00020001A6001F0A0FE034A0020A35C013BB0
:10BFC000A354BEE71709FF1F8302000010B5040049
:10BFD00001F042FC7F22043C63781340637001F05F
:10BFE000EBFB10BDF0B5874B87B001919A78A12388
:10BFF0009B005343844AD62517681022FF18362326
:10C00000FF33FB5C6D000400002678599343222B1C
:10C0100000D067E07D4A213B13600660009301F089
:10C02000EBFEE826019B76001880BB5D0193002B98
:10C0300004D0A34200DC7CE00023019300233422DF
:10C04000734D0292EB70734B1B78002B02D0882348
:10C050005B000293D6235B00FB581A68002A03D0CA
:10C060009B88DB439B0734D03823FF33FB5C002BDA
:10C070002FD09B235B00FB5C002B2AD1D133FF33F5
:10C08000FB5CA34225DA0298FFF7E8FD019B020062
:10C090006A339B00FB1898606B461888002A1FD0F3
:10C0A0005D4A013CBB5C0133BB54019B0133DBB2F5
:10C0B0000193A4235B00F95AF818090A023101F030
:10C0C00083FB009B0122013300933B00FE331A8760
:10C0D000EA70E8235B00FB5C002B2CD06B461888D1
:10C0E00007B0F0BD03680093002B00D197E781886B
:10C0F0000430090A023101F067FB7B591E600123FD
:10C100008CE73B00B133AA00FF3398580135818892
:10C110000430090A023101F057FBEBB20193BB5D19
:10C12000AB42EEDC009AE41AD31800930023BB550F
:10C1300084E70025F1E7380001F026FB002843D012
:10C14000002C41DD009B009DE3180493009BC31865
:10C150000393019B009A38009E1A01F09DFC040095
:10C160000298FFF77BFD7619F6B26A36B600BE1963
:10C17000B060002827D0284AA400BB5C3C190133DA
:10C18000BB54FC34206F013581880430090A023128
:10C1900001F01AFB206FFFF719FF0023A02223678D
:10C1A0009200BB5C3800013BBB5401F0CDFC8822FF
:10C1B0009200BB5805930133BB50039B9D4202D0B4
:10C1C000049B9D42C5D10095144BFB5C002B00D114
:10C1D00084E795239B00FB5C002B00D17EE7104B8E
:10C1E000F95A002900D179E70E4ABB5C994202D97D
:10C1F0000133BB5472E700231A213800BB5401F00D
:10C2000023FB6BE7300DFF1F3409FF1F00140340B1
:10C21000E010FF1F1709FF1F820200005A020000F2
:10C22000720200005E020000F8B5A124304BA400A9
:10C230009B78D6275C432F4BE8261B687F001C1990
:10C240000023E25976001360A3552B4B2B4A1D683F
:10C250002B496D056B0D2B4815680A686D0102406E
:10C260001A436D0D0A60ED1A002D09DCE8235B000E
:10C27000E65C35006C35AD006519072E28D9F8BD90
:10C28000E0590368002B07D1043001F015FB0122AF
:10C29000E3592D1A1A60E7E71B4AA35D12789A4208
:10C2A000E2D96A339B00E31898680028DCD0043098
:10C2B00001F002FBA25DFF2113006A339B00E3182B
:10C2C0009B682D1A9B888B43CED00132A255CBE7B9
:10C2D0002868002807D0FFF779FE00230B4A2B605F
:10C2E000A35C013BA3540136F6B20435C5E7C04652
:10C2F000300DFF1F3409FF1F4C1003405010034046
:10C300005C1003400000FF071509FF1F82020000B8
:10C31000F8B5A124114BA4009B785C43104B1B681B
:10C320001C1901F021FCE378002B15D02500260014
:10C330008D35AD36FF35FF362868002809D00768EF
:10C34000002F06D1FFF742FE064A2F60A35C013B97
:10C35000A3540435B542EFD1F8BDC046300DFF1FE0
:10C360003409FF1F810200000300F7B56D33070099
:10C37000FF33A02604001D008D370093FF37B60061
:10C380002868002804D0FFF721FEA35D013BA355D8
:10C39000D6235B00E35808C50193AF42F0D12300D8
:10C3A000D6263D00AD33FF33019376002868002880
:10C3B00005D0FFF70BFE174AA35C013BA354A3591A
:10C3C00008C5019BAB42F1D123002600D133B13621
:10C3D000FF33FF3601933068002805D0FFF7F6FDE4
:10C3E0000D4AA35C013BA3540025019B20C6B34228
:10C3F000F1D1200001F010F929002022009801F06D
:10C4000057F829003800202201F052F8034BE55478
:10C41000F7BDC046810200008202000083020000D6
:10C420008022F0B50125694C694E93B06949D2006C
:10C4300069483570257001F08FFA01F0CDFA01F0EE
:10C44000BBFAFFF757FB3F22644B1F211A700022F3
:10C45000634B1D70634B1A70634B1A688A4311005B
:10C4600009220A431A60602219680A431A6001F01F
:10C4700083F9FFF797FBC121FF205C4B89005A58D5
:10C4800082435A50C52292009958814308004021A6
:10C49000014399509958564808408021C9010143E9
:10C4A000802099509958C0050902090A0143995002
:10C4B000802150480901FFF7ADFBC0214E484901DA
:10C4C00001F0A2FA03232A004C49019500934C483D
:10C4D00001F0CAFB2000443005904A482200049035
:10C4E00020004C300390484821000700283702976D
:10C4F00007003C303837231D08321C31019700906B
:10C50000280001F0C9F946272E22404906A800F06C
:10C510007DFF06AD6F4469782878023501F024F973
:10C52000BD42F8D13A4B3B491A6807201140A0227E
:10C53000D2020A431A608022196892040A431A60E0
:10C540001A6835491140802292030A431A6000F0AC
:10C55000CFF800F0E7F800F0F7F83078C0B2FEF757
:10C560006BFD2078C0B201F0E7F800F069F82B48C5
:10C57000FCF750FF01F0C0F901F09EFA2849294864
:10C5800001F06AFC284B294819782278284C337826
:10C5900000782478DBB20090C9B22648D2B2019468
:10C5A00001F05AFC862208212348520001F054FC75
:10C5B000C023A12286215B01920049001F4801F09F
:10C5C0004BFC01F0A9FB002013B0F0BD0876FF1F63
:10C5D0004A0AFF1F8C5703110000FF1F480AFF1F64
:10C5E000490AFF1F680AFF1FBCF0004000E100E09D
:10C5F000FF00FFFFC876FF1FC87EFF1F4C99FF1F7B
:10C60000C896FF1F589AFF1F8876FF1F801D0311D1
:10C6100014F00040FF7FF8FFFFFF9FFF3B00010881
:10C6200003010300B81C03114B0AFF1F440AFF1F3C
:10C63000450AFF1FCE1C0311FC1C03112C1D031106
:10C6400010B578220021034800F032FF01F05CFAB7
:10C65000002010BDDC9EFF1F10B501F055FA002030
:10C6600010BD10B501F050FA002010BDF0B5002348
:10C6700004000C270A4D3E005E43705DA0420CD0C2
:10C68000002805D1AB195870745559609A60F0BDF7
:10C6900001330A2BEFD10320F9E70720F7E7C04663
:10C6A000DC9EFF1F70B500240C260E4D3200624345
:10C6B000535D83420ED1AD1801F0CEF80922290056
:10C6C000121B72430C31280000F0A0FE01F074F838
:10C6D000002070BD002B02D001340A2CE6D11220BC
:10C6E000F7E7C046DC9EFF1F002070470020704720
:10C6F000010003001F2200209143814201D003006A
:10C700000630014A93677047DC9EFF1F034A0449C5
:10C71000136800200B4013607047C0461CF00040B7
:10C72000FFFFC1FF0548064B01689B6F054A5B048C
:10C730000A401343036000207047C0461CF00040CD
:10C74000DC9EFF1FFFFFC1FF0F207047B4220023B4
:10C75000FF2005499200C85448339342FBD1002280
:10C76000024B1A605A60704763A3FF1F18A3FF1F94
:10C77000094B02005B68002B0BD00020934203D0D2
:10C78000DB68002B01D1054870479342F8D10020A7
:10C79000FAE70348F8E7C04618A3FF1F15C00000DA
:10C7A00013C00000084B5B68002B0AD01A788A423D
:10C7B00002D1036000207047DB68002BF6D10348EC
:10C7C000F9E70348F7E7C04618A3FF1F15C00000AC
:10C7D00013C00000F7B54823040000262C491A00B6
:10C7E000724301928A5C002A19D12A4D019B0127CC
:10C7F000EB18180042300770DA60226B991C1A633C
:10C8000062685A60A21CD28FCA87202A0CD82100E5
:10C81000019810311030401900F0F8FD06E00136A3
:10C820000A2EDCD11C48FEBDA2689A6001F0A4F873
:10C83000482300217343EB181A6B9863D9638A422B
:10C840001CDA52005208019B1448EF184333390098
:10C85000EB1801F0E1F8002818D148235E43AB5DE6
:10C86000AD19237043352B78433423700C4B5A6831
:10C87000002A07D110001F605F60D4E7FA239B00F5
:10C880005A43E0E71A681F60D760CCE70548CAE75B
:10C8900062A3FF1F20A3FF1F14C000005152FF1FFF
:10C8A00018A3FF1F18C00000F0B595B01F001AAB09
:10C8B00016001C880191050000F0CEFF01F0ACFAD3
:10C8C00000F07AFF002D29D0002E29D0002C0BD0AB
:10C8D000202C1DD9200000F0BFFE002822D004909B
:10C8E0002200390000F092FD02AB03969E1C019BD2
:10C8F00002A8F4870E93FFF76DFF041E0AD0F38F92
:10C90000202B02D9049801F05FF8200015B0F0BD8B
:10C9100006A8E5E702AB1B782B70F6E7024CF4E7BC
:10C92000024CF2E7024CF0E711C0000012C0000018
:10C9300005C00000010030B503000025821C002462
:10C94000002042310870186358609860D0879C635B
:10C95000DD63D86030BD000070B50024FF26074DB0
:10C960002800FFF7E7FF2B0043331E702C700134C3
:10C97000A4B248350A2CF3D170BDC04620A3FF1FD6
:10C98000184A70B5536815680400AB4214D1002BE7
:10C9900026D0834217D1002313605360012906D1AA
:10C9A000A31CDB8F202B02D9A06801F00DF820001A
:10C9B000FFF7C0FF002070BD834201D1C368ECE7E0
:10C9C000D868002801D10848F5E7C668A04204D11C
:10C9D000DE60A542E2D11360E0E703003000F0E73B
:10C9E0000248E8E718A3FF1F15C0000013C00000AD
:10C9F00007B5017801A8FFF7D5FE00280DD10198F1
:10CA00004368002B05D0821CD18F202906D980686D
:10CA1000984701210198FFF7B3FF07BD1030F7E7F2
:10CA2000F7B503780500092B03D9FF2303701C48D1
:10CA3000FEBD48245C431B4BE4182000FFF798FE22
:10CA4000002801D01848F3E72300012743331E785C
:10CA50000F21300001F078F93B00C9B28B40300063
:10CA60009BB20F21019300F09FFE104B01991B8890
:10CA70001818C0B201F0A0F800280ED0390020002C
:10CA8000FFF77EFF0028D3D1300000F085FF00289B
:10CA9000D8D1FF2300202B70CAE76060F9E7C046B9
:10CAA00011C0000020A3FF1FFFFF0000C008FF1FF0
:10CAB000F7B50500019109282ED848264643174BA3
:10CAC000F6183000FFF754FE041E1ED1336B002B06
:10CAD0001DDA5B005B08009300F04EFF4821002345
:10CAE00069430E4D02006D18AE6BEF6B9F420CD187
:10CAF00086420AD8921BBB41002B06D100998A427C
:10CB000003D8019B8E19361A1E602000FEBDFA2242
:10CB100092005A430092DFE7014CF6E720A3FF1F83
:10CB200011C0000080233D4A30B51168DB020B4381
:10CB300013603B483B4B3C4C1A6801782240090685
:10CB40000A431A60394A1968394D14782940A405F6
:10CB50002143196060211C68214319600178022972
:10CB600008D00178012905D01178022902D0117866
:10CB7000012904D180211C684900214319600178F2
:10CB8000032902D01178032903D1802118680143B9
:10CB90001960C02118680903014319601178254BF9
:10CBA000002936D124490978032932D18021186817
:10CBB000090401431960214B214922481960B02121
:10CBC000214B49001960214B21490B602149086024
:10CBD000C02021494000086020490B60204B2149BA
:10CBE0001960214B214919601278002A03D1196874
:10CBF00001320A431A60F8221D4B52021B781B03B4
:10CC000013401C4A13431C4A13601C4B1C4A1A60F5
:10CC100030BD19681B480140CCE7C04640F00040D9
:10CC20004C0AFF1F44F00040FFFFFFFC4B0AFF1FB0
:10CC3000FFFF3FFF8C0003404A0AFF1FCC00034068
:10CC4000C00B002000008904D00003407A3E6A0730
:10CC5000D4000340D800034004010340080103400E
:10CC60000C0103400080890480000340CC240000B4
:10CC7000480AFF1F25080000B8000340DC000340FD
:10CC80002FFCA601FFFF7FFFF8B5022304005549E2
:10CC90009843554A554E564D564B55D180278030B6
:10CCA000086011683F033140394311602A78002A37
:10CCB00056D1872212031A604F4B504A50491A60CE
:10CCC0008022504B52011B784F4D9B184F4A504EBB
:10CCD0001360504A504B002C47D150480860032144
:10CCE00014604F4A08002A604E4A1A6001F04CF85E
:10CCF0004D4B3360FF234D4A11680B4313604C4B7F
:10CD00004C4A1A604C4B4D4A1A604D4B4D4A1A60C2
:10CD10004D4B4E4A1A604E4B4E4A1A604E4B4F4A8C
:10CD20001A604F4B4F4A1A604F4B504A1A60504B93
:10CD3000504A1A60E0222B689343012C4CD11A0010
:10CD4000202313432B60F8BD802780207F000F60D5
:10CD50001168C0023140014311602A78002A01D1D4
:10CD6000454AA8E788229202A5E74448012C07D14A
:10CD7000434F0F6043491160CA2292022A601DE0AE
:10CD8000022C0DD1404F0F603E491160CA22920221
:10CD90002A6021001860200000F0F6FF3B4BA8E756
:10CDA000E71E012F11D83A4F27430F6039493A4FF8
:10CDB0000F60CA218902296032491160022118607E
:10CDC000080000F0E1FF354B93E7354F27430F6034
:10CDD00034491160124AD1E7022CB3D11A00402322
:10CDE000AFE7C046E0000340D8000340FFFFE3FF89
:10CDF0004B0AFF1F90000340B000034002000001F7
:10CE000000000340440AFF1F400003409400034019
:10CE100050000340480003404C0003400080067867
:10CE200000280B0007EE7536806608220C000340D0
:10CE300054000340A49C5C54580003404C444342BB
:10CE40005C00034041524C4660000340403A342E9F
:10CE50006400034028007F55680003404F49433D6C
:10CE60006C00034037312B4C7000034046403A348D
:10CE7000740003402E28221C00450400D6BE898E73
:10CE80000180063D555555370280063D80450822F4
:10CE90000080069804000340545A98508055082298
:10CEA00000800642555555008023F0B59C46264F1C
:10CEB0002649274A274C284D284B02281BD160467B
:10CEC00038600868264E06408020000306430E6046
:10CED0002449097800290AD11060E021224A226001
:10CEE000224A2A601A688A43110040222AE08021DF
:10CEF000C9021160F1E766463E600F68184E3E4079
:10CF00008027FF023E430E601649097800290CD1A4
:10CF1000176001280DD0E021154A1043154A206002
:10CF20002A601A688A431A60F0BD80218902116064
:10CF3000EFE7E021104A2260104A2A601A688A430B
:10CF4000110020220A43EEE7E0000340D80003402E
:10CF500090000340000003405000034040000340A5
:10CF6000FFFFE3FF4B0AFF1F0280063D80450822BA
:10CF700000800698805508220180063D80660822C0
:10CF8000F7B5434B434A444C1360444E444B01298C
:10CF90002BD180212568090335402943216041496F
:10CFA000414D19602978414C002926D12178032967
:10CFB00023D180211E680904314319603C493D4E4C
:10CFC00008600E21002031603B4908601530FF30B9
:10CFD00008603A4801902778F8B2072F45D800F04A
:10CFE000BBFD1010443D4144131321680E408021C5
:10CFF000C902314321603249D2E71968314E3140CC
:10D00000DBE7019840000190019F781E0190002FFE
:10D01000FAD12D4800680F6037602C4E000C1E605E
:10D02000A02676000E60CA21890211602849C0B28C
:10D030000E78012E1BD11168DF36B1430E0020217E
:10D04000314311602A78002A1DD12278032A1AD18F
:10D050008022196812040A431A60FEBD0320019F52
:10D060007843D0E701988000CDE70198CBE70978B5
:10D07000E026022904D11168B1430E004021DFE708
:10D080001168B143DDE71A680E490A40E4E7C0467B
:10D090001000030040000340D8000340FFFFE3FFFF
:10D0A0008C0003407F4053004B0AFF1F4A0AFF1FBA
:10D0B000B4000340A0000340A40003401027000078
:10D0C0007F407300FFFF7FFFF400034040401000EB
:10D0D000490AFF1F10B500210220FFF751FF0E4B38
:10D0E0000230C0B2187000214220FFF749FF0B4BFD
:10D0F0000230C0B2187001210220FFF741FF084B37
:10D100000230C0B2187001214220FFF739FF054BF1
:10D110000230C0B2187010BD440AFF1F450AFF1F3D
:10D12000460AFF1F470AFF1F1D4BF0B59C46664687
:10D130001C491D4A0F681D4C1D4B1E4D37403F2892
:10D140001AD18026F6023E430E6011680C40602121
:10D1500014601A688A431A601A68154080222A43AC
:10D16000F8211A60144A4902136800031B0508409D
:10D170001B0D18431060F0BDA026F6023E430E6062
:10D1800011680C4080210901214311606022202197
:10D190001C689443214319601A682A40E0E7C0469E
:10D1A000FF7FF8FF14F00040CC000340FFF3FFFFC7
:10D1B000DC0003407FFCFFFFB800034000220B4B64
:10D1C00010B51A700A4B02321A70FFF7ABFC094B0C
:10D1D0001878C0B2FFF7A8FF074C2078C0B2FFF75D
:10D1E00053FD2078C0B200F09FFB10BD4B0AFF1F1B
:10D1F0004C0AFF1F480AFF1F490AFF1FF8B51E4BC4
:10D2000080261A68002014003440324232D11A6855
:10D210001A4F32431A6001223B68063093433B6049
:10D2200000F0BAFA0122164D2B681E432E603B68AF
:10D230000A2613433B608027BF00124B1B683B420A
:10D2400011D1013EF6B2FF2E09D17E220E4B1C6891
:10D250002B68E40B1440934323432B6005E0082024
:10D2600000F09AFAE9E7002EEFD180222B686008DF
:10D2700093432B60F8BDC046C4F000405CF0004012
:10D2800018F0004068F0004060F0004010B5FFF773
:10D2900021FFFFF7B3FF10BD0023034A1360034AC9
:10D2A0001360034A1360704754F0004040F100409F
:10D2B00044F1004007B50320694600F0A5F968462F
:10D2C00000F002FB07BD000070B50025194E8CB0C0
:10D2D000337802951C000395012B1FD0012002A971
:10D2E00000F092F92C00A84218D1029B1249049335
:10D2F000039B08AA05930193104B04A81B6806938F
:10D300000F4B1B68079300F0AFFB10220D4908A8D4
:10D3100000F0EAF9A84204D1FF23337020000CB0DA
:10D3200070BD01240749321D04A8347000F09CFB35
:10D33000F4E7C046D4B9FF1F1029001108290011D5
:10D340000C2900112029001113B501246946012080
:10D3500000F05AF9034B00940193FFF7B5FF20004A
:10D3600016BDC046BB0B000010B5FFF795FFFFF7D9
:10D37000EBFF002802D0024B984710BDFEE7C046E5
:10D38000E1A200000EB400B50B499CB007910491D6
:10D390000A491DAB05910A4904CB02900690086822
:10D3A00002A9019300F0B0F90023029A13701CB097
:10D3B00008BC03B01847C046FFFFFF7F0802FFFF0D
:10D3C000AC6BFF1F30B5032A0CD903000B439B073E
:10D3D00019D103680C68A34215D1043A0430043112
:10D3E000032AF6D8551E002A0BD0002303E05A1C4E
:10D3F0009D4206D01300C25CCC5CA242F7D0101B49
:10D4000000E0002030BD551EEFE7C046F0B5C6462F
:10D4100000B50F2A41D903270D003E0005430C003B
:10D4200003002E402F423DD11500103D2D09A84686
:10D430002D01AC46844427681D001F6067685F604B
:10D44000A7689F60E7681034DF6010336545F2D14C
:10D4500045460F230C2401352D0149191340451968
:10D46000144222D08C59AC5104369C1B032CF9D8A1
:10D47000043B9B0801339B00ED18C91803231A4095
:10D48000561E002A06D00023CC5C1A00EC5401334F
:10D490009642F9D180BCB846F0BD0500561E002A60
:10D4A000F1D1F7E70500561EEDE71A00F6E7C04692
:10D4B000F0B50500830749D0541E002A45D003006B
:10D4C0000326CAB202E00135013C3ED301332A7083
:10D4D0003342F8D1032C30D9FF220A4015021543FC
:10D4E0002A0415430F2C34D92700103F3F093E0171
:10D4F000B4461E001A0010366644156055609560EB
:10D50000D5601032B242F8D101373F01DB190F2745
:10D510000C22274022403C00002A0ED03E1FB608B5
:10D52000B400A4461A001C1D644420C2A242FCD1CF
:10D5300003240136B6009B193C40002C05D0C9B22B
:10D540001C19197001339C42FBD1F0BD030014007B
:10D55000C0E72700E2E7C046F0B588420AD98B1839
:10D56000984207D2531E002A03D0CA5CC254013B22
:10D57000FBD2F0BD0F2A0BD80500561E002AF8D0AA
:10D580000023CC5C1A00EC5401339642F9D1F0E749
:10D5900003270D003E0005430C0003002E402F42E0
:10D5A0002BD11500103D2D09AC462F013F182568E1
:10D5B0001D6065685D60A5689D60E5681034DD608C
:10D5C0001D001033BD42F2D165460F230C240135F6
:10D5D0002D01491913404519144211D08C59AC51F1
:10D5E00004369C1B032CF9D8043B9B0801339B0099
:10D5F000ED18C91803231A40BFE70500561EBFE700
:10D600001A00BAE70000000001B40248844601BCD9
:10D61000604700BFE1AC000001B40248844601BC91
:10D62000604700BF79D5000001B40248844601BCC0
:10D63000604700BF8F02010001B40248844601BC6C
:10D64000604700BF6D0E010001B40248844601BC72
:10D65000604700BFB110010001B40248844601BC1C
:10D66000604700BF3535011101B40248844601BC52
:10D67000604700BF8937010001B40248844601BCFD
:10D68000604700BF3D4B010001B40248844601BC25
:10D69000604700BFA512010001B40248844601BCE6
:10D6A000604700BFF935010001B40248844601BC5F
:10D6B000604700BFF9A6000001B40248844601BCDF
:10D6C000604700BFE910010001B40248844601BC74
:10D6D000604700BF0934010001B40248844601BC20
:10D6E000604700BFC716010001B40248844601BC70
:10D6F000604700BFCD4C010001B40248844601BC24
:10D70000604700BF8D82000001B40248844601BC1E
:10D71000604700BF196A011101B40248844601BC88
:10D72000604700BF0134010001B40248844601BCD7
:10D73000604700BFED6B010001B40248844601BCA4
:10D74000604700BFFD14011101B40248844601BCCA
:10D75000604700BF6911010001B40248844601BC62
:10D76000604700BF093F010001B40248844601BC84
:10D77000604700BFD915011101B40248844601BCBD
:10D78000604700BF9115011101B40248844601BCF5
:10D79000604700BF71B0000001B40248844601BC7C
:10D7A000604700BF0189000001B40248844601BC03
:10D7B000604700BF51E5021101B40248844601BC34
:10D7C000604700BF9DA9000001B40248844601BC27
:10D7D000604700BFC115010001B40248844601BC86
:10D7E000604700BFE927000001B40248844601BC3D
:10D7F000604700BF8512010001B40248844601BCA5
:10D80000604700BFEDB6000001B40248844601BC89
:10D81000604700BF3D71010001B40248844601BC6D
:10D82000604700BF896D031101B40248844601BC02
:10D83000604700BF4D74010001B40248844601BC3A
:10D84000604700BFC1D8000001B40248844601BC53
:10D85000604700BF53B9000001B40248844601BCD0
:10D86000604700BF75A9000001B40248844601BCAE
:10D87000604700BF8B52010001B40248844601BCDE
:10D88000604700BFF9ED000001B40248844601BCC6
:10D89000604700BF156B010001B40248844601BC1B
:10D8A000604700BF9111021101B40248844601BCD7
:10D8B000604700BF49CC000001B40248844601BC67
:10D8C000604700BFAD0F010001B40248844601BCAF
:10D8D000604700BF05DB011101B40248844601BC6A
:10D8E000604700BFBDF4000001B40248844601BC9B
:10D8F000604700BF1DB0000001B40248844601BC6F
:10D90000604700BF251E011101B40248844601BCD6
:10D91000604700BFF97F000001B40248844601BCA3
:10D92000604700BFDD3F000001B40248844601BCEF
:10D93000604700BF8914010001B40248844601BC5D
:10D94000604700BF5D6B010001B40248844601BC22
:10D95000604700BFE512010001B40248844601BCE3
:10D96000604700BFE94C010001B40248844601BC95
:10D97000604700BF6D40010001B40248844601BC0D
:10D98000604700BF4949010001B40248844601BC18
:10D99000604700BFB912010001B40248844601BCCF
:10D9A000604700BF1147010001B40248844601BC32
:10D9B000604700BF7997000001B40248844601BC6B
:10D9C000604700BFA55D031101B40248844601BC55
:10D9D000604700BF6D35011101B40248844601BCA7
:10D9E000604700BFC9A9000001B40248844601BCD9
:10D9F000604700BF112B000001B40248844601BCFF
:10DA0000604700BFC1F7000001B40248844601BC72
:10DA1000604700BFB54C010001B40248844601BC18
:10DA2000604700BFA946010001B40248844601BC1A
:10DA3000604700BFC56D010001B40248844601BCC7
:10DA4000604700BFCD02010001B40248844601BC1A
:10DA5000604700BF0D52010001B40248844601BC7A
:10DA6000604700BF9D6B010001B40248844601BCC1
:10DA7000604700BFC53F000001B40248844601BCB6
:10DA8000604700BF61B5000001B40248844601BC94
:10DA9000604700BFF90D010001B40248844601BC93
:10DAA000604700BFD9B0000001B40248844601BC01
:10DAB000604700BFBD0B010001B40248844601BCB1
:10DAC000604700BF5517011101B40248844601BCEC
:10DAD000604700BFDD0C010001B40248844601BC70
:10DAE000604700BF1907010001B40248844601BC29
:10DAF000604700BFA5F4000001B40248844601BCA1
:10DB0000604700BF4DF9000001B40248844601BCE3
:10DB1000604700BF21A9000001B40248844601BC4F
:10DB2000604700BF6142000001B40248844601BC66
:10DB3000604700BFE9D4000001B40248844601BC3C
:10DB4000604700BF5944000001B40248844601BC4C
:10DB5000604700BF5976010001B40248844601BC09
:10DB6000604700BF15E5021101B40248844601BCBC
:10DB7000604700BFADFF000001B40248844601BC0D
:10DB8000604700BF61D5000001B40248844601BC73
:10DB9000604700BF8552010001B40248844601BCC1
:10DBA000604700BFE1B0000001B40248844601BCF8
:10DBB000604700BF110C010001B40248844601BC5B
:10DBC000604700BFB544010001B40248844601BC6F
:10DBD000604700BF0972010001B40248844601BCDD
:10DBE000604700BF8540010001B40248844601BC83
:10DBF000604700BFF90C010001B40248844601BC33
:10DC0000604700BFE917010001B40248844601BC27
:10DC1000604700BF1114011101B40248844601BCE1
:10DC2000604700BFCD09010001B40248844601BC31
:10DC3000604700BF516B010001B40248844601BC3B
:10DC4000604700BF250C010001B40248844601BCB6
:10DC5000604700BFC96C010001B40248844601BCA2
:10DC6000604700BF31E8021101B40248844601BC9C
:10DC7000604700BF1970031101B40248844601BC1B
:10DC8000604700BFF113010001B40248844601BCA3
:10DC9000604700BFA96F010001B40248844601BC7F
:10DCA000604700BF7912010001B40248844601BCFC
:10DCB000604700BF6137010001B40248844601BCDF
:10DCC000604700BF8D11010001B40248844601BCC9
:10DCD000604700BF496D010001B40248844601BCA1
:10DCE000604700BFB9B0000001B40248844601BCDF
:10DCF000604700BF01D7000001B40248844601BC60
:10DD0000604700BF8576010001B40248844601BC2B
:10DD1000604700BFBD5C010001B40248844601BCFD
:10DD2000604700BFD50C011101B40248844601BC14
:10DD3000604700BFDD13010001B40248844601BC06
:10DD4000604700BF016C010001B40248844601BC79
:10DD5000604700BF5DE6021101B40248844601BC81
:10DD6000604700BF2D6C010001B40248844601BC2D
:10DD7000604700BFD1AE000001B40248844601BC38
:10DD8000604700BFA1AF000001B40248844601BC57
:10DD9000604700BF2D11010001B40248844601BC58
:10DDA000604700BFDD0A010001B40248844601BC9F
:10DDB000604700BFD94F010001B40248844601BC4E
:10DDC000604700BF0534010001B40248844601BC2D
:10DDD000604700BF5DB0000001B40248844601BC4A
:10DDE000604700BF0966000001B40248844601BCD8
:10DDF000604700BF6D0B010001B40248844601BCBE
:10DE0000604700BFCD0C010001B40248844601BC4C
:10DE1000604700BFC913010001B40248844601BC39
:10DE2000604700BFD544010001B40248844601BCEC
:10DE3000604700BFF535010001B40248844601BCCB
:10DE4000604700BF6DF6000001B40248844601BC83
:10DE5000604700BFC95C010001B40248844601BCB0
:10DE6000604700BF651B011101B40248844601BC34
:10DE7000604700BF49160100FFFF00000405622251
:10DE8000000100011111111111110000000000002A
:10DE900000000000FF000100010000000000000081
:10DEA00000000000141513504859504C5553204D94
:10DEB0005348204C4947485400000000FFFFFFFF33
:10DEC000FFFF00003B0001080F000F000000E80307
:10DED00002000000C0470311010000001C300311C4
:10DEE00002000000DE47031101000000A267FF1FCF
:10DEF00002000000CC47031101000000A09FFF1F9B
:10DF000002000000DE47031101000000A167FF1FAF
:10DF100002000000CA47031101000000B69FFF1F66
:10DF200002000000DE47031101000000A067FF1F90
:10DF300002000000C4470311010000002867FF1F12
:10DF400002020200FF00000002000000C0470311AF
:10DF5000010000003030031102000000DE47031111
:10DF600001000000E867FF1F02000000C247031124
:10DF7000000000000000000002000000DA4703116A
:10DF800003000000CA9FFF1F2000000001040500DD
:10DF90000010010002000000C04703110100000052
:10DFA000B830031102000000DE4703110100000039
:10DFB0002C69FF1F02000000D03003110100000097
:10DFC000C0A2FF1F02000000DE4703110100000095
:10DFD0002B69FF1F02000000CE300311010000007A
:10DFE0003830031102000000DE4703110100000079
:10DFF0002A69FF1F02000000CC300311010000005D
:10E000004530031102000000DE470311010000004B
:10E010002969FF1F02000000CA300311010000003F
:10E020005330031102000000DE470311010000001D
:10E030002869FF1F02000000C83003110100000022
:10E040006530031102000000DE47031101000000EB
:10E050002769FF1F02000000C63003110100000005
:10E060007730031102000000DE47031101000000B9
:10E070002669FF1F02000000C430031101000000E8
:10E080008930031102000000DE4703110100000087
:10E090002569FF1F02000000C230031101000000CB
:10E0A0009B30031102000000DE4703110100000055
:10E0B0002469FF1F02000000C030031101000000AE
:10E0C000EC67FF1F020202020202020202000000CD
:10E0D0000000000000000000000000000000000040
:10E0E0000000000000000000000000000000000030
:10E0F0000000000000000000000000000000000020
:10E10000000000000000000000000000000000000F
:10E1100000000000000000000000000000000000FF
:10E1200000000000000000000000000000000000EF
:10E1300000000000DB745374B5350111A1360111E4
:10E140007935011135360111FFFF0000FF0A020188
:10E1500006030327181516271800112233445566A5
:10E16000778899AABBCCDDEEFF000000001D0201FC
:10E1700006030328180C16281800888888888888C1
:10E18000888800000000000000000000001400006B
:10E19000640000000000000000000000000000001B
:10E1A000BD480111C14B011100000000000000003A
:10E1B0000000000061480111714B011100000000D6
:10E1C0000000000000000000D9470111F94A0111C8
:10E1D0000000000000000000000000006547011181
:10E1E000A14A011100000000000000000000000032
:10E1F0001D470111694A01110000000000000000E4
:10E2000000000000D54601112D4A01110000000058
:10E2100000000000000000008D460111F5490111C9
:10E220000000000000000000000000004546011151
:10E23000BD490111000000000000000000000000C6
:10E2400049490111154901110000000000000000BA
:10E2500000000000F945011175490111000000009E
:10E260000000000000000000C545011171450111CA
:10E270000000000000000000000000008D450111BA
:10E2800055450111FF00000002000000C0470311C6
:10E2900001000000D837031102000000DE4703111F
:10E2A00001000000AB6BFF1F02000000E837031104
:10E2B00002000000CCB7FF1F02000000DE47031180
:10E2C00001000000AA6BFF1F02000000E6370311E7
:10E2D00000000000B8B7FF1F02000000DA4703117A
:10E2E0000300000080B7FF1F02000000C0470311B9
:10E2F00001000000D037031102000000DE470311C7
:10E3000001000000A96BFF1F02000000E2370311AB
:10E3100002000000A4B7FF1F02000000DE47031147
:10E3200001000000A86BFF1F02000000E03703118E
:10E330000000000090B7FF1F02000000DA47031141
:10E340000300000088B7FF1F10041004B06BFF1F0C
:10E35000000000009C6EFF1F046FFF1F6C6FFF1F0B
:10E3600000000000000000000000000000000000AD
:10E37000000000000000000000000000000000009D
:10E38000000000000000000000000000000000008D
:10E39000000000000000000000000000000000007D
:10E3A000000000000000000000000000000000006D
:10E3B000000000000000000000000000000000005D
:10E3C000000000000000000000000000000000004D
:10E3D000000000000000000000000000000000003D
:10E3E000000000000000000000000000000000002D
:10E3F000000000000000000001000000000000001C
:10E400000E33CDAB34126DE6ECDE05000B000000E0
:10E4100000000000000000000000000000000000FC
:10E4200000000000000000000000000000000000EC
:10E4300000000000000000000000000000000000DC
:10E4400000000000000000000000000000000000CC
:10E78000D86FFF1FD86FFF1FE06FFF1FE06FFF1FE5
:10E79000E86FFF1FE86FFF1FF06FFF1FF06FFF1F95
:10E7A000F86FFF1FF86FFF1F0070FF1F0070FF1F43
:10E7B0000870FF1F0870FF1F1070FF1F1070FF1FF1
:10E7C0001870FF1F1870FF1F2070FF1F2070FF1FA1
:10E7D0002870FF1F2870FF1F3070FF1F3070FF1F51
:10E7E0003870FF1F3870FF1F4070FF1F4070FF1F01
:10E7F0004870FF1F4870FF1F5070FF1F5070FF1FB1
:10E800005870FF1F5870FF1F6070FF1F6070FF1F60
:10E810006870FF1F6870FF1F7070FF1F7070FF1F10
:10E820007870FF1F7870FF1F8070FF1F8070FF1FC0
:10E830008870FF1F8870FF1F9070FF1F9070FF1F70
:10E840009870FF1F9870FF1FA070FF1FA070FF1F20
:10E85000A870FF1FA870FF1FB070FF1FB070FF1FD0
:10E86000B870FF1FB870FF1FC070FF1FC070FF1F80
:10E87000C870FF1FC870FF1FD070FF1FD070FF1F30
:10E88000D870FF1FD870FF1FE070FF1FE070FF1FE0
:10E89000E870FF1FE870FF1FF070FF1FF070FF1F90
:10E8A000F870FF1FF870FF1F0071FF1F0071FF1F3E
:10E8B0000871FF1F0871FF1F1071FF1F1071FF1FEC
:10E8C0001871FF1F1871FF1F2071FF1F2071FF1F9C
:10E8D0002871FF1F2871FF1F3071FF1F3071FF1F4C
:10E8E0003871FF1F3871FF1F4071FF1F4071FF1FFC
:10E8F0004871FF1F4871FF1F5071FF1F5071FF1FAC
:10E900005871FF1F5871FF1F6071FF1F6071FF1F5B
:10E910006871FF1F6871FF1F7071FF1F7071FF1F0B
:10E920007871FF1F7871FF1F8071FF1F8071FF1FBB
:10E930008871FF1F8871FF1F9071FF1F9071FF1F6B
:10E940009871FF1F9871FF1FA071FF1FA071FF1F1B
:10E95000A871FF1FA871FF1FB071FF1FB071FF1FCB
:10E96000B871FF1FB871FF1FC071FF1FC071FF1F7B
:10E97000C871FF1FC871FF1FD071FF1FD071FF1F2B
:10E98000D871FF1FD871FF1FE071FF1FE071FF1FDB
:10E99000E871FF1FE871FF1FF071FF1FF071FF1F8B
:10E9A000F871FF1FF871FF1F0072FF1F0072FF1F39
:10E9B0000872FF1F0872FF1F1072FF1F1072FF1FE7
:10E9C0001872FF1F1872FF1F2072FF1F2072FF1F97
:10E9D0002872FF1F2872FF1F3072FF1F3072FF1F47
:10E9E0003872FF1F3872FF1F4072FF1F4072FF1FF7
:10E9F0004872FF1F4872FF1F5072FF1F5072FF1FA7
:10EA00005872FF1F5872FF1F6072FF1F6072FF1F56
:10EA10006872FF1F6872FF1F7072FF1F7072FF1F06
:10EA20007872FF1F7872FF1F8072FF1F8072FF1FB6
:10EA30008872FF1F8872FF1F9072FF1F9072FF1F66
:10EA40009872FF1F9872FF1FA072FF1FA072FF1F16
:10EA5000A872FF1FA872FF1FB072FF1FB072FF1FC6
:10EA6000B872FF1FB872FF1FC072FF1FC072FF1F76
:10EA7000C872FF1FC872FF1FD072FF1FD072FF1F26
:10EA8000D872FF1FD872FF1FE072FF1FE072FF1FD6
:10EA9000E872FF1FE872FF1FF072FF1FF072FF1F86
:10EAA000F872FF1FF872FF1F0073FF1F0073FF1F34
:10EAB0000873FF1F0873FF1F1073FF1F1073FF1FE2
:10EAC0001873FF1F1873FF1F2073FF1F2073FF1F92
:10EAD0002873FF1F2873FF1F3073FF1F3073FF1F42
:10EAE0003873FF1F3873FF1F4073FF1F4073FF1FF2
:10EAF0004873FF1F4873FF1F5073FF1F5073FF1FA2
:10EB00005873FF1F5873FF1F6073FF1F6073FF1F51
:10EB10006873FF1F6873FF1F7073FF1F7073FF1F01
:10EB20007873FF1F7873FF1F8073FF1F8073FF1FB1
:10EB30008873FF1F8873FF1F9073FF1F9073FF1F61
:10EB40009873FF1F9873FF1FA073FF1FA073FF1F11
:10EB5000A873FF1FA873FF1FB073FF1FB073FF1FC1
:10EB6000B873FF1FB873FF1FC073FF1FC073FF1F71
:10EB7000C873FF1FC873FF1FD073FF1FD073FF1F21
:10EB8000FFFFFFFF00000200430000000000000044
:10EB90000000000000000000000000000000000075
:10EBA0000000000000000000430000000000000022
:10EBB0000000000000000000000000000000000055
:10EBC0000000000000000000430000000000000002
:10EBD0000000000000000000000000000000000035
:10EBE00000000000000000004300000000000000E2
:10EBF0000000000000000000000000000000000015
:10EC000000000000000000004300000000000000C1
:10EC100000000000000000000000000000000000F4
:10EC200000000000000000004300000000000000A1
:10EC300000000000000000000000000000000000D4
:10EC40000000000000000000430000000000000081
:10EC500000000000000000000000000000000000B4
:10EC60000000000000000000FDD401119DC2011150
:10EC7000000000001C4603118C4403114C44031196
:10EC80004C4403114C4403114C4403114C440311F4
:10EC90004C4403114C4403114C4403114C440311E4
:10ECA000FFFFFFFFFFFFFFFFFFFFFFFFFFFF000072
:10ECB00001004153434949000000000000000000EA
:10ECC0000000000000000000000000000000000044
:10ECD00000004153434949000000000000000000CB
:10ECE0000000000000000000000000000000000024
:10ECF0000000000002000000FFFF00000200000012
:10ED000001000000227E4B4C1D700000000000003E
:10ED100000000000001000003847031105000B0040
:10ED2000F7000000C1E80111D1E40111F1E801117F
:10ED30002DE30111FF000000B40000280028002886
:10ED40003075A000A000A000A00000080008E001AD
:10ED5000F000100010001000100010001000500013
:10ED60005000500010001000D0070000000000000C
:10ED70000F0001000500307507001000010081FF41
:10ED800000000000FF0000005DF6011155F40111C4
:10ED9000E5F10111FFFFFF000100FF000200FF7F0E
:04EDA000FFFFFF0072
:10EDA80070B50B00094D0178094C0A48002B03D0B7
:10EDB8000948012B00D0094822F052FF280022F010
:10EDC8004FFF2368986807F035F870BDFB2D0311D5
:10EDD800AC6BFF1FAE1D0311F31D03113A1E031187
:10EDE800FF2313B50B4C237026F0CEFE0023012120
:10EDF800094A0093601C22F03BFF084822F030FFCC
