:020000041FFFDC
:1000000000000000E52AFF1F9C30FF1F9830FF1FF3
:10001000AC31FF1F000000000000000000000000E5
:1000200000000000000000000000000000000000D0
:1000300000000000000000000000000000000000C0
:1000400000000000000000000000000000000000B0
:1000500000000000000000000000000000000000A0
:100060000000000000000000000000000000000090
:100070000000000000000000000000000000000080
:100080000000000000000000000000000000000070
:100090000000000000000000000000000000000060
:1000A0000000000000000000000000000000000050
:1000B0000000000000000000000000000000000040
:1000C0000000000000000000000000000000000030
:1000D0000000000000000000000000000000000020
:1000E0000000000000000000000000000000000010
:1000F0000000000000000000000000000000000000
:1001000000000000000000000000000000000000EF
:1001100000000000000000000000000000000000DF
:1001200000000000000000000000000000000000CF
:1001300000000000000000000000000000000000BF
:1001400000000000000000000000000000000000AF
:10015000000000000000000000000000000000009F
:10016000000000000000000000000000000000008F
:10017000000000000000000000000000000000007F
:10018000000000000000000000000000000000006F
:100190001527FF1F8127FF1FE52DFF1F000000000F
:1001A000000000000000000000000000000000004F
:1001B000000000000000000000000000000000003F
:1001C000000000000000000000000000000000002F
:1001D000000000000000000000000000000000001F
:1001E000000000000000000000000000000000000F
:1001F00000000000000000000000000000000000FF
:1002000000000000000000000000000000000000EE
:1002100000000000000000000000000000000000DE
:1002200000000000000000000000000000000000CE
:1002300000000000000000000000000000000000BE
:1002400000000000000000000000000000000000AE
:10025000000000000000000000000000000000009E
:10026000000000000000000000000000000000008E
:10027000000000000000000000000000000000007E
:10028000000000000000000000000000000000006E
:10029000000000000000000000000000000000005E
:1002A000000000000000000000000000000000004E
:1002B000000000000000000000000000000000003E
:1002C000000000000000000000000000000000002E
:1002D000000000000000000000000000000000001E
:1002E000000000000000000000000000000000000E
:1002F00000000000000000000000000000000000FE
:1003000000000000000000000000000000000000ED
:1003100000000000000000000000000000000000DD
:1003200000000000000000000000000000000000CD
:1003300000000000000000000000000000000000BD
:1003400000000000000000000000000000000000AD
:10035000000000000000000000000000000000009D
:10036000000000000000000000000000000000008D
:100370001119FF1F00000000000000000000000035
:10038000000000000000000000000000000000006D
:10039000000000000000000000000000000000005D
:1003A0000000000000000000000000000D22FF1F00
:1003B000000000000000000000000000000000003D
:1003C000000000000000000000000000000000002D
:1003D000000000000000000000000000000000001D
:1003E000000000000000000000000000000000000D
:1003F00000000000000000000000000000000000FD
:0C04000001FF01FF01FF01FF910000005F
:020000041FFFDC
:1018380010FBFF1F4919FF1F81840000F1280000D9
:101848000000000000000000000000000000000090
:101858000000000000000000000000005519FF1FF4
:101868000000000000000000CD8400005919FF1F8F
:101878005B19FF1F5B19FF1F5B19FF1F5B19FF1F18
:101888005B19FF1F5B19FF1F5B19FF1F5B19FF1F08
:101898005B19FF1F5B19FF1F5B19FF1F5B19FF1FF8
:1018A8005B19FF1F5B19FF1F5B19FF1F5B19FF1FE8
:1018B8005B19FF1F5B19FF1F5B19FF1F5B19FF1FD8
:1018C8000000000000000000000000000000000010
:1018D8000000000000000000000000000000000000
:1018E8005B19FF1F000000005B19FF1F5B19FF1F3A
:1018F8000448854600F032F800480047812AFF1F57
:10190800C046C04610FBFF1F0A48483869460160B8
:101918000430F0C044464D4656465F46F0C030BCE1
:10192800F0BCF0C0F0BCF0C044380349034A954607
:10193800084700000008FF1FCD1DFF1F3018FF1FBC
:101948000448804704480047FEE7FEE7FEE7FEE755
:10195800FEE7FEE72D1CFF1FF918FF1F064C0125A7
:10196800064E05E0E36807CC2B430C3C984710343F
:10197800B442F7D3FFF7C0FF3C31FF1F9C31FF1F74
:1019880030B58C180278401C13071B0F01D103785F
:10199800401C120906D10278401C03E005780D703E
:1019A800401C491C5B1EF9D101E00B70491C521EFA
:1019B800FBD1A142E6D3002030BD000003B40148AA
:1019C800019001BD75A9000003B40148019001BD53
:1019D8009DA9000003B40148019001BDE1AC0000DD
:1019E80003B40148019001BD79B3000003B4014874
:1019F800019001BDE53A010003B40148019001BD21
:101A0800156B010003B40148019001BD496D010047
:101A180003B40148019001BD3D71010003B40148C0
:101A2800019001BD0189000003B40148019001BD86
:101A3800DD3F000003B40148019001BDCD4C010019
:101A480003B40148019001BDA96F010003B4014826
:101A5800019001BD4D74010003B40148019001BD1E
:101A6800B30E000003B40148019001BD810E0000CF
:101A780003B40148019001BD21A9000003B4014845
:101A8800019001BDADAE000003B40148019001BD55
:101A9800C56D010003B40148019001BD0972010040
:101AA80003B40148019001BDC9A9000003B401486D
:101AB800019001BD2D11010003B40148019001BD41
:101AC8008914010003B40148019001BDD70E00003C
:101AD80003B40148019001BD810E000070B5374A7A
:101AE8008AB0012800D1364A4301364802AC1D1895
:101AF800287E00280AD084208058C3B2002002E043
:101B080016782654401C9842FADB04E0107D012325
:101B180010786A461072E869002807D0684601768E
:101B280008A807940370E96906A888470AB070BD39
:101B3800FEB5044642012348204D1318805C191D48
:101B480000282AD0187E002827D0987E002824D084
:101B58000878022821D188884A888E68801A82B23B
:101B6800102A01D9102201E0002A02D0012C17D036
:101B78001DE001200870002048808880D86900286E
:101B880006D0114A6D4607CA07C5D969684688470D
:101B9800002C03D0192000F0BBFDFEBD0820FAE799
:101BA800074D04E04888431C4B80305C2870104681
:101BB800521E92B20028F5D1FEBD00000040004040
:101BC800009000405C33FF1F0031FF1F10B5FFF786
:101BD800F5FE0D4804680C4A4117803211600B4924
:101BE8000160002000F016FFFFF7EEFE204610BD52
:101BF80010B50446FFF7E2FE03480460012000F038
:101C080009FFFFF7E1FE10BD00E100E01000100041
:101C1800C106C90E012088400149086070470000CC
:101C280000E100E0024901480860704740787D0102
:101C3800D431FF1F8307FF22DB0E9A408907090E64
:101C48009940002808DB830809489B001B1818687E
:101C580090430843186070470007000F083883084E
:101C680004489B001B18D86990430843D861704703
:101C780000E400E000ED00E002E008C8121F08C11F
:101C8800002AFAD170477047002001E001C1121FF5
:101C9800002AFBD170470000FFB5074601208007E6
:101CA800816883B01C46154602914669394909681E
:101CB800384A4900490801910021C943803211601E
:101CC800354A1268520052080092334A8032116035
:101CD80032498160212141611F20FFF799FFE20706
:101CE80080212F48002A02D042680A434260A20796
:101CF80004D54268FF2301331A434260002D0CD0FB
:101D08002A07520F04D00122144342680A43426052
:101D180041682A07D20B1143416021494039CA6BF7
:101D28005201520FBA4206D0CA6B07231B069A43C8
:101D38003B061A43CA63CA6B5307049A5B0F934264
:101D480005D0CA6B049BD208D2001A43CA63416803
:101D5800FF2281329143E2011143416041680F2221
:101D6800520391436A03114341600C4802990143AD
:101D78008007816001210E4346614100054880309B
:101D8800016005490098086002490198086007B099
:101D9800F0BD000000E100E000E200E00100080002
:101DA80040F000401CB569460120FFF713FE0120F2
:101DB80000900348019000F0D3F901201CBD0000F9
:101DC800BB0B000008B5344F0446F86800250678B8
:101DD800E1202B46122205214002FFF701FE2FA029
:101DE800FFF704FE206B0090214624310EC931A074
:101DF800FFF7FCFD20690090211D0EC938A0FFF7F0
:101E0800F5FD206A0090214614310EC93FA0FFF766
:101E1800EDFDE06B009048A0A36B2268616BFFF7B3
:101E2800E5FD50A0216CFFF7E1FD5248416852A042
:101E3800FFF7DCFD54480178B14202D2B8688A0045
:101E4800855852480E460768FFF7D6FD00903B4676
:101E58002A4631464EA0FFF7C9FD5AA0FFF7C6FD36
:101E6800624E2568354000242919B1420BD8200755
:101E780002D15FA0FFF7BAFD29595FA0FFF7B6FDB1
:101E8800241DFF2CF0DD5E480068002800D0804744
:101E98000DF0E2FAFEE700000000FF1F0A5B486150
:101EA8007264206661756C742068616E646C65721A
:101EB8005D0A000052302D5233202020202020209F
:101EC800203D203078253038782030782530387813
:101ED80020307825303878203078253038780A0056
:101EE80052342D523720202020202020203D203021
:101EF80078253038782030782530387820307825A3
:101F0800303878203078253038780A0052382D5209
:101F18003131202020202020203D203078253038E5
:101F28007820307825303878203078253038782077
:101F38003078253038780A005231322C53502C4CE6
:101F4800522C5043203D2030782530387820307886
:101F5800253038782030782530387820307825308A
:101F680038780A0050535220203D203078253038E8
:101F78007820200000ED00E049435352203D2030F6
:101F880078253038780A0000B408FF1F6008FF1F62
:101F98005B4F53414C5D6964782025642046756E1B
:101FA8006320307825303878207379737469636BCF
:101FB80020253038782072746320253038780A203C
:101FC800000000002D2D2D2D2D2D2D2D2D2D2D64B6
:101FD800756D7020737461636B2D2D2D2D2D2D2D36
:101FE8002D2D2D2D2D2D2D0A00000000FCFFFF1F8B
:101FF8000A5B253038585D0025303878200000000D
:10200800A831FF1F1CB569460320FFF7E3FC6846AB
:1020180000F0A4FC1CBD000010B500F095F8FFF717
:10202800C1FE002802D00248804710BDFEE700002C
:10203800E1A20000FEB50021184D2026174C803D76
:1020480000280091019111D0002302221946352061
:10205800FFF7D8FC20698007FCD400960098411E41
:102068000091FBD228680028FCDA10E00023022245
:1020780019460520FFF7C6FC20698007FCD40096A6
:102088000098411E0091FBD228680028FCDA012143
:1020980002A8FFF7BDFC6846007AFEBD80C8004074
:1020A80038B50446009100290BD00020FFF7C2FF85
:1020B800204007D00520FFF7B1FC0098401E009093
:1020C800F3D1112038BD0000FEB504461948C16B94
:1020D800194D4907C90E6958164AC90B4032009173
:1020E8001168490304D4116801239B041943116042
:1020F800C16B18221143C163C06B104F4001400FE0
:102108000190B84706462046B84706430C49F007F1
:10211800C00F88470346A0000A492858086000985D
:10212800411E0091FBD2324621460198FFF7B4FDCB
:102138000020FEBD00F000400C31FF1F018C0000A4
:10214800A98A00007408FF1F034900204861034959
:10215800086048607047000040F0004040F10040CF
:1021680070B58AB000241E4D04940594287801287F
:1021780006D004A90120FFF72DFC002802D000207A
:102188000AB070BD049800900598019015488168C0
:102198000291C0681349039006AA10316846FFF7F8
:1021A80043FC104E10222036314606A8FFF742FCA9
:1021B800002811D0012028700B4A31466846FFF7E5
:1021C80033FC04940020694605948200401C8C501E
:1021D8000428FADB0120D3E7FF202870CFE70000AE
:1021E8002032FF1F00290011FCF6FF1F10B504481C
:1021F800C16B034A40321068D06000F0B9F910BDD5
:102208000080004010B50F4880680007000F0628BE
:1022180008D008DC02280CD0042803D101210020B2
:10222800FFF75CFC10BD072807D00C28FAD1022163
:10223800F5E70020FFF77CFC10BD02484030C06B7A
:1022480010BD00000040004010B50F48806800072E
:10225800000F062808D008DC02280CD0042803D177
:1022680001210120FFF73AFC10BD072807D00C28F0
:10227800FAD10221F5E70120FFF75AFC10BD024808
:102288004030C06B10BD00000090004038B5FFF72B
:1022980095FB01229207936A08240094002B01D130
:1022A800012090620A480221016000994D1E0095A4
:1022B800FBD2032101600094641E0094FCD200212B
:1022C8000160002B00D19162FFF77EFB38BD000052
:1022D80000C00040012292070121202804D29368FF
:1022E80081400B4393607047402805D253692038DA
:1022F80081400B43536170476028FCD2136A403811
:1023080081400B4313627047F1B584B0FFF75EFC60
:102318000124A4070190A76AFFF750FB2549022072
:10232800086060620120A062FFF74EFB224D286919
:102338008007FCD420200090411E009101D308465C
:10234800FAE71D4E803E30680028FCDA1B49012060
:10235800FFF7A6FE002817D10498FFF771FBC0B25B
:10236800029028698007FCD420200090411E00912B
:1023780001D30846FAE730680028FCDA0F49032041
:10238800FFF78EFE002802D0112005B0F0BDFFF740
:1023980015FB08490020086003216162A062FFF76D
:1023A80013FB002F01D1FFF771FF0198FFF720FC05
:1023B8000298EAE700C0004080C80040FFFFFF071E
:1023C800F7B52C4F84B03878002802D00F2007B01A
:1023D800F0BD01253D70FFF7F9FB0190FFF7EEFA1C
:1023E80025490220086044076062A562FFF7ECFAFD
:1023F800224D28698007FCD420200090411E0091BE
:1024080001D30846FAE71D4E803E30680028FCDA02
:102418001B490120FFF744FE002818D104AB07CB65
:10242800FFF714FBC0B2029028698007FCD4202073
:102438000090411E009101D30846FAE73068002851
:10244800FCDA0F490120FFF72BFE002801D01120EC
:10245800BDE7FFF7B3FA084800250560032060626E
:10246800A562FFF7B1FA0198FFF7C2FB3D70029829
:10247800ADE70000B031FF1F00C0004080C8004039
:10248800FFFFFF0710B5104C2078002801D0072067
:1024980010BDFF2131310C48FFF7DEFA0120207012
:1024A8000A490020086348630949086248620948E4
:1024B80001688022090A0902114301600649500295
:1024C8000860002010BD00002C32FF1F0080004073
:1024D80080F0004010E400E000E100E010B51628AC
:1024E80001D9052010BD0C4B9C6B0122824010467F
:1024F80020439863586B90435863DC6B012907D0DD
:1025080020469043D863186B02431A63002010BD1D
:1025180010462043F6E700000080004070B51628FA
:1025280016D84200104B82189E5CD21854789378C3
:102538000E4D012213280CD2B0004519A868E41AE0
:10254800641CA240521E9A40904399400843A860D8
:1025580070BD6869E41A641CA240521E9A409043F8
:1025680099400843686170BDBB30FF1F00F0004010
:10257800F3B5204D81B0074600240120A040384221
:1025880033D00299084201D0012600E00026E0B2CB
:10259800162810D80C22424351194A68002A03D041
:1025A800002E01D0012105E08A68002A03D0002E00
:1025B80001D1002190470C20604340194168806890
:1025C80000290DD0002806D0002E02D00021E0B24C
:1025D80003E00121FBE7E0B20121FFF77FFF04E000
:1025E800002802D0E0B20021F7E7641C172CC4DBF6
:1025F800FEBD00004832FF1F30B585B014221749D0
:102608006846FFF72FFA00246D46600041194978A3
:10261800285CFFF783FF641CE4B20A2CF5D310484A
:102628004169C20091430522120489184161416938
:102638000122520611434161416903225205914327
:102648000122520589184161072000F00DF800F0B9
:1026580017F800F007F805B030BD00008430FF1F00
:1026680000F000400F2070470449420903D00020C1
:10267800C86006207047C86000207047C031FF1F3F
:102688000548C1691F2252049143044A92895204A1
:102698001143C1610020704700F00040C031FF1FA6
:1026A80010B578210848FFF7D7F9084800780128BD
:1026B80003D0022804D0042804D1FFF7D9F901E097
:1026C800FFF7DCF9002010BD9C33FF1FC031FF1F4E
:1026D80030B50D4C00230C255D43655D854201D165
:1026E800072030BD002D04D05B1C0A2BF3DB032030
:1026F80030BD0C256B431B19F9D000245C70187091
:102708009A602046596030BD9C33FF1F00207047F7
:1027180070B50546164800240078012811D0042811
:102728000FD0FFF74BF90021124A0B4608460C263A
:102738007043165C002E0FD0AE4205D1801843704E
:1027480007E0FFF795F90DE080184078002800D0E1
:10275800641C491C0A29E9DB002C05D0FFF788F91D
:10276800FFF732F9002070BDFFF788F9F8E700009D
:10277800C031FF1F9C33FF1F0020704705490448E4
:102788000860054908600549002048607047000056
:10279800841E0000140AFF1F380AFF1FC0F0004003
:1027A80010B514490A20087013490120087013490C
:1027B800002008701248C16B490949010931C163F9
:1027C800C16B60221143C163FFF7D8FF00F01AF80C
:1027D80000210420FFF72EFA01211420FFF72AFA1E
:1027E80001211520FFF726FA01211720FFF722FA09
:1027F80010BD0000480AFF1F490AFF1F680AFF1F93
:1028080080F0004010B5FFF707FCFFF7FBFB10BD99
:1028180070B540251C4C012802D0002811D027E0B3
:102828006069052140014009C90640186061E069F6
:102838001649084016494018E061E0692843E061FC
:1028480016E000210A20FFF769FE00210B20FFF7A0
:1028580065FEE069032109020843E061E069A843D5
:10286800E06160690B214001400909074018606177
:1028780060690121090708436061A06903214904CF
:102888008843A06170BD000000F000407F00FEFF9B
:1028980080FD010010B50549486000F00BF8044AB6
:1028A80000211320FFF714FF002010BDB031FF1FD7
:1028B800BD28FF1FF8B522480178022901D9042054
:1028C80000E000781F49204B0A68012100249A4241
:1028D80001D1009100E0009400230121FFF7D4F812
:1028E8001B491A4888631A48403004611021416125
:1028F80002268661880317490860BFF34F8FBFF32C
:102908006F8F15480168FF2212049143B2051143E5
:102918000160642000904120FFF7DCFC4020FFF7B5
:10292800D9FC75076E620098411E0091FBD2032006
:102938006862FFF7ABFCAC620020FFF7ABF8F8BDAC
:102948004A0AFF1FB431FF1F6B000208050001FF90
:1029580000C8004080E100E010E400E030B50AC89B
:10296800284A4C071068A40F800880002043CC0830
:10297800E50704241060002D3CD0A0437824A04330
:102988000C06240FE40020430F24E401A0430C05A7
:10299800240FE40120430C0BE5071B4C10602BD0DF
:1029A800A0431A4C20404C02A40D240320430F24BA
:1029B800A405A0434C01240FA40520439C01C90E83
:1029C8006408214303C2990ECC0701218906083AFD
:1029D800002C13D08843D90ECC070D4910600FD0B6
:1029E80088430321090788439900890F0907084389
:1029F800106030BD2043C1E72043D2E70843EAE72F
:102A08000843EEE72432FF1F00080000FF0FC0FF55
:102A180000000008F0B5012189071025134A144B5E
:102A2800144C002810D00020165C002E06D0870019
:102A3800DF59002F02D0B60036193760401C102825
:102A4800F2DB8868A8430FE0145C002C07D0A600CE
:102A5800084C341987002668DE5100262660401C81
:102A68001028F1DB886828438860F0BD1032FF1F0A
:102A78002034FF1F0000FF1F70B5134C0120207089
:102A8800124D2870FFF70CF8124811490160002018
:102A980002468300401CCA50FF28FADDFFF780FE7B
:102AA800FFF7AAFD2078FFF70FFB2878FFF7B0FEA5
:102AB800FFF7F6FD08480068FFF7ECFEFFF7E2FCB9
:102AC80000F0D4FA002070BD4A0AFF1F9C31FF1F96
:102AD8000004FF1FE031FF1F8030FF1F7047000018
:102AE800F8B50A4DA84201D00620F8BD0848FFF7FE
:102AF8000BFC0126002436030F273F036019FFF75C
:102B080003FCA419BC42F9DB0020F8BD0010011138
:102B18000030001130B53948016801229204114390
:102B280001604168032212069143354A13781B0657
:102B3800194341604368032189058B4331490C7867
:102B4800A405234343604368602423434360137808
:102B5800022B08D01378012B05D00B78022B02D05A
:102B68000B78012B04D14368FF24013423434360CD
:102B78001278032A02D00A78032A03D142688023F4
:102B88001A434260426803239B041A4342600B784D
:102B98000122D2051C48002B03D11C4B1B78032BA8
:102BA8001BD0C3689343C360174A194B4032D360A4
:102BB800FF2361331361174C5461174B9361FF2551
:102BC800114B813580335D609C60144CDC60144B84
:102BD80003600978002903D006E0C3681343E2E7DD
:102BE80001680123194301600E4909780E4BC90693
:102BF800C90BC91881630D48D06130BD40F0004051
:102C08004C0AFF1F4B0AFF1F800003404A0AFF1FA0
:102C1800C00B00207A3E6A070000890400808904FE
:102C2800CC240000480AFF1F250800002FFCA6013D
:102C3800F8B505004C4A4D484D4B4E4C4E4936D0E0
:102C4800022D34D08615B702066286699E43F319B1
:102C580083612078002835D0112040030861474857
:102C68000863474800780122120380184861424EE1
:102C7800414C444B803E403C002D28D06521424ABF
:102C8800C9024248012D2FD0022D32D0032D5BD02E
:102C9800042D59D03E49691831603E49A16023602E
:102CA800E06002210846FEF701FF3B482CE0802641
:102CB800066286699E430123DB04F318836120784A
:102CC800002801D00A61CAE787200003C6E7334815
:102CD80030600020A06023603148E060032108468E
:102CE800FEF7E4FE2F480FE02F4B3360A26021600F
:102CF800D6E72D4B5B1C3360A2602160E0600221A7
:102D08000846FEF7D3FE29482061F068FF210843F2
:102D1800F060274860612748A0612748E06127489C
:102D28002062274860622748A0622748E062274857
:102D3800206327486063E020012D0DD02168022D13
:102D48000ED081432160F8BD224BEB183360224B33
:102D580073602160A260A3E7216881432031F1E715
:102D680081434031EEE7000000450400C000034005
:102D780000001C004B0AFF1F8000034002000001F6
:102D8800440AFF1F00280B0055555537D6BE898EBB
:102D98000080064255555500805508220080067867
:102DA80007EE7536806608220180063D80450822B8
:102DB800A49C5C544C44434241524C46403A342E05
:102DC80028007F554F49433D37312B4C46403A3414
:102DD8002E28221C00800698545A985010B50A498B
:102DE80000200870094902200870FFF793FE084880
:102DF800007800F011F8074C2078FFF719FF2078C9
:102E0800FEF75AFE10BD00004B0AFF1F4C0AFF1FB9
:102E1800480AFF1F490AFF1FF0B51A4A032307256E
:102E2800D60019499B026024ED0157693F281AD042
:102E3800B74305263604BE195661CA689A43CB14AF
:102E4800D218CA60CA69A2432032CA61CA69AA43B1
:102E5800CA610D4940398A6BC0061205120DC00BB4
:102E680002438A63F0BDB7430126B604BE19566112
:102E7800CA689A43CA60CA69A243CA61CA69AA43AE
:102E88008032E5E700F00040C0000340F0B50025BF
:102E980089B007462E46012421E039482101081847
:102EA800102205A900F0C4F836480599079A0818B1
:102EB800354900F0BDF834490020079A0CF0E6FACD
:102EC800089981420AD0002000902D4804226946C2
:102ED800103800F0C3F80A2009B0F0BD641CBC42E9
:102EE800DBD32A48FFF7FCFD002428E02448210111
:102EF8000818102205A900F09BF822480599079A9E
:102F08000818214900F094F80698000E11282DD0D1
:102F18001E481D492818079A00F0A0F8002C08DD63
:102F28001B4930014018102205A9059500F096F8B4
:102F3800761C07982D1D40198508AD00641CBC42FD
:102F4800D4D30024601E089011480694102205A9C5
:102F580005960794103800F081F80948042269465C
:102F68001038009400F07AF80020B5E70799069821
:102F780000F04EF80449079A069800F06FF8DDE76C
:102F8800105005110060051100B3FF1F001001115A
:102F98001030001130B58FB0002468460894194DE0
:102FA800047104226946284600F042F81648016870
:102FB8006846FEF787FD002802D004200FB030BD18
:102FC8001048042208A9001D00F032F80898801E55
:102FD8001F280AD20B48102209A9103000F028F83F
:102FE8000A980A49000C884207D004220DA92846ED
:102FF8000D9400F033F80A20E0E70898FFF746FF41
:103008000020DBE700500511A031FF1FFFFF000083
:1030180070B5040B451824030126360303E0204647
:10302800FFF772F9A419AC42F9D3002070BD000073
:1030380070B5094D02230E462B605C0763620121BF
:10304800A16201463046FEF743FD002028600321B7
:103058006162A06270BD000000C0004010B5830727
:1030680001D00C2010BDFFF7ABF910BDFFF792FFA0
:103078000CF016FBFEE700003B000108020003000D
:10308800050206020703080309030A000C030D03DF
:103098000000000000000000000000000001020322
:1030A80007090A0B0E0F101112141718191A1B1FF3
:1030B800202122000201000504000807000B0A0075
:1030C8001716001D1C010201010504010E0D011156
:1030D80010011413011716011A19020201020B0A32
:1030E800020E0D0211100214130217160305040331
:1030F8000807030B0A030E0D030000000000000080
:10310800000000000048E8010048E8010024F4003D
:10311800006CDC020090D00300D8B80500127A00D9
:1031280000093D0040544146000000004F5441460C
:10313800000000000004FF1F2C32FF1F0C000000DD
:10314800801CFF1F2C32FF1F0004FF1F000400001B
:103158008819FF1F00B3FF1F2C32FF1F84000000D7
:10316800801CFF1F2C32FF1F00B3FF1F1040000000
:103178008819FF1F2C32FF1F2C32FF1F600300002D
:10318800901CFF1FFCF6FF1FFCF6FF1F1404000035
:10319800901CFF1F000000003431FF1F2C31FF1F5F
:1031A8000000000000000000000000003B000108D3
:1031B8000000000000000000010000008821280035
:1031C8005902E001000000000000000040787D0185
:1031D80000000202000000000000000000000000E3
:1031E800000000000000000000000000FFFF0000D9
:1031F80000000000000000000000000001000000C6
:103208000000000000000000227E4B4C1D700000F2
:1032180000000000000000000000000000000000A6
:0432280000000000A2
:020000041FFFDC
:10B3000001FF01FF01FF01FF01FF01FF01FF01FF3D
:10B3100001FF01FF01FF01FF01FF01FF01FF01FF2D
:10B3200001FF01FF01FF01FF01FF01FF01FF01FF1D
:10B3300001FF01FF01FF01FF01FF01FF01FF01FF0D
:10B3400001FF01FF01FF01FF01FF01FF01FF01FFFD
:10B3500001FF01FF01FF01FF01FF01FF01FF01FFED
:10B3600001FF01FF01FF01FF01FF01FF01FF01FFDD
:10B3700001FF01FF01FF01FF01FF01FF01FF01FFCD
:04B380000191000037
:020000041FFFDC
:10F4000003B40148019001BD3953010003B4014820
:10F41000019001BD1D530100FEB504460D46164680
:10F420001F462B4622460349034801970096FFF7E3
:10F43000E7FFFEBD30280011FCF6FF1FFEB50446B5
:10F440000D4616461F462B462246034903480197A0
:10F450000096FFF7DBFFFEBD30280011FCF6FF1F12
:10F4600072B606480168491C016005480421016024
:10F4700000214160012080074160FEE77808FF1FFE
:10F48000C0F0004010B5F2F76FFE002800D110BDAB
:10F490000120FCE770B515E003070D78DC0E744B16
:10F4A000060928071C5BC00E185A66407040040706
:10F4B000E40E1E5B040928094000185A744060409D
:10F4C000491C521E002AE7D170BDF0B501239B07ED
:10F4D0009D6A04460C431443A40701D00C20F0BDE0
:10F4E000644C654E0C19B44201D31020F0BD634E3C
:10F4F000002D04D1022434605C6201249C6200244B
:10F5000002E00F59241D80C09442FAD3002D04D18B
:10F51000002030600321596298620020F0BDF0B5F0
:10F5200089B000205349049007900422494204A85E
:10F53000FFF7CBFF0498411C62D020280DD800288B
:10F540000BD004224E4907A8FFF7BFFF07980228F7
:10F5500006D0012806D0002804D0682009B0F0BDEC
:10F56000484E00E0484EFFF78DFF08906420009061
:10F57000411E009101D30846FAE73D480422434961
:10F58000001FFFF7A2FF3A4C0125183C6AE03C48F7
:10F590002F01001F3918364804221838FFF795FF4D
:10F5A00037480422391832481438FFF78EFF3448A0
:10F5B0000422001D39182E481038FFF786FF304806
:10F5C0000422083039182A480C38FFF77EFF2068DB
:10F5D000411C15D06368591C12D0A1684A1C0FD079
:10F5E000E268521C0CD0834213D1089A002A09D039
:10F5F0001F4B0022083BFFF70FFF2169E0682EE058
:10F600006720ABE7224A636993422AD00A46014643
:10F610001FE0204F1A0CBA4223D0089A002A0CD0BF
:10F62000134A80190C3AFFF709FF002819D01A492C
:10F6300002204863FFF714FF13E080190A460146D1
:10F640001846FFF742FF12486169814209D0A2685B
:10F6500061680020FFF71EFF2061A18989B2814205
:10F66000E5D16D1C0498401C854290D3002075E7BD
:10F67000DCF6FF1F00D0FFEEFFCF070000C0004008
:10F6800004300011CB08AF3200100111F03F00111F
:10F690005A5AA5A5FFFF000000F00040014841684C
:10F6A000084700003818FF1F10B5F2F78BF9FFF775
:10F6B00036FF002801D1FFF7F1FFF2F789F90020AA
:10F6C00010BD00000000000000000000000000006D
:10F6D000000000000000000000000000000001CC5D
:10F6E00001D8001401F0003C002801E401A0006CE6
:0CF6F000007801B40050019C0188004427
:040000051FFF18F9C8
:00000001FF
