:020000041FFFDC
:081838000043FF1FB537FF1F3D
:1018400002000300050206020703080309030A0059
:101850000C030D030003010304030B000E030F032D
:1018600010031103120313031403150316030000DE
:10187000000201000504000807000B0A001716000B
:101880001D1C010201010504010E0D0111100114BE
:1018900013011716011A19020201020B0A020E0D9A
:1018A000021110021413021716030504030807039C
:1018B0000B0A030E0D0000000001020307090A0BCA
:1018C0000E0F101112141718191A1B1F20212200B5
:1018D000000D000E00100011001300140107010894
:1018E000010A010B011C011D020402050207020886
:1018F0000219021A021C021D030103020317000051
:101900003E34FF1F5034FF1F5034FF1F4434FF1F6D
:101910005034FF1F5034FF1F5034FF1F5034FF1F3F
:101920005034FF1F5034FF1F5034FF1F3A34FF1F45
:101930005034FF1F1E34FF1F5034FF1F5034FF1F51
:101940004A34FF1F2837FF1FAA36FF1FAA36FF1F82
:10195000AA36FF1FAA36FF1FAA36FF1FAA36FF1F8F
:10196000AA36FF1FAA36FF1FAA36FF1FAA36FF1F7F
:10197000AA36FF1FAA36FF1FAA36FF1FAA36FF1F6F
:10198000AA36FF1FAA36FF1FAA36FF1FAA36FF1F5F
:10199000AA36FF1FAA36FF1FAA36FF1FAA36FF1F4F
:1019A0008636FF1FAA36FF1FAA36FF1FAA36FF1F63
:1019B000AA36FF1FAA36FF1FAA36FF1FAA36FF1F2F
:1019C000AA36FF1FAA36FF1FAA36FF1F1A35FF1FB0
:1019D000A236FF1FAA36FF1FAA36FF1FAA36FF1F17
:1019E000AA36FF1FA236FF1FAA36FF1FAA36FF1F07
:1019F000AA36FF1FAA36FF1F2837FF1FE436FF1F36
:101A00006236FF1FAA36FF1FAA36FF1F8A35FF1F47
:101A1000AA36FF1FE036FF1FAA36FF1FAA36FF1F98
:101A20001635FF1F0506FFFF00C201000100000080
:041A300000000000B2
:101A3400706172745F6E756D3A25642C666C6164B6
:101A440064723A25782C73697A653A25782C637226
:101A5400633A2578200A0000534F494600000000ED
:101A640040544146000000004F544146000000002D
:101A7400212120666C6173682042757379202121CD
:101A8400000000005B434849505F4D4144445220EC
:101A9400454D5054595D0A005B434849505F4D41E0
:101AA40044445220494E56414C49445D0A000000CA
:101AB4005B434849505F4D414444522056414C4990
:101AC400445D0A0025303278000000005B43484939
:101AD400505F4D4144445220554E434845434B4585
:101AE400445D0A0030313233343536373839616277
:101AF400636465666768696A6B6C6D6E6F7071723A
:101B0400737475767778797A000000003031323357
:101B14003435363738394142434445464748494AC3
:101B24004B4C4D4E4F505152535455565758595A89
:101B3400000000003C4E554C4C3E000025303278ED
:021B440020007F
:101B480070B588B0421E531E9A415242174B1A4034
:101B5800174B9C4662444401164B1B191B7E002BF5
:101B68000FD08423D358DEB2FF2425001D401C4229
:101B78000CD004AB5D1914781C700133AB42FAD158
:101B880004E0137D127804AB1A7001264001094B5A
:101B98001818C369002B07D06A46117104AA02926B
:101BA8006A46167301A8984708B070BD00B0FFFFD9
:101BB80000900040C055FF1F70B584B0040042017A
:101BC8002C4BD35C002B36D02A4B9B181B7E002B4A
:101BD80031D0284B9B189B7E002B2CD0254B9B1873
:101BE8001B79022B27D1234B9B181889D988421AB5
:101BF80092B2131C102A00D910239BB288421CD021
:101C0800661E721E964176421B4A16401B4A94462F
:101C18006644013B9BB26101164A5218D56814000C
:101C2800063417482288511C2180AA5C3270013B77
:101C38009BB28342F6D104B070BD62010D4B9B1874
:101C480001221A710022DA801A81DB69002B07D081
:101C5800033269460A71002202920A7301A8984762
:101C6800002C03D1082001F008FAE4E7192001F05C
:101C780004FAE0E7C055FF1F00B0FFFF00900040E6
:101C8800FFFF000000B3FF1F6C1AFF1F641AFF1F3D
:101C98005C1AFF1F3B0001080205090E1402000030
:101CA800FFFF00000200000001000000227E00008B
:101CB8001D7000000000000000000000001000007F
:101CC8000010000030B58DB0484B03221A70484B05
:101CD800023A1A7002F0C8F8464B474A1A600023C5
:101CE800444800218022D2000468E1500433934222
:101CF800FAD1424B0F221A70414B0E3A1A70414BDF
:101D080000221A70404A13681F218B4316390B436F
:101D18001360136857310B43136000F037FE01F06E
:101D280029FF3A4BC12189005A58FF2082435A5053
:101D3800C522920099588143BF3801439950995858
:101D4800334808408021C901014399509958090234
:101D5800090A8020C005014399506C462D4B22008A
:101D680023CB23C223CB23C223CB23C203CB03C25F
:101D78001B8813802E256D446178207801F052F875
:101D88000234A542F8D1244B1A6824491140A022F4
:101D9800D2020A431A601968802292040A431A6020
:101DA8001A681F491140802292030A431A600720CB
:101DB80001F08CF901F0A0F901F0B2F90B4B187899
:101DC800C0B201F0E5FD0A4B1878C0B200F07EFD04
:101DD80001F042F9134800F00BFF01F00FF901F090
:101DE800BFFC00F044F800200DB030BD4A0AFF1FC8
:101DF800A846FF1FE857FF1F0004FF1F480AFF1FE0
:101E0800490AFF1F680AFF1FBCF0004000E100E01C
:101E1800FF00FFFF4018FF1F14F00040FF7FF8FF8E
:101E2800FFFF9FFF3B00010870B50400094B062027
:101E38009C4200D070BD084800F06AFF074D2000A2
:101E480000F066FF80235B019C466444AC42F6D1F7
:101E58000020EFE70010011100300011000002110E
:101E680082B0019001984168084702B0704710B5E8
:101E780000F024F902F0E8FBFEE710B5830704D16F
:101E880000F0C6FEFF23184010BD0C20FCE7000040
:101E980070B503000800094D022129608024E4057B
:101EA80061620139A162190001F088FC00232B60EE
:101EB80003226262A362002070BDC04600C00040D9
:101EC80070B54518000B0403A54208D9200000F09E
:101ED8001FFF80235B019C466444A542F6D800207E
:101EE80070BD0000F0B5D6464F464646C0B588B02E
:101EF80006003148FFF798FF002E44D0B046002670
:101F0800002500242D4FB946BA4613E0069B0193DD
:101F18001900FFF7D5FF069A059853461968FFF789
:101F2800ACFF04E0069B04335D1903239D43013491
:101F3800444528D02001224B9C466044102204A925
:101F4800FFF7A6FF069B019304981E4B9C4660442E
:101F5800019A3968FFF79CFF0598030E112BD5D01D
:101F6800069A4B461968144BE818FFF786FF002CB1
:101F7800D8DD0495144BF0180001102204A9FFF7CE
:101F88007CFF0136CEE704960123059300240694CE
:101F9800023B0793102204A90C48FFF76EFF039435
:101FA800042203A90A48FFF768FF002008B0E0BC34
:101FB800BA46B146A846F0BD001001118C1CFF1F9F
:101FC80010500511006005110103100100300011C7
:101FD80000500511F0B5CE46474680B58DB00600D5
:101FE8002F4800F095FE012E41D92E4D01242E4F89
:101FF8002E4B9846B94603E001341035B44236D02A
:10200800102208A92800FFF743FF0A9B03931A022E
:10201800120A0A920898264B9C4660443968FFF7D2
:1020280037FF0A9B0393099B04930B9B059300932B
:10203800039B049A2100404601F0B8F90998030E61
:10204800112BD9D10A9B03931900FFF739FF0A9A7C
:1020580009984B461968FFF710FF012CCCD10023D3
:102068000893102208A91348FFF707FFC4E70123C4
:1020780008930233099300240A94043B0B9310221B
:1020880008A90748FFF7F9FE0794042207A90A4898
:10209800FFF7F3FE00200DB0C0BCB946B046F0BD56
:1020A80000300011205005118C1CFF1F341AFF1F2F
:1020B800006005111030001100500511F0B5DE4622
:1020C80057464E464546E0B597B0002315930DACEC
:1020D8002371042221006548FFF7DAFE644B596832
:1020E800200001F011FC804600286CD1042215A9BB
:1020F8006048FFF7CDFE159B023B1E2B1FD809AC8D
:10210800102221005C48FFF7C3FEE3881B045B4AEA
:1021180093421ED1159B9B4601F030FD0600042218
:1021280002A95748FFF7B4FE5B46012B47D9D946A9
:1021380001230193012400254D4FBA465FE0002397
:102148000593042205A94948FFF797FE0A239846F4
:102158003BE000230593042205A94448FFF78DFEC0
:102168000A23984631E000230493042204A93F4837
:10217800FFF783FE29E00598424B9C4660442B00FC
:1021880008AA079901F0FEFC002801D1019533E067
:1021980000230493042204A93448FFF76EFE14E0D8
:1021A80000230493042204A93048FFF766FE0CE0DC
:1021B800019B002B03D15846FFF794FE05E05846D3
:1021C800FFF708FF01E004239846404617B0F0BC2B
:1021D800BB46B246A946A046F0BD002ECBD101951C
:1021E800079B00931A0053461968280002F0A8F8C4
:1021F8000390089B9842D3D10134A145D8D00395C8
:1022080020011D4B9C466044102205A9FFF740FEA3
:10221800079A1D4B9A42A6D805981A4B9C466044CB
:102228003968FFF735FE05ABDB881B04174A934274
:10223800D3D0002ED4D0164B029A9A42DCD0079BFA
:10224800009305980F4B9C46604403AB2A00009905
:1022580001F0B0FC089B039A9342CDD0002304936D
:10226800042204A90148FFF708FEAEE70050051153
:102278008C1CFF1F04500511105005110000FFFFB2
:10228800F03F001100600511104000000000FF1F22
:102298005A5AA5A510B5104B9B68DAB20F210B400E
:1022A800072B15D0120708D4022B0DD0042B0AD106
:1022B80001210020FFF744FC05E00C2B03D102218B
:1022C8000020FFF73DFC10BD0020FFF775FCFAE782
:1022D800014BDB6FF7E7C0460040004010B5104BDC
:1022E8009B68DAB20F210B40072B15D0120708D4D0
:1022F800022B0DD0042B0AD101210120FFF720FC6D
:1023080005E00C2B03D102210120FFF719FC10BDB9
:102318000120FFF751FCFAE7014BDB6FF7E7C046F6
:102328000090004010B50400012824D080221D4BE5
:102338008021090199501C4B1A7300221A711A70D6
:102348001A731A725A60082000F07AFA082000F00E
:1023580057FA002C22D1154B00221A606001144C48
:102368002418207C002100F049FD607C002100F049
:1023780045FD002010BD80220A4B8021890299501A
:102388000C4B1A7300221A711A701A731A725A6057
:10239800192000F055FA192000F032FA064B0022F5
:1023A8001A60DBE700E100E000400040AC03FF1FDB
:1023B800C055FF1F00900040C403FF1FF8B5DE465C
:1023C80057464E464546E0B5040001F00DFD0700AE
:1023D8002000FFF7A7FF012C51D005239846013BA9
:1023E80099460B2604339A46604D6201604B9B1850
:1023F8001B7CFF2B05D15E4B9B185B7CFF2B00D110
:10240800B2E0504600F0DCF9504600F019FA01211C
:10241800122000F007FD0121122000F003FD4946BB
:10242800122000F0CDFD4146122000F0C9FD002326
:102438009B462B7363014E4A92469A443811534681
:102448005B695F08C0195346596901F037FC5B4660
:102458002B6180332B73030ADBB22B71C0B2287057
:102468005346DB7E002B1AD0404B9D4210D0404A89
:102478004123D35C002B0FD01B232B7311E00923BE
:102488009846013B9946112611339A46394DACE7D7
:10249800374A4023D35CEDE70B232B7301E003237A
:1024A8002B736201324B9B181B7E002B55D0872360
:1024B8002B7201236B6062012D4B9B181B7E002B36
:1024C80003D06B68802213436B606201284B9B1812
:1024D8009B7E002B03D06B68022213436B60630161
:1024E800234DED18287C012100F09CFC687C01211B
:1024F80000F098FC287C494600F062FD687C414663
:1025080000F05EFD0021122000F078FC032112206B
:1025180000F088FC002C23D1174B184A1A60B30826
:102528009B00174A94466344C024A4001A59F0B289
:1025380003210E40F600FC31B1408A438021B140AE
:102548000A431A5101238340624613600020F0BCFD
:10255800BB46B246A946A046F8BD00232B72A8E7A1
:10256800084B094A1A60DAE70620F0E70040004005
:10257800C055FF1F00900040AC03FF1F9D22FF1FA6
:1025880000E100E0C403FF1FE522FF1F10B5012092
:10259800FFF714FF10BD10B50020FFF70FFF10BDA7
:1025A80070B584B0009001910292039308AB1D7836
:1025B8006A01184BD35C002B27D16B465B7A002B42
:1025C80025D1144EB41820220021200001F048F92A
:1025D80010346B46220013CB13C21B68136028000B
:1025E800FFF7ECFE6B0101229A55002D06D10A4A2D
:1025F8000021082000F046FD002009E0074A0021DC
:10260800192000F03FFD002002E0112000E0052025
:1026180004B070BDC055FF1F9F25FF1F9525FF1FE4
:10262800F0B585B005000C00160042015F4B9B1801
:102638009B7E002B18D1013D6B1E9D416B425C4A6D
:1026480013405C4A944663440022019201325A4D79
:10265800D86F024200D175E00198411C0191A8424F
:10266800F6DD0D2005B0F0BD002E00D195E0002963
:1026780000D194E04D4B9B181979002900D190E0C6
:102688004A4B9B185B899E4200D98CE001291BD0DC
:102698001100464A52181289921903209A42E1DC25
:1026A80001F022FC6801414D2D182889EB689C46F1
:1026B80060443200210001F081F82A89B6182E8181
:1026C80001F0F2FB0020CDE74301384FFF1832003C
:1026D8002100F86801F072F83E810023FB80023384
:1026E8003B71F868331C102E00D910236C1E621E33
:1026F800944164422E4A14402E4A944664446268C7
:1027080002218A436260013B9BB26A01274989180A
:1027180006312A4F0A88561C0E80825C2270013BC3
:102728009BB2BB42F6D1002D08D1082000F0A0FCD6
:102738006368022213436360002093E7192000F0C6
:1027480097FCF5E7002E18D021000022944620259A
:10275800194FA419A4B2624602921A7D2A4206D1E0
:10276800029A501C0290BA42F7DD0D207AE70A78E7
:102778001A7001318AB29442EDD1002203924020AE
:102788000D4C1A7D024206D1039A511C0391A242B4
:10279800F7DD0D2066E7002064E7062062E70620E3
:1027A80060E703205EE703205CE7C046C055FF1FD3
:1027B80000B0FFFF00900040A0860100FFFF00006E
:1027C8001F2807D88022D2059168012383400B4334
:1027D800936070473F2808D88022D2055169203875
:1027E800012383400B435361F3E75F28F1D880222C
:1027F800D205116A4038012383400B431362E8E78E
:102808001F2807D88021C9058B680122824093437D
:102818008B6070473F2808D88021C9054B6920384C
:102828000122824093434B61F3E75F28F1D880216E
:10283800C9050B6A40380122824093430B62E8E7DE
:102848001F2818D80300153B012B0AD98022D2056E
:102858001168012383409943116011680B43136089
:1028680070478023DB0519682020814319601A68A6
:1028780002431A60F4E73F2819D80300353B032BBD
:1028880009D88023DB05D96810208143D960DA682C
:102898000243DA60E4E78022D205D16820380123B8
:1028A80083409943D160D1680B43D360D8E75F2850
:1028B800D6D88022D205516A4223181A413B834058
:1028C80099435162516A0B435362C9E710B5012815
:1028D8000DD000281FD01D4A116880235B050B43CB
:1028E80013601B4A13681B490B40136010BD17493E
:1028F8000B685B015B09A022920513430B60164B22
:102908001A6816491140164A0A431A601A68402183
:102918000A431A60DFE700210A3000F083FA002139
:102928000B2000F07FFA0C4B1968C02292000A4372
:102938001A601A6840218A431A6004490B685B01CF
:102948005B09B022120613430B60C4E714F0004081
:1029580018F00040FFFFF9FF1CF000407F00FEFF69
:1029680080FD010072B6074A136801331360064AF6
:10297800C0230421D1500023C03153508022D205F6
:102988005360FEE77808FF1F00F00040174B184A15
:102998001360184A1360184B184A1A600023184A23
:1029A8001360184AD82189021160174A9A218903AD
:1029B8001160164A16491160164A17491160174ADC
:1029C8001360174A1360174A1360174A1360174AAF
:1029D8001360174A1360174A1360174A1360174A9F
:1029E800012111601649C4228B507047841E0000D3
:1029F800140AFF1F380AFF1F08F00040000C0006E9
:102A08000CF0004010F0004014F0004018F00040B6
:102A1800404006011CF00040ABFF010020F00040E0
:102A280024F000402CF0004030F0004034F000402A
:102A3800A0F00040A4F00040A8F00040B8F000402A
:102A480000F00040F0B5C64600B586B08046049157
:102A5800049B002B2BD00026194C9025019600963C
:102A6800330002223100052001F02EFA02226359B8
:102A78001A42FCD120230593059B5A1E0592002B70
:102A8800FAD12368002BFCDA0F276F4401213800A4
:102A980001F0CAF93B78424613420CD0052001F0F8
:102AA800BBF9049B013B0493049B002BD6D105483A
:102AB80000F07CFCFEE7002006B080BCB846F0BD04
:102AC80000C80040741AFF1F00B583B001F00CFA6B
:102AD8008023DB05996A08230193002903D1802309
:102AE800DB0501229A620F4B02221A60019B5A1ED3
:102AF8000192002BFAD10B4B03221A600823019391
:102B0800019B5A1E0192002BFAD1064B00221A6033
:102B1800002902D18023DB059A6201F0C5F903B0D0
:102B280000BDC04600C0004010B5002001F064F9A7
:102B3800002010BD10B584B0264B1B78DBB20420F2
:102B4800022B02D8234B1878C0B2234B1A68234BA8
:102B58009A4237D000230093012101F08DF9204BD0
:102B6800204A9A6300221A6510325A6502249C652D
:102B78001D4B70328021C9029950C42080001A5818
:102B88001A491140802212040A431A5064230393FD
:102B98004120FFF715FE4020FFF712FE8023DB05DA
:102BA8005C62039B5A1E0392002BFAD18024E40531
:102BB80003336362FFF788FF0023A362FFF7B4FFC4
:102BC80004B010BD012300930023044A012101F041
:102BD80053F9C4E74A0AFF1F9C1CFF1F6B00020839
:102BE80000C80040050001FF00E100E0FFFF00FF12
:102BF80010B5054B1860FFF79DFF044A002113200C
:102C080000F040FA002010BD9C1CFF1F3D2BFF1F49
:102C1800F0B585B001900D001600374B1B78002BDE
:102C280067D10124344B1C7001F05EF9334B1F68E7
:102C38008022012149429950314A1A60002000F04F
:102C480069FF01F031F901F04FF902222D4B1A60AA
:102C58008023DB055A629C6201F026F92A489021FC
:102C6800022243581A42FCD120230293029B5A1E87
:102C78000292002BFAD1244A1368002BFCDA23496C
:102C88000120FFF7DFFE32002900019801F004F966
:102C980004001D489021022243581A42FCD12023E7
:102CA8000393039B5A1E0392002BFAD1164A13680A
:102CB800002BFCDA15490120FFF7C4FE01F014F9D6
:102CC8000025104B1D608023DB0503225A629D629C
:102CD80001F0EAF801F008F9084B1F60012000F044
:102CE80019FF01F0E1F8044B1D70FF20204005B0EA
:102CF800F0BD0F20FBE7C0460456FF1F00E100E0CF
:102D08001000100000C0004000C80040FFFFFF078F
:102D1800F0B583B0060001F0E7F8334B1C68802259
:102D2800012149429950314A1A60002000F0F2FE10
:102D380001F0BAF88027FF05BD6A01F0D5F8022333
:102D48002B4A13607B62013BBB6201F0ADF8294856
:102D58009021022243581A42FCD120230093009B61
:102D68005A1E0092002BFAD1224A1368002BFCDA73
:102D780021490120FFF766FE300001F045F8060002
:102D88001C489021022243581A42FCD12023019367
:102D9800019B5A1E0192002BFAD1164A1368002B88
:102DA800FCDA15490320FFF74DFE01F09DF80022DB
:102DB8000F4B1A608023DB05032159629A6201F0E8
:102DC80073F8002D0CD001F08FF8074B1C60012020
:102DD80000F0A0FE01F068F8FF20304003B0F0BD1D
:102DE800FFF772FEEFE7C04600E100E010001000B8
:102DF80000C0004000C80040FFFFFF07162807D8A2
:102E0800002906D0064AD168012383400B43D360CA
:102E180070470349CB68012282409343CB60F7E7B0
:102E28000038004030B516281AD843001B18134A3A
:102E3800D21853789478122813D8420010180F4AE1
:102E4800855CAD000E4A944665442A68181B01301B
:102E580001238340013BA3409A43A14011432960C9
:102E680030BD084805681A1B013201239340013B15
:102E7800A3409D43A14029430160F1E77018FF1F5B
:102E880008F0004014F0004010B50400C31F092BDF
:102E980016D8002908D10B490B68073C0122A2402B
:102EA80093430B60002010BD0021FFF7BBFF054ACC
:102EB8001168073C0123A3400B4313600020F2E78D
:102EC8000620F0E700380040002907D0074A51697A
:102ED8000238012383400B435361704703494B6910
:102EE80002380122824093434B61F6E700380040E4
:102EF80070B504000D00162835D81D4B1B185B78DB
:102F0800012B06D11A4B9B69C340DB0701D5002969
:102F18002BD000212000FFF771FFA31E012B11D930
:102F280000212000FFF7B0FF012D10D011494B6898
:102F38000122A24093434B600D4804190223637099
:102F4800002070BD01212000FFF7BEFFE8E7094916
:102F5800486801221300A34003434B600448041946
:102F680062700020EDE70520EBE70620E9E7C046A0
:102F78001056FF1F0080004010B50400162817D80F
:102F880043001B189B000B4A9B18002119701C3A20
:102F980012185170FFF7ACFF0123A34006490A68D5
:102FA8001A430A6005490A689A430A60002010BD5E
:102FB8000520FCE72C56FF1F34800040308000407D
:102FC80070B504000D00FF2800D170BD032606402F
:102FD800F600FFF7D1FFA3089B00074A9446634415
:102FE8001A683F21B1408A43B54015431D6001214D
:102FF8002000FFF703FFE8E71838004010B5124B30
:103008001B78002B1DD1104C982252000021200063
:1030180000F026FC012323700C4A0023136353633A
:103028000B4A136053600B4AC42189005358FF2090
:1030380083437F380343535080235B02136000208F
:1030480010BD0720FCE7C0461056FF1F0080004057
:10305800A0F0004000E100E010B57822002103480C
:1030680000F0FEFB00F010FF002010BD4057FF1FCE
:1030780010B500F009FF002010BD10B500F004FFE6
:10308800002010BDF0B5104C00232578854219D0DA
:10309800002D05D001330C340A2BF6D1032010E0A3
:1030A800094C7826A55D0835A5555D00EE18B600D3
:1030B800A61900277770EF18BF0038557160B26005
:1030C8000020F0BD0720FCE74057FF1F30B51F2345
:1030D80002009A430AD1072202400020054C7821B9
:1030E800635C0725AB431343635430BD00220620BD
:1030F800F4E7C0464057FF1F06480168064A782390
:10310800D25C5207130B054A0A40134303600020A0
:103118007047C0461CF000404057FF1FFFFFC1FF2B
:10312800034A136803490B4013600F207047C046D9
:1031380014F00040FFFFFFFBF0B5DE4657464E4651
:103148004546E0B595B005000E0017009B461F9B4D
:1031580099465B0600D4C5E08E4B9A464B46DB0683
:1031680003D501234A469A439146BB1E222B00D918
:10317800B1E04B46DA07D217102313402033472219
:1031880002A98C46624413704623634400221A70D5
:103198004B469B0710D5002E00DAA6E04B465B078E
:1031A80000D4CAE0462302AA944663442B221A702C
:1031B80001235B429C46E34420234A461A4001927D
:1031C8004A46134209D0102F00D1C5E03B00083B06
:1031D8005A4253415A46D31A9B46002E00D095E0D6
:1031E80003AB30221A700124A2461E9B9C4200DACF
:1031F8009A465B4652469B1A9B4611234A461342FF
:1032080014D1123B5B4498465B46002B00DCA8E0D7
:1032180002ABDE1C20239B465B4633700121300045
:10322800A8474346013B9846F6D2C346462302AA1E
:10323800944663441B78002B03D001214620604448
:10324800A847019B002B05D0082F00D18BE0102F39
:1032580000D18FE04B46DB060ED45B465E1E002B8A
:1032680000DC94E00121472302AA94466344180035
:10327800A847013EF6D2B34653465F1E631E9946E1
:1032880002ABDE1C30239846A24507DD4346337067
:1032980001213000A847013F4F45F7D1002C0DDD33
:1032A80003AF013C3C1902ABDE1C237833700121CB
:1032B8003000A8472300013CBB42F6D15B465C1EA8
:1032C800002B08DD02ABDE1C2027377001213000FF
:1032D800A847013CF9D215B0F0BCBB46B246A94696
:1032E800A046F0BD2C4B9A4638E7462363442D226E
:1032F8001A70764201235B429C46E34421334A46D6
:103308001A4001924A46134200D05CE70024013477
:10331800032302AA944663449846A0443900300027
:1033280000F052FD53465B5C424613703900300092
:1033380000F0C4FC061EEAD156E74B461B0700D432
:103348003AE7462302AA9446634420221A700123CE
:103358005B429C46E3442FE702235B429C46E344DE
:103368003BE7C34662E702ABD81C30230370012158
:10337800A8476FE7302302AAD3700121D01CA847C1
:10338800782302AAD3700121D01CA84762E7B3466C
:1033980072E7C046101BFF1FE81AFF1F10B50A008E
:1033A80001000020FFF73CF910BD00000FB4F0B594
:1033B800DE4657464E464546E0B589B012AB80CB4F
:1033C800079303933B78002B00D1B9E10025002631
:1033D800C94A904606E001353C00671C6378002B1B
:1033E80000D1A7E1252B04D0002EF4D13E00002502
:1033F800F1E7002D04D0A9B23000FFF7CFFF002677
:10340800002001239A461F339946183B9C46042501
:1034180008339B4602E05B46184327007C1C7B78F8
:103428001A00203AD1B210290ED88A0041468A588B
:1034380097462843F1E763461843EEE74B4618439F
:10344800EBE753461843E8E71A00303A092A14D93B
:103458002A2B21D001256D4223782E2B26D001233B
:103468005B422278682A45D0202117008F434C2FD1
:1034780040D00122524291463EE000251A00013414
:10348800AB005B195B009B18303B1D0022781300D2
:10349800303B092BF3D9DFE7BC1C039B20CB0393FC
:1034A800002DD9DA6D4210221043D5E7671C6378E6
:1034B8001A00303A092A04D92A2B16D03C000023D6
:1034C800CFE700211A0001378B005B185B009B18BF
:1034D800303B19003A781300303B092BF3D90B0025
:1034E800CA43D21713403C00BBE7A71C039B02CB7F
:1034F8000393F4E79146013427783A00413AD1B270
:10350800372900D9CDE08A007C498A58974610228D
:10351800B8E0C30622D5039B99460B2004AB9C4612
:1035280060444A4608CA914603700121FFF736FFF6
:10353800013D002D00DCF5E00B2704AB9C466744F9
:1035480020239A4653463B7001213800FFF726FF97
:10355800013D002DF6D14B4603933EE7013D002D7A
:10356800D9DD0B2704AB9C466744202399464B467C
:103578003B7001213800FFF711FF013D002DF6D106
:10358800C9E7039A02CA894693460A1E00D1E1E0B8
:1035980019001378002B36D0002936D049444B4601
:1035A80001331A78002A02D08B42F9D10B004A461F
:1035B8009B1A0393C3062AD5039B9A4699B2484699
:1035C800FFF7ECFE6F1E5346554500DCAEE00122C6
:1035D80052429446634499460B2504AB9C46654485
:1035E80020239A4623004C46994653462B700121C6
:1035F8002800FFF7D3FE013FA742F6D14C465B46B1
:1036080003930025E9E64B46D1E74B46CFE76B1E0F
:103618000493039A95421EDD013A9A460B2704ABA0
:103628009C4667445B460593A3465446AA46150044
:1036380020233B7001213800FFF7B0FE013CAC426B
:10364800F6D155465C46059B9B46039B5D1B049B38
:103658009C466544B0E7049DAEE76A1C0BD0039F07
:1036680002CF019000932B0010222548FFF764FD3C
:1036780003970025B1E6012210430935EFE7402200
:103688001043303A49466C292AD068293AD0810734
:1036980042D5039F02CF039725E002221043083248
:1036A800F0E7252F0ED00B2004AB9C466044252361
:1036B80003700121FFF772FE2778002F02D1013C29
:1036C80000258AE60B2004AB9C4660440770012164
:1036D800FFF764FE002580E60A22D3E70822D1E737
:1036E800039F02CF0397019000932B000448FFF734
:1036F80023FD002571E6C0460019FF1F4419FF1F6E
:10370800A533FF1F810703D5039F02CF0397EAE77D
:10371800039F02CF0397E6E7039F02CF0397E2E7F1
:1037280000255AE64B460393002556E65B4603936D
:10373800002552E6002D03D0A9B23000FFF72EFE77
:1037480009B0F0BCBB46B246A946A046F0BC08BCCE
:1037580004B018471900014B99461DE7381BFF1F95
:1037680030B587B002AA074B110031CB31C11B68B5
:103778000B600021009102980399049AFEF710FF4C
:1037880007B030BD241AFF1F10B58023DB050122C6
:103798009A620448044A121A002100F09DFBFEF7C1
:1037A80091FAFEE7A846FF1FBC5BFF1F024981F3A1
:1037B8000888FFF7E9FF00000043FF1FF0B5C64681
:1037C80000B50F2A41D903270D003E0005430C0020
:1037D80003002E402F423DD11500103D2D09A8466B
:1037E8002D01AC46844427681D001F6067685F6030
:1037F800A7689F60E7681034DF6010336545F2D131
:1038080045460F230C2401352D014919134045194C
:10381800144222D08C59AC5104369C1B032CF9D885
:10382800043B9B0801339B00ED18C91803231A4079
:10383800561E002A06D00023CC5C1A00EC54013333
:103848009642F9D180BCB846F0BD0500561E002A44
:10385800F1D1F7E70500561EEDE71A00F6E7C04676
:10386800F0B50500830749D0541E002A45D003004F
:103878000326CAB202E00135013C3ED301332A7067
:103888003342F8D1032C30D9FF220A4015021543E0
:103898002A0415430F2C34D92700103F3F093E0155
:1038A800B4461E001A0010366644156055609560CF
:1038B800D5601032B242F8D101373F01DB190F272A
:1038C8000C22274022403C00002A0ED03E1FB6089A
:1038D800B400A4461A001C1D644420C2A242FCD1B4
:1038E80003240136B6009B193C40002C05D0C9B210
:1038F8001C19197001339C42FBD1F0BD0300140060
:10390800C0E72700E2E7C046024670B50A439207BF
:103918002AD11E4DEE0104C808C9541B94433440F3
:1039280017D0D0B2D9B2401A2106014310D190B2B3
:1039380099B2401A210401430AD110021902000A5F
:10394800090A401A2102014302D1100E190E401A29
:1039580070BD9A42DFD010BA19BA884201D9012045
:1039680070BD0020C04370BD02780B780130013172
:10397800002A09D09A4207D102780B780130013128
:10398800002A01D09A42EFD0D01A70BD010101017E
:103998000722F0B5524C534E236889B013409B0060
:1039A8009B590090DB0B079380236268DB021A4265
:1039B80002D1626813436360182322684A4F134395
:1039C800236023685B015B0F18000193B84705006B
:1039D8000098B84705430120444B28409847009B6E
:1039E8009B00F258424B1A60079B5A1E0792002B05
:1039F800FAD180220126D205936876420293536950
:103A08003C4F03933C4B19684900490804913B49D2
:103A1800CE678C467968490049080591C02149005C
:103A28005E503749916021215161802212061A6047
:103A3800C20703D58022A1680A43A260820704D581
:103A48008022A16852000A43A2606E03002D0ED0A6
:103A58000E22154205D0A1680D3A10437F320A4361
:103A6800A260F022A168520232400A43A260226892
:103A780001995201520F914206D02168214A0A4009
:103A8800019909060A43226007212268009D0A401D
:103A9800954203D022688A432A4322601A491B4A66
:103AA8000C68C001224002430A600A6818480240B4
:103AB80032430A60029A124903980A438021C905D1
:103AC8008A60012202434A61802261460020120670
:103AD800CA67059A7A60049A1A6009B0F0BDC046B0
:103AE8003CF00040E07B0100018C0000A98A000046
:103AF8007408FF1FFCE100E000E100E004E100E0E1
:103B080001000800FFFFFFF844F000407FFEFFFFC0
:103B1800FF1FFEFF70B5144B002811D00022134878
:103B2800134D14334030D15C002905D0940024583B
:103B3800002C01D089004C510132102AF3D170BDFC
:103B480014331A00040009494031835C002B06D065
:103B5800074D9B005B191E6885006E501C60013084
:103B68001028F2D1EBE7C046A01CFF1F4858FF1FE2
:103B78000000FF1F10B500F093F810BD10B500F05D
:103B88003FF810BD73B580241025E405A6682E43C0
:103B9800A660019300920B0002000449044800F05B
:103BA8001BF9A368AB43A36076BDC046302800115B
:103BB800A85BFF1F73B580241025E405A6682E4373
:103BC800A660019300920B0002000449044800F02B
:103BD80033F9A368AB43A36076BDC0463028001113
:103BE800A85BFF1F0023034A1360034A1360034ABC
:103BF8001360704754F0004040F1004044F1004029
:103C080070B50025194E8CB0337802951C000395C9
:103C1800012B1FD0012002A900F01EF92C00A84298
:103C280018D1029B12490493039B08AA0593019398
:103C3800104B04A81B6806930F4B1B68079300F0F2
:103C480003F910220D4908A800F036F9A84204D15A
:103C5800FF23337020000CB070BD01240749321DCA
:103C680004A8347000F0F0F8F4E7C046A45BFF1F26
:103C780010290011082900110C2900112029001110
:103C880013B501246946012000F0E6F8034B0094BF
:103C98000193FFF7B5FF200016BDC046BB0B00001F
:103CA80010B5FFF79FFFFFF7EBFF002802D0024B8C
:103CB800984710BDFEE7C046E1A200000022430875
:103CC8008B4274D303098B425FD3030A8B4244D3DC
:103CD800030B8B4228D3030C8B420DD3FF2209021E
:103CE80012BA030C8B4202D31212090265D0030BDD
:103CF8008B4219D300E0090AC30B8B4201D3CB03D3
:103D0800C01A5241830B8B4201D38B03C01A524114
:103D1800430B8B4201D34B03C01A5241030B8B4216
:103D280001D30B03C01A5241C30A8B4201D3CB0201
:103D3800C01A5241830A8B4201D38B02C01A5241E6
:103D4800430A8B4201D34B02C01A5241030A8B42E9
:103D580001D30B02C01A5241CDD2C3098B4201D301
:103D6800CB01C01A524183098B4201D38B01C01A7F
:103D7800524143098B4201D34B01C01A52410309F6
:103D88008B4201D30B01C01A5241C3088B4201D3A5
:103D9800CB00C01A524183088B4201D38B00C01A52
:103DA800524143088B4201D34B00C01A5241411A79
:103DB80000D20146524110467047FFE701B5002086
:103DC80000F006F802BDC0460029F7D076E7704734
:103DD8007047C0460000000001B40248844601BC98
:103DE800604700BF1D53010001B40248844601BC6E
:103DF800604700BFD1A5000001B40248844601BC59
:103E0800604700BF0972010001B40248844601BC42
:103E1800604700BFA96F010001B40248844601BC95
:103E2800604700BF0189000001B40248844601BC14
:103E3800604700BF3D71010001B40248844601BCDF
:103E4800604700BF3953010001B40248844601BCF1
:103E5800604700BFC53F000001B40248844601BC6A
:103E6800604700BFE1AC000001B40248844601BCD1
:103E7800604700BFC9A9000001B40248844601BCDC
:103E8800604700BFC56D010001B40248844601BC0B
:103E9800604700BF21A9000001B40248844601BC64
:103EA800604700BF4D74010001B40248844601BC5C
:103EB800604700BF9DA9000001B40248844601BCC8
:103EC800604700BFCD4C010001B40248844601BCE4
:103ED800604700BF496D010001B40248844601BC37
:103EE800604700BF154D010001B40248844601BC7B
:103EF800604700BF75A90000000000000000000036
:103F080000000000000000000000000000000000A9
:103F18000000000000000000000000000000000099
:103F28000000000000000000000000000000000089
:103F38000000000000000000000000000000000079
:10430000000001CC01D8001401F0003C002801E4B9
:1043100001A0006C007801B40050019C01880044A9
:10432000000000000000000000000000000000008D
:0C43300000000000000000000000000081
:04433C00F8B5C046CA
:04434000F8B5C046C6
:10434800F0B5002A1BD08D180D4C0F260A783700BF
:1043580007407F0000093B5B4340300010404000AD
:10436800005B4340300018404000005B12095200D7
:104378001B09125B534058400131A942E6D1F0BDF8
:104388000043FF1F30B58023DB059D6A0B001343F4
:1043980003439B0724D1164C164BCB18A34221D8B4
:1043A800002D21D10224144B1C608023DB055C62A4
:1043B800013C9C62002A09D00023CC182468C45010
:1043C80004339A42F9D80020002D0AD100220A4B62
:1043D8001A608023DB05032159629A62002000E0FD
:1043E8000C2030BD1020FCE7002AE5D10020F8E7BA
:1043F800FECF070000D0FFEE00C00040F0B5DE465B
:1044080057464E464546E0B589B0002307930693C4
:104418000422834907A8FFF7B5FF079B5A1C00D160
:10442800EAE0013B1F2B00D9E8E004227D4906A8F9
:10443800FFF7A8FF069B022B07D0012B08D9032BF7
:1044480000D0E3E00023019304E0774B019301E0FF
:10445800764B0193FFF792FB02900090642305933B
:10446800059F7B1E0593002FFAD1714804227149DC
:104478002030FFF787FF079B0133012B00D8B7E0F7
:104488006D4C002398460125694E24339B46B3445E
:104498003300B24630330393B94647465CE0644B79
:1044A8009B6A994675E0020E112A00D085E0009BB0
:1044B800002B15D0614B5E4A126A9A4246D05C4B7B
:1044C800984634330022FFF775FB43465A6B1B6B43
:1044D8009A423BD05A4B02221A60FEF743FA35E063
:1044E800564B534A126A9A4230D00A000100002003
:1044F800FFF726FF4E4B586343461B041B0C98429C
:1045080024D04F4B02221A60FEF72CFA1EE0019AC3
:10451800944660440A0001001800FFF733FF474B38
:10452800434A126A9A4260D0414FFA6AB96A002037
:10453800FFF706FF78633B8E0127984206D0404B71
:1045480002221A60FEF70EFA00E001270135103446
:10455800079B0133AB424AD9042221005846FFF792
:1045680011FF211D300028300422FFF70BFF210026
:10457800083130002C300422FFF704FF21000C31F1
:10458800300030300422FFF7FDFE002F01D1012D4D
:1045980085D05346586A431C3AD0254B9B6A5A1C0F
:1045A80038D0234AD16A4A1C36D0214A126B904629
:1045B800013233D0984200D175E71A0C1204214F0A
:1045C800BA42C2D0009A002AA1D0019A9446604407
:1045D800039AFFF7D7FA029F0028B7D0184B022298
:1045E8001A60FEF7BFF9029FB0E70127AEE74F4612
:1045F8000F4B9F63002002E0672000E0682009B0AD
:10460800F0BCBB46B246A946A046F0BD6820F6E716
:104618006720F4E76720F2E76720F0E76720EEE716
:104628000030001104300011CB08AF320010011126
:104638000043FF1FF03F0011103000115A5AA5A582
:1046480034F000400000FFFF10B500F019F8FFF744
:10465800D5FE0300084A1068002800D107488022C8
:10466800D20501219162002B03D000F011F800203F
:1046780010BDFDF7F5FBF8E73843FF1F3818FF1F9B
:1046880001B40248844601BC604700BF75A9000018
:1046980001B40248844601BC604700BF9DA90000E0
:040000051FFF37B5ED
:00000001FF
